:020000040000FA
:06000000EAEF0EF0120011
:0600080031EF0EF01200C2
:06002A000200381E000078
:10003000BC00000003000000EC1D00006000000098
:040040004C00000070
:0C0044006CEC0CF000016451020A02E1B7
:100050005CEF06F0030A02E144EF04F0010A02E05B
:1000600007EF08F0000183510B0A01E1CAD3010A2E
:1000700001E1B3D3030A01E16AD3010A01E12DD200
:100080000F0A01E116D2010A01E172D1030A01E16E
:1000900060D1010A01E130D1070A01E1E9D0010A8A
:1000A00001E1C7D0030A01E18AD0010A01E0E3D3EC
:1000B000A69E040EA96EA680A8CF60F0A69EA96A8F
:1000C000A680A8500001886F896B000188C089F064
:1000D000886BA69E010EA96EA680A850000188110B
:1000E0000001886F89C089F00001260ED8808855EC
:1000F000020E895508E30001D50E886F020E896F44
:100100000001500E606FA69E020EA96EA680A85038
:1001100000018C6F8D6B00018CC08DF08C6BA69EE6
:10012000030EA96EA680A85000018C1100018C6FEF
:100130008DC08DF00001CC0E8C5D010E8D5908E351
:100140000001330E8C6F010E8D6F0001500E606F39
:10015000A69E050EA96EA680A8CF65F0A69E060EE7
:10016000A96EA680A8CF67F088C08AF089C08BF0FE
:100170008CC08EF08DC08FF060C061F00001B66B56
:1001800009EC08F00001B76B48EC08F000018405A9
:1001900007E10001650504E10001070E836F0ED041
:1001A0000001840508E1020E0001655D04E1000123
:1001B0000A0E836F03D00001010E836F64D3000128
:1001C0007B5106E00001856B0001020E836F5BD35B
:1001D00000017C5107E00001010E856F0001020E55
:1001E000836F51D300017D5107E00001020E856F3E
:1001F0000001020E836F47D300017E5107E000012A
:10020000030E856F0001020E836F3DD300017A510A
:1002100007E00001040E856F0001020E836F33D3E7
:100220000001010E836F0001020EB66F09EC08F0A9
:100230002AD300017B5112E100017C510FE1000142
:100240007D510CE100017E5109E100017A5106E186
:100250000001785103E10001030E836F0001B76BC9
:1002600048EC08F00001020EB66F09EC08F00BD361
:1002700000017B5106E00001866B0001040E836FD4
:1002800002D300017C5107E00001010E866F0001DE
:10029000040E836FF8D200017D5107E00001020EC9
:1002A000866F0001040E836FEED200017E5107E0DD
:1002B0000001030E866F0001040E836FE4D200017B
:1002C0007A5107E00001040E866F0001040E836F6F
:1002D000DAD20001785107E00001090E866F0001B3
:1002E000040E836FD0D20001020EB66F09EC08F045
:1002F0000001030E836FC7D200017B5124E100018E
:100300007C5121E100017D511EE100017E511BE184
:1003100000017A5118E10001785115E10001865180
:100320000001855D08E10001010EB76F48EC08F09F
:100330000001010E836F000186510001855D03E01D
:100340000001050E836F0001020EB66F09EC08F084
:100350009AD2090E0001865D03E00001060E836F4C
:10036000090E0001865D03E10001090E836F8BD247
:1003700000016751070A01E185D0010A72E0030A12
:1003800060E0010A4DE0070A39E0010A26E0030AAD
:1003900014E0010A01E088D0000185050AE1020E9F
:1003A0000001865D06E167C066F00001070E836FFD
:1003B00003D00001080E836F7BD00001850509E1A1
:1003C0000001865106E167C066F00001070E836FE9
:1003D00003D00001080E836F6BD0000185510AE144
:1003E000020E0001865D06E167C066F00001070E9F
:1003F000836F03D00001080E836F5AD0020E0001F4
:10040000855D0AE1030E0001865D06E167C066F0C6
:100410000001070E836F03D00001080E836F48D0E0
:10042000000185510AE1030E0001865D06E167C007
:1004300066F00001070E836F03D00001080E836F82
:1004400037D00001855109E10001860506E167C04A
:1004500066F00001070E836F03D00001080E836F62
:1004600027D0000185050AE1030E0001865D06E143
:1004700067C066F00001070E836F03D00001080E0D
:10048000836F16D0030E0001855D0AE1020E0001A4
:10049000865D06E167C066F00001070E836F03D03A
:1004A0000001080E836F04D00001080E836F00D096
:1004B000EAD10001785107E00001010E646F0001EC
:1004C000836B0001846B0001030EB66F09EC08F02A
:1004D0000001B76B48EC08F0D6D1040E0001855D31
:1004E00030E100018651030A1CE0010A13E0030A0F
:1004F0000AE0010A01E01CD00001010E666F000154
:10050000070E836F1ED00001050E666F0001070EF7
:10051000836F17D00001020E666F0001070E836F14
:1005200010D00001030E666F0001070E836F09D023
:100530000001080E836F0001010EB76F48EC08F050
:1005400000D0040E0001865D30E100018551030AF0
:100550001CE0010A13E0030A0AE0010A01E01CD0D2
:100560000001010E666F0001070E836F1ED00001AF
:10057000050E666F0001070E836F17D00001020E93
:10058000666F0001070E836F10D00001030E666FC7
:100590000001070E836F09D00001080E836F000170
:1005A000010EB76F48EC08F000D0040E0001855D25
:1005B00001E1CCD0040E0001865D01E1C7D000014D
:1005C0008551030A01E18CD0010A5EE0030A30E0A4
:1005D000010A01E0B2D000018651030A18E0010AC5
:1005E0000FE0030A06E0010A01E018D00001836B66
:1005F0001ED00001010E666F0001070E836F17D039
:100600000001020E666F0001070E836F10D000011B
:10061000040E666F0001070E836F09D00001080EFB
:10062000836F0001010EB76F48EC08F000D08ED048
:1006300000018651030A17E0010A0FE0030A0AE0ED
:10064000010A01E017D00001010E666F0001070EDC
:10065000836F19D00001836B16D00001666B000117
:10066000070E836F10D00001060E666F0001070EA3
:10067000836F09D00001080E836F0001010EB76F70
:1006800048EC08F000D062D000018651030A17E060
:10069000010A12E0030A0AE0010A01E017D0000192
:1006A000020E666F0001070E836F19D00001666BA2
:1006B0000001070E836F13D00001836B10D000017F
:1006C000030E666F0001070E836F09D00001080E4C
:1006D000836F0001010EB76F48EC08F000D036D0F0
:1006E00000018651030A1CE0010A13E0030A0AE034
:1006F000010A01E018D00001040E666F0001070E28
:10070000836F1AD00001060E666F0001070E836F1B
:1007100013D00001030E666F0001070E836F0CD02B
:100720000001836B09D00001080E836F0001010EE8
:10073000B76F48EC08F000D009D00001080E836FB5
:100740000001010EB76F48EC08F000D09CD000010A
:100750006751030A30E0010A20E0030A11E0010AB0
:1007600001E036D0020E0001855D06E167C066F04B
:1007700000010A0E836F03D000010B0E836F2CD093
:100780000001855106E167C066F000010A0E836F23
:1007900003D000010B0E836F1FD0030E0001855D97
:1007A00006E167C066F000010A0E836F03D0000106
:1007B0000B0E836F11D00001850506E167C066F05E
:1007C00000010A0E836F03D000010B0E836F04D06B
:1007D00000010B0E836F00D056D00001785107E066
:1007E0000001020E646F0001836B0001846B000145
:1007F000030EB66F09EC08F00001B76B48EC08F087
:1008000042D0040E0001855D06E10001666B000127
:100810000A0E836F2FD000018551030A1BE0010AE5
:1008200013E0030A0AE0010A01E01BD00001010EF7
:10083000666F00010A0E836F1DD00001030E666F04
:1008400000010A0E836F16D00001666B00010A0ECC
:10085000836F10D00001020E666F00010A0E836FD5
:1008600009D000010B0E836F0001010EB76F48EC39
:1008700008F000D008D00001836B0001010EB76FB3
:1008800048EC08F000D0C4D300016651070A01E12A
:100890009BD0010A01E184D0030A6FE0010A59E00C
:1008A000070A44E0010A2EE0030A17E0010A01E00A
:1008B0009ED00001B96B0001020EB86F87EC08F002
:1008C00000090AE10001010E666F99EC0DF00001CC
:1008D000840502E10001646B8BD00001020EB96F48
:1008E0000001010EB86F87EC08F000090AE1000171
:1008F000020E666F99EC0DF00001840502E1000123
:10090000646B76D00001030EB96F0001B86B87EC01
:1009100008F000090AE10001030E666F99EC0DF082
:100920000001840502E10001646B62D00001B96B33
:100930000001020EB86FEBDB00090AE10001040EB2
:10094000666F99EC0DF00001840502E10001646B13
:100950004FD00001010EB96F0001030EB86FD7DB55
:1009600000090AE10001050E666F99EC0DF0000127
:10097000840502E10001646B3BD00001030EB96FF6
:100980000001B86BC4DB00090AE10001060E666FC6
:1009900099EC0DF00001840502E10001646B28D0A0
:1009A0000001020EB96F0001010EB86FB0DB000943
:1009B0000AE10001070E666F99EC0DF00001840555
:1009C00002E10001646B14D00001010EB96F000157
:1009D000030EB86F9CDB000909E10001666B99EC1E
:1009E0000DF00001840502E10001646B01D000D02C
:1009F00000018751020A34E0030A17E0010A01E00E
:100A000043D100017C510BE000017E5108E0000160
:100A1000010E876F0001030EB76F3ADB05D00001AE
:100A2000876B0001B76B34DB35D100017C510BE1E2
:100A300000017E5108E10001020E876F0001030EE4
:100A4000B76F26DB07D00001010E876F0001030E90
:100A5000B76F1EDB0001100E9A6F270E9B6F1AD125
:100A600000017C510EE100017E510BE100017D513E
:100A700008E100017B5105E100019A07000E9B5B34
:100A800005D00001100E9A6F270E9B6F0001030E18
:100A9000B76FFEDA00017B51010A06E0010A01E0AE
:100AA00039D000017F6B37D000017F51010A1CE073
:100AB000010A01E02BD00001260E885D020E895943
:100AC00004E300018807000E895B0001CC0ED8808A
:100AD0008C55010E8D5504E300018C2B000E8D23E7
:100AE0000001010E7F6F15D00001140E945D000E01
:100AF000955907E30001946B956B00017F6B09D05A
:100B000004D00001942B000E952303D000017F6BCD
:100B100000D001D000D000017C51010A06E0010A9A
:100B200001E039D00001806B37D000018051010A0B
:100B30001CE0010A01E02BD00001FE0ED880885590
:100B4000030E895504E30001882B000E8923000160
:100B5000010E8C5D000E8D5904E300018C07000E20
:100B60008D5B0001010E806F15D00001140E945DA5
:100B7000000E955907E30001946B956B0001806BA3
:100B800009D004D00001942B000E952303D000015E
:100B9000806B00D001D000D000017D51010A06E039
:100BA000010A01E031D00001816B2FD00001815199
:100BB000010A14E0010A01E023D000016051026E35
:100BC000036A033404E20250FA08000E035402E3FD
:100BD0000001602B0001010E816F15D00001140E81
:100BE000945D000E955907E30001946B956B00012D
:100BF000816B09D004D00001942B000E952303D003
:100C00000001816B00D001D000D000017E51010AAB
:100C100006E0010A01E02AD00001826B28D0000121
:100C20008251010A0DE0010A01E01CD0010E000111
:100C3000605D02E3000160070001010E826F15D0C4
:100C40000001140E945D000E955907E30001946BAA
:100C5000956B0001826B09D004D00001942B000E2B
:100C6000952303D00001826B00D001D000D0000199
:100C7000010ED8809A55000E9B5505E30001876B45
:100C80000001B76B05DA06D00001876B0001B76B76
:100C9000FFD900D00001795103E00001010E846FFB
:100CA0000001840504E10001020EB76FF1D90001D3
:100CB000010EB66FAED9ACD100016651030A41E016
:100CC000010A2BE0030A16E0010A01E04DD0000101
:100CD000B96B0001020EB86F1ADA00090AE10001CF
:100CE000010E666F99EC0DF00001840502E1000130
:100CF000646B3BD00001030EB96F0001B86B07DADB
:100D000000090AE10001020E666F99EC0DF0000186
:100D1000840502E10001646B28D00001010EB96F67
:100D20000001030EB86FF3D900090AE10001030EB8
:100D3000666F99EC0DF00001840502E10001646B1F
:100D400014D00001020EB96F0001010EB86FDFD997
:100D5000000909E10001666B99EC0DF000018405C2
:100D600002E10001646B01D000D000018751020A4A
:100D700034E0030A17E0010A01E043D100017C518D
:100D80000BE000017E5108E00001010E876F0001B9
:100D9000030EB76F7DD905D00001876B0001B76BDB
:100DA00077D935D100017C510BE100017E5108E17A
:100DB0000001020E876F0001030EB76F69D907D0DB
:100DC0000001010E876F0001030EB76F61D90001AA
:100DD000100E9A6F270E9B6F1AD100017C510EE105
:100DE00000017E510BE100017D5108E100017B51C2
:100DF00005E100019A07000E9B5B05D00001100E73
:100E00009A6F270E9B6F0001030EB76F41D9000147
:100E10007B51010A06E0010A01E039D000017F6B35
:100E200037D000017F51010A1CE0010A01E02BD0FC
:100E30000001260E885D020E895904E3000188072F
:100E4000000E895B0001CC0ED8808C55010E8D55AB
:100E500004E300018C2B000E8D230001010E7F6F37
:100E600015D00001140E945D000E955907E30001A2
:100E7000946B956B00017F6B09D004D00001942B1B
:100E8000000E952303D000017F6B00D001D000D06D
:100E900000017C51010A06E0010A01E039D000019D
:100EA000806B37D000018051010A1CE0010A01E08B
:100EB0002BD00001FE0ED8808855030E895504E31F
:100EC0000001882B000E89230001010E8C5D000EAD
:100ED0008D5904E300018C07000E8D5B0001010EAB
:100EE000806F15D00001140E945D000E955907E334
:100EF0000001946B956B0001806B09D004D0000158
:100F0000942B000E952303D00001806B00D001D0FC
:100F100000D000017D51010A06E0010A01E031D054
:100F20000001816B2FD000018151010A14E0010AF8
:100F300001E023D000016051026E036A033404E231
:100F40000250FA08000E035402E30001602B000176
:100F5000010E816F15D00001140E945D000E95599D
:100F600007E30001946B956B0001816B09D004D0FD
:100F70000001942B000E952303D00001816B00D05B
:100F800001D000D000017E51010A06E0010A01E013
:100F90002AD00001826B28D000018251010A0DE0A5
:100FA000010A01E01CD0010E0001605D02E30001B6
:100FB00060070001010E826F15D00001140E945DD0
:100FC000000E955907E30001946B956B0001826B4D
:100FD00009D004D00001942B000E952303D000010A
:100FE000826B00D001D000D00001010ED8809A554C
:100FF000000E9B5505E30001876B0001B76B48D8D5
:1010000006D00001876B0001B76B42D800D000D03A
:1010100012000001B651030A22E0010A09E0030AA6
:1010200005E0010A01E032D0839C31D0838C2FD0BF
:101030000001962B000E97230001B80E965D0B0E53
:10104000975903E30001966B976B0001DC0E965DE8
:10105000050E975902E3838C01D0839C18D00001C0
:10106000962B000E97230001E80E965D030E97590C
:1010700003E30001966B976B0001F40E965D010E81
:10108000975902E3838C01D0839C01D000D01200D9
:101090000001B751030A22E0010A09E0030A05E052
:1010A000010A01E032D0839A31D0838A2FD0000127
:1010B000982B000E99230001B80E985D0B0E9959DC
:1010C00003E30001986B996B0001DC0E985D050E3F
:1010D000995902E3838A01D0839A18D00001982B92
:1010E000000E99230001E80E985D030E995903E361
:1010F0000001986B996B0001F40E985D010E9959EF
:1011000002E3838A01D0839A01D000D0120000014B
:101110006851040A01E147D1070A01E1DBD0010A65
:1011200001E19FD0030A50E0010A01E075D10001FE
:10113000B851010A38E0010A26E0030A13E0010A67
:1011400001E040D00001BB6B0001010EBA6F6CDB07
:10115000000905E10001010E686F00019C690001B2
:101160009C6931D00001010EBB6F0001010EBA6F06
:101170005BDB000905E10001010E686F00019C695D
:1011800000019C6920D00001010EBB6F0001BA6B09
:101190004BDB000905E10001010E686F00019C694D
:1011A00000019C6910D00001BB6B0001BA6B3CDBF5
:1011B000000905E10001010E686F00019C69000152
:1011C0009C6901D000D02BD10001B951010A38E04F
:1011D000010A26E0030A13E0010A01E040D0000101
:1011E000BB6B0001010EBA6F1FDB000905E10001B6
:1011F000020E686F00019C6900019C6931D00001FA
:10120000010EBB6F0001010EBA6F0EDB000905E194
:101210000001020E686F00019C6900019C6920D0EA
:101220000001010EBB6F0001BA6BFEDA000905E197
:101230000001020E686F00019C6900019C6910D0DA
:101240000001BB6B0001BA6BEFDA000905E1000198
:10125000020E686F00019C6900019C6901D000D0FA
:10126000DED00001B951010A28E0010A1BE0030A9F
:101270000EE0010A01E02CD0D6D9000905E10001F9
:10128000030E686F00019C6900019C6922D0CBD9D4
:10129000000905E10001030E686F00019C6900016F
:1012A0009C6917D0C0D8000905E10001030E686FE2
:1012B00000019C6900019C690CD0B5D8000905E1CA
:1012C0000001030E686F00019C6900019C6901D058
:1012D00000D0A5D00001B951010A4CE0010A33E069
:1012E000030A1AE0010A01E05CD000016D0505E186
:1012F0000001040E686F00019C6988C0E6FF89C088
:10130000E6FFBBEC0EF0E552E55288C090F089C0D4
:1013100091F000019C6946D000016E0505E10001D5
:10132000040E686F00019C6988C0E6FF89C0E6FF73
:10133000BBEC0EF0E552E55288C090F089C091F008
:1013400000019C692FD000016F0505E10001040E2A
:10135000686F00019C698CC0E6FF8DC0E6FFBBECA6
:101360000EF0E552E5528CC090F08DC091F0000176
:101370009C6918D00001700505E10001040E686F3A
:1013800000019C698CC0E6FF8DC0E6FFBBEC0EF04F
:10139000E552E5528CC090F08DC091F000019C693F
:1013A00001D000D03CD00001B951010A28E0010A67
:1013B0001BE0030A0EE0010A01E02CD0B3D90009BA
:1013C00005E10001686B00019C6B25D000019C6960
:1013D00022D0A8D9000905E10001686B00019C6BCF
:1013E0001AD000019C6917D09DD8000905E10001C1
:1013F000686B00019C6B0FD000019C690CD092D8E7
:10140000000905E10001686B00019C6B04D000013C
:101410009C6901D000D003D00001686B00D00001AE
:101420009C5100D0120000016351030A4CE0010AF4
:1014300031E0030A1BE0010A01E06FD00001880ED1
:101440009E5D130E9F5909E30001010E636F0001B9
:101450009E6B9F6B00019D6961D000019E2B000E69
:101460009F230001636B00019D6958D0CC0EE66E8E
:10147000010EE66EBBEC0EF0E552E5520001CC0E1B
:10148000906F010E916F82900001020E636F000158
:101490009D6944D00001100E9E5D270E9F5909E3FF
:1014A0000001030E636F00019E6B9F6B00019D693D
:1014B00035D000019E2B000E9F230001020E636FAA
:1014C00000019D692BD090C0E6FF91C0E6FFBBEC08
:1014D0000EF0E552E55200019D69000190510001B6
:1014E0008C5D0001915100018D5905E30001636B92
:1014F00000019D6B13D000012D0E925D000E9359DB
:1015000007E300019007000E915B0001926B936B63
:101510000001922B000E932301D000D000019D51B9
:1015200000D0120000016351030A60E0010A4AE0A2
:10153000030A2FE0010A01E071D090C0E6FF91C0DC
:10154000E6FFBBEC0EF0E552E5520001A069000198
:10155000CC0E905D010E915906E30001010E636F00
:101560000001A0695CD000016051026E036A0001B5
:101570000250925D0350935907E30001902B000E37
:1015800091230001926B936B0001922B000E932329
:1015900046D00001100EA15D270EA25909E30001FB
:1015A000020E636F0001A16BA26B0001A06937D02E
:1015B0000001A0690001A12B000EA2230001010E71
:1015C000636F2DD0CC0EE66E010EE66EBBEC0EF016
:1015D000E552E55282800001CC0E906F010E916FB2
:1015E0000001030E636F0001A06919D00001880E8D
:1015F000A15D130EA25908E30001636B0001A16B0A
:10160000A26B0001A06B0BD00001A12B000EA22346
:101610000001030E636F0001A06901D000D000013A
:10162000A05100D0120000016351030A4CE0010AEE
:1016300031E0030A1BE0010A01E06FD00001880ECF
:10164000A45D130EA55909E30001010E636F0001AB
:10165000A46BA56B0001A36961D00001A42B000E4F
:10166000A5230001636B0001A36958D0260EE66E26
:10167000020EE66EBBEC0EF0E552E5520001260EBE
:10168000906F020E916F82900001A3690001020E1B
:10169000636F44D00001100EA45D270EA55909E325
:1016A0000001030E636F0001A46BA56B0001A36929
:1016B00035D00001A3690001A42B000EA523000171
:1016C000020E636F2BD090C0E6FF91C0E6FFBBEC2B
:1016D0000EF0E552E552000188510001905D0001D5
:1016E00089510001915905E30001636B0001A36B6F
:1016F00015D000012D0E925D000E935907E30001F5
:10170000902B000E91230001926B936B0001922BA2
:10171000000E93230001A36901D000D00001A35162
:1017200000D0120000016351030A61E0010A4BE09E
:10173000030A30E0010A01E072D090C0E6FF91C0D8
:10174000E6FFBBEC0EF0E552E5520001260ED88014
:101750009055020E915506E30001010E636F0001E2
:10176000A6695ED000016051026E036A000102505A
:10177000925D0350935907E300019007000E915BBF
:101780000001926B936B0001922B000E93230001DA
:10179000A66946D00001100EA75D270EA85909E3DF
:1017A0000001020E636F0001A76BA86B0001A66920
:1017B00037D00001A6690001A72B000EA823000165
:1017C000010E636F2DD0260EE66E020EE66EBBECA8
:1017D0000EF0E552E55282800001260E906F020E57
:1017E000916F0001030E636F0001A66919D000011B
:1017F000880EA75D130EA85908E30001636B000172
:10180000A76BA86B0001A66B0BD00001A72B000EE5
:10181000A8230001030E636F0001A66901D000D068
:101820000001A65100D0120000016251020A46E0F8
:10183000030A2BE0010A01E04AD00001A969000176
:10184000BA51010A10E0010A01E01AD00001BB51AF
:10185000010A05E0010A01E004D0808603D08084FB
:1018600001D000D00ED00001BB51010A05E0010AF1
:1018700001E004D0808203D0808001D000D001D06C
:1018800000D00001010E626F23D00001200EAA5D7E
:10189000030EAB5909E30001020E626F0001AA6B4F
:1018A000AB6B0001A96914D00001A9690001010E08
:1018B000626F0001AA2B000EAB230AD080968094A1
:1018C000809280900001626B0001A96B01D000D072
:1018D0000001A95100D012008350040B01E0010E59
:1018E000000A08E0010A01E011D00001696B000163
:1018F000706B0DD000016951140804E30001692BDD
:1019000006D003D00001010E706F01D000D08350CB
:10191000080B01E0010E000A08E0010A01E011D005
:1019200000016A6B00016F6B0DD000016A51140851
:1019300004E300016A2B06D003D00001010E6F6F93
:1019400001D000D08350010B000A08E0010A01E039
:1019500011D000016B6B00016E6B0DD000016B515B
:10196000140804E300016B2B06D003D00001010E24
:101970006E6F01D000D08350020B01E0010E000A0F
:1019800008E0010A01E011D000016C6B00016D6BF1
:101990000DD000016C51140804E300016C2B06D03B
:1019A00003D00001010E6D6F01D000D08150010BFA
:1019B000010A000A0FE0010A01E011D00001715193
:1019C000140804E30001712B0BD003D00001010EB9
:1019D000786F06D00001716B0001786B01D000D0E8
:1019E0008350800B800A01E0010E000A0FE0010A1B
:1019F00001E011D000017251140804E30001722BC0
:101A00000BD003D00001010E796F06D00001726B7C
:101A10000001796B01D000D08150020B020A01E075
:101A2000010E000A0FE0010A01E011D0000173511C
:101A3000140804E30001732B0BD003D00001010E46
:101A40007A6F06D00001736B00017A6B01D000D071
:101A50008150200B200A01E0010E000A0FE0010A6C
:101A600001E011D000017451140804E30001742B4B
:101A70000BD003D00001010E7B6F06D00001746B08
:101A800000017B6B01D000D08150100B100A01E0E7
:101A9000010E000A0FE0010A01E011D000017551AA
:101AA000140804E30001752B0BD003D00001010ED4
:101AB0007C6F06D00001756B00017C6B01D000D0FB
:101AC0008150080B080A01E0010E000A0FE0010A2C
:101AD00001E011D000017651140804E30001762BD7
:101AE0000BD003D00001010E7D6F06D00001766B94
:101AF00000017D6B01D000D08150040B040A01E08D
:101B0000010E000A0FE0010A01E011D00001775137
:101B1000140804E30001772B0BD003D00001010E61
:101B20007E6F06D00001776B00017E6B01D000D084
:101B30001200F26AA69EA684010EA96E88C0A8FFB4
:101B4000550EA76EAA0EA76EA682A1A8FED7A198D1
:101B5000A69EA684A96A89C002F0036A0250A86EF4
:101B6000550EA76EAA0EA76EA682A1A8FED7A198B1
:101B7000A69EA684030EA96E8CC0A8FF550EA76E64
:101B8000AA0EA76EA682A1A8FED7A198A69EA6849B
:101B9000020EA96E8DC002F0036A0250A86E550EA7
:101BA000A76EAA0EA76EA682A1A8FED7A198A69E90
:101BB000A684040EA96E60C0A8FF550EA76EAA0EDB
:101BC000A76EA682A1A8FED7A198A69EA684050E00
:101BD000A96E64C0A8FF550EA76EAA0EA76EA682B6
:101BE000A1A8FED7A198A69EA684060EA96E66C0DF
:101BF000A8FF550EA76EAA0EA76EA682A1A8FED7B3
:081C0000A198A00EF26E120083
:081C08009268936894689568E6
:101C100096680F0EC16E070EB46E9298959A959CB9
:101C20008098839C839A92909292929492968096B6
:101C300080948092809095849586958095829380FB
:101C40009382938493869388938A958E3AD82FD8DB
:101C50000001BC0504E10001BC6B22EC00F0F8D7E8
:101C60001200DACFE4FFE2CFDAFFE652F2A41BD093
:101C70000001640ED880BD55000EBE5502E3808879
:101C800001D080980001BC0EBD5D020EBE5903E379
:101C90000001BD6BBE6B0001BD2B000EBE23000119
:101CA000010EBC6FF294E552E5CFDAFF1100D08E41
:101CB000A00EF26E840EF16ED76AD66AC30ED56E90
:101CC00012008280CB687F0EBE6E0F0EBD6E040EBA
:081CD000CA6E94949490120076
:081CD8002A0EF66E000EF76EF5
:101CE000000EF86E00010900F550B16F0900F550C3
:101CF000B26F03E1B16701D03DD00900F550AC6F80
:101D00000900F550AD6F0900F550AE6F09000900EC
:101D1000F550E96E0900F550EA6E09000900090066
:101D2000F550AF6F0900F550B06F09000900F6CF0C
:101D3000B3F0F7CFB4F0F8CFB5F0ACC0F6FFADC05C
:101D4000F7FFAEC0F8FF0001AF5302E1B05307E068
:101D50000900F550EE6EAF07F8E2B007F9D7B3C04F
:101D6000F6FFB4C0F7FFB5C0F8FF0001B107000EE1
:061D7000B25BBFD71200B8
:0A1D7600D9CFE6FFDACFE6FFE1CF98
:101D8000D9FFE2CFDAFFE652E652FC0EDBCF02F0DB
:101D9000FD0EDBCF03F0060ED89002360336E804C2
:101DA000FBE102C0DEFF03C0DDFF010EDB50BE6EB3
:101DB000DF50E840E8403F0B300B026ECF0EBD1401
:101DC0000210BD6EE552E552E552E5CFDAFFE7CFEE
:041DD000D9FF120025
:0C1DD40013EE00F023EE00F0F86A019C12
:0C1DE0006CEC0EF004EC0EF0FDD71200CD
:041DEC005050000053
:101DF00000000000000000000000000000000000E3
:101E000000000000000000000000000000000000D2
:101E100000000000D502D50233013301FF010000AC
:101E20000000000000000000FFFF0000FF0000FFB6
:081E30000000FF0000FF0000AC
:031E3800000000A7
:020000040030CA
:010000002CD3
:010001000EF0
:0100020008F5
:0100030000FC
:010005008179
:010006008079
:010008000FE8
:01000900C036
:01000A000FE6
:01000B00E014
:01000C000FE4
:01000D0040B2
:00000001FF
