:0400000053EF00F0CA
:0E0008004E82FACF2CF0FBCF2DF0A4ED0FF0BE
:100018004E80D8CF7EF2E8CF7FF2E0CF80F2FACFE1
:1000280081F2FBCF82F2E9CF83F2EACF84F2E1CF0B
:1000380085F2E2CF86F2D9CF87F2DACF88F2F3CF12
:1000480089F2F4CF8AF2F6CF8BF2F7CF8CF2F8CFA1
:100058008DF2F5CF8EF28EC2F5FF8DC2F8FF8CC2FD
:10006800F7FF8BC2F6FF8AC2F4FF89C2F3FF88C28A
:10007800DAFF87C2D9FF86C2E2FF85C2E1FF84C2E8
:10008800EAFF83C2E9FF82C2FBFF81C2FAFF80C296
:10009800E0FF7FC2E8FF7EC2D8FF4E90100092EFCB
:1000A80011F086EC07F079EF07F0000E52EC11F032
:1000B800000E12EC11F0010E1E6E1200130ED7EC9A
:1000C80012F03A503B10D8B40AD0000E3B6E000E26
:1000D8003A6E170EC9EC12F0020E1E6E1200140EC4
:1000E800D7EC12F03A503B10D8B40AD0000E3B6E51
:1000F800010E3A6E170EC9EC12F0020E1E6E1200B7
:10010800150ED7EC12F03A503B10D8B40AD0000EB6
:100118003B6E020E3A6E170EC9EC12F0020E1E6EFE
:100128001200160ED7EC12F03A503B10D8B40AD091
:10013800000E3B6E030E3A6E170EC9EC12F0020E5B
:100148001E6E1200120ED7EC12F03A503B10D8B4C3
:100158000AD0000E3B6E040E3A6E170EC9EC12F070
:10016800020E1E6E1200010E1E6E020E52EC11F0EF
:100178001200130ED7EC12F03A503B10D8A425D039
:10018800140ED7EC12F03A503B10D8A41ED0150E1E
:10019800D7EC12F03A503B10D8A417D0160ED7EC73
:1001A80012F03A503B10D8A410D0120ED7EC12F02F
:1001B8003A503B10D8A409D0100ED7EC12F03A50A0
:1001C8003B10D8A402D0030E1E6E000E12EC11F0E4
:1001D800020E52EC11F01200130ED7EC12F03A5046
:1001E8003B10D8B40AD0000E3B6E000E3A6E180EC3
:1001F800C9EC12F0040E1E6E1200140ED7EC12F0A9
:100208003A503B10D8B40AD0000E3B6E010E3A6E3D
:10021800180EC9EC12F0040E1E6E1200150ED7EC63
:1002280012F03A503B10D8B40AD0000E3B6E020EC2
:100238003A6E180EC9EC12F0040E1E6E1200160E5D
:10024800D7EC12F03A503B10D8B40AD0000E3B6EEF
:10025800030E3A6E180EC9EC12F0040E1E6E120050
:10026800120ED7EC12F03A503B10D8B40AD0000E58
:100278003B6E040E3A6E180EC9EC12F0040E1E6E98
:100288001200100ED7EC12F03A503B10D8B40AD036
:10029800000E3B6E090E3A6E180EC9EC12F0040EF1
:1002A8001E6E1200020E52EC11F0030E1E6E1200AA
:1002B800130ED7EC12F03A503B10D8A44CD0140EC1
:1002C800D7EC12F03A503B10D8A445D0150ED7EC15
:1002D80012F03A503B10D8A43ED0160ED7EC12F0CC
:1002E8003A503B10D8A437D0120ED7EC12F03A503F
:1002F8003B10D8A430D0100ED7EC12F03A503B1077
:10030800D8A429D0170ED7EC12F03AC046F03BC05B
:1003180047F0180ED7EC12F03A50461809E13B5056
:100328004718D8A405D0010E12EC11F0010E1E6E6C
:10033800170ED7EC12F03AC046F03BC047F0180E43
:10034800D7EC12F03A50461804E13B504718D8B49D
:1003580002D0050E1E6E020E52EC11F01200180E9D
:10036800D7EC12F0090E3A183B10D8B402D0060E9A
:100378001E6E180ED7EC12F0090E3A183B10D8A4CE
:100388001200090E1E6E1200080E1E6E1200100ECC
:10039800D7EC12F03A503B10D8B406D0010E206EBC
:1003A800000E1E6E000E186E030E52EC11F0000EB9
:1003B80012EC11F01200170ED7EC12F0040E3A18D6
:1003C8003B10D8B412D026D0010E05D0050E03D0AC
:1003D800020E01D0030E216E070E1E6E1BD0080EF2
:1003E8001E6E010E12EC11F015D0180ED7EC12F09B
:1003F8003B50000AD8A4F3D73A50000AD8B4E4D73F
:10040800010AD8B4E3D7030AD8B4E2D7010AD8B4AA
:10041800E1D7E5D7180ED7EC12F0040E3A183B10C6
:10042800D8B412D026D0010E05D0050E03D0020E86
:1004380001D0030E216E070E1E6E1BD0080E1E6E15
:10044800010E12EC11F015D0170ED7EC12F03B503C
:10045800000AD8A4F3D73A50000AD8B4E4D7010A5E
:10046800D8B4E3D7030AD8B4E2D7010AD8B4E1D79D
:10047800E5D7170ED7EC12F0040E3A183B10D8B493
:100488001200180ED7EC12F0040E3A183B10D8B42C
:100498001200BAD0000E1E6E1200010E216E070E59
:1004A8001E6E1200020E216E070E1E6E1200040E42
:1004B800216E070E1E6E1200080E1E6E010E12EC43
:1004C80011F01200180ED7EC12F03B50000AD8A415
:1004D800F3D73A50000AD8B4DDD7010AD8B4DDD72B
:1004E800030AD8B4DFD7010AD8B4E1D7E5D7010E9B
:1004F800216E070E1E6E1200000E1E6E1200000EF8
:10050800216E070E1E6E1200060E216E070E1E6E5D
:100518001200080E1E6E010E12EC11F01200180ED9
:10052800D7EC12F03B50000AD8A4F3D73A50000A8F
:10053800D8B4DDD7010AD8B4DFD7030AD8B4DFD7D7
:10054800010AD8B4E1D7E5D7020E216E070E1E6E58
:100558001200000E216E070E1E6E1200000E1E6E97
:100568001200030E216E070E1E6E1200080E1E6E7C
:10057800010E12EC11F01200180ED7EC12F03B50DD
:10058800000AD8A4F3D73A50000AD8B4DDD7010A34
:10059800D8B4DFD7030AD8B4E1D7010AD8B4E1D771
:1005A800E5D7040E216E070E1E6E1200060E216E90
:1005B800070E1E6E1200030E216E070E1E6E12002D
:1005C800000E1E6E1200080E1E6E010E12EC11F0C7
:1005D8001200180ED7EC12F03B50000AD8A4F3D73B
:1005E8003A50000AD8B4DDD7010AD8B4DFD7030AD5
:1005F800D8B4E1D7010AD8B4E3D7E5D7080E1E6E00
:10060800010E12EC11F01200170ED7EC12F03B504D
:10061800000AD8A4F3D73A50000AD8B453D7010A2D
:10062800D8B47DD7030AD8B4A7D7010AD8B4D1D78C
:10063800E5D70B0E1E6E1200100ED7EC12F03A50D2
:100648003B10D8B406D0020E206E000E1E6E000EAF
:10065800186E030E52EC11F0000E12EC11F012009D
:10066800170ED7EC12F0040E3A183B10D8A41FD07E
:10067800000E216E0A0E1E6E1200010E216E0A0E69
:100688001E6E1200030E216E0A0E1E6E1200000E60
:10069800216E0A0E1E6E1200020E216E0A0E1E6ECA
:1006A80012000B0E1E6E010E12EC11F01200170E46
:1006B800D7EC12F03B50000AD8A4F3D73A50000AFE
:1006C800D8B4DBD7010AD8B4DDD7030AD8B4DFD74A
:1006D800010AD8B4E1D7E5D7000E1E6E010E12EC60
:1006E80011F012001E50000AD8B4DFD4010AD8B4A1
:1006F800E5D4030AD8B43DD5010AD8B46DD5070AA4
:10070800D8B4D6D5010AD8B42AD6030AD8B43CD668
:10071800010AD8B43CD60F0AD8B44DD6010AD8B4C9
:1007280088D7030AD8B488D7010AD8B499D7D4D7B8
:10073800000E446E020E4CEC0AF00009D8A4F2D167
:10074800010E216E07EC10F01804D8A4EBD1000EAE
:10075800206EE8D1020E446E010E4CEC0AF000093E
:10076800D8A4E0D1020E216E07EC10F0EDD7030EED
:10077800446E000E4CEC0AF00009D8A4D3D1030E45
:10078800216E07EC10F0E0D7000E446E020E4CEC20
:100798000AF00009D8A4C6D1040E216E07EC10F0A7
:1007A800D3D7010E446E030E4CEC0AF00009D8A40E
:1007B800B9D1050E216E07EC10F0C6D7030E446EB2
:1007C800000E4CEC0AF00009D8A4ACD1060E216E3C
:1007D80007EC10F0B9D7020E446E010E4CEC0AF08B
:1007E8000009D8A49FD1070E216E07EC10F0ACD7F2
:1007F800010E446E030E4CEC0AF00009D8A492D105
:10080800000E216E07EC10F09FD72150000AD8B4D3
:100818008FD7010AD8B49ED7030AD8B4A8D7010A3B
:10082800D8B4B2D7070AD8B4BCD7010AD8B4C6D747
:10083800030AD8B4D0D7010AD8B4DAD773D1140EC2
:10084800D7EC12F03A503B10D8B40DD0160ED7ECB6
:1008580012F03A503B10D8B406D0010E196E030EB0
:1008680012EC11F06AD1000E196E000E12EC11F0A4
:1008780064D1140ED7EC12F03A503B10D8A40DD026
:10088800160ED7EC12F03A503B10D8A406D0020E40
:10089800196E030E12EC11F005D0010E196E030E3D
:1008A80012EC11F0270E0001E96F100EE86F45D128
:1008B800140ED7EC12F03A503B10D8A41AD0160EEA
:1008C800D7EC12F03A503B10D8A413D0150ED7EC41
:1008D80012F03A503B10D8A40CD0130ED7EC12F0FB
:1008E8003A503B10D8A405D00001E807D8A0E90782
:1008F80005D0270E0001E96F100EE86F030E12EC09
:1009080011F042D0000E33D0070ED7EC12F03AC0E7
:1009180046F03BC047F0060ED7EC12F03A50465C62
:100928003B504758D8A003D0070EA4EC12F0050E90
:10093800D7EC12F03AC046F03BC047F0080ED7ECAF
:1009480012F03A50465C3B504758D8A003D0080EE6
:10095800B7EC12F0010E0BD0025004E1140E015C4A
:10096800D8A007D0000E026E000E016ECBD71A6E0B
:100978004BD0014A022A48D01A50000AD8B4C4D72A
:10098800010AD8B4E9D7BED7130ED7EC12F03B5002
:10099800000AD8A439D03A50000AD8B4B3D7010A0B
:1009A800D8B4EAD731D0000E22D0070ED7EC12F017
:1009B8003A28030E3B58D8B003D0070EB7EC12F014
:1009C800080ED7EC12F03A503B10D8B403D0080EFA
:1009D800A4EC12F0010E0BD0025004E1140E015CDD
:1009E800D8A007D0000E026E000E016EDCD71B6E79
:1009F80042D0014A022A3FD01B50000AD8B4D5D7AA
:100A0800010AD8B4E9D7CFD7140ED7EC12F03B506F
:100A1800000AD8A430D03A50000AD8B4C4D7010A82
:100A2800D8B4EAD728D0000E19D0090ED7EC12F0A6
:100A38003B5007E1FB0E3A5CD8B003D0090EB7EC87
:100A480012F0010E0BD0025004E1140E015CD8A084
:100A580007D0000E026E000E016EE5D71C6E40D066
:100A6800014A022A3DD01C50000AD8B4DED7010A38
:100A7800D8B4E9D7D8D7150ED7EC12F03B50000AF6
:100A8800D8A42ED03A50000AD8B4CDD7010AD8B489
:100A9800EAD726D0000E17D0090ED7EC12F03A503C
:100AA8003B10D8B403D0090EA4EC12F0010E0BD001
:100AB800025004E1140E015CD8A007D0000E026EAB
:100AC800000E016EE7D71D6E19D0014A022A16D012
:100AD8001D50000AD8B4E0D7010AD8B4E9D7DAD74C
:100AE800160ED7EC12F03B50000AD8A407D03A50A3
:100AF800000AD8B4CFD7010AD8B4EAD70001E9511F
:100B08001CE1020E0001E85DD8B017D0000E196E86
:100B1800000E12EC11F011D0000E196E000E12EC3E
:100B280011F00BD01950000AD8B489D6010AD8B4EC
:100B3800A0D6030AD8B4BCD6EFD7110ED7EC12F062
:100B48003A503B10D8B402D0010E186E1804D8A43D
:100B580003D0020E12EC11F0010E52EC11F012004B
:100B6800000E446E020E4CEC0AF00009D8A4B2D173
:100B7800010E216E07EC10F01804D8A4ABD1000EBA
:100B8800206EA8D1030E446E000E4CEC0AF000094A
:100B9800D8A4A0D1020E216E07EC10F0EDD7010EFB
:100BA800446E030E4CEC0AF00009D8A493D1030E4E
:100BB800216E07EC10F0E0D7020E446E010E4CECEB
:100BC8000AF00009D8A486D1000E216E07EC10F0B7
:100BD800D3D72150000AD8B4C3D7010AD8B4D2D782
:100BE800030AD8B4DCD7010AD8B4E6D773D1140EF7
:100BF800D7EC12F03A503B10D8B40DD0160ED7EC03
:100C080012F03A503B10D8B406D0010E196E030EFC
:100C180012EC11F01200000E196E000E12EC11F019
:100C28001200140ED7EC12F03A503B10D8A40DD095
:100C3800160ED7EC12F03A503B10D8A406D0020E8C
:100C4800196E030E12EC11F005D0010E196E030E89
:100C580012EC11F0270E0001E96F100EE86F120078
:100C6800140ED7EC12F03A503B10D8A41AD0160E36
:100C7800D7EC12F03A503B10D8A413D0150ED7EC8D
:100C880012F03A503B10D8A40CD0130ED7EC12F047
:100C98003A503B10D8A405D00001E807D8A0E907CE
:100CA80005D0270E0001E96F100EE86F030E12EC55
:100CB80011F042D0000E33D0070ED7EC12F03AC034
:100CC80046F03BC047F0060ED7EC12F03A50465CAF
:100CD8003B504758D8A003D0070EA4EC12F0050EDD
:100CE800D7EC12F03AC046F03BC047F0080ED7ECFC
:100CF80012F03A50465C3B504758D8A003D0080E33
:100D0800B7EC12F0010E0BD0025004E1140E015C96
:100D1800D8A007D0000E026E000E016ECBD71A6E57
:100D28004BD0014A022A48D01A50000AD8B4C4D776
:100D3800010AD8B4E9D7BED7130ED7EC12F03B504E
:100D4800000AD8A439D03A50000AD8B4B3D7010A57
:100D5800D8B4EAD731D0000E22D0070ED7EC12F063
:100D68003A28030E3B58D8B003D0070EB7EC12F060
:100D7800080ED7EC12F03A503B10D8B403D0080E46
:100D8800A4EC12F0010E0BD0025004E1140E015C29
:100D9800D8A007D0000E026E000E016EDCD71B6EC5
:100DA80042D0014A022A3FD01B50000AD8B4D5D7F6
:100DB800010AD8B4E9D7CFD7140ED7EC12F03B50BC
:100DC800000AD8A430D03A50000AD8B4C4D7010ACF
:100DD800D8B4EAD728D0000E19D0090ED7EC12F0F3
:100DE8003B5007E1FB0E3A5CD8B003D0090EB7ECD4
:100DF80012F0010E0BD0025004E1140E015CD8A0D1
:100E080007D0000E026E000E016EE5D71C6E40D0B2
:100E1800014A022A3DD01C50000AD8B4DED7010A84
:100E2800D8B4E9D7D8D7150ED7EC12F03B50000A42
:100E3800D8A42ED03A50000AD8B4CDD7010AD8B4D5
:100E4800EAD726D0000E17D0090ED7EC12F03A5088
:100E58003B10D8B403D0090EA4EC12F0010E0BD04D
:100E6800025004E1140E015CD8A007D0000E026EF7
:100E7800000E016EE7D71D6E19D0014A022A16D05E
:100E88001D50000AD8B4E0D7010AD8B4E9D7DAD798
:100E9800160ED7EC12F03B50000AD8A407D03A50EF
:100EA800000AD8B4CFD7010AD8B4EAD70001E9516B
:100EB80028E1020E0001E85DD8B01200000E196E9C
:100EC800000E12EC11F01200000E196E000E12EC5A
:100ED80011F012001950000AD8B489D6010AD8B402
:100EE800A0D6030AD8B4BCD6EFD72050000AD8B48D
:100EF80076EF03F0010AD8B488D4030AD8A4120004
:100F080068D6120020D0000E116E000E3B6E000E47
:100F18003A6E0F0EC9EC12F042D011503D6E3E6A87
:100F28000B0ED7EC12F03D503A5C3E503B58D8A01F
:100F380002D0112A34D0000E3B6E010E3A6E0F0E0D
:100F4800C9EC12F02CD083A402D0010E01D0000EFF
:100F5800000AD8B4E2D7010AD8B4D5D720D0000EF9
:100F6800106E000E3B6E000E3A6E0E0EC9EC12F0BB
:100F780042D010503D6E3E6A0B0ED7EC12F03D5039
:100F88003A5C3E503B58D8A002D0102A34D0000E0C
:100F98003B6E010E3A6E0E0EC9EC12F02CD083A6F1
:100FA80002D0010E01D0000E000AD8B4E2D7010A1F
:100FB800D8B4D5D720D0000E156E000E3B6E000EAB
:100FC8003A6E0D0EC9EC12F042D015503D6E3E6AD5
:100FD8000B0ED7EC12F03D503A5C3E503B58D8A06F
:100FE80002D0152A34D0000E3B6E010E3A6E0D0E5B
:100FF800C9EC12F02CD083A002D0010E01D0000E53
:10100800000AD8B4E2D7010AD8B4D5D720D0000E48
:10101800146E000E3B6E000E3A6E0C0EC9EC12F008
:1010280042D014503D6E3E6A0B0ED7EC12F03D5084
:101038003A5C3E503B58D8A002D0142A34D0000E57
:101048003B6E010E3A6E0C0EC9EC12F02CD083A246
:1010580002D0010E01D0000E000AD8B4E2D7010A6E
:10106800D8B4D5D720D00E503D6E3E6A0B0ED7ECC3
:1010780012F03D503A5C3E503B58D8A002D00E2AA0
:1010880045D0000E3B6E010E3A6E100EC9EC12F000
:101098003DD0000E0E6E000E3B6E000E3A6E100E26
:1010A800C9EC12F033D081B002D0010E01D0000E8D
:1010B8003D6E3E6A3E50000AD8A428D03D50000A32
:1010C800D8B4E7D7010AD8B4CED720D00F503D6E98
:1010D8003E6A0B0ED7EC12F03D503A5C3E503B583E
:1010E800D8A002D00F2A45D0000E3B6E010E3A6EF2
:1010F800110EC9EC12F03DD0000E0F6E000E3B6EC3
:10110800000E3A6E110EC9EC12F033D083BE02D035
:10111800010E01D0000E3D6E3E6A3E50000AD8A472
:1011280028D03D50000AD8B4E7D7010AD8B4CED7A2
:1011380020D00B503D6E3E6A0B0ED7EC12F03D509E
:101148003A5C3E503B58D8A002D00B2A45D0000E3E
:101158003B6E010E3A6E120EC9EC12F03DD0000E35
:101168000B6E000E3B6E000E3A6E120EC9EC12F0BA
:1011780033D081B202D0010E01D0000E3D6E3E6A1E
:101188003E50000AD8A428D03D50000AD8B4E7D76A
:10119800010AD8B4CED720D009503D6E3E6A0B0E56
:1011A800D7EC12F03D503A5C3E503B58D8A002D0E4
:1011B800092A45D0000E3B6E010E3A6E130EC9EC9B
:1011C80012F03DD0000E096E000E3B6E000E3A6E16
:1011D800130EC9EC12F033D081BA02D0010E01D03F
:1011E800000E3D6E3E6A3E50000AD8A428D03D50FD
:1011F800000AD8B4E7D7010AD8B4CED720D00A500D
:101208003D6E3E6A0B0ED7EC12F03D503A5C3E50F4
:101218003B58D8A002D00A2A45D0000E3B6E010EDA
:101228003A6E140EC9EC12F03DD0000E0A6E000E94
:101238003B6E000E3A6E140EC9EC12F033D081B832
:1012480002D0010E01D0000E3D6E3E6A3E50000AEB
:10125800D8A428D03D50000AD8B4E7D7010AD8B49A
:10126800CED720D00C503D6E3E6A0B0ED7EC12F054
:101278003D503A5C3E503B58D8A002D00C2A45D08D
:10128800000E3B6E010E3A6E150EC9EC12F03DD001
:10129800000E0C6E000E3B6E000E3A6E150EC9EC79
:1012A80012F033D081B602D0010E01D0000E3D6E8F
:1012B8003E6A3E50000AD8A428D03D50000AD8B44F
:1012C800E7D7010AD8B4CED720D00D503D6E3E6A7C
:1012D8000B0ED7EC12F03D503A5C3E503B58D8A06C
:1012E80002D00D2A45D0000E3B6E010E3A6E160E46
:1012F800C9EC12F03DD0000E0D6E000E3B6E000ED4
:101308003A6E160EC9EC12F033D081B402D0010E39
:1013180001D0000E3D6E3E6A3E50000AD8A428D087
:101328003D50000AD8B4E7D7010AD8B4CED720D0A8
:1013380013503D6E3E6A0B0ED7EC12F03D503A5CEE
:101348003E503B58D8A002D0132A3ED0000E3B6E28
:10135800010E3A6E190EC9EC12F036D0000E136E5B
:10136800000E3B6E000E3A6E190EC9EC12F02CD02E
:1013780082A202D0010E01D0000E000AD8B4EED726
:10138800010AD8B4D5D720D012503D6E3E6A0B0E54
:10139800D7EC12F03D503A5C3E503B58D8A002D0F2
:1013A800122A3ED0000E3B6E010E3A6E1A0EC9ECA0
:1013B80012F036D0000E126E000E3B6E000E3A6E22
:1013C8001A0EC9EC12F02CD083A802D0010E01D05D
:1013D800000E000AD8B4EED7010AD8B4D5D720D069
:1013E80017503D6E3E6A0B0ED7EC12F03D503A5C3A
:1013F8003E503B58D8A002D0172A3ED0000E3B6E74
:10140800010E3A6E1B0EC9EC12F036D0000E176EA4
:10141800000E3B6E000E3A6E1B0EC9EC12F02CD07B
:1014280082A802D0010E01D0000E000AD8B4EED76F
:10143800010AD8B4D5D720D016503D6E3E6A0B0E9F
:10144800D7EC12F03D503A5C3E503B58D8A002D041
:10145800162A1200000E3B6E010E3A6E1C0EC9ECE5
:1014680012F01200000E166E000E3B6E000E3A6E61
:101478001C0EC9EC12F0120082AA02D0010E01D093
:10148800000E000AD8B4EED7010AD8A41200D4D7A7
:10149800456EA4D1000E3D6E010E67EC10F00DD024
:1014A800236E2AD0010E3D6E010E67EC10F005D0B8
:1014B800010E3D6E000E67EC10F00009D8A46DD146
:1014C800010EEED7000E3D6E000E67EC10F0F5D75A
:1014D8004550000AD8B4ECD7010AD8B4F3D7030AA8
:1014E800D8B4D8D7010AD8B4DDD7A1D1000E3D6E43
:1014F800010E67EC10F00DD04D684FD1010E3D6E16
:10150800010E67EC10F005D0010E3D6E000E67EC81
:1015180010F00009D8A441D1020EC2D7000E3D6ECA
:10152800000E67EC10F0F5D74450000AD8B4ECD799
:10153800010AD8B4F3D7030AD8B4D8D7010AD8B463
:10154800DDD775D1B0EC0EF008D0B0EC0EF005D0B8
:101558002CEC0FF002D02CEC0FF00009D8A41DD110
:10156800030E9ED74450000AD8B4F2D7010AD8B463
:10157800F2D7030AD8B4E6D7010AD8B4E6D757D1C8
:101588000C0ED7EC12F03A043B10D8A402D0040E8B
:1015980003D1190ED7EC12F03A043B10D8A402D0AC
:1015A800050EFAD01A0ED7EC12F03A043B10D8A464
:1015B80002D0060EF1D01C0ED7EC12F03A043B1004
:1015C800D8A402D0070EE8D01B0ED7EC12F03A04CC
:1015D8003B10D8A402D0080EDFD0070ED7EC12F0CB
:1015E8003AC03DF03BC03EF029EC12F0070ED7ECB4
:1015F80012F097D00D0ED7EC12F03A043B10D8B485
:10160800C6D7190ED7EC12F03A043B10D8B4C8D795
:101618001A0ED7EC12F03A043B10D8B4CAD71C0EF5
:10162800D7EC12F03A043B10D8B4CCD71B0ED7EC49
:1016380012F03A043B10D8B4CED7070ED7EC12F00C
:101648003AC03DF03BC03EF029EC12F0070ED7EC53
:1016580012F067D00E0ED7EC12F03A043B10D8B453
:1016680096D7190ED7EC12F03A043B10D8B430D004
:101678001A0ED7EC12F03A043B10D8B432D01C0E34
:10168800D7EC12F03A043B10D8B434D01B0ED7EC88
:1016980012F03A043B10D8B436D0080ED7EC12F04A
:1016A8003AC03DF03BC03EF029EC12F0080ED7ECF2
:1016B80012F037D00F0ED7EC12F03A043B10D8B422
:1016C80066D7190ED7EC12F03A043B10D8A402D012
:1016D800090E62D01A0ED7EC12F03A043B10D8A4C7
:1016E80002D00A0E59D01C0ED7EC12F03A043B1067
:1016F800D8A402D00B0E50D01B0ED7EC12F03A042F
:101708003B10D8A402D00C0E47D0080ED7EC12F02C
:101718003AC03DF03BC03EF029EC12F0080ED7EC81
:1017280012F03AC048F03BC049F037D04450000AA4
:10173800D8B490D7010AD8B4BDD7030AD8B420D7F3
:10174800010AD8B457D773D02FEC0EF008D02FEC7D
:101758000EF005D0ADEC0DF002D0ADEC0DF00009A7
:10176800D8A41BD0000E236E000E4D6E60D04450DE
:10177800000AD8B4EFD7010AD8B4EFD7030AD8B40F
:10178800E3D7010AD8B4E3D752D0010E09EC13F01D
:101798000009D8A44CD0030E236E4D6848D0020E21
:1017A80009EC13F0F5D7030E06EC13F0F1D7040E8D
:1017B80006EC13F0EDD7040EC2EC10F0E9D7030ED7
:1017C800C2EC10F0E5D7020E0CEC13F0E1D7010ED5
:1017D8000CEC13F0DDD7000E236E29D02350000A3D
:1017E800D8B476D6010AD8B49FD6030AD8B4BAD6E4
:1017F800010AD8B49BD7070AD8B4B9D7010AD8B414
:10180800C4D7030AD8B4CBD7010AD8B4CCD70F0AA7
:10181800D8B4CDD7010AD8B4CED7030AD8B4CFD715
:10182800010AD8B4D0D7070AD8B4D1D7D4D74D50E5
:101838001200000E3B6E000E3A6E3B5021E1400E46
:101848003A5CD8B01DD0D8903A34D96E3B34DA6EB1
:10185800000ED926010EDA22000EDE6E000EDD6EB5
:10186800D8903A34D96E3B34DA6E600ED926000E21
:10187800DA22000EDE6E000EDD6E3A4A3B2ADDD714
:10188800000E0101016F000E006F000E0101056FCF
:10189800010E046F000E0101076F010E066F000EA6
:1018A8000101096F010E086F000E01010B6F010E97
:1018B8000A6F000E01010D6F010E0C6F000E010181
:1018C8000F6F010E0E6F000E0101116F010E106FE8
:1018D800000E0101136F010E126F000E0101156F4A
:1018E800010E146F000E0101176F010E166F000E26
:1018F8000101196F000E186F000E01011B6F000E19
:101908001A6F000E01011D6F000E1C6F000E010101
:101918001F6F000E1E6F000E0101216F000E206F59
:10192800000E0101236F000E226F000E0101256FCA
:10193800000E246F000E0101276F000E266F000EA7
:101948000101296F000E286F000E01012B6F000E98
:101958002A6F000E01012D6F000E2C6F000E010181
:101968002F6F010E2E6F000E0101316F010E306FC7
:10197800000E0101336F000E326F000E0101356F4A
:10198800000E346F000E0101376F000E366F000E27
:101998000101396F000E386F000E0001616F3F0EB4
:1019A800606F270E0001656F100E646F030E000153
:1019B800676F200E666F130E0001696F880E686FDF
:1019C800010E00016B6FCC0E6A6F020E00016D6F85
:1019D800260E6C6F020E00016F6FD50E6E6F010E32
:1019E8000001716F330E706F000E0001736F500E9F
:1019F800726F000E0001756F2D0E746F000E0001DE
:101A0800776F140E766F000E0001796F000E786FF5
:101A1800000E00017B6F000E7A6F000E00017D6FD3
:101A2800000E7C6F000E00017F6F000E7E6F000EAF
:101A38000001816F000E806F000E0001836F000EA1
:101A4800826F000E0001856F000E846F000E00018A
:101A5800876F000E866F000E0001896F000E886F79
:101A6800000E00018B6F000E8A6F000E00018D6F53
:101A7800000E8C6F000E00018F6F090E8E6F000E26
:101A88000001916F090E906F000E0001936F000E18
:101A9800926F000E0001956F000E946F000E00010A
:101AA800976F000E966F000E0001996F000E986FE9
:101AB800020E00019B6FD50E9A6F010E00019D6FFB
:101AC800330E9C6F020E00019F6FD50E9E6F010EA4
:101AD8000001A16F330EA06F020E0001A36FD50E97
:101AE800A26F010E0001A56F330EA46F020E000154
:101AF800A76FD50EA66F010E0001A96F330EA86F50
:101B0800000E0001AB6F640EAA6F000E0001AD6FEE
:101B1800640EAC6F000E0001AF6F640EAE6F000E66
:101B28000001B16F640EB06F000E0001B36F640E58
:101B3800B26F000E0001B56F640EB46F000E0001A5
:101B4800B76F640EB66F000E0001B96F640EB86F00
:101B5800120071D048C03DF049C03EF029EC12F0A7
:101B68000001F169050ED7EC12F03A50485C3B5081
:101B78004958D8A003D0010E226E3FD0090ED7ECE9
:101B880012F03A50075C3B500858D8A006D0484A93
:101B9800492A000E086E000E076E074A082A58D018
:101BA800020ED7EC12F03A500001E05D3B50000104
:101BB800E159D8A008D0020E226E000E0001E16F94
:101BC800000EE06F1AD00001F1690001E04BE12B33
:101BD800010E226E3DD0050ED7EC12F03AC03DF052
:101BE8003BC03EF029EC12F08280050ED7EC12F0D3
:101BF8003AC048F03BC049F01CD00001F16928D038
:101C0800040ED7EC12F03A500001E05D3B500001A1
:101C1800E159D8A00BD0000E226E000E0001E16F32
:101C2800000EE06F000E0001F16F12D00001E04BD2
:101C3800E12B030EA1D72250000AD8B48BD7010A92
:101C4800D8B4AED7030AD8B4C6D7010AD8B4D8D7FF
:101C58000001F151120070D048C03DF049C03EF07B
:101C680029EC12F0060ED7EC12F048503A5C4950B5
:101C78003B58D8A003D0010E226E40D0090ED7ECF5
:101C880012F03A50075C3B500858D8A007D04806D5
:101C9800D8A04906000E086E000E076E074A082AEB
:101CA8002DD0020ED7EC12F03A500001E45D3B5003
:101CB8000001E559D8A008D0020E226E000E0001DE
:101CC800E56F000EE46F1AD00001F2690001E44BE1
:101CD800E52B010E226E3DD0060ED7EC12F03AC06D
:101CE8003DF03BC03EF029EC12F08280060ED7ECA6
:101CF80012F03AC048F03BC049F01CD00001F2692C
:101D080028D0040ED7EC12F03A500001E45D3B50A5
:101D18000001E559D8A00BD0000E226E000E00017C
:101D2800E56F000EE46F000E0001F26F12D00001A3
:101D3800E44BE52B030EA0D72250000AD8B48CD769
:101D4800010AD8B4AED7030AD8B4C6D7010AD8B4A2
:101D5800D8D70001F25112006BD0040ED7EC12F064
:101D68003A500001E65D3B500001E759D8A008D081
:101D7800010E226E000E0001E76F000EE66F55D0CF
:101D88000001E64BE72B000E226E4FD0060ED7EC73
:101D980012F03AC03DF03BC03EF029EC12F0060EBE
:101DA800D7EC12F03AC048F03BC049F082900001ED
:101DB800F36912D0020ED7EC12F03A500001E65D3A
:101DC8003B500001E759D8A002D0030ED2D700013A
:101DD800F3690001E64BE72B020E226E36D048C0AD
:101DE8003DF049C03EF029EC12F0070ED7EC12F096
:101DF8003A50485C3B504958D8A006D0000E226E95
:101E0800000E0001F36F21D00A0ED7EC12F03A5001
:101E1800075C3B500858D8A006D0484A492A000E0B
:101E2800086E000E076E074A082A0001F3690DD0F4
:101E38002250000AD8B491D7010AD8B4A7D7030A08
:101E4800D8B4B8D7010AD8B4CAD70001F3511200E0
:101E580068D0040ED7EC12F03A500001E25D3B5016
:101E68000001E359D8A002D0010E27D00001E24BAF
:101E7800E32B000E14D04C6861D0050ED7EC12F09D
:101E88003AC03DF03BC03EF029EC12F0050ED7EC0D
:101E980012F03AC048F03BC049F0829018D0226E48
:101EA800EAD7020ED7EC12F03A500001E25D3B503F
:101EB8000001E359D8A008D0030E226E000E0001DD
:101EC800E36F000EE26FD7D70001E24BE32B020E5F
:101ED800E6D748C03DF049C03EF029EC12F04C6806
:101EE800080ED7EC12F048503A5C49503B58D8A03D
:101EF80005D0000E226E000E4C6E20D00A0ED7ECD4
:101F080012F03A50075C3B500858D8A007D0480652
:101F1800D8A04906000E086E000E076E074A082A68
:101F28000DD02250000AD8B494D7010AD8B4A5D746
:101F3800030AD8B4B6D7010AD8B4CBD74C5012008C
:101F48000600E9CF2EF0EACF2FF0E1CF30F0E2CF54
:101F580031F0D9CF32F0DACF33F0F3CF34F0F4CF19
:101F680035F0F6CF36F0F7CF37F0F8CF38F0F5CFB9
:101F780039F0F2A420D00001EB5107E1650E000111
:101F8800EA5DD8B002D0808801D08098BC0E0001EC
:101F9800EA5D020E0001EB59D8A007D0000E00013F
:101FA800EB6F000EEA6FFCEC12F00001EA4BEB2B32
:101FB800010E246EF2949DBA9EAA02D07AEC12F019
:101FC8009DB89EA802D063EC12F039C0F5FF38C066
:101FD800F8FF37C0F7FF36C0F6FF35C0F4FF34C04E
:101FE800F3FF33C0DAFF32C0D9FF31C0E2FF30C09F
:101FF800E1FF2FC0EAFF2EC0E9FF2DC0FBFF2CC078
:10200800FAFF4E921100000EF26EA69EA684010EF3
:10201800A96E070ED7EC12F03A50A86E550EA76EAF
:10202800AA0EA76EA682A1A8FED7A198A69EA684EE
:10203800000EA96E070ED7EC12F03BC03AF03B6ACF
:102048003A50A86E550EA76EAA0EA76EA682A1A832
:10205800FED7A198A69EA684030EA96E080ED7ECFB
:1020680012F03A50A86E550EA76EAA0EA76EA68259
:10207800A1A8FED7A198A69EA684020EA96E080E56
:10208800D7EC12F03BC03AF03B6A3A50A86E550EB6
:10209800A76EAA0EA76EA682A1A8FED7A198A69E93
:1020A800A684040EA96E090ED7EC12F03A50A86E59
:1020B800550EA76EAA0EA76EA682A1A8FED7A19854
:1020C800A00EF26E12003E6E4CD00001EE6918D0E0
:1020D80080861DD080841BD03D50000AD8B4F8D724
:1020E800010AD8B4F7D713D0808211D080800FD0DE
:1020F8003D50000AD8B4F8D7010AD8B4F7D707D0AA
:102108003E50000AD8B4E8D7010AD8B4F1D7010E76
:102118001F6E31D0030ED7EC12F03A500001DE5D8D
:102128003B500001DF59D8A00AD0020E1F6E000EE6
:102138000001DF6F000EDE6F0001EE691CD00001A8
:10214800EE69010E1F6E0001DE4BDF2B14D0809666
:10215800809480928090000E1F6E000E0001EE6F3A
:102168000AD01F50000AD8B4B0D7010AD8B4D2D7C1
:10217800030AD8B4ECD70001EE511200436E040EE6
:102188004318D8A423D048C03DF049C03EF029ECFC
:1021980012F01E0ED7EC12F03A50485C3B504958EA
:1021A800D8A004D0000E226E000E4B6E0A0ED7EC9B
:1021B80012F03A50075C3B500858D8A02BD0484A38
:1021C800492A000E086E000E076E24D0030E43182D
:1021D800D8A422D048C03DF049C03EF029EC12F006
:1021E800080ED7EC12F048503A5C49503B58D8A03A
:1021F80004D0000E226E000E4B6E0A0ED7EC12F0C1
:102208003A50075C3B500858D8A004D04806D8A0DC
:102218004906D7D7074A082A4B5012003A6E30D0E1
:10222800839A1200838A1200054A062AB80E055CB2
:102238000B0E0658D8A004D0000E066E000E056ED0
:10224800DC0E055C050E0658D8A002D0838A120061
:10225800839A1200054A062AE80E055C030E065802
:10226800D8A004D0000E066E000E056EF40E055CB4
:10227800010E0658D8A002D0838A1200839A120051
:102288003A50000AD8B4CCD7010AD8B4CBD7030A3D
:10229800D8B4CAD7010AD8A41200DCD73A6E30D015
:1022A800839C1200838C1200034A042AB80E035C34
:1022B8000B0E0458D8A004D0000E046E000E036E56
:1022C800DC0E035C050E0458D8A002D0838C1200E3
:1022D800839C1200034A042AE80E035C030E045888
:1022E800D8A004D0000E046E000E036EF40E035C3A
:1022F800010E0458D8A002D0838C1200839C1200CF
:102308003A50000AD8B4CCD7010AD8B4CBD7030ABC
:10231800D8B4CAD7010AD8A41200DCD702EE00F05C
:102328007E0EEE6AE806FDE101EE00F0FC0EEE6AB4
:10233800E806FDE100EE60F08E0EEE6AE806FDE1CB
:1023480000EE01F02A0EEE6AE806FDE1060EF66ED2
:10235800260EF76E000EF86E00EEEEF010EE06F0A8
:102368000900F5CFEEFFE550E150FAE1000EF66EF8
:10237800260EF76E000EF86E00EE48F010EE06F02E
:102388000900F5CFEEFFE550E150FAE14E904E928C
:10239800000EF86E0001D1EF11F09268936894680E
:1023A800956896680F0EC16E070EB46E9298959A4E
:1023B800959C8098839C839A9290929292949296FC
:1023C8008096809480928090958495869580958259
:1023D80093809382938493869388938A958E1DEC39
:1023E8000CF0F1EC12F0E5EC12F005EC12F090ECC8
:1023F80012F02404D8A4FDD7000E246E55EC00F08A
:10240800F8D79D9A9D98B886AB8EAB9CAB88AB9657
:10241800AC9CAC8AAC98AC96AC84AC82AC90010E07
:102428003B6EA10E3A6E3B50B06E3AC0AFFF000E45
:10243800296E000E2A6E7E0E286E000E266E000E85
:10244800276E000E256E9D8A12003DC03FF03EC0EB
:1024580040F0060ED8903F364036E82EFBD73FC0F6
:1024680041F040C042F042C0BEFF41C03FF0D890AA
:102478003F32D8903F32300E3F16BD50CF0B3F1041
:10248800BD6E12002B6E2850D8B4FDD79DB803D06E
:102498002BC0ADFF12D09D982950010D7E0EF3245C
:1024A800D96E010EF420DA6E2BC0DFFF292A7D0ECB
:1024B800296402D0000E296E28069D8812007E0E1F
:1024C800286012D02A50010D7E0EF324D96E010E19
:1024D800F420DA6EDF50AD6E2A2A7D0E2A6402D00F
:1024E800000E2A6E282A12009D981200ABA202D074
:1024F800AB98AB882650010D000EF324D96E020E5E
:10250800F420DA6EAECFDFFF262A7D0E266402D0D5
:10251800000E266E252A1200000E3B6E000E3A6E43
:10252800000E3B6E000E3A6E3BBE06D03B5007E1F4
:10253800160E3A5CD8B012003A4A3B2AF5D7120078
:102548003F6E3F50D7EC12F03AC03DF03BC03EF032
:102558003D06D8A03E063DC03AF03EC03BF03F5095
:10256800C9EC12F012003F6E3F50D7EC12F03AC09F
:102578003DF03BC03EF03D4A3E2A3DC03AF03EC0E9
:102588003BF03F50C9EC12F012003C6E3C50020D7B
:10259800600EF324D96E000EF420DA6E3AC0DEFF26
:1025A8003BC0DDFF12003C6E3C50020D600EF32470
:1025B800D96E000EF420DA6EDECF3AF0DDCF3BF0B4
:1025C8001200D08EA00EF26E840EF16E000ED76E41
:1025D800000ED66EC30ED56E12008280CB687F0EB9
:1025E800BE6E0F0EBD6E040ECA6E949494901200C7
:1025F800410E46EC12F01200FF01FFFFFFFFFFFF44
:10260800FFFFFFFF0001F05112000001EF5112001F
:042618004A50120012
:020000040020DA
:08000000FFFFFFFFFFFFFFFF00
:020000040030CA
:0E0000002C0E1800FF8181FF0FC00FE00F4093
:00000001FF
