:0400000063EF00F0BA
:060008004D82E1ED1DF048
:100018004D80D8CFBCF0E8CFBDF0E0CFBEF0FACF2E
:10002800BFF0FBCFC0F0E9CFC1F0EACFC2F0E1CF1B
:10003800C3F0E2CFC4F0D9CFC5F0DACFC6F0F3CF22
:10004800C7F0F4CFC8F0F6CFC9F0F7CFCAF0F8CFB1
:10005800CBF0F5CFCCF04DC0CDF04EC0CEF04FC0B8
:10006800CFF050C0D0F0D0C050F0CFC04FF0CEC0CD
:100078004EF0CDC04DF0CCC0F5FFCBC0F8FFCAC0E4
:10008800F7FFC9C0F6FFC8C0F4FFC7C0F3FFC6C07A
:10009800DAFFC5C0D9FFC4C0E2FFC3C0E1FFC2C0D8
:1000A800EAFFC1C0E9FFC0C0FBFFBFC0FAFFBEC086
:1000B800E0FFBDC0E8FFBCC0D8FF4D901000C5EF01
:0200C8001FF027
:10080000001200130014001500160017001800193C
:10081000001A001B00270028002D002E002F00309A
:100820000031003200330034003500360037003824
:100830000039003A003B003C0001000A006400E877
:100840000310270A4D2325642025640D0A00452343
:1008500031300D0A00452331310D0A004523313274
:100860000D0A00452331330D0A00452331340D0AAA
:100870000000000E146E480E136E50EC22F0135060
:100880001410D8B40CD0000E1A6E480E196E000E5B
:100890001C6E000E1B6E1BEC21F0FF001AD0000E28
:1008A000146E570E136E50EC22F013501410D8B47F
:1008B00010D0C1EC16F01B041C10D8A40AD0000EF6
:1008C0001A6E570E196E000E1C6E000E1B6E1BEC7E
:1008D00021F06BEC0BF04CEF0BF0000E146E4A0E97
:1008E000136E50EC22F013501410D8B415D0010E32
:1008F0001F6E000ED1EC15F00009D8A458EF0BF0D4
:10090000000E166E4A0E156E000E186E000E176E53
:1009100088EC21F058EF0BF0000E146E490E136EA8
:1009200050EC22F013501410D8B415D0000E1F6EE6
:10093000000ED1EC15F00009D8A458EF0BF0000E12
:10094000166E490E156E000E186E000E176E88ECAE
:1009500021F058EF0BF0000E146E4C0E136E50EC9D
:1009600022F013501410D8B415D0010E1F6E010ED2
:10097000D1EC15F00009D8A458EF0BF0000E166E5C
:100980004C0E156E000E186E000E176E88EC21F0DE
:1009900058EF0BF0000E146E4B0E136E50EC22F05D
:1009A00013501410D8B415D0000E1F6E010ED1ECE8
:1009B00015F00009D8A458EF0BF0000E166E4B0E80
:1009C000156E000E186E000E176E88EC21F058EFB1
:1009D0000BF0000E146E4D0E136E50EC22F01350FF
:1009E0001410D8B416D0000E1A6E450E196E000EF3
:1009F0001C6E010E1B6E1BEC21F0000E166E4D0ED0
:100A0000156E000E186E000E176E88EC21F058EF70
:100A10000BF0000E146E4E0E136E50EC22F01350BD
:100A20001410D8B416D0000E1A6E450E196E000EB2
:100A30001C6E000E1B6E1BEC21F0000E166E4E0E8F
:100A4000156E000E186E000E176E88EC21F058EF30
:100A50000BF0000E146E440E136E50EC22F013C017
:100A6000D5F014C0D6F0000E146E4F0E136E50EC7D
:100A700022F013500001D51904E11450D619D8B44E
:100A80002DD0000E166E440E156E000E146E4F0E15
:100A9000136E50EC22F013C017F014C018F088EC5D
:100AA00021F0000E146E440E136E50EC22F013C0B1
:100AB000D7F014C0D8F0000E146E560E136E50EC22
:100AC00022F013500001D96FD7C01FF0D8C020F01A
:100AD000D9C021F021EC1FF058EF0BF0000E146E7E
:100AE000560E136E50EC22F013C0D5F014C0D6F0A1
:100AF000000E146E510E136E50EC22F013500001D4
:100B0000D51905E11450D619D8B4EFEF09F0000E4D
:100B1000166E560E156E000E146E510E136E50ECBE
:100B200022F013C017F014C018F088EC21F058EF31
:100B30000BF0000E50EC20F0000E10EC20F0010E37
:100B400015D0000E146E230E136E50EC22F01350CD
:100B50001410D8B40FD0000E1A6E270E196E000EA6
:100B60001C6E010E1B6E1BEC21F057D00001906F24
:100B700058EF0BF0000E146E240E136E50EC22F0A2
:100B800013501410D8B40BD0000E1A6E270E196E25
:100B9000000E1C6E020E1B6E1BEC21F03ED0000EF0
:100BA000146E250E136E50EC22F013501410D8B4AE
:100BB0000BD0000E1A6E270E196E000E1C6E030E5F
:100BC0001B6E1BEC21F029D0000E146E260E136E46
:100BD00050EC22F013501410D8B40BD0000E1A6E43
:100BE000270E196E000E1C6E040E1B6E1BEC21F0FE
:100BF00014D0000E146E220E136E50EC22F013501F
:100C00001410D8B40CD0000E1A6E270E196E000EF8
:100C10001C6E050E1B6E1BEC21F0020EA7D7000EFA
:100C2000146E270E136E50EC22F013501410D8B42B
:100C30000AD0000E146E280E136E50EC22F01350E2
:100C40001410D8A4E1D0010E0001906F020E50ECF8
:100C500020F058EF0BF0000E146E230E136E50ECC4
:100C600022F013501410D8A435D0000E146E240EA8
:100C7000136E50EC22F013501410D8A42BD0000E99
:100C8000146E250E136E50EC22F013501410D8A4DD
:100C900021D0000E146E260E136E50EC22F013506D
:100CA0001410D8A417D0000E146E220E136E50EC40
:100CB00022F013501410D8A40DD0000E146E200E84
:100CC000136E50EC22F013501410D8A403D0030E6E
:100CD0000001906F000E10EC20F0020E50EC20F09E
:100CE00058EF0BF0000E146E230E136E50EC22F032
:100CF00013501410D8B40BD0000E1A6E280E196EB3
:100D0000000E1C6E010E1B6E1BEC21F07DD0000E40
:100D1000146E240E136E50EC22F013501410D8B43D
:100D20000BD0000E1A6E280E196E000E1C6E020EED
:100D30001B6E1BEC21F068D0000E146E250E136E96
:100D400050EC22F013501410D8B40BD0000E1A6ED1
:100D5000280E196E000E1C6E030E1B6E1BEC21F08C
:100D600053D0000E146E260E136E50EC22F013506A
:100D70001410D8B40BD0000E1A6E280E196E000E87
:100D80001C6E040E1B6E1BEC21F03ED0000E146E88
:100D9000220E136E50EC22F013501410D8B40BD066
:100DA000000E1A6E280E196E000E1C6E050E1B6EBC
:100DB0001BEC21F029D0000E146E200E136E50ECA7
:100DC00022F013501410D8B40BD0000E1A6E280E57
:100DD000196E000E1C6E090E1B6E1BEC21F014D058
:100DE000000E146E270E136E50EC22F013501410E8
:100DF000D8B40CD0000E146E280E136E50EC22F0F6
:100E000013501410D8B402D0040EB0D6020E50EC19
:100E100020F0030EABD6000E146E230E136E50ECB2
:100E200022F013501410D8A47ED0000E146E240E9D
:100E3000136E50EC22F013501410D8A474D0000E8E
:100E4000146E250E136E50EC22F013501410D8A41B
:100E50006AD0000E146E260E136E50EC22F0135062
:100E60001410D8A460D0000E146E220E136E50EC35
:100E700022F013501410D8A456D0000E146E200E79
:100E8000136E50EC22F013501410D8A44CD0000E66
:100E9000146E270E136E50EC22F013C0D5F014C060
:100EA000D6F0000E146E280E136E50EC22F0135084
:100EB0000001D5191EE11450D619D8A41AD0000E7D
:100EC0001A6E280E196E000E1C6E000E1B6E1BECA7
:100ED00021F0000E1A6E270E196E000E1C6E000E09
:100EE0001B6E1BEC21F0010E10EC20F0010E000136
:100EF000906F000E146E270E136E50EC22F013C08C
:100F0000D5F014C0D6F0000E146E280E136E50ECFF
:100F100022F013500001D51904E11450D619D8B4A9
:100F200002D0050E906F020E50EC20F0C1D3000EDF
:100F3000146E280E136E50EC22F0090E13181410C4
:100F4000D8B403D0060E0001906F000E146E280E68
:100F5000136E50EC22F0090E13181410D8A4A8D365
:100F6000090E04D6080E03D6000E146E200E136E62
:100F700050EC22F013501410D8A40AD0000E146EB6
:100F8000460E136E50EC22F013501410D8B412D049
:100F9000020E0001E96F000E906F000E8B6F000EC5
:100FA000166E460E156E000E186E000E176E88EC4B
:100FB00021F026D0000E146E270E136E50EC22F096
:100FC00000018A51D56FD66B1350D51915E1145015
:100FD000D619D8A411D0000E146E280E136E50EC42
:100FE00022F000018A51D56FD66B1350D51904E158
:100FF0001450D619D8B404D0010EE96F000E906FCA
:10100000030E50EC20F0000E10EC20F051D3000E37
:10101000146E270E136E50EC22F0050E13181410E8
:10102000D8B414D02BD0010E05D0050E03D0020E7B
:1010300001D0030E00018F6F070E906F1FD0080EB6
:101040000001906F010E10EC20F018D0000E146E0D
:10105000280E136E50EC22F01450000AD8A4EFD7DB
:101060001350010AD8B4DFD7030AD8B4DED7010A77
:10107000D8B4DDD7070AD8B4DCD7E1D7000E146E98
:10108000280E136E50EC22F0050E13181410D8B46D
:1010900014D02BD0010E05D0050E03D0020E01D0C6
:1010A000030E00018F6F070E906F1FD0080E000116
:1010B000906F010E10EC20F018D0000E146E270E69
:1010C000136E50EC22F01450000AD8A4EFD713503E
:1010D000010AD8B4DFD7030AD8B4DED7010AD8B4DE
:1010E000DDD7070AD8B4DCD7E1D7000E146E270E7F
:1010F000136E50EC22F0050E13181410D8B4BBD0A8
:10110000000E146E280E136E50EC22F0050E13180C
:101110001410D8A498D0AFD0010E68D0906FABD087
:10112000020E64D0040E62D0080E0001906F010E12
:1011300010EC20F0A0D0000E146E280E136E50ECB0
:1011400022F01450000AD8A4EFD71350010AD8B4E3
:1011500051D0030AD8B4E0D7010AD8B4E1D7070ABE
:10116000D8B4E0D7E1D7000E41D0080E0001906F4F
:10117000010E10EC20F07FD0000E146E280E136EBE
:1011800050EC22F01450000AD8A4EFD71350010AF3
:10119000D8B4C2D7030AD8B42DD0010AD8B4E3D743
:1011A000070AD8B420D0E1D7080E0001906F010ED5
:1011B00010EC20F060D0000E146E280E136E50EC70
:1011C00022F01450000AD8A4EFD71350010AD8B463
:1011D000A7D7030AD8B4C7D7010AD8B40BD0070AD7
:1011E000D8B403D0E1D7060E01D0030E00018F6FF3
:1011F000070E94D7000E000191D7080E0001906FE2
:10120000010E10EC20F037D0000E146E280E136E75
:1012100050EC22F01450000AD8A4EFD71350010A62
:10122000D8B480D7030AD8B4DED7010AD8B4DDD742
:10123000070AD8B4DFD7E1D7080E0001906F010E7E
:1012400010EC20F018D0000E146E270E136E50EC28
:1012500022F01450000AD8A4EFD71350010AD8B4D2
:101260006AD7030AD8B488D7010AD8B4A4D7070A22
:10127000D8B4CAD7E1D7000E146E270E136E50EC07
:1012800022F0135000018A6F000E146E280E136EA8
:1012900050EC22F09AD00B0E6AD4000E146E200E81
:1012A000136E50EC22F013501410D8A40AD0000E84
:1012B000146E460E136E50EC22F013501410D8B476
:1012C00012D0030E0001E96F000E906F000E8B6FBD
:1012D000000E166E460E156E000E186E000E176E7E
:1012E00088EC21F026D0000E146E270E136E50EC01
:1012F00022F000018A51D56FD66B1350D51915E134
:101300001450D619D8A411D0000E146E280E136EE6
:1013100050EC22F000018A51D56FD66B1350D519CD
:1013200004E11450D619D8B404D0010EE96F000EB0
:10133000906F030E50EC20F0000E10EC20F0B8D1AE
:10134000000E146E270E136E50EC22F0050E1318CB
:101350001410D8A413D0000E05D0010E03D0030E34
:1013600001D0020E00018F6F0A0E906F1FD00B0E7E
:101370000001906F010E10EC20F018D0000E146EDA
:10138000270E136E50EC22F01450000AD8A4EFD7A9
:101390001350010AD8B4E1D7030AD8B4E0D7010A40
:1013A000D8B4D9D7070AD8B4DCD7E1D7000E146E69
:1013B000270E136E50EC22F0135000018A6F000EBE
:1013C000146E280E136E50EC22F013500001896F3A
:1013D0006FD1000E906F010E10EC20F069D100016A
:1013E0009051000AD8B499EF05F0010AD8B4A1EFE2
:1013F00005F0030AD8B42FD4010AD8B473D4070A6D
:10140000D8B409D5010AD8B492D5030AD8B4AAD55C
:10141000010AD8B4A9D50F0AD8B4F9D5010AD8B4AD
:101420003AD7030AD8B439D7010AD8B489D7D1D763
:10143000010ED36F030EACEC11F00009D8A487D0D5
:10144000010E00018F6FC1EC16F000018B05D8A4CE
:101450007ED0010EE96F7BD0030ED36F020EACEC91
:1014600011F00009D8A473D0020E00018F6FC1ECF7
:1014700016F0EBD7040ED36F010EACEC11F000099F
:10148000D8A465D0030E00018F6FC1EC16F0DDD734
:10149000010ED36F030EACEC11F00009D8A457D0A5
:1014A000040E00018F6FC1EC16F0CFD7020ED36F80
:1014B000040EACEC11F00009D8A449D0050E0001CF
:1014C0008F6FC1EC16F0C1D7040ED36F010EACECD8
:1014D00011F00009D8A43BD0060E00018F6FC1ECBB
:1014E00016F0B3D7030ED36F020EACEC11F0000967
:1014F000D8A42DD0070E00018F6FC1EC16F0A5D730
:10150000020ED36F040EACEC11F00009D8A41FD06A
:10151000000E00018F6FC1EC16F097D78F51000AB3
:10152000D8B486D7010AD8B497D7030AD8B4A2D7BB
:10153000010AD8B4ADD7070AD8B4B8D7010AD8B4CD
:10154000C3D7030AD8B4CED7010AD8B4D9D7000E6E
:10155000146E210E136E50EC22F013501410D8A408
:101560000AD0000E146E470E136E50EC22F013508A
:101570001410D8B40DD0010E00018B6F000E166E42
:10158000470E156E000E186E000E176E88EC21F0D7
:1015900000018B05D8A403D0020E10EC20F0010E40
:1015A00050EC20F085D0010E0001D36F030EACEC9F
:1015B00011F00009D8A444D0010E00018F6FC1ECD6
:1015C00016F000018B05D8A43BD0010EE96F38D08E
:1015D000040ED36F010EACEC11F00009D8A430D08A
:1015E000020E00018F6FC1EC16F0EBD7020ED36F25
:1015F000040EACEC11F00009D8A422D0030E0001B7
:101600008F6FC1EC16F0DDD7030ED36F020EACEC7A
:1016100011F00009D8A414D0000E00018F6FC1ECA6
:1016200016F0CFD700018F51000AD8B4BCD7010AF9
:10163000D8B4CED7030AD8B4D9D7010AD8B4E4D7DE
:10164000000E146E210E136E50EC22F01350141085
:10165000D8A40AD0000E146E470E136E50EC22F080
:1016600013501410D8B40DD0010E00018B6F000E72
:101670001A6E470E196E000E1C6E000E1B6E1BECD0
:1016800021F000018B05D8A403D0020E10EC20F04D
:10169000010E50EC20F00CD00001E951010AD8B441
:1016A0006DEF04F0030AD8B439D7010AD8B4BAD719
:1016B000000E1A6E3F0E196EE9C01BF01C6A1BEC7F
:1016C00021F0000E1A6E500E196E8FC01BF01C6AAE
:1016D0001BEC21F01200000E146E400E136E50EC45
:1016E00022F013461346134680501318F70B1318B5
:1016F000806E000E146E410E136E50EC22F01346F5
:10170000134680501318FB0B1318806E000E146ED6
:10171000420E136E50EC22F0134680501318FD0B4E
:101720001318806E000E146E430E136E50EC22F0F0
:1017300080501318FE0B1318806E000E146E450EA9
:10174000136E50EC22F082501318FE0B1318826EA9
:10175000000E146E580E136E50EC22F013C015F0EC
:1017600014C016F0A6EC21F02CD03E50D8B402D014
:101770003E065FD0000E1A6E1F0E196E000E1C6E14
:10178000000E1B6E1BEC21F054D03E501F6E206AE1
:10179000000E146E1B0E136E50EC22F01F50135CE3
:1017A00020501458D8A002D03E2A43D0000E1A6E02
:1017B0001F0E196E000E1C6E010E1B6E1BEC21F02D
:1017C00038D083A202D0010E01D0000E000AD8B496
:1017D000DCD7010AD8B4C9D72CD03D50D8B402D038
:1017E0003D065FD0000E1A6E1E0E196E000E1C6EA6
:1017F000000E1B6E1BEC21F054D03D501F6E206A72
:10180000000E146E1B0E136E50EC22F01F50135C72
:1018100020501458D8A002D03D2A43D0000E1A6E92
:101820001E0E196E000E1C6E010E1B6E1BEC21F0BD
:1018300038D083A002D0010E01D0000E000AD8B427
:10184000DCD7010AD8B4C9D72CD03C50D8B402D0C8
:101850003C065FD0000E1A6E1D0E196E000E1C6E37
:10186000000E1B6E1BEC21F054D03C501F6E206A02
:10187000000E146E1B0E136E50EC22F01F50135C02
:1018800020501458D8A002D03C2A43D0000E1A6E23
:101890001D0E196E000E1C6E010E1B6E1BEC21F04E
:1018A00038D083A602D0010E01D0000E000AD8B4B1
:1018B000DCD7010AD8B4C9D72CD03B50D8B402D059
:1018C0003B065FD0000E1A6E1C0E196E000E1C6EC9
:1018D000000E1B6E1BEC21F054D03B501F6E206A93
:1018E000000E146E1B0E136E50EC22F01F50135C92
:1018F00020501458D8A002D03B2A43D0000E1A6EB4
:101900001C0E196E000E1C6E010E1B6E1BEC21F0DE
:1019100038D083A402D0010E01D0000E000AD8B442
:10192000DCD7010AD8B4C9D72CD036501F6E206A34
:10193000000E146E1B0E136E50EC22F01F50135C41
:1019400020501458D8A002D0362A5AD0000E1A6E51
:10195000200E196E000E1C6E010E1B6E1BEC21F08A
:101960004FD03650D8B402D036064AD0000E1A6E88
:10197000200E196E000E1C6E000E1B6E1BEC21F06B
:101980003FD081B002D0010E01D0000E1F6E206A40
:101990002050000AD8A434D01F50000AD8B4E1D790
:1019A000010AD8B4C2D72CD035501F6E206A000E61
:1019B000146E1B0E136E50EC22F01F50135C20505F
:1019C0001458D8A002D0352A5AD0000E1A6E210E13
:1019D000196E000E1C6E010E1B6E1BEC21F04FD019
:1019E0003550D8B402D035064AD0000E1A6E210EFA
:1019F000196E000E1C6E000E1B6E1BEC21F03FD00A
:101A000083BE02D0010E01D0000E1F6E206A20504E
:101A1000000AD8A434D01F50000AD8B4E1D7010A74
:101A2000D8B4C2D72CD034501F6E206A000E146E6A
:101A30001B0E136E50EC22F01F50135C20501458F4
:101A4000D8A002D0342A5AD0000E1A6E220E196E77
:101A5000000E1C6E010E1B6E1BEC21F04FD034509B
:101A6000D8B402D034064AD0000E1A6E220E196E77
:101A7000000E1C6E000E1B6E1BEC21F03FD081B2DD
:101A800002D0010E01D0000E1F6E206A2050000A05
:101A9000D8A434D01F50000AD8B4E1D7010AD8B472
:101AA000C2D72CD033501F6E206A000E146E1B0E4E
:101AB000136E50EC22F01F50135C20501458D8A025
:101AC00002D0332A5AD0000E1A6E230E196E000E61
:101AD0001C6E010E1B6E1BEC21F04FD03350D8B49E
:101AE00002D033064AD0000E1A6E230E196E000E75
:101AF0001C6E000E1B6E1BEC21F03FD081BA02D091
:101B0000010E01D0000E1F6E206A2050000AD8A4DA
:101B100034D01F50000AD8B4E1D7010AD8B4C2D7D4
:101B20002CD032501F6E206A000E146E1B0E136EE6
:101B300050EC22F01F50135C20501458D8A002D053
:101B4000322A5AD0000E1A6E240E196E000E1C6E28
:101B5000010E1B6E1BEC21F04FD03250D8B402D0D6
:101B600032064AD0000E1A6E240E196E000E1C6E3C
:101B7000000E1B6E1BEC21F03FD081B802D0010E8D
:101B800001D0000E1F6E206A2050000AD8A434D065
:101B90001F50000AD8B4E1D7010AD8B4C2D72CD05C
:101BA00031501F6E206A000E146E1B0E136E50EC27
:101BB00022F01F50135C20501458D8A002D0312AB4
:101BC0005AD0000E1A6E250E196E000E1C6E010EF4
:101BD0001B6E1BEC21F04FD03150D8B402D031062F
:101BE0004AD0000E1A6E250E196E000E1C6E000EE5
:101BF0001B6E1BEC21F03FD081B602D0010E01D04C
:101C0000000E1F6E206A2050000AD8A434D01F5046
:101C1000000AD8B4E1D7010AD8B4C2D72CD03050CA
:101C20001F6E206A000E146E1B0E136E50EC22F015
:101C30001F50135C20501458D8A002D0302A5AD01C
:101C4000000E1A6E260E196E000E1C6E010E1B6E13
:101C50001BEC21F04FD03050D8B402D030064AD01F
:101C6000000E1A6E260E196E000E1C6E000E1B6EF4
:101C70001BEC21F03FD081B402D0010E01D0000E48
:101C80001F6E206A2050000AD8A434D01F50000ACA
:101C9000D8B4E1D7010AD8B4C2D72CD03A501F6EBD
:101CA000206A000E146E1B0E136E50EC22F01F50B3
:101CB000135C20501458D8A002D03A2A53D0000EFA
:101CC0001A6E290E196E000E1C6E010E1B6E1BEC97
:101CD00021F048D03A50D8B402D03A0643D0000E92
:101CE0001A6E290E196E000E1C6E000E1B6E1BEC78
:101CF00021F038D082A202D0010E01D0000E000ADD
:101D0000D8B4CCD7010AD8B4E5D72CD039501F6E3F
:101D1000206A000E146E1B0E136E50EC22F01F5042
:101D2000135C20501458D8A002D0392A53D0000E8A
:101D30001A6E2A0E196E000E1C6E010E1B6E1BEC25
:101D400021F048D03950D8B402D0390643D0000E23
:101D50001A6E2A0E196E000E1C6E000E1B6E1BEC06
:101D600021F038D083A802D0010E01D0000E000A65
:101D7000D8B4CCD7010AD8B4E5D72CD038501F6ED0
:101D8000206A000E146E1B0E136E50EC22F01F50D2
:101D9000135C20501458D8A002D0382A53D0000E1B
:101DA0001A6E2B0E196E000E1C6E010E1B6E1BECB4
:101DB00021F048D03850D8B402D0380643D0000EB5
:101DC0001A6E2B0E196E000E1C6E000E1B6E1BEC95
:101DD00021F038D084A202D0010E01D0000E000AFA
:101DE000D8B4CCD7010AD8B4E5D72CD037501F6E61
:101DF000206A000E146E1B0E136E50EC22F01F5062
:101E0000135C20501458D8A002D0372A1200000EBC
:101E10001A6E2C0E196E000E1C6E010E1B6E1BEC42
:101E200021F012003750D8B402D037061200000E4D
:101E30001A6E2C0E196E000E1C6E000E1B6E1BEC23
:101E400021F0120084A002D0010E01D0000E000A81
:101E5000D8B4CCD7010AD8A41200E4D7000E146E6F
:101E6000000E136E14502EE1590E135CD8B02AD018
:101E7000D8901334D96E1434DA6E000ED926020EBF
:101E8000DA22000EDE6E000EDD6ED8901334D96EAD
:101E90001434DA6E000ED926010EDA22000EDE6E40
:101EA000000EDD6ED8901334D96E1434DA6E000E45
:101EB000D926030EDA22FF0EDE6EFF0EDD6E134A08
:101EC000142AD0D7000E0201216F000E206F000EE1
:101ED000236F000E226F000E256F010E246F000E7F
:101EE000276F010E266F000E296F010E286F000E5E
:101EF0002B6F010E2A6F000E2D6F010E2C6F000E3E
:101F00002F6F010E2E6F000E316F010E306F000E1D
:101F1000336F010E326F000E356F010E346F000EFD
:101F2000376F010E366F000E396F000E386F000EDE
:101F30003B6F000E3A6F000E3D6F000E3C6F000EBF
:101F40003F6F000E3E6F000E416F000E406F000E9F
:101F5000436F000E426F000E456F000E446F000E7F
:101F6000476F000E466F000E496F000E486F000E5F
:101F70004B6F000E4A6F000E4D6F000E4C6F000E3F
:101F80004F6F010E4E6F000E516F010E506F000E1D
:101F9000536F000E526F000E556F000E546F000EFF
:101FA000576F000E566F000E596F000E586F000EDF
:101FB0005B6F010E5A6F000E5D6F010E5C6F000EBD
:101FC0005F6F010E5E6F000E616F010E606F000E9D
:101FD000636F010E626F000E656F010E646F000E7D
:101FE000676F010E666F000E696F010E686F000E5D
:101FF0006B6F010E6A6F000E6D6F010E6C6F000E3D
:102000006F6F010E6E6F000E716F010E706F000E1C
:10201000736F010E726F000E756F010E746F000EFC
:10202000776F010E766F000E796F010E786F000EDC
:102030007B6F000E7A6F000E7D6F000E7C6F000EBE
:102040007F6F000E7E6F000E816F000E806F000E9E
:10205000836F000E826F000E856F000E846F000E7E
:10206000876F000E866F000E896F000E886F000E5E
:102070008B6F000E8A6F000E8D6F010E8C6F000E3D
:102080008F6F010E8E6F000E916F010E906F000E1C
:10209000936F010E926F000E956F010E946F000EFC
:1020A000976F010E966F000E996F010E986F000EDC
:1020B0009B6F010E9A6F000E9D6F010E9C6F000EBC
:1020C0009F6F010E9E6F000EA16F000EA06F000E9D
:1020D000A36F010EA26F000EA56F000EA46F000E7D
:1020E000A76F000EA66F000EA96F000EA86F000E5E
:1020F000AB6F000EAA6F000EAD6F000EAC6F000E3E
:10210000AF6F010EAE6F000EB16F000EB06F000E1C
:102110000101216F590E206F000E236F000E226FF8
:10212000270E256F100E246F030E276F200E266FCB
:10213000130E296F880E286F000E2B6F140E2A6F56
:10214000000E2D6F140E2C6F000E2F6F6B0E2E6F66
:10215000000E316F6B0E306F000E336F500E326F0A
:10216000000E356F2D0E346F000E376F140E366F64
:10217000000E396F000E386F000E3B6F000E3A6F85
:10218000000E3D6F000E3C6F000E3F6F000E3E6F65
:10219000000E416F000E406F000E436F000E426F45
:1021A000000E456F000E446F000E476F000E466F25
:1021B000000E496F000E486F000E4B6F000E4A6F05
:1021C000000E4D6F000E4C6F000E4F6F000E4E6FE5
:1021D000000E516F000E506F000E536F000E526FC5
:1021E000000E556F000E546F000E576F000E566FA5
:1021F000000E596F000E586F000E5B6F000E5A6F85
:10220000000E5D6F500E5C6F000E5F6F780E5E6F9C
:10221000000E616F000E606F000E636F500E626FF4
:10222000000E656F000E646F000E676F000E666F24
:10223000000E696F780E686F000E6B6F640E6A6F28
:10224000000E6D6F640E6C6F000E6F6F640E6E6F1C
:10225000000E716F640E706F000E736F640E726FFC
:10226000000E756F640E746F000E776F640E766FDC
:10227000000E796F640E786F000E7B6F000E7A6F20
:10228000000E7D6F000E7C6F000E7F6F010E7E6F63
:10229000000E816F000E806F000E836F000E826F44
:1022A000000E856F000E846F000E876F000E866F24
:1022B000000E896F000E886F000E8B6F010E8A6F03
:1022C000000E8D6F000E8C6F000E8F6F000E8E6FE4
:1022D000000E916F000E906F000E936F000E926FC4
:1022E000000E956F000E946F000E976F000E966FA4
:1022F000000E996F000E986F000E9B6F000E9A6F84
:10230000000E9D6F000E9C6F000E9F6F000E9E6F63
:10231000000EA16F000EA06F000EA36F000EA26F43
:10232000000EA56F010EA46F000EA76F000EA66F22
:10233000000EA96F010EA86F000EAB6F000EAA6F02
:10234000000EAD6F000EAC6F000EAF6F000EAE6FE3
:10235000010EB16FB06912000001D46F000E1A6E49
:102360003D0E196ED4C01BF01C6A1BEC21F0000E50
:102370001A6E3E0E196ED3C01BF01C6A1BEC21F0C6
:10238000ACD1000E1F6E010ED1EC15F00009D8B4CF
:1023900018D0010E0001E86FCAD1010E1F6E010EA8
:1023A000D1EC15F0F3D7010E1F6E000ED1EC15F035
:1023B000EDD7000E1F6E000ED1EC15F00009D8A469
:1023C000E8D7010E15D00001D451010AD8B4EBD7DB
:1023D000030AD8B4EED7010AD8B4D3D7070AD8B4C1
:1023E000DCD7A5D1000E1F6E010ED1EC15F016D072
:1023F00000018C6F010EE86FCCD7010E1F6E010E2D
:10240000D1EC15F00BD0010E1F6E000ED1EC15F0C3
:1024100005D0000E1F6E000ED1EC15F00009D8A4F7
:10242000B8D7020EE5D7D351010AD8B4ECD7030AC6
:10243000D8B4EFD7010AD8B4D5D7070AD8B4DDD7B6
:1024400076D102EC1AF008D002EC1AF005D066EC56
:1024500019F002D066EC19F00009D8A49AD7030E3F
:10246000C7D7D351010AD8B4F2D7030AD8B4F2D7E8
:10247000010AD8B4E6D7070AD8B4E6D758D1000E77
:10248000146E1C0E136E50EC22F013041410D8B40A
:102490009BD0000E146E290E136E50EC22F0130424
:1024A0001410D8B432D0000E146E2A0E136E50ECF5
:1024B00022F013041410D8B434D0000E146E2C0E75
:1024C000136E50EC22F013041410D8B436D0000E62
:1024D000146E2B0E136E50EC22F037D000018C6F6F
:1024E00058D7000E146E1D0E136E50EC22F013041C
:1024F0001410D8B469D0000E146E290E136E50EC6F
:1025000022F013041410D8A402D0050EE7D7000E51
:10251000146E2A0E136E50EC22F013041410D8A47B
:1025200002D0060EDBD7000E146E2C0E136E50EC8C
:1025300022F013041410D8A402D0070ECFD7000E37
:10254000146E2B0E136E50EC22F013041410D8A44A
:1025500020D7080EC3D7000E146E1E0E136E50EC5B
:1025600022F013041410D8B42FD0000E146E290ECC
:10257000136E50EC22F013041410D8B431D0000EB6
:10258000146E2A0E136E50EC22F013041410D8B4FB
:1025900033D0000E146E2C0E136E50EC22F0130488
:1025A0001410D8B435D0000E146E2B0E136E50ECF0
:1025B00022F036D0000E146E1F0E136E50EC22F077
:1025C00013041410D8A402D0040E88D7000E146E81
:1025D000290E136E50EC22F013041410D8A402D06C
:1025E0000C0E7CD7000E146E2A0E136E50EC22F0E7
:1025F00013041410D8A402D00B0E70D7000E146E62
:102600002C0E136E50EC22F013041410D8A402D038
:102610000A0E64D7000E146E2B0E136E50EC22F0CF
:1026200013041410D8A4B5D6090E58D7D351010AF3
:10263000D8B491D7030AD8B4BDD7010AD8B41FD7EC
:10264000070AD8B44ED773D0C6EC18F008D0C6EC41
:1026500018F005D023EC18F002D023EC18F0000994
:10266000D8A497D6000E00018C6F000E94D6D351DB
:10267000010AD8B4EFD7030AD8B4EFD7010AD8B407
:10268000E3D7070AD8B4E3D752D0010ED0EC1CF040
:102690001BD0020ED0EC1CF017D0030EBCEC1BF0CC
:1026A00013D0040EBCEC1BF00FD0040E32EC1BF068
:1026B0000BD0030E32EC1BF007D0020E59EC1DF0CC
:1026C00003D0010E59EC1DF00009D8A462D6030E08
:1026D00005D7000E8C6F010E5ED600018C51000AEA
:1026E000D8B471D6010AD8B49ED6030AD8B4B9D6E4
:1026F000010AD8B49BD7070AD8B4B9D7010AD8B40D
:10270000C4D7030AD8B4C5D7010AD8B4C6D70F0AAC
:10271000D8B4C7D7010AD8B4C8D7030AD8B4C9D720
:10272000010AD8B4CAD7070AD8B4CBD7D2D7E85150
:102730001200110E0001705D270E7159D8A013D13F
:10274000000E716F000E706FE9D0920E766F000E62
:10275000776F920E746F000E756F000E736F010E1F
:10276000726F1200920E746F000E756F76517419AD
:1027700004E177517519D8B4120092C0DEF093C00D
:10278000DFF094C0E0F095C0E1F031EC22F0040EEF
:1027900000017427000E7523000E736F020E726F16
:1027A00012007651741904E177517519D8B41200EA
:1027B00096C0DEF097C0DFF098C0E0F099C0E1F07D
:1027C00031EC22F0040E00017427000E7523000E78
:1027D000736F030E726F12007651741904E1775112
:1027E0007519D8B412009AC0DEF09BC0DFF09CC00F
:1027F000E0F09DC0E1F031EC22F0040E00017427FE
:10280000000E7523000E736F040E726F1200765166
:10281000741904E177517519D8B412009EC0DEF026
:102820009FC0DFF0A0C0E0F0A1C0E1F031EC22F0E9
:10283000040E00017427000E7523000E736F050E41
:10284000726F12007651741904E177517519D8B47A
:102850001200A2C0DEF0A3C0DFF0A4C0E0F0A5C06B
:10286000E1F031EC22F0040E00017427000E752314
:10287000000E736F060E726F12007651741904E128
:1028800077517519D8B41200A6C0DEF0A7C0DFF0EA
:10289000A8C0E0F0A9C0E1F031EC22F0040E000184
:1028A0007427000E7523000E736F070E726F1200EF
:1028B0007651741904E177517519D8B41200AAC081
:1028C000DEF0ABC0DFF0ACC0E0F0ADC0E1F031EC69
:1028D00022F0040E00017427000E7523000E736FA2
:1028E000080E726F12007651741904E17751751950
:1028F000D8B41200AEC0DEF0AFC0DFF0B0C0E0F080
:10290000B1C0E1F031EC22F0920E0001746F000EC4
:10291000756F000E736F010E726F120072C020F09F
:1029200073C021F02150000AD8A412002050000AE0
:10293000D8B40BD7010AD8B415D7030AD8B431D705
:10294000010AD8B449D7070AD8B461D7010AD8B464
:1029500079D7030AD8B491D7010AD8B4A9D70F0AF6
:10296000D8A41200C0D7704B712B1200F8D0920E71
:102970000001766F000E776F76C0D9FF77C0DAFF5F
:1029800013C0DEFF14C0DDFF020E7627000E772392
:1029900076C0D9FF77C0DAFF15C0DEFF16C0DDFFB5
:1029A000020E7627000E7723000E796F010E786FE6
:1029B000120076C0D9FF77C0DAFF13C0DEFF14C063
:1029C000DDFF020E00017627000E772376C0D9FFC7
:1029D00077C0DAFF15C0DEFF16C0DDFF020E7627D6
:1029E000000E7723000E796F020E786F120076C00A
:1029F000D9FF77C0DAFF13C0DEFF14C0DDFF020E7F
:102A000000017627000E772376C0D9FF77C0DAFF62
:102A100015C0DEFF16C0DDFF020E7627000E7723FD
:102A2000000E796F030E786F120076C0D9FF77C061
:102A3000DAFF13C0DEFF14C0DDFF020E00017627AF
:102A4000000E772376C0D9FF77C0DAFF15C0DEFF0E
:102A500016C0DDFF020E7627000E7723000E796F79
:102A6000040E786F120076C0D9FF77C0DAFF13C06A
:102A7000DEFF14C0DDFF020E00017627000E772373
:102A800076C0D9FF77C0DAFF15C0DEFF16C0DDFFC4
:102A9000020E7627000E7723000E796F050E786FF1
:102AA000120076C0D9FF77C0DAFF13C0DEFF14C072
:102AB000DDFF020E00017627000E772376C0D9FFD6
:102AC00077C0DAFF15C0DEFF16C0DDFF020E7627E5
:102AD000000E7723000E796F060E786F120076C015
:102AE000D9FF77C0DAFF13C0DEFF14C0DDFF020E8E
:102AF00000017627000E772376C0D9FF77C0DAFF72
:102B000015C0DEFF16C0DDFF020E7627000E77230C
:102B1000000E796F070E786F120076C0D9FF77C06C
:102B2000DAFF13C0DEFF14C0DDFF020E00017627BE
:102B3000000E772376C0D9FF77C0DAFF15C0DEFF1D
:102B400016C0DDFF020E7627000E7723920E766FF9
:102B5000000E776F000E796F000E786F120078C04C
:102B600017F079C018F01850000AD8A412001750B6
:102B7000000AD8B4FCD6010AD8B41BD7030AD8B4CB
:102B800036D7010AD8B451D7070AD8B46CD7010A8E
:102B9000D8B487D7030AD8B4A2D7010AD8A41200A0
:102BA000BCD7206EE2D0010E4C6E8CD0000E1A6E97
:102BB000400E196E000E1C6E010E1B6E1BEC21F0F8
:102BC000000E1A6E520E196E000E1C6E010E1B6E58
:102BD0001BEC21F0000E1A6E530E196E000E1C6EC7
:102BE000000E1B6E1BEC21F074D0000E1A6E410E0D
:102BF000196E000E1C6E010E1B6E1BEC21F0000EF8
:102C00001A6E520E196E000E1C6E000E1B6E1BEC1F
:102C100021F0000E1A6E530E196E000E1C6E010E7E
:102C20001B6E1BEC21F055D01F50000AD8B4BED744
:102C3000010AD8B4DAD74DD0000E1A6E420E196EC2
:102C4000000E1C6E010E1B6E1BEC21F0000E1A6EA6
:102C5000540E196E000E1C6E010E1B6E1BEC21F043
:102C6000000E1A6E550E196E000E1C6E000E1B6EB5
:102C70001BEC21F02ED0000E1A6E430E196E000EC2
:102C80001C6E010E1B6E1BEC21F0000E1A6E540E12
:102C9000196E000E1C6E000E1B6E1BEC21F0000E58
:102CA0001A6E550E196E000E1C6E010E1B6E1BEC7B
:102CB00021F00FD01F50000AD8B4BED7010AD8B4F3
:102CC000DAD707D02050000AD8B4AED7010AD8B45A
:102CD000F1D7010E2F6E53D0000E146E130E136E2B
:102CE00050EC22F0135000016A5D14506B59D8A0CB
:102CF00008D0020E2F6E000E6B6F000E6A6F010E71
:102D000032D0010E4C6E010E2F6E6A4B6B2B37D0FA
:102D1000000E1A6E400E196E000E1C6E000E1B6E19
:102D20001BEC21F0000E1A6E410E196E000E1C6E87
:102D3000000E1B6E1BEC21F0000E1A6E420E196E77
:102D4000000E1C6E000E1B6E1BEC21F0000E1A6EA6
:102D5000430E196E000E1C6E000E1B6E1BEC21F054
:102D6000000E2F6E000E4C6E0AD02F50000AD8B401
:102D70001AD7010AD8B4B0D7030AD8B4C9D74C506F
:102D8000120000016E516F11D8A4ACD0000E6D6F0F
:102D9000010E6C6F000EF26E000ED26F1B0ED2652C
:102DA00001D095D0D251020D010EF324F66E080E1B
:102DB000F420F76E0800F5CFD1F0D251020D010ECC
:102DC000F324F66E080EF420F76E0900F5CF1DF01F
:102DD0000900F5CF1EF0D8901D361E36000E1D24BA
:102DE000D96E030E1E20DA6ED251020D010EF324AD
:102DF000F66E080EF420F76E0900F5CF21F00900F9
:102E0000F5CF22F0D89021362236000E2124E16E33
:102E1000010E2220E26EDE50E61804E1DE50E618D4
:102E2000D8B453D0D2C013F0146AD251020D010E9F
:102E3000F324F66E080EF420F76E0900F5CF1DF0AE
:102E40000900F5CF1EF0D8901D361E36000E1D2449
:102E5000D96E010E1E20DA6EDECF15F0DDCF16F032
:102E600090EC20F00001D251020D010EF324F66E19
:102E7000080EF420F76E0900F5CF1DF00900F5CF1C
:102E80001EF0D8901D361E36000E1D24D96E010E80
:102E90001E20DA6ED251020D010EF324F66E080EDA
:102EA000F420F76E0900F5CF1FF00900F5CF20F0F0
:102EB000D8901F362036000E1F24E16E030E20200E
:102EC000E26EDECFE6FFDDCFE5FFD22B67D7A00EA7
:102ED000F26E000E6D6F000E6C6F000E1C6E010E18
:102EE0001B6E1200000E1C6E000E1B6E1200730E85
:102EF0000001B219D8A463D0B40E7C6F000E7D6FB0
:102F00007CC019F07DC01AF0BAEC1EF019C022F096
:102F10001AC023F0B70E00017C6F000E7D6F7CC0DD
:102F200019F07DC01AF0BAEC1EF019C020F01AC0DA
:102F300021F022C013F023C014F05EEC22F01350F5
:102F40001410D8A408D0550E0001D16F080ED26F0E
:102F50009DEC1AF0120023500CE10F0E225CD8B049
:102F600008D05C0E0001D16F080ED26F9DEC1AF0F4
:102F70001200235004E15A0E225CD8A008D0630E40
:102F80000001D16F080ED26F9DEC1AF012002028BC
:102F90000BE12128D8A408D06A0E0001D16F080ED9
:102FA000D26F9DEC1AF0120022C015F023C016F06B
:102FB00020C017F021C018F088EC21F01200670E35
:102FC0000001B219D8A41200B40E7C6F000E7D6F00
:102FD0007CC019F07DC01AF0BAEC1EF019C022F0C6
:102FE0001AC023F023500CE10F0E225CD8B008D099
:102FF0005C0E0001D16F080ED26F9DEC1AF012002A
:10300000235004E15A0E225CD8A008D0630E0001C0
:10301000D16F080ED26F9DEC1AF0120022C013F08F
:1030200023C014F050EC22F013C020F014C021F0A3
:1030300022C013F023C014F020C015F021C016F0F8
:10304000B6EC14F0120092D082C01FF083C020F0C2
:10305000000E216E21EC1FF0010E0001E66F000E44
:10306000146E150E136E50EC22F000018251135CA9
:1030700083511458D8A002D0010E74D0000E146EE3
:10308000190E136E50EC22F013500001685D1450BD
:103090006959D8A008D08207D8A08307000E696FAD
:1030A000000E686F71D0684B692B6ED0000E146EE5
:1030B000120E136E50EC22F013500001645D145098
:1030C0006559D8A007D0020E846F000E656F000E00
:1030D000646F49D0010EE66F644B652B010E846F5F
:1030E00053D0000E146E150E136E50EC22F013C068
:1030F000D1F014C0D2F0D1C01FF0D2C020F0000E29
:10310000216E21EC1FF0000E1A6E450E196E000E96
:103110001C6E010E1B6E1BEC21F0000E146E150EC2
:10312000136E50EC22F013C082F014C083F0030E33
:10313000000118D0000E146E140E136E50EC22F025
:1031400013500001645D14506559D8A008D0000EDA
:10315000846F000E656F000E646F000E05D0644B27
:10316000652B030E846F010EE66F0ED000018451B3
:10317000000AD8B469D7010AD8B498D7030AD8B4DA
:10318000B0D7010AD8B4D6D7E65112008FD082C08A
:103190001FF083C020F0010E216E21EC1FF0000E05
:1031A000146E160E136E50EC22F000018251135C67
:1031B00083511458D8A002D0010E74D0000E146EA2
:1031C000190E136E50EC22F013500001685D14507C
:1031D0006959D8A008D08207D8A08307000E696F6C
:1031E000000E686F60D0684B692B5DD0000E146EC6
:1031F000120E136E50EC22F013500001605D14505B
:103200006159D8A007D0020E846F000E616F000EC6
:10321000606F49D0010EE46F604B612B010E846F2B
:1032200053D0000E146E160E136E50EC22F013C025
:10323000D1F014C0D2F0D1C01FF0D2C020F0010EE6
:10324000216E21EC1FF0000E1A6E450E196E000E55
:103250001C6E010E1B6E1BEC21F0000E146E160E80
:10326000136E50EC22F013C082F014C083F0030EF2
:10327000000118D0000E146E140E136E50EC22F0E4
:1032800013500001605D14506159D8A008D0000EA1
:10329000846F000E616F000E606F000E05D0604BF2
:1032A000612B030E846F010EE46F0ED00001845178
:1032B000000AD8B46CD7010AD8B498D7030AD8B496
:1032C000B0D7010AD8B4D6D7E45112008BD0000E83
:1032D000146E140E136E50EC22F013500001665D54
:1032E00014506759D8A002D0010E3ED0664B672B10
:1032F000000E43D0010EE76F83D0000E146E150E42
:10330000136E50EC22F013C0D1F014C0D2F0D1C033
:103310001FF0D2C020F0000E216E21EC1FF0000E35
:10332000146E150E136E50EC22F013C082F014C010
:1033300083F0000E1A6E450E196E000E1C6E000E04
:103340001B6E1BEC21F0020E000117D0000E146E54
:10335000120E136E50EC22F013500001665D1450F3
:103360006759D8A007D0030E846F000E676F000E58
:10337000666FC0D7664B672B020E846FBBD782C0C7
:103380001FF083C020F0000E216E21EC1FF0010E13
:103390000001E76F000E146E180E136E50EC22F051
:1033A00013500001825D14508359D8A004D0000E40
:1033B000846F000EA0D7000E146E1A0E136E50EC20
:1033C00022F013500001685D14506959D8A007D04D
:1033D000824B832B000E696F000E686F11D0684B13
:1033E000692B0ED000018451000AD8B470D7010AAD
:1033F000D8B483D7030AD8B4A9D7010AD8B4BFD7A1
:10340000E75112008AD0000E146E140E136E50ECA9
:1034100022F013500001625D14506359D8A002D00D
:10342000010E3DD0624B632B000E846F73D0000EF3
:10343000146E160E136E50EC22F013C0D1F014C0AF
:10344000D2F0D1C01FF0D2C020F0010E216E21ECCD
:103450001FF0000E146E160E136E50EC22F013C007
:1034600082F014C083F0000E1A6E450E196E000E25
:103470001C6E000E1B6E1BEC21F0010E0001E56FAF
:1034800018D0000E146E120E136E50EC22F0135072
:103490000001625D14506359D8A007D0030E846FF9
:1034A000000E636F000E626F35D0010EE56F624B48
:1034B000632B020E846F3FD082C01FF083C020F0C8
:1034C000010E216E21EC1FF0000E146E170E136E0C
:1034D00050EC22F013500001825D14508359D8A0A3
:1034E00004D0000E846F000E16D0000E146E1A0E5B
:1034F000136E50EC22F013500001685D14506959AE
:10350000D8A006D0824B832B000E696F000E686F27
:10351000684B692B010EE56F0ED000018451000A43
:10352000D8B471D7010AD8B482D7030AD8B4A9D7BE
:10353000010AD8B4C1D7E5511200D30E0001D76FEC
:10354000000ED86F81D0250EDD19D8B404D0DD511E
:1035500078EC22F079D0000E0001D96FD1C0F6FFCF
:10356000D2C0F7FFD14BD22B0800F5CFDDF0DD51F3
:10357000000AD8B41200640AD8B403D00D0AD8A443
:1035800063D0D7C0D9FFD8C0DAFFDECFDBF0DDCF04
:10359000DCF0020ED727000ED823DCAF06D0030ED6
:1035A000D913DB6DDC1FD8B0DC2B010EDD6F050EEF
:1035B000DD19D8B412D0DD51020D390EF324F66EA8
:1035C000080EF420F76E0900F550DB5D0900F55098
:1035D000DC59D8A002D0DD2BEAD7D9C01FF0030EEA
:1035E0001F16D8B403D02D0E78EC22F0DDC0DAF02F
:1035F00026D00001DA51020D390EF324F66E080EC2
:10360000F420F76E0900F5CF15F00A00F5CF16F09B
:10361000DBC013F0DCC014F0F2EC20F013C01AF0A1
:1036200014C01BF0000E1D6E0A0E1C6E67EC21F01C
:103630001A50300F0001DD6FDD5178EC22F00001EF
:10364000DA07DA29D8A4D5D7D1C0F6FFD2C0F7FF60
:103650000001D14BD22B0800F5CFDDF0DD51D8B4FD
:10366000120071D70001D16F7ED0030E0001D11975
:10367000D8B40CD0000E146E350E136E50EC22F040
:103680001350265C14502758D8A007D0010E2E6E78
:10369000000E276E000E266E63D0264A272A60D0C1
:1036A000040E0001D119D8A426D082C01FF083C017
:1036B00020F0000E216E21EC1FF0000E146E2E0E75
:1036C000136E50EC22F000018251135C83511458A8
:1036D000D8B02AD0000E146E1A0E136E50EC22F0E1
:1036E00013500001685D14506959D8A037D0820783
:1036F000D8A083072ED0030ED119D8A431D082C010
:103700001FF083C020F0000E216E21EC1FF0000E90
:10371000146E180E136E50EC22F013500001825DEF
:1037200014508359D8A006D0000E846F000E2E6E60
:10373000000E17D0000E146E1A0E136E50EC22F00D
:1037400013500001685D14506959D8A007D0824B0E
:10375000832B000E696F000E686F02D0684B692BD7
:10376000010E4B6E07D02E50000AD8B47ED7010A46
:10377000D8B496D74B5012000001D16F7ED0040E02
:103780000001D119D8B40CD0000E146E380E136E8F
:1037900050EC22F01350265C14502758D8A007D0C4
:1037A000010E2E6E000E276E000E266E63D0264A86
:1037B000272A60D0030E0001D119D8A425D082C0D9
:1037C0001FF083C020F0010E216E21EC1FF0000ECF
:1037D000146E2F0E136E50EC22F013500001825D18
:1037E00014508359D8B029D0000E146E1A0E136EDF
:1037F00050EC22F013500001685D14506959D8A0B4
:1038000037D0824B832B2FD0040ED119D8A432D0BD
:1038100082C01FF083C020F0010E216E21EC1FF04A
:10382000000E146E170E136E50EC22F00001825140
:10383000135C83511458D8A006D0000E846F000E7C
:103840002E6E000E18D0000E146E1A0E136E50EC71
:1038500022F013500001685D14506959D8A008D0B7
:103860008207D8A08307000E696F000E686F02D030
:10387000684B692B010E486E07D02E50000AD8B451
:103880007ED7010AD8B496D7485012003F50D8B41A
:103890007BD0C3EC21F00001886F6BD0B20E7C6F3F
:1038A000000E7D6FFF0EDE6FFF0EDF6F430EF66EB4
:1038B000080EF76E0800F550E06FE16BDE51E0276F
:1038C000DF51E123B20EE0257A6F000EE1217B6F1C
:1038D000730E8819D8B404D0670E8819D8A40AD0FA
:1038E0007CC0D9FF7DC0DAFF88C0DFFF7C4B7D2B19
:1038F000010E3DD0000E3BD0780E8819D8A4FAD71F
:103900007CC0D9FF7DC0DAFF88C0DFFF2DD0470E15
:103910008819D8B409D013D07CC0D9FF7DC0DAFF94
:10392000000EDF6E7C4B7D2B7A517C5D7B517D5987
:10393000D8A0F2D7030E876F010E866F25D07CC00A
:10394000D9FF7DC0DAFF88C0DFFF7C517A5D7D51F1
:103950007B59D8B009D04E0ED16F080ED26F9DECB6
:103960001AF0000E000103D07C4B7D2B020E876FF6
:103970000BD08751000AD8B491D7010AD8B4BCD76C
:10398000030AD8B4C4D7010A00018605D8A41200DE
:1039900077EC17F0000E0001866F000E876F1200A3
:1039A0000001D16F7DD0020E0001D119D8B40CD026
:1039B000000E146E3B0E136E50EC22F01350265C7A
:1039C00014502758D8A007D0010E2E6E000E276E77
:1039D000000E266E62D0264A272A5FD00001D1054C
:1039E000D8A426D082C01FF083C020F0010E216E23
:1039F00021EC1FF0000E146E310E136E50EC22F00D
:103A000000018251135C83511458D8B02AD0000EA3
:103A1000146E1A0E136E50EC22F013500001685D04
:103A200014506959D8A037D08207D8A083072ED068
:103A3000020ED119D8A431D082C01FF083C020F06B
:103A4000010E216E21EC1FF0000E146E170E136E86
:103A500050EC22F013500001825D14508359D8A01D
:103A600006D0000E846F000E2E6E000E17D0000ED2
:103A7000146E1A0E136E50EC22F013500001685DA4
:103A800014506959D8A007D0824B832B000E696F60
:103A9000000E686F02D0684B692B010E496E07D08B
:103AA0002E50000AD8B47FD7010AD8B497D749500E
:103AB00012000001D16F7CD00001D105D8B40CD028
:103AC000000E146E3A0E136E50EC22F01350265C6A
:103AD00014502758D8A007D0010E2E6E000E276E66
:103AE000000E266E62D0264A272A5FD0020E000101
:103AF000D119D8A425D082C01FF083C020F0000EB9
:103B0000216E21EC1FF0000E146E340E136E50EC7B
:103B100022F013500001825D14508359D8B028D090
:103B2000000E146E1A0E136E50EC22F013500001AA
:103B3000685D14506959D8A036D0824B832B2ED0A3
:103B4000D105D8A432D082C01FF083C020F0000E6F
:103B5000216E21EC1FF0000E146E180E136E50EC47
:103B600022F000018251135C83511458D8A006D072
:103B7000000E846F000E2E6E000E18D0000E146E14
:103B80001A0E136E50EC22F013500001685D1450B1
:103B90006959D8A008D08207D8A08307000E696FA2
:103BA000000E686F02D0684B692B010E4A6E07D079
:103BB0002E50000AD8B480D7010AD8B497D74A50FB
:103BC00012000600FACF01F0FBCF02F0E9CF03F0BC
:103BD000EACF04F0E1CF05F0E2CF06F0D9CF07F04D
:103BE000DACF08F0F3CF09F0F4CF0AF0F6CF0BF0FC
:103BF000F7CF0CF0F8CF0DF0F5CF0EF04DC00FF071
:103C00004EC010F04FC011F050C012F0F2A419D005
:103C10002D5006E1650E2C5CD8B002D0808801D012
:103C20008098BC0E2C5C020E2D58D8A004D0000E3B
:103C30002D6E000E2C6E2C4A2D2A010E0001916F64
:103C4000F2949DBA9EAA02D0F4EC21F09DB89EA8F1
:103C500002D0DDEC21F012C050F011C04FF010C0C6
:103C60004EF00FC04DF00EC0F5FF0DC0F8FF0CC0B8
:103C7000F7FF0BC0F6FF0AC0F4FF09C0F3FF08C04E
:103C8000DAFF07C0D9FF06C0E2FF05C0E1FF04C0AC
:103C9000EAFF03C0E9FF02C0FBFF01C0FAFF4D923B
:103CA0001100000E216E000E206E000E1F6E00012E
:103CB0006C516D11D8A459D0000E6F6F010E6E6F4C
:103CC000000EF26E000E216E1B0E216401D041D059
:103CD00021C013F0146AC4EC20F013C01FF014C00C
:103CE00020F02150020D010EF324F66E080EF42090
:103CF000F76E0900F5CF1DF00900F5CF1EF0D89042
:103D00001D361E36000E1D24D96E010E1E20DA6EE1
:103D10001FC0DEFF20C0DDFF2150020D010EF32485
:103D2000F66E080EF420F76E0900F5CF1DF00900BD
:103D3000F5CF1EF0D8901D361E36000E1D24D96E0C
:103D4000030E1E20DA6E1FC0DEFF20C0DDFF212A19
:103D5000BBD7A00EF26E000E00016F6F000E6E6FEB
:103D6000000E1C6E010E1B6E1200000E1C6E000E6B
:103D70001B6E120002D0194A1A2A19C0D9FF1AC0A4
:103D8000DAFF200EDE18D8B4F6D719C0D9FF1AC052
:103D9000DAFF090EDE18D8B4EED7000E1F6E000E43
:103DA0001E6E000E1D6E19C0D9FF1AC0DAFF2D0E4F
:103DB000DE18D8A402D01D2A24D019C0D9FF1AC0F9
:103DC000DAFF2B0EDE18D8A41ED01BD01EC013F0B5
:103DD0001FC014F0000E166E0A0E156E1EEC22F0B7
:103DE00019C0D9FF1AC0DAFFDF501B6E1C6A1350CE
:103DF0001B2614501C22D00E1B241E6EFF0E1C20EE
:103E00001F6E194A1A2A19C0D9FF1AC0DAFFDF50EB
:103E100041EC22F0D8B0DAD71D50D8B40DD01EC076
:103E20001BF01FC01CF01B1E1C1E1B4A1C2A1BC0A3
:103E300019F01CC01AF012001EC019F01FC01AF0B1
:103E40001200010E256E24682150226E236A000E96
:103E5000146E560E136E50EC22F02250131804E12B
:103E600023501418D8B409D0000E1A6E560E196ECD
:103E700021C01BF01C6A1BEC21F02150D8A41CD0DF
:103E80001FC022F020C023F0D89022362336221EF5
:103E9000231E224A232AFF0E2224246E010E2320F1
:103EA000256E000E1A6E580E196E24C01BF025C028
:103EB0001CF01BEC21F012002104D8A412001FC03A
:103EC00022F020C023F0D89022362336FF0E222481
:103ED000246E010E2320256E000E1A6E580E196EE8
:103EE00024C01BF025C01CF01BEC21F012009268CE
:103EF00093689468956896680F0EC16E070EB46E4D
:103F00009298959A959C8098839C839A929092928D
:103F100092949296809680948092809095849586D3
:103F200095809582948295889680968293809382DC
:103F3000938493869388938A958E2EEC0FF01F0EB0
:103F40000001E36F710EE26F1E0EE82EFED7E22F26
:103F5000FCD7E32FFAD700F051EC1EF01B501C10D9
:103F6000D8B4FAD70AEC22F06CEC22F043EC21F042
:103F700000019105D8A404D0000E916F39EC04F033
:103F800046EC1CF099EC13F0F3D7FC0EF66E440EE1
:103F9000F76E000EF86E00EEE4F010EE06F0090089
:103FA000F5CFEEFFE550E150FAE1020EF66E450E58
:103FB000F76E000EF86E00EE48F010EE05F0090006
:103FC000F5CFEEFFE550E150FAE104EE00F0FC0E13
:103FD000EE6AE806FDE103EE00F0B20EEE6AE806D6
:103FE000FDE102EE00F0B20EEE6AE806FDE101EE40
:103FF00000F0B20EEE6AE806FDE100EE60F05C0E45
:10400000EE6AE806FDE100EE26F0220EEE6AE80612
:10401000FDE14D904D92000EF86E000177EF1FF01C
:10402000136E30D0839A1200838A1200284A292AFC
:10403000B80E285C0B0E2958D8A004D0000E296EAB
:10404000000E286EDC0E285C050E2958D8A002D080
:10405000838A1200839A1200284A292AE80E285CD3
:10406000030E2958D8A004D0000E296E000E286E29
:10407000F40E285C010E2958D8A002D0838A1200C1
:10408000839A12001350000AD8B4CCD7010AD8B4CE
:10409000CBD7030AD8B4CAD7010AD8A41200DCD7F8
:1040A000136E30D0839C1200838C12002A4A2B2A74
:1040B000B80E2A5C0B0E2B58D8A004D0000E2B6E25
:1040C000000E2A6EDC0E2A5C050E2B58D8A002D0FA
:1040D000838C1200839C12002A4A2B2AE80E2A5C49
:1040E000030E2B58D8A004D0000E2B6E000E2A6EA3
:1040F000F40E2A5C010E2B58D8A002D0838C12003B
:10410000839C12001350000AD8B4CCD7010AD8B44B
:10411000CBD7030AD8B4CAD7010AD8A41200DCD777
:10412000D8901334196E14341A6E010E1924176EB8
:10413000000E1A20186EA69619C0A9FF1650A86E78
:10414000A69EA69CA684550EA76EAA0EA76EA68252
:10415000A6A202D0A1A8FCD7A198A69617C0A9FF35
:1041600015C0A8FFA69EA69CA684000EF26E550E52
:10417000A76EAA0EA76EA682A6A202D0A1A8FCD7FF
:10418000A198A694A9681200D8901334176E14341D
:10419000186E010E1724156E000E1820166E000EF4
:1041A0001A6E000E196EA69EA69C17C0A9FFA680C7
:1041B000A6B0FED7A8CF19F01A6A19501A6E196A5C
:1041C000A69EA69C15C0A9FFA680A6B0FED7195032
:1041D000A810196E1A501A6EA96819C013F01AC0E7
:1041E00014F01200000E196E000E186E1550161005
:1041F000D8B41CD0010E176E04D0D89015361636E0
:10420000172A16AEFAD7D890183619361550135CFF
:1042100016501458D8A005D01550135E1650145AD5
:104220001880D89016321532172EEDD718C013F01B
:1042300019C014F01200D8901934D96E1A34DA6EFD
:10424000000ED926010EDA221B50DE1804E11C50A4
:10425000DE18D8B41200D8901934D96E1A34DA6E38
:10426000000ED926010EDA221BC0DEFF1CC0DDFFC6
:1042700019C013F01AC014F01BC015F01CC016F0C2
:10428000B6EC14F012009D9A9D98B886AB8EAB9C4C
:10429000AB88AB96AC9CAC8AAC98AC96AC84AC8248
:1042A000AC90010E146EA10E136E1450B06E13C0BC
:1042B000AFFF000E446E000E436E7E0E426E000E87
:1042C000416E000E406E000E3F6E9D8A12001C5023
:1042D0001D10D8B418D0010E1E6E04D0D8901C3614
:1042E0001D361E2A1DAEFAD71C501A5C1D501B58D5
:1042F000D8A004D01C501A5E1D501B5AD8901D32F5
:104300001C321E2EF1D71AC01AF01BC01BF012006F
:10431000D8901534D96E1634DA6E000ED926010EF7
:10432000DA221750DE1804E11850DE18D8B4120053
:10433000D8901534D96E1634DA6E000ED926010ED7
:10434000DA2217C0DEFF18C0DDFF120015C017F01B
:1043500016C018F0060ED89017361836E82EFBD780
:1043600017C019F018C01AF01AC0BEFF19C017F014
:10437000D8901732D8901732300E1716BD50CF0B89
:104380001710BD6E1200000E136E3F50D8B4FDD74B
:104390009D9A4050010D000EF324D96E040EF420B6
:1043A000DA6EDF50136E402A7D0E406402D0000E9C
:1043B000406E3F069D8A135012007E0E426012D05E
:1043C0004350010D7E0EF324D96E040EF420DA6EF4
:1043D000DF50AD6E432A7D0E436402D0000E436E63
:1043E000422A12009D981200ABA202D0AB98AB8873
:1043F0004150010D000EF324D96E040EF420DA6E44
:10440000AECFDFFF412A7D0E416402D0000E416E27
:104410003F2A1200000E1A6E450E196E000E1C6E19
:10442000010E1B6E1BEC21F0CB687F0EBE6E0F0ED3
:10443000BD6E040ECA6E949494901200135015022F
:10444000F3CF17F0F4CF18F013501602F3501826DC
:1044500014501502F350182617C013F018C014F0AA
:104460001200440E0001D16F080ED26FDEC0D3F0EF
:10447000DFC0D4F0E0C0D5F0E1C0D6F09DEC1AF07A
:104480001200156E000E146E3A0E156005D02F0E38
:10449000156402D0010E146E14C013F01330120014
:1044A000D8901334D96E1434DA6E000ED926010E6A
:1044B000DA22DECF13F0DDCF14F01200D8901334DF
:1044C000D96E1434DA6E000ED926020EDA22DECF4F
:1044D00013F0DDCF14F01200D08EA00EF26E840E19
:1044E000F16E000ED76E000ED66EC30ED56E1200A2
:1044F000136E9EA8FED713C0ADFF1200010101018B
:0745000001010101010101AD
:020000040020DA
:08000000FFFFFFFFFFFFFFFF00
:020000040030CA
:0E0000002C0E0E00FF8181FF0FC00FE00F409D
:00000001FF
