:0400000053EF00F0CA
:0E0008004082FACF01F0FBCF02F058ED1BF062
:100018004080D8CF0FF0E8CF10F0E0CF11F0FACF42
:1000280012F0FBCF13F0E9CF14F0EACF15F0E1CFCF
:1000380016F0E2CF17F0D9CF18F0DACF19F0F3CFD6
:100048001AF0F4CF1BF0F6CF1CF0F7CF1DF0F8CF65
:100058001EF0F5CF1FF01FC0F5FF1EC0F8FF1DC032
:10006800F7FF1CC0F6FF1BC0F4FF1AC0F3FF19C04E
:10007800DAFF18C0D9FF17C0E2FF16C0E1FF15C0AC
:10008800EAFF14C0E9FF13C0FBFF12C0FAFF11C05A
:10009800E0FF10C0E8FF0FC0D8FF40901000F0EF5D
:0200A8001CF04A
:100800000001001000000100100A3031323334358D
:1008100036373839616263646566000D0A4D2325F9
:100820007820257825780D0A000D58300D0A000033
:1008300032EC0CF01DEF0CF0000E3AEC1CF0000E48
:10084000FAEC1BF0010E12D0230E38EC1EF0000162
:10085000605100016111D8B40DD0000E00017D6F10
:10086000000E7C6F270E23EC1DF04BD00001A76F0C
:100870002AEF0CF0240E38EC1EF00001605100014C
:100880006111D8B409D0000E00017D6F010E7C6F9C
:10089000270E23EC1DF035D0250E38EC1EF000019C
:1008A000605100016111D8B409D0000E00017D6FC4
:1008B000020E7C6F270E23EC1DF023D0260E38ECA1
:1008C0001EF00001605100016111D8B409D0000E82
:1008D00000017D6F030E7C6F270E23EC1DF011D0FD
:1008E000220E38EC1EF00001605100016111D8B4F5
:1008F0000AD0000E00017D6F040E7C6F270E23ECE2
:100900001DF0020EB3D7010E0001A76F020E3AECE4
:100910001CF02AEF0CF0230E38EC1EF000016051A1
:1009200000016111D8A430D0240E38EC1EF0000173
:10093000605100016111D8A427D0250E38EC1EF0BB
:100940000001605100016111D8A41ED0260E38ECC0
:100950001EF00001605100016111D8A415D0220ED3
:1009600038EC1EF00001605100016111D8A40CD0D8
:10097000200E38EC1EF00001605100016111D8A476
:1009800003D0030E0001A76F000EFAEC1BF0020E5D
:100990003AEC1CF02AEF0CF0230E38EC1EF00001AC
:1009A000605100016111D8B409D0000E00017D6FC3
:1009B000000E7C6F280E23EC1DF059D0240E38EC6D
:1009C0001EF00001605100016111D8B409D0000E81
:1009D00000017D6F010E7C6F280E23EC1DF047D0C7
:1009E000250E38EC1EF00001605100016111D8B4F1
:1009F00009D0000E00017D6F020E7C6F280E23ECE3
:100A00001DF035D0260E38EC1EF0000160510001BB
:100A10006111D8B409D0000E00017D6F030E7C6F08
:100A2000280E23EC1DF023D0220E38EC1EF000011E
:100A3000605100016111D8B409D0000E00017D6F32
:100A4000040E7C6F280E23EC1DF011D0200E38EC24
:100A50001EF00001605100016111D8B40AD0000EEF
:100A600000017D6F090E7C6F280E23EC1DF0040E33
:100A7000FDD6020E3AEC1CF0030EF8D6230E38EC2D
:100A80001EF00001605100016111D8A460D0240E55
:100A900038EC1EF00001605100016111D8A457D05C
:100AA000250E38EC1EF00001605100016111D8A440
:100AB0004ED0260E38EC1EF000016051000161118D
:100AC000D8A445D0220E38EC1EF000016051000180
:100AD0006111D8A43CD0200E38EC1EF0000160510A
:100AE00000016111D8A433D0270E38EC1EF060C08D
:100AF0008BF061C08CF0280E38EC1EF000016051C4
:100B000000018B190CE10001615100018C19D8A47E
:100B100006D0010EFAEC1BF0010E0001A76F270EA4
:100B200038EC1EF060C08BF061C08CF0280E38EC01
:100B30001EF00001605100018B1906E100016151B6
:100B400000018C19D8B403D0050E0001A76F020E66
:100B50003AEC1CF02AEF0CF0280E38EC1EF0090ECF
:100B60000001601900016111D8B403D0060E000124
:100B7000A76F280E38EC1EF0090E00016019000165
:100B80006111D8A42AEF0CF0090E70D6080E6ED6AB
:100B9000200E38EC1EF00001605100016111D8B444
:100BA00009D0010E0001A96F000E0001A76F000E11
:100BB0000001A16F030E3AEC1CF0000EFAEC1BF0E2
:100BC0002AEF0CF0270E38EC1EF0040E000160191D
:100BD00000016111D8B415D02BD0010E05D0050E3F
:100BE00003D0020E01D0030E0001AB6F070E00010F
:100BF000A76F1ED0080E0001A76F010EFAEC1BF0C4
:100C000017D0280E38EC1EF000016151000AD8A45C
:100C1000F1D700016051000AD8B4DFD7010AD8B477
:100C2000DED7030AD8B4DDD7010AD8B4DCD7E2D7BF
:100C3000280E38EC1EF0040E00016019000161114D
:100C4000D8B415D02BD0010E05D0050E03D0020E5E
:100C500001D0030E0001AB6F070E0001A76F1ED07D
:100C6000080E0001A76F010EFAEC1BF017D0270E3B
:100C700038EC1EF000016151000AD8A4F1D7000140
:100C80006051000AD8B4DFD7010AD8B4DED7030A0E
:100C9000D8B4DDD7010AD8B4DCD7E2D7270E38ECB8
:100CA0001EF0040E0001601900016111D8B42AEF92
:100CB0000CF0280E38EC1EF0040E00016019000143
:100CC0006111D8A497D02AEF0CF0010E66D0020E65
:100CD00064D0040E62D0080E0001A76F010EFAEC7A
:100CE0001BF02AEF0CF0280E38EC1EF000016151C9
:100CF000000AD8A4F0D700016051000AD8B451D03E
:100D0000010AD8B4E2D7030AD8B4E1D7010AD8B4AB
:100D1000E0D7E1D7000E41D0080E0001A76F010E09
:100D2000FAEC1BF02AEF0CF0280E38EC1EF0000154
:100D30006151000AD8A4F0D700016051000AD8B46C
:100D4000C4D7010AD8B42DD0030AD8B4E3D7010A16
:100D5000D8B420D0E1D7080E0001A76F010EFAEC3D
:100D60001BF02AEF0CF0280E38EC1EF00001615148
:100D7000000AD8A4F0D700016051000AD8B4A7D760
:100D8000010AD8B4C7D7030AD8B40BD0010AD8B423
:100D900003D0E1D7060E01D0030E0001AB6F070EA2
:100DA00065D5000E63D5080E0001A76F010EFAECA1
:100DB0001BF02AEF0CF0280E38EC1EF000016151F8
:100DC000000AD8A4F0D700016051000AD8B481D736
:100DD000010AD8B4DFD7030AD8B4DED7010AD8B4E1
:100DE000E0D7E1D7080E0001A76F010EFAEC1BF067
:100DF0002AEF0CF0270E38EC1EF000016151000ABA
:100E0000D8A4F0D700016051000AD8B46CD7010A09
:100E1000D8B48AD7030AD8B4A6D7010AD8B4CBD796
:100E2000E1D70B0E23D5200E38EC1EF000016051E7
:100E300000016111D8B409D0020E0001A96F000EA3
:100E40000001A76F000E0001A16F030E3AEC1CF029
:100E5000000EFAEC1BF02AEF0CF0270E38EC1EF017
:100E6000040E0001601900016111D8A413D0000E16
:100E700005D0010E03D0030E01D0020E0001AB6FAE
:100E80000A0EF4D40B0E0001A76F010EFAEC1BF052
:100E90002AEF0CF0270E38EC1EF000016151000A19
:100EA000D8A4F0D700016051000AD8B4E2D7010AF3
:100EB000D8B4E1D7030AD8B4DAD7010AD8B4DDD759
:100EC000E1D7000E0001A76F010EFAEC1BF02AEF2C
:100ED0000CF00001A751000AD8B4AED4010AD8B46E
:100EE000B3D4030AD8B417D5010AD8B455D5070A24
:100EF000D8B4C4D5010AD8B42FD6030AD8B446D67C
:100F0000010AD8B445D60F0AD8B45CD6010AD8B4C1
:100F100088D7030AD8B487D7010AD8B49ED7D1D7C7
:100F2000000E0001896F020E92EC12F00009D8A4A5
:100F30004AD2010E0001AB6F89EC1AF00001A10545
:100F4000D8A441D2000E0001A96F3DD2020E0001CB
:100F5000896F010E92EC12F00009D8A434D2020E6F
:100F60000001AB6F89EC1AF0E9D7030E0001896F1D
:100F7000000E92EC12F00009D8A425D2030E000155
:100F8000AB6F89EC1AF0DAD7000E0001896F020E00
:100F900092EC12F00009D8A416D2040E0001AB6F37
:100FA00089EC1AF0CBD7010E0001896F030E92EC89
:100FB00012F00009D8A407D2050E0001AB6F89EC2E
:100FC0001AF0BCD7030E0001896F000E92EC12F0EC
:100FD0000009D8A4F8D1060E0001AB6F89EC1AF015
:100FE000ADD7020E0001896F010E92EC12F00009DC
:100FF000D8A4E9D1070E0001AB6F89EC1AF09ED797
:10100000010E0001896F030E92EC12F00009D8A4C2
:10101000DAD1000E0001AB6F89EC1AF08FD7000116
:10102000AB51000AD8B47CD7010AD8B48FD7030AD1
:10103000D8B49BD7010AD8B4A7D7070AD8B4B3D776
:10104000010AD8B4BFD7030AD8B4CBD7010AD8B4A1
:10105000D7D7B9D1240E38EC1EF000016051000141
:101060006111D8B410D0260E38EC1EF0000160518A
:1010700000016111D8B407D0010E0001A26F030E68
:10108000FAEC1BF0ACD1000E0001A26F000EFAECDE
:101090001BF0A5D1240E38EC1EF0000160510001B8
:1010A0006111D8A410D0260E38EC1EF0000160515A
:1010B00000016111D8A407D0020E0001A26F030E37
:1010C000FAEC1BF006D0010E0001A26F030EFAEC41
:1010D0001BF0270E0001986F100E976F80D1240E21
:1010E00038EC1EF00001605100016111D8A420D03D
:1010F000260E38EC1EF00001605100016111D8A4E9
:1011000017D0250E38EC1EF000016051000161116E
:10111000D8A40ED0230E38EC1EF00001605100015F
:101120006111D8A405D000019707D8A0980705D071
:10113000270E0001986F100E976F030EFAEC1BF04C
:1011400050D0000E3ED0170E38EC1EF060C08BF071
:1011500061C08CF0160E38EC1EF0000160510001E9
:101160008B5D0001615100018C59D8A003D0170E8E
:10117000CCEC1DF0150E38EC1EF060C08BF061C099
:101180008CF0180E38EC1EF00001605100018B5DF0
:101190000001615100018C59D8A003D0180EFAEC5F
:1011A0001DF0010E0ED000019A5105E1140E000150
:1011B000995DD8A009D0000E00019A6F000E996FBA
:1011C000C0D70001A36F59D00001994B9A2B55D07D
:1011D0000001A351000AD8B4B6D7010AD8B4E3D7A6
:1011E000B0D7230E38EC1EF000016151000AD8A4DC
:1011F00044D000016051000AD8B4A3D7010AD8B482
:10120000E7D73BD0000E29D0170E38EC1EF00001B6
:101210006029030E00016159D8B003D0170EFAEC13
:101220001DF0180E38EC1EF0000160510001611134
:10123000D8B403D0180ECCEC1DF0010E0ED0000176
:101240009A5105E1140E0001995DD8A009D0000E55
:1012500000019A6F000E996FD5D70001A46F4ED090
:101260000001994B9A2B4AD00001A451000AD8B42E
:10127000CBD7010AD8B4E3D7C5D7240E38EC1EF07B
:1012800000016151000AD8A439D000016051000A60
:10129000D8B4B8D7010AD8B4E7D730D0000E1ED0E2
:1012A000190E38EC1EF00001615108E1FB0E00013F
:1012B000605DD8B003D0190EFAEC1DF0010E0ED00F
:1012C00000019A5105E1140E0001995DD8A009D0E2
:1012D000000E00019A6F000E996FE0D70001A56F14
:1012E0004CD00001994B9A2B48D00001A551000A1F
:1012F000D8B4D6D7010AD8B4E3D7D0D7250E38EC66
:101300001EF000016151000AD8A437D000016051DD
:10131000000AD8B4C3D7010AD8B4E7D72ED0000E3C
:101320001CD0190E38EC1EF0000160510001611153
:10133000D8B403D0190ECCEC1DF0010E0ED0000174
:101340009A5105E1140E0001995DD8A009D0000E54
:1013500000019A6F000E996FE2D70001A66F1DD0B1
:101360000001994B9A2B19D00001A651000AD8B45C
:10137000D8D7010AD8B4E3D7D2D7260E38EC1EF05E
:1013800000016151000AD8A408D000016051000A90
:10139000D8B4C5D7010AD8B4E7D7000198511FE1E6
:1013A000020E0001975DD8B01AD0000E0001A26FA6
:1013B000000EFAEC1BF013D0000E0001A26F000E1D
:1013C000FAEC1BF00CD00001A251000AD8B442D6AE
:1013D000010AD8B45FD6030AD8B481D6EDD7210E5E
:1013E00038EC1EF00001605100016111D8B403D047
:1013F000010E0001A16F0001A105D8A403D0020EC7
:10140000FAEC1BF0010E3AEC1CF024D2000E0001A5
:10141000896F020E92EC12F00009D8A402D2010EDC
:101420000001AB6F89EC1AF00001A105D8A4F9D135
:10143000000E0001A96FF5D1030E0001896F000EA7
:1014400092EC12F00009D8A4ECD1020E0001AB6FAF
:1014500089EC1AF0E9D7010E0001896F030E92ECB6
:1014600012F00009D8A4DDD1030E0001AB6F89ECA6
:101470001AF0DAD7020E0001896F010E92EC12F019
:101480000009D8A4CED1000E0001AB6F89EC1AF090
:10149000CBD70001AB51000AD8B4B8D7010AD8B4F1
:1014A000CBD7030AD8B4D7D7010AD8B4E3D7B9D178
:1014B000240E38EC1EF00001605100016111D8B417
:1014C00010D0260E38EC1EF00001605100016111B1
:1014D000D8B407D0010E0001A26F030EFAEC1BF086
:1014E000B9D1000E0001A26F000EFAEC1BF0B2D1D0
:1014F000240E38EC1EF00001605100016111D8A4E7
:1015000010D0260E38EC1EF0000160510001611170
:10151000D8A407D0020E0001A26F030EFAEC1BF054
:1015200006D0010E0001A26F030EFAEC1BF0270E8D
:101530000001986F100E976F8DD1240E38EC1EF0BD
:101540000001605100016111D8A420D0260E38ECB2
:101550001EF00001605100016111D8A417D0250EC2
:1015600038EC1EF00001605100016111D8A40ED0CA
:10157000230E38EC1EF00001605100016111D8A467
:1015800005D000019707D8A0980705D0270E0001C5
:10159000986F100E976F030EFAEC1BF050D0000EF0
:1015A0003ED0170E38EC1EF060C08BF061C08CF09E
:1015B000160E38EC1EF00001605100018B5D000139
:1015C000615100018C59D8A003D0170ECCEC1DF04E
:1015D000150E38EC1EF060C08BF061C08CF0180E58
:1015E00038EC1EF00001605100018B5D000161517B
:1015F00000018C59D8A003D0180EFAEC1DF0010E92
:101600000ED000019A5105E1140E0001995DD8A099
:1016100009D0000E00019A6F000E996FC0D700012B
:10162000A36F59D00001994B9A2B55D00001A351BB
:10163000000AD8B4B6D7010AD8B4E3D7B0D7230E7E
:1016400038EC1EF000016151000AD8A444D000011A
:101650006051000AD8B4A3D7010AD8B4E7D73BD069
:10166000000E29D0170E38EC1EF000016029030E81
:1016700000016159D8B003D0170EFAEC1DF0180E16
:1016800038EC1EF00001605100016111D8B403D0A4
:10169000180ECCEC1DF0010E0ED000019A5105E1A0
:1016A000140E0001995DD8A009D0000E00019A6FB8
:1016B000000E996FD5D70001A46F4ED00001994B51
:1016C0009A2B4AD00001A451000AD8B4CBD7010A02
:1016D000D8B4E3D7C5D7240E38EC1EF00001615111
:1016E000000AD8A439D000016051000AD8B4B8D794
:1016F000010AD8B4E7D730D0000E1ED0190E38EC4E
:101700001EF00001615108E1FB0E0001605DD8B0E0
:1017100003D0190EFAEC1DF0010E0ED000019A5103
:1017200005E1140E0001995DD8A009D0000E00015A
:101730009A6F000E996FE0D70001A56F4CD00001A1
:10174000994B9A2B48D00001A551000AD8B4D6D79E
:10175000010AD8B4E3D7D0D7250E38EC1EF000012B
:101760006151000AD8A437D000016051000AD8B4F2
:10177000C3D7010AD8B4E7D72ED0000E1CD0190E5B
:1017800038EC1EF00001605100016111D8B403D0A3
:10179000190ECCEC1DF0010E0ED000019A5105E19E
:1017A000140E0001995DD8A009D0000E00019A6FB7
:1017B000000E996FE2D70001A66F1DD00001994B72
:1017C0009A2B19D00001A651000AD8B4D8D7010A23
:1017D000D8B4E3D7D2D7260E38EC1EF00001615101
:1017E000000AD8A408D000016051000AD8B4C5D7B7
:1017F000010AD8B4E7D7000198512CE1020E00018C
:10180000975DD8B027D0000E0001A26F000EFAEC51
:101810001BF020D0000E0001A26F000EFAEC1BF0AE
:1018200019D00001A251000AD8B442D6010AD8B496
:101830005FD6030AD8B481D6EDD70001A951000ABA
:10184000D8B469EF07F0010AD8B40FEF08F0030A23
:10185000D8B41FD6A9C07CF000017D6B3F0E23ECED
:101860001DF01200400E38EC1EF000016047000130
:10187000604700016047805000016019F70B0001CC
:101880006019806E410E38EC1EF0000160470001C7
:101890006047805000016019FB0B00016019806EE9
:1018A000420E38EC1EF000016047805000016019C4
:1018B000FD0B00016019806E430E38EC1EF0805065
:1018C00000016019FE0B00016019806E450E38ECB6
:1018D0001EF0825000016019FE0B00016019826E3B
:1018E000440E38EC1EF060C062F061C063F073EC2F
:1018F0001DF02AD03250D8B402D032065BD0000E90
:1019000000017D6F000E7C6F1F0E23EC1DF052D086
:1019100032500001816F826B1B0E38EC1EF000010B
:1019200081510001605D0001825100016159D8A020
:1019300002D0322A3FD0000E00017D6F010E7C6F75
:101940001F0E23EC1DF036D083A202D0010E01D071
:10195000000E000AD8B4DCD7010AD8B4CBD72AD0FD
:101960003150D8B402D031065BD0000E00017D6F3B
:10197000000E7C6F1E0E23EC1DF052D03150000182
:10198000816F826B1B0E38EC1EF00001815100014B
:10199000605D0001825100016159D8A002D0312A56
:1019A0003FD0000E00017D6F010E7C6F1E0E23ECF8
:1019B0001DF036D083A002D0010E01D0000E000A27
:1019C000D8B4DCD7010AD8B4CBD72AD03650D8B493
:1019D00002D036065BD0000E00017D6F000E7C6FDA
:1019E0001D0E23EC1DF052D036500001816F826B2A
:1019F0001B0E38EC1EF0000181510001605D0001FA
:101A0000825100016159D8A002D0362A3FD0000E81
:101A100000017D6F010E7C6F1D0E23EC1DF036D092
:101A200083A602D0010E01D0000E000AD8B4DCD784
:101A3000010AD8B4CBD72AD03550D8B402D0350655
:101A40005BD0000E00017D6F000E7C6F1C0E23EC3E
:101A50001DF052D035500001816F826B1B0E38ECA7
:101A60001EF0000181510001605D00018251000102
:101A70006159D8A002D0352A3FD0000E00017D6FF9
:101A8000010E7C6F1C0E23EC1DF036D083A402D017
:101A9000010E01D0000E000AD8B4DCD7010AD8B478
:101AA000CBD72AD02E500001816F826B1B0E38ECF1
:101AB0001EF0000181510001605D000182510001B2
:101AC0006159D8A002D02E2A57D0000E00017D6F98
:101AD000010E7C6F200E23EC1DF04ED02E50D8B49A
:101AE00002D02E0649D0000E00017D6F000E7C6FE3
:101AF000200E23EC1DF040D081B002D0010E01D0A9
:101B0000000E0001816F826B00018251000AD8A48F
:101B100033D000018151000AD8B4E0D7010AD8B40B
:101B2000C1D72AD02F500001816F826B1B0E38EC79
:101B30001EF0000181510001605D00018251000131
:101B40006159D8A002D02F2A57D0000E00017D6F16
:101B5000010E7C6F210E23EC1DF04ED02F50D8B417
:101B600002D02F0649D0000E00017D6F000E7C6F61
:101B7000210E23EC1DF040D083BE02D0010E01D017
:101B8000000E0001816F826B00018251000AD8A40F
:101B900033D000018151000AD8B4E0D7010AD8B48B
:101BA000C1D72AD02B500001816F826B1B0E38ECFD
:101BB0001EF0000181510001605D000182510001B1
:101BC0006159D8A002D02B2A57D0000E00017D6F9A
:101BD000010E7C6F220E23EC1DF04ED02B50D8B49A
:101BE00002D02B0649D0000E00017D6F000E7C6FE5
:101BF000220E23EC1DF040D081B202D0010E01D0A4
:101C0000000E0001816F826B00018251000AD8A48E
:101C100033D000018151000AD8B4E0D7010AD8B40A
:101C2000C1D72AD029500001816F826B1B0E38EC7E
:101C30001EF0000181510001605D00018251000130
:101C40006159D8A002D0292A57D0000E00017D6F1B
:101C5000010E7C6F230E23EC1DF04ED02950D8B41A
:101C600002D0290649D0000E00017D6F000E7C6F66
:101C7000230E23EC1DF040D081BA02D0010E01D01A
:101C8000000E0001816F826B00018251000AD8A40E
:101C900033D000018151000AD8B4E0D7010AD8B48A
:101CA000C1D72AD02A500001816F826B1B0E38ECFD
:101CB0001EF0000181510001605D000182510001B0
:101CC0006159D8A002D02A2A57D0000E00017D6F9A
:101CD000010E7C6F240E23EC1DF04ED02A50D8B498
:101CE00002D02A0649D0000E00017D6F000E7C6FE5
:101CF000240E23EC1DF040D081B802D0010E01D09B
:101D0000000E0001816F826B00018251000AD8A48D
:101D100033D000018151000AD8B4E0D7010AD8B409
:101D2000C1D72AD02C500001816F826B1B0E38EC7A
:101D30001EF0000181510001605D0001825100012F
:101D40006159D8A002D02C2A57D0000E00017D6F17
:101D5000010E7C6F250E23EC1DF04ED02C50D8B414
:101D600002D02C0649D0000E00017D6F000E7C6F62
:101D7000250E23EC1DF040D081B602D0010E01D01B
:101D8000000E0001816F826B00018251000AD8A40D
:101D900033D000018151000AD8B4E0D7010AD8B489
:101DA000C1D72AD02D500001816F826B1B0E38ECF9
:101DB0001EF0000181510001605D000182510001AF
:101DC0006159D8A002D02D2A57D0000E00017D6F96
:101DD000010E7C6F260E23EC1DF04ED02D50D8B492
:101DE00002D02D0649D0000E00017D6F000E7C6FE1
:101DF000260E23EC1DF040D081B402D0010E01D09C
:101E0000000E0001816F826B00018251000AD8A48C
:101E100033D000018151000AD8B4E0D7010AD8B408
:101E2000C1D72AD034500001816F826B1B0E38EC71
:101E30001EF0000181510001605D0001825100012E
:101E40006159D8A002D0342A4DD0000E00017D6F18
:101E5000010E7C6F290E23EC1DF044D03450D8B411
:101E600002D034063FD0000E00017D6F000E7C6F63
:101E7000290E23EC1DF036D082A202D0010E01D033
:101E8000000E000AD8B4CED7010AD8B4E7D72AD0BA
:101E900033500001816F826B1B0E38EC1EF0000185
:101EA00081510001605D0001825100016159D8A09B
:101EB00002D0332A4DD0000E00017D6F010E7C6FE1
:101EC0002A0E23EC1DF044D03350D8B402D0330690
:101ED0003FD0000E00017D6F000E7C6F2A0E23ECB8
:101EE0001DF036D083A802D0010E01D0000E000AEA
:101EF000D8B4CED7010AD8B4E7D72AD038500001D9
:101F0000816F826B1B0E38EC1EF0000181510001C5
:101F1000605D0001825100016159D8A002D0382AC9
:101F20004DD0000E00017D6F010E7C6F2B0E23EC57
:101F30001DF044D03850D8B402D038063FD0000E3F
:101F400000017D6F000E7C6F2B0E23EC1DF036D050
:101F500084A202D0010E01D0000E000AD8B4CED760
:101F6000010AD8B4E7D72AD037500001816F826BBD
:101F70001B0E38EC1EF0000181510001605D000174
:101F8000825100016159D8A002D0372A1200000EF8
:101F900000017D6F010E7C6F2C0E23EC1DF01200F2
:101FA0003750D8B402D037061200000E00017D6F02
:101FB000000E7C6F2C0E23EC1DF0120084A002D0CA
:101FC000010E01D0000E000AD8B4CED7010AD8A461
:101FD0001200E6D7000E0001616F000E606F000175
:101FE0006105D8B022D0D89000016035D96E0001CB
:101FF0006135DA6EFA0ED926030EDA22000EDE6E95
:10200000000EDD6ED89000016035D96E000161359B
:10201000DA6EFC0ED926010EDA22000EDE6E000EFC
:10202000DD6E0001604B612BDAD7000EE8CF1AF4A9
:10203000000EE8CF1BF4010EE8CF1EF4000EE8CF2F
:102040001FF4010EE8CF20F4000EE8CF21F4010EBA
:10205000E8CF22F4000EE8CF23F4010EE8CF24F4F9
:10206000000EE8CF25F4010EE8CF26F4000EE8CFED
:1020700027F4010EE8CF28F4000EE8CF29F4010E72
:10208000E8CF2AF4000EE8CF2BF4010EE8CF2CF4B1
:10209000000EE8CF2DF4010EE8CF2EF4000EE8CFAD
:1020A0002FF4010EE8CF30F4000EE8CF31F4000E2B
:1020B000E8CF32F4000EE8CF33F4000EE8CF34F46A
:1020C000000EE8CF35F4000EE8CF36F4000EE8CF6E
:1020D00037F4000EE8CF38F4000EE8CF39F4000EE4
:1020E000E8CF3AF4000EE8CF3BF4000EE8CF3CF422
:1020F000000EE8CF3DF4000EE8CF3EF4000EE8CF2E
:102100003FF4000EE8CF40F4000EE8CF41F4000E9B
:10211000E8CF42F4000EE8CF43F4000EE8CF44F4D9
:10212000000EE8CF45F4000EE8CF46F4000EE8CFED
:1021300047F4010EE8CF48F4000EE8CF49F4010E51
:10214000E8CF4AF4000EE8CF4BF4000EE8CF4CF491
:10215000000EE8CF4DF4000EE8CF4EF4000EE8CFAD
:102160004FF4000EE8CF50F4000EE8CF51F4000E0B
:10217000E8CF52F4000EE8CF53F4010EE8CF54F448
:10218000000EE8CF55F4010EE8CF56F4000EE8CF6C
:1021900057F4010EE8CF58F4000EE8CF59F4010EC1
:1021A000E8CF5AF4000EE8CF5BF4010EE8CF5CF400
:1021B000000EE8CF5DF4010EE8CF5EF4000EE8CF2C
:1021C0005FF4010EE8CF60F4000EE8CF61F4010E79
:1021D000E8CF62F4000EE8CF63F4010EE8CF64F4B8
:1021E000000EE8CF65F4010EE8CF66F4000EE8CFEC
:1021F00067F4010EE8CF68F4000EE8CF69F4010E31
:10220000E8CF6AF4000EE8CF6BF4010EE8CF6CF46F
:10221000000EE8CF6DF4010EE8CF6EF4000EE8CFAB
:102220006FF4010EE8CF70F4000EE8CF71F4010EE8
:10223000E8CF72F4000EE8CF73F4000EE8CF74F428
:10224000000EE8CF75F4000EE8CF76F4000EE8CF6C
:1022500077F4000EE8CF78F4000EE8CF79F4010EA1
:10226000E8CF7AF4000EE8CF7BF4010EE8CF7CF4DF
:10227000000EE8CF7DF4010EE8CF7EF4000EE8CF2B
:102280007FF4010EE8CF80F4000EE8CF81F4010E58
:10229000E8CF82F4000EE8CF83F4010EE8CF84F497
:1022A000000EE8CF85F4FF0EE8CF1CF2000EE8CF59
:1022B0001DF2100EE8CF20F2270EE8CF21F2200EFB
:1022C000E8CF22F2030EE8CF23F2880EE8CF24F203
:1022D000130EE8CF25F2140EE8CF26F2000EE8CF59
:1022E00027F2140EE8CF28F2000EE8CF29F26B0E89
:1022F000E8CF2AF2000EE8CF2BF26B0EE8CF2CF2DB
:10230000000EE8CF2DF2500EE8CF2EF2000EE8CFEF
:102310002FF22D0EE8CF30F2000EE8CF31F2140E7E
:10232000E8CF32F2000EE8CF33F2000EE8CF34F2FD
:10233000000EE8CF35F2000EE8CF36F2000EE8CFFF
:1023400037F2000EE8CF38F2000EE8CF39F2000E77
:10235000E8CF3AF2000EE8CF3BF2000EE8CF3CF2B5
:10236000000EE8CF3DF2000EE8CF3EF2000EE8CFBF
:102370003FF2000EE8CF40F2000EE8CF41F2000E2F
:10238000E8CF42F2000EE8CF43F2000EE8CF44F26D
:10239000000EE8CF45F2000EE8CF46F2000EE8CF7F
:1023A00047F2000EE8CF48F2000EE8CF49F2090EDE
:1023B000E8CF4AF2000EE8CF4BF2090EE8CF4CF21C
:1023C000000EE8CF4DF2000EE8CF4EF2000EE8CF3F
:1023D0004FF2000EE8CF50F2000EE8CF51F2000E9F
:1023E000E8CF52F2000EE8CF53F2000EE8CF54F2DD
:1023F000000EE8CF55F2000EE8CF56F2000EE8CFFF
:1024000057F2500EE8CF58F2000EE8CF59F2780E8E
:10241000E8CF5AF2000EE8CF5BF2000EE8CF5CF294
:10242000000EE8CF5DF2500EE8CF5EF2000EE8CF6E
:102430005FF2000EE8CF60F2000EE8CF61F2000E0E
:10244000E8CF62F2000EE8CF63F2780EE8CF64F2D4
:10245000000EE8CF65F2640EE8CF66F2000EE8CF1A
:1024600067F2640EE8CF68F2000EE8CF69F2640EFE
:10247000E8CF6AF2000EE8CF6BF2640EE8CF6CF2A0
:10248000000EE8CF6DF2640EE8CF6EF2000EE8CFDA
:102490006FF2640EE8CF70F2000EE8CF71F2640EB6
:1024A000E8CF72F2000EE8CF73F2640EE8CF74F258
:1024B000000EE8CF75F2000EE8CF76F2000EE8CFFE
:1024C00077F2000EE8CF78F2000EE8CF79F2000E36
:1024D000E8CF7AF2000EE8CF7BF2000EE8CF7CF274
:1024E000000EE8CF7DF2000EE8CF7EF2000EE8CFBE
:1024F0007FF2000EE8CF80F2000EE8CF81F2000EEE
:10250000E8CF82F2000EE8CF83F2FF0EE8CF84F22C
:10251000010EE8CF85F2010EE8CF86F2000EE8CF7B
:1025200087F2120000018A6F8AC07CF000017D6B87
:102530003D0E23EC1DF089C07CF000017D6B3E0E4A
:1025400023EC1DF0A1D1000E0001816F010EB8EC4B
:1025500015F00009D8B41BD0010E0001C26FBED126
:10256000010E0001816F010EB8EC15F0F2D7010EDB
:102570000001816F000EB8EC15F0EBD7000E0001E2
:10258000816F000EB8EC15F00009D8A4E5D7010E54
:1025900016D000018A51000AD8B4E9D7010AD8B48C
:1025A000EDD7030AD8B4CFD7010AD8B4D9D796D17A
:1025B000000E0001816F010EB8EC15F01AD0000179
:1025C000AD6F010E0001C26FC7D7010E0001816F10
:1025D000010EB8EC15F00DD0010E0001816F000E58
:1025E000B8EC15F006D0000E0001816F000EB8ECBB
:1025F00015F00009D8A4B0D7020EE1D70001895127
:10260000000AD8B4E9D7010AD8B4EDD7030AD8B480
:10261000CFD7010AD8B4D9D761D157EC16F008D07A
:1026200057EC16F005D0F5EC16F002D0F5EC16F0EC
:102630000009D8A491D7030EC2D700018951000A1E
:10264000D8B4F1D7010AD8B4F1D7030AD8B4E5D782
:10265000010AD8B4E5D742D11C0E38EC1EF00001B7
:10266000600500016111D8B488D0290E38EC1EF045
:102670000001600500016111D8A402D0050E49D007
:102680002A0E38EC1EF00001600500016111D8A48B
:1026900002D0060E3ED02C0E38EC1EF00001600574
:1026A00000016111D8A402D0070E33D02B0E38ECF4
:1026B0001EF00001600500016111D8A44DD7080E7D
:1026C00028D01D0E38EC1EF00001600500016111DC
:1026D000D8B453D0290E38EC1EF00001600500017B
:1026E0006111D8B4CBD72A0E38EC1EF0000160057A
:1026F00000016111D8B4CDD72C0E38EC1EF00001CA
:10270000600500016111D8B4CFD72B0E38EC1EF054
:10271000D0D70001AD6F20D71E0E38EC1EF000019F
:10272000600500016111D8B428D0290E38EC1EF0E4
:102730000001600500016111D8B42AD02A0E38ECDE
:102740001EF00001600500016111D8B42CD02C0EE0
:1027500038EC1EF00001600500016111D8B42ED0E4
:102760002B0E38EC1EF02FD01F0E38EC1EF000019F
:10277000600500016111D8A402D0040ECAD7290E49
:1027800038EC1EF00001600500016111D8A402D0F0
:102790000C0EBFD72A0E38EC1EF0000160050001B8
:1027A0006111D8A402D00B0EB4D72C0E38EC1EF059
:1027B0000001600500016111D8A402D00A0EA9D75A
:1027C0002B0E38EC1EF00001600500016111D8A449
:1027D000C3D6090E9ED700018951000AD8B49CD7F0
:1027E000010AD8B4C1D7030AD8B436D7010AD8B47D
:1027F00068D774D016EC15F008D016EC15F005D09B
:1028000071EC14F002D071EC14F00009D8A4A4D635
:10281000000E0001AD6F000EA0D600018951000A24
:10282000D8B4EED7010AD8B4EED7030AD8B4E2D7A9
:10283000010AD8B4E2D752D0010EC5EC18F01BD073
:10284000020EC5EC18F017D0030E2BEC18F013D0C5
:10285000040E2BEC18F00FD0040E91EC17F00BD0F7
:10286000030E91EC17F007D0020E5EEC19F003D0C6
:10287000010E5EEC19F00009D8A46ED6030E01D04B
:10288000000E0001AD6F68D60001AD51000AD8B44A
:1028900080D6010AD8B4B2D6030AD8B4CED6010A7B
:1028A000D8B499D7070AD8B4B8D7010AD8B4C4D7CE
:1028B000030AD8B4C5D7010AD8B4C6D70F0AD8B40A
:1028C000C7D7010AD8B4C8D7030AD8B4C9D7010AF0
:1028D000D8B4CAD7070AD8B4CBD7D2D70001C251CF
:1028E000120093D09DC081F09EC082F0000E0001C6
:1028F000836FB4EC1BF0010E0001BE6F150E38ECB7
:102900001EF000019D510001605D00019E5100011B
:102910006159D8A002D0010E72D0190E38EC1EF009
:102920000001605100019F5D000161510001A0594B
:10293000D8A00AD000019D07D8A09E07000E000174
:10294000A06F000E9F6F6FD000019F4BA02B6BD02C
:10295000120E38EC1EF00001605100018F5D000185
:10296000615100019059D8A009D0020E0001AC6F4E
:10297000000E0001906F000E8F6F43D0010E00011A
:10298000BE6F00018F4B902B010E0001AC6F4BD03E
:10299000150E38EC1EF060C081F061C082F0000EB0
:1029A0000001836FB4EC1BF0000E00017D6F010E7F
:1029B0007C6F450E23EC1DF0150E38EC1EF060C048
:1029C0009DF061C09EF01AD0140E38EC1EF000018C
:1029D000605100018F5D0001615100019059D8A044
:1029E0000AD0000E0001AC6F000E0001906F000EC7
:1029F0008F6F000E07D000018F4B902B030E00014C
:102A0000AC6F010E0001BE6F0ED00001AC51000A88
:102A1000D8B468D7010AD8B49BD7030AD8B4B8D7BA
:102A2000010AD8B4D1D70001BE51120090D09DC088
:102A300081F09EC082F0010E0001836FB4EC1BF0A8
:102A4000160E38EC1EF000019D510001605D000182
:102A50009E5100016159D8A002D0010E72D0190E0A
:102A600038EC1EF00001605100019F5D00016151D2
:102A70000001A059D8A00AD000019D07D8A09E0748
:102A8000000E0001A06F000E9F6F5DD000019F4BF4
:102A9000A02B59D0120E38EC1EF00001605100013D
:102AA000935D0001615100019459D8A009D0020E34
:102AB0000001AC6F000E0001946F000E936F43D0C5
:102AC000010E0001C06F0001934B942B010E000119
:102AD000AC6F4BD0160E38EC1EF060C081F061C0B8
:102AE00082F0010E0001836FB4EC1BF0000E0001B8
:102AF0007D6F010E7C6F450E23EC1DF0160E38EC39
:102B00001EF060C09DF061C09EF01AD0140E38EC2B
:102B10001EF0000160510001935D00016151000150
:102B20009459D8A00AD0000E0001AC6F000E00012D
:102B3000946F000E936F000E07D00001934B942BFF
:102B4000030E0001AC6F010E0001C06F0ED000013A
:102B5000AC51000AD8B46BD7010AD8B49BD7030A8A
:102B6000D8B4B8D7010AD8B4D1D70001C0511200E7
:102B70000001826F8ED0010E0001B96F36D0000EB9
:102B800000017D6F010E7C6F400E23EC1DF035D0EF
:102B9000000E00017D6F010E7C6F410E23EC1DF0D5
:102BA0002CD000018151000AD8B4E9D7010AD8B469
:102BB000EFD723D0000E00017D6F010E7C6F420E17
:102BC00023EC1DF01AD0000E00017D6F010E7C6F0A
:102BD000430E23EC1DF011D000018151000AD8B43E
:102BE000E9D7010AD8B4EFD708D000018251000A12
:102BF000D8B4D7D7010AD8B4EFD7010E0001A86F17
:102C000053D0130E38EC1EF00001605100018D5DB1
:102C10000001615100018E59D8A00AD0020E0001B6
:102C2000A86F000E00018E6F000E8D6F010E2ED06A
:102C3000010E0001B96F010E0001A86F00018D4B5C
:102C40008E2B32D0000E00017D6F000E7C6F400E87
:102C500023EC1DF0000E00017D6F000E7C6F410E15
:102C600023EC1DF0000E00017D6F000E7C6F420E04
:102C700023EC1DF0000E00017D6F000E7C6F430EF3
:102C800023EC1DF0000E0001A86F000E0001B96FCB
:102C90000BD00001A851000AD8B46DD7010AD8B4EE
:102CA000B0D7030AD8B4CED70001B95112008CD0E6
:102CB000140E38EC1EF0000160510001955D00011A
:102CC000615100019659D8A002D0010E34D0000104
:102CD000954B962B000E0001AC6F72D0160E38EC9F
:102CE0001EF060C081F061C082F0010E0001836FB0
:102CF000B4EC1BF0160E38EC1EF060C09DF061C005
:102D00009EF0000E00017D6F000E7C6F450E23ECDF
:102D10001DF0010E0001C16F1CD0120E38EC1EF028
:102D2000000160510001955D00016151000196595B
:102D3000D8A009D0030E0001AC6F000E0001966F01
:102D4000000E956F3DD0010E0001C16F0001954B43
:102D5000962B020E0001AC6F45D09DC081F09EC045
:102D600082F0010E0001836FB4EC1BF0170E38ECFB
:102D70001EF00001605100019D5D000161510001E4
:102D80009E59D8A005D0000E0001AC6F000E19D0DE
:102D90001A0E38EC1EF00001605100019F5D000129
:102DA00061510001A059D8A008D000019D4B9E2B75
:102DB000000E0001A06F000E9F6F00019F4BA02B23
:102DC000010E0001C16F0ED00001AC51000AD8B451
:102DD0006FD7010AD8B482D7030AD8B49ED7010AA4
:102DE000D8B4BBD70001C15112008AD0140E38EC00
:102DF0001EF0000160510001915D00016151000170
:102E00009259D8A002D0010E36D00001914B922BDE
:102E1000000E20D0010E0001BF6F80D0150E38ECDF
:102E20001EF060C081F061C082F0000E0001836F6F
:102E3000B4EC1BF0150E38EC1EF060C09DF061C0C4
:102E40009EF0000E00017D6F000E7C6F450E23EC9E
:102E50001DF01CD00001AC6FDDD7120E38EC1EF057
:102E6000000160510001915D000161510001925922
:102E7000D8A009D0030E0001AC6F000E0001926FC4
:102E8000000E916FC7D70001914B922B020EE2D733
:102E90009DC081F09EC082F0000E0001836FB4ECF3
:102EA0001BF0010E0001BF6F180E38EC1EF0000180
:102EB000605100019D5D0001615100019E59D8A043
:102EC00005D0000E0001AC6F000EA5D71A0E38EC2D
:102ED0001EF00001605100019F5D00016151000181
:102EE000A059D8A009D000019D4B9E2B000E0001D7
:102EF000A06F000E9F6F12D000019F4BA02B0ED031
:102F00000001AC51000AD8B471D7010AD8B486D7F1
:102F1000030AD8B4A2D7010AD8B4BAD70001BF5166
:102F200012000001886F8CD0030E00018819D8B4FC
:102F30000DD0350E38EC1EF00001605100019B5D94
:102F40000001615100019C59D8A009D0010E000177
:102F5000AA6F000E00019C6F000E9B6F6DD00001E8
:102F60009B4B9C2B69D0040E00018819D8A428D053
:102F70009DC081F09EC082F0000E0001836FB4EC12
:102F80001BF02E0E38EC1EF000019D510001605D1B
:102F900000019E5100016159D8B02DD01A0E38ECB5
:102FA0001EF00001605100019F5D000161510001B0
:102FB000A059D8A03ED000019D07D8A09E0733D0CD
:102FC000030E00018819D8A437D09DC081F09EC09F
:102FD00082F0000E0001836FB4EC1BF0180E38EC89
:102FE0001EF00001605100019D5D00016151000172
:102FF0009E59D8A008D0000E0001AC6F000E000151
:10300000AA6F000E1AD01A0E38EC1EF000016051A3
:1030100000019F5D000161510001A059D8A009D0B5
:1030200000019D4B9E2B000E0001A06F000E9F6FB4
:1030300003D000019F4BA02B010E0001BD6F08D0F3
:103040000001AA51000AD8B46FD7010AD8B48BD7AF
:103050000001BD5112000001886F8CD0040E0001E8
:103060008819D8B40DD0380E38EC1EF0000160512C
:1030700000019B5D0001615100019C59D8A009D05D
:10308000010E0001AA6F000E00019C6F000E9B6FE5
:103090006DD000019B4B9C2B69D0030E0001881959
:1030A000D8A427D09DC081F09EC082F0010E0001FF
:1030B000836FB4EC1BF02F0E38EC1EF00001605152
:1030C00000019D5D0001615100019E59D8B02CD0D6
:1030D0001A0E38EC1EF00001605100019F5D0001E6
:1030E00061510001A059D8A03ED000019D4B9E2BFC
:1030F00034D0040E00018819D8A438D09DC081F0C6
:103100009EC082F0010E0001836FB4EC1BF0170E1D
:1031100038EC1EF000019D510001605D00019E51E0
:1031200000016159D8A008D0000E0001AC6F000E5C
:103130000001AA6F000E1BD01A0E38EC1EF0000121
:10314000605100019F5D000161510001A059D8A0AC
:103150000AD000019D07D8A09E07000E0001A06FB5
:10316000000E9F6F03D000019F4BA02B010E0001AA
:10317000BC6F08D00001AA51000AD8B46FD7010A69
:10318000D8B48BD70001BC5112000001886F8BD0DE
:10319000020E00018819D8B40DD03B0E38EC1EF099
:1031A0000001605100019B5D0001615100019C59CB
:1031B000D8A009D0010E0001AA6F000E00019C6F7B
:1031C000000E9B6F6CD000019B4B9C2B68D00001C4
:1031D0008805D8A428D09DC081F09EC082F0010E41
:1031E0000001836FB4EC1BF0310E38EC1EF00001CF
:1031F0009D510001605D00019E5100016159D8B0F0
:103200002DD01A0E38EC1EF00001605100019F5DB8
:10321000000161510001A059D8A03ED000019D07D6
:10322000D8A09E0733D0020E00018819D8A437D049
:103230009DC081F09EC082F0010E0001836FB4EC4E
:103240001BF0170E38EC1EF00001605100019D5D6F
:103250000001615100019E59D8A008D0000E000164
:10326000AC6F000E0001AA6F000E1AD01A0E38ECD7
:103270001EF00001605100019F5D000161510001DD
:10328000A059D8A009D000019D4B9E2B000E000133
:10329000A06F000E9F6F03D000019F4BA02B010E6B
:1032A0000001BA6F08D00001AA51000AD8B470D743
:1032B000010AD8B48CD70001BA5112000001886FFE
:1032C0008AD000018805D8B40DD03A0E38EC1EF033
:1032D0000001605100019B5D0001615100019C599A
:1032E000D8A009D0010E0001AA6F000E00019C6F4A
:1032F000000E9B6F6CD000019B4B9C2B68D0020E84
:1033000000018819D8A427D09DC081F09EC082F00A
:10331000000E0001836FB4EC1BF0340E38EC1EF08D
:103320000001605100019D5D0001615100019E5945
:10333000D8B02BD01A0E38EC1EF0000160510001FD
:103340009F5D000161510001A059D8A03DD000014E
:103350009D4B9E2B33D000018805D8A438D09DC04A
:1033600081F09EC082F0000E0001836FB4EC1BF070
:10337000180E38EC1EF000019D510001605D000147
:103380009E5100016159D8A008D0000E0001AC6F19
:10339000000E0001AA6F000E1BD01A0E38EC1EF0B2
:1033A0000001605100019F5D000161510001A059C1
:1033B000D8A00AD000019D07D8A09E07000E0001EA
:1033C000A06F000E9F6F03D000019F4BA02B010E3A
:1033D0000001BB6F08D00001AA51000AD8B471D710
:1033E000010AD8B48CD70001BB511200690E00014C
:1033F000716F000E0001726F7DD0250E00017619ED
:10340000D8B405D00001765152EC1EF073D0000EF6
:1034100000016F6F67C0F6FF68C0F7FF0001674BE0
:10342000682B0800F5CF76F000017651000AD8B479
:103430001200780AD8A45ED071C0D9FF72C0DAFF3A
:10344000DECF73F0DDCF74F0020E00017127000EA5
:103450007223010E0001766F040E00017619D8B4B4
:1034600016D000017651020D010EF324F66E080EFF
:10347000F420F76E0900F5500001735D0900F55066
:1034800000017459D8A003D00001762BE5D776C08F
:1034900075F02AD073C060F074C061F000017551FE
:1034A000020D010EF324F66E080EF420F76E0900EB
:1034B000F5CF62F00A00F5CF63F07AEC1CF0000162
:1034C00060510F0B0001706F00017051010D0A0E69
:1034D000F324F66E080EF420F76E0800F5CF76F0B0
:1034E0000001765152EC1EF00001750700017529AC
:1034F000D8A4D0D767C0F6FF68C0F7FF0001674BBC
:10350000682B0800F5CF76F000017651D8B4120090
:1035100074D7000EF26EA69EA684010EA96E170E39
:1035200038EC1EF000016051A86E550EA76EAA0E71
:10353000A76EA682A1A8FED7A198A69EA684000E7B
:10354000A96E170E38EC1EF0000161C060F000019A
:10355000616B00016051A86E550EA76EAA0EA76E92
:10356000A682A1A8FED7A198A69EA684030EA96E46
:10357000180E38EC1EF000016051A86E550EA76EB3
:10358000AA0EA76EA682A1A8FED7A198A69EA68481
:10359000020EA96E180E38EC1EF0000161C060F03A
:1035A0000001616B00016051A86E550EA76EAA0E56
:1035B000A76EA682A1A8FED7A198A69EA684040EF7
:1035C000A96E190E38EC1EF000016051A86E550E60
:1035D000A76EAA0EA76EA682A1A8FED7A198A00EDC
:1035E000F26E12003A50D8B41200B2EC1DF0306EF8
:1035F00054D0AF0E276E000E286E730E3018D8B45C
:1036000004D0670E3018D8A40BD027C0D9FF28C02B
:10361000DAFF30C0DFFF274A282A010E396E120078
:10362000000E396E1200780E3018D8A40BD027C0C7
:10363000D9FF28C0DAFF30C0DFFF274A282A020E50
:10364000396E1200000E396E1200470E3018D8A4E1
:1036500019D027C0D9FF28C0DAFF30C0DFFF274AC2
:10366000282A27C0D9FF28C0DAFF000EDF6E290EF6
:103670000001676F080E0001686FF6EC19F0000E8C
:10368000396E120027C0D9FF28C0DAFF30C0DFFF33
:10369000274A282A020E396E12003950000AD8B47F
:1036A000A8D7010AD8B4BFD7030AD8A41200CDD72F
:1036B0000600E9CF03F0EACF04F0E1CF05F0E2CF56
:1036C00006F0D9CF07F0DACF08F0F3CF09F0F4CF46
:1036D0000AF0F6CF0BF0F7CF0CF0F8CF0DF0F5CFE6
:1036E0000EF0F2A419D0245006E1650E235CD8B088
:1036F00002D0808801D08098BC0E235C020E245832
:10370000D8A004D0000E246E000E236E234A242A73
:10371000010E0001AE6FF2949DBA9EAA02D010EC89
:103720001EF09DB89EA802D0E3EC1DF00EC0F5FF80
:103730000DC0F8FF0CC0F7FF0BC0F6FF0AC0F4FF86
:1037400009C0F3FF08C0DAFF07C0D9FF06C0E2FFD7
:1037500005C0E1FF04C0EAFF03C0E9FF02C0FBFFB0
:1037600001C0FAFF40921100010E0001876F8669C7
:10377000000183510001D8A41FD081C084F082C011
:1037800085F0D8900001843785370001841F851F9C
:10379000844B852BFF0E000184250001866F010EEE
:1037A000000185210001876F86C07CF087C07DF015
:1037B000440E23EC1DF0120000018305D8A4120072
:1037C00081C084F082C085F0D890000184378537AD
:1037D000FF0E000184250001866F010E0001852186
:1037E0000001876F86C07CF087C07DF0440E23EC1B
:1037F0001DF01200206E30D0839A1200838A1200CE
:10380000254A262AB80E255C0B0E2658D8A004D0CF
:10381000000E266E000E256EDC0E255C050E265869
:10382000D8A002D0838A1200839A1200254A262A41
:10383000E80E255C030E2658D8A004D0000E266E94
:10384000000E256EF40E255C010E2658D8A002D07D
:10385000838A1200839A12002050000AD8B4CCD771
:10386000010AD8B4CBD7030AD8B4CAD7010AD8A45E
:103870001200DCD7206E30D0839C1200838C1200A3
:10388000214A222AB80E215C0B0E2258D8A004D05F
:10389000000E226E000E216EDC0E215C050E2258F9
:1038A000D8A002D0838C1200839C1200214A222AC5
:1038B000E80E215C030E2258D8A004D0000E226E20
:1038C000000E216EF40E215C010E2258D8A002D009
:1038D000838C1200839C12002050000AD8B4CCD7ED
:1038E000010AD8B4CBD7030AD8B4CAD7010AD8A4DE
:1038F0001200DCD7000E0001666F000E656F00013C
:10390000625100016311D8B42CD0010E0001646F24
:1039100006D00001D890623763370001642B0001A4
:1039200063AFF7D70001D890653766370001625161
:103930000001605D0001635100016159D8A00AD007
:10394000000162510001605F000163510001615B91
:10395000000165810001D890633362330001642F58
:10396000E1D765C060F066C061F0120092689368AC
:103970009468956896680F0EC16E070EB46E9298A3
:10398000959A959C8098839C839A92909292929417
:10399000929680968094809280909584958695806A
:1039A0009582948295889680968293809382938460
:1039B00093869388938A958EEAEC0FF026EC1EF09E
:1039C00046EC1EF04DEC1DF00001AE05D8A405D06C
:1039D000000E0001AE6F18EC04F0F2EC1AF0F4D710
:1039E00001EEFCF013EEFCF0EE6AE550E150FCE174
:1039F000E250FAE101EE00F0FC0EEE6AE806FDE1AD
:103A000000EE8DF02C0EEE6AE806FDE100EE21F0EE
:103A10001F0EEE6AE806FDE1B00EF66E3C0EF76E84
:103A2000000EF86E00EEB9F010EE0AF00900F5CFC6
:103A3000EEFFE550E150FAE140904092000EF86E42
:103A40000001B6EF1CF00001806F00018051020DF3
:103A5000FC0EF324D96E010EF420DA6E00017C51C5
:103A6000DE1805E100017D51DE18D8B41200000116
:103A70008051020DFC0EF324D96E010EF420DA6E93
:103A80007CC0DEFF7DC0DDFF7CC077F07DC078F0BC
:103A90000001805195EC1DF012009D9A9D98B8860A
:103AA000AB8EAB9CAB88AB96AC9CAC8AAC98AC961E
:103AB000AC84AC82AC90010E0001616FA10E606F0E
:103AC00000016151B06E60C0AFFF000E3E6E000E8F
:103AD0003F6E7E0E3D6E000E3B6E000E3C6E000E85
:103AE0003A6E9D8A120062C064F063C065F0060EF3
:103AF000D890000164376537E82EFAD764C066F0C5
:103B000065C067F067C0BEFF66C064F00001D89072
:103B100064330001D8906433300E00016417BD5047
:103B2000CF0B00016411BD6E12000001796F00011E
:103B3000785100017A6F77C07BF01B0E0001676F30
:103B4000080E0001686F79C069F000016A6B7AC0E5
:103B50006BF000016C6B7BC06DF000016E6BF6ECDE
:103B600019F01200000E206E3A50D8B4FDD79D9A7D
:103B70003C50010D000EF324D96E010EF420DA6ED4
:103B8000DF50206E3C2A7D0E3C6402D0000E3C6E5D
:103B90003A069D8A205012000001836F0001835174
:103BA00038EC1EF060C081F061C082F00001810736
:103BB000D8A0820781C07CF082C07DF000018351D3
:103BC00023EC1DF012007E0E3D6012D03F50010D1F
:103BD0007E0EF324D96E010EF420DA6EDF50AD6E46
:103BE0003F2A7D0E3F6402D0000E3F6E3D2A120038
:103BF0009D9812000001836F0001835138EC1EF084
:103C000060C081F061C082F00001814B822B81C0D5
:103C10007CF082C07DF00001835123EC1DF0120086
:103C2000ABA202D0AB98AB883B50010D000EF32441
:103C3000D96E010EF420DA6EAECFDFFF3B2A7D0E87
:103C40003B6402D0000E3B6E3A2A1200000E0001C7
:103C50007D6F010E7C6F450E23EC1DF0CB687F0E4F
:103C6000BE6E0F0EBD6E040ECA6E94949490120038
:103C7000206E2050020DFC0EF324D96E010EF420AC
:103C8000DA6EDECF60F0DDCF61F01200D08EA00ED4
:103C9000F26E840EF16E000ED76E000ED66EC30E5D
:103CA000D56E1200206E9EA8FED720C0ADFF120078
:0A3CB0000101010101010101010100
:020000040020DA
:08000000FFFFFFFFFFFFFFFF00
:020000040030CA
:0E0000002C0E1800FF8181FF0FC00FE00F4093
:00000001FF
