:0400000063EF00F0BA
:060008004D8240ED1DF0E9
:100018004D80D8CFB6F0E8CFB7F0E0CFB8F0FACF40
:10002800B9F0FBCFBAF0E9CFBBF0EACFBCF0E1CF33
:10003800BDF0E2CFBEF0D9CFBFF0DACFC0F0F3CF3A
:10004800C1F0F4CFC2F0F6CFC3F0F7CFC4F0F8CFC9
:10005800C5F0F5CFC6F04DC0C7F04EC0C8F04FC0D0
:10006800C9F050C0CAF0CAC050F0C9C04FF0C8C0EB
:100078004EF0C7C04DF0C6C0F5FFC5C0F8FFC4C0FC
:10008800F7FFC3C0F6FFC2C0F4FFC1C0F3FFC0C092
:10009800DAFFBFC0D9FFBEC0E2FFBDC0E1FFBCC0F0
:1000A800EAFFBBC0E9FFBAC0FBFFB9C0FAFFB8C09E
:1000B800E0FFB7C0E8FFB6C0D8FF4D901000BAEF18
:0200C8001EF028
:10080000001200130014001500160017001800193C
:10081000001A001B00270028002D002E002F00309A
:100820000031003200330034003500360037003824
:100830000039003A003B003C0001000A006400E877
:100840000310270A4D2325642025640D0A00452343
:1008500031300D0A00452331310D0A004523313274
:100860000D0A00452331330D0A00452331340D0AAA
:100870000000000E146E480E136E84EC21F013502D
:100880001410D8B40CD0000E1A6E480E196E000E5B
:100890001C6E000E1B6E4FEC20F0FF0016D0000EF9
:1008A000146E570E136E84EC21F013501410D8B44C
:1008B0000CD062EC19F0000E1A6E570E196E000E75
:1008C0001C6E000E1B6E4FEC20F0E6EC0AF0C7EF3A
:1008D0000AF0000E146E4A0E136E84EC21F01350D1
:1008E0001410D8B415D0010E1F6E000E4CEC15F08C
:1008F0000009D8A4D3EF0AF0000E166E4A0E156E4A
:10090000000E186E000E176EBCEC20F0D3EF0AF04C
:10091000000E146E490E136E84EC21F01350141067
:10092000D8B415D0000E1F6E000E4CEC15F0000967
:10093000D8A4D3EF0AF0000E166E490E156E000E05
:10094000186E000E176EBCEC20F0D3EF0AF0000E0C
:10095000146E4C0E136E84EC21F013501410D8B4A6
:1009600015D0010E1F6E010E4CEC15F00009D8A435
:10097000D3EF0AF0000E166E4C0E156E000E186EB8
:10098000000E176EBCEC20F0D3EF0AF0000E146ED0
:100990004B0E136E84EC21F013501410D8B415D004
:1009A000000E1F6E010E4CEC15F00009D8A4D3EF19
:1009B0000AF0000E166E4B0E156E000E186E000E2D
:1009C000176EBCEC20F0D3EF0AF0000E146E4D0E43
:1009D000136E84EC21F013501410D8B416D0000E0E
:1009E0001A6E450E196E000E1C6E010E1B6E4FEC3A
:1009F00020F0000E166E4D0E156E000E186E000ED5
:100A0000176EBCEC20F0D3EF0AF0000E146E4E0E01
:100A1000136E84EC21F013501410D8B416D0000ECD
:100A20001A6E450E196E000E1C6E000E1B6E4FECFA
:100A300020F0000E166E4E0E156E000E186E000E93
:100A4000176EBCEC20F0D3EF0AF0000E146E440ECB
:100A5000136E84EC21F013C0CFF014C0D0F0000E60
:100A6000146E4F0E136E84EC21F013500001CF1959
:100A700004E11450D019D8B42DD0000E166E440ED7
:100A8000156E000E146E4F0E136E84EC21F013C021
:100A900017F014C018F0BCEC20F0000E146E440ED9
:100AA000136E84EC21F013C0D1F014C0D2F0000E0C
:100AB000146E560E136E84EC21F013500001D36FA8
:100AC000D1C01FF0D2C020F0D3C021F017EC1EF02F
:100AD000D3EF0AF0000E146E560E136E84EC21F064
:100AE00013C0CFF014C0D0F0000E146E510E136E70
:100AF00084EC21F013500001CF1904E11450D019F7
:100B0000D8B4EAD3000E166E560E156E000E146E93
:100B1000510E136E84EC21F013C017F014C018F0BE
:100B2000BCEC20F0D3EF0AF0000E45EC1FF0000EF5
:100B300005EC1FF0010E15D0000E146E230E136E7F
:100B400084EC21F013501410D8B40FD0000E1A6E9C
:100B5000270E196E000E1C6E010E1B6E4FEC20F05E
:100B600057D000018A6FD3EF0AF0000E146E240EE6
:100B7000136E84EC21F013501410D8B40BD0000E77
:100B80001A6E270E196E000E1C6E020E1B6E4FECB5
:100B900020F03ED0000E146E250E136E84EC21F072
:100BA00013501410D8B40BD0000E1A6E270E196E05
:100BB000000E1C6E030E1B6E4FEC20F029D0000EB1
:100BC000146E260E136E84EC21F013501410D8B45A
:100BD0000BD0000E1A6E270E196E000E1C6E040E3E
:100BE0001B6E4FEC20F014D0000E146E220E136E0C
:100BF00084EC21F013501410D8B40CD0000E1A6EEF
:100C0000270E196E000E1C6E050E1B6E4FEC20F0A9
:100C1000020EA7D7000E146E270E136E84EC21F07F
:100C200013501410D8B40AD0000E146E280E136E90
:100C300084EC21F013501410D8A4E1D0010E00016F
:100C40008A6F020E45EC1FF0D3EF0AF0000E146E0F
:100C5000230E136E84EC21F013501410D8A435D059
:100C6000000E146E240E136E84EC21F01350141039
:100C7000D8A42BD0000E146E250E136E84EC21F038
:100C800013501410D8A421D0000E146E260E136E2B
:100C900084EC21F013501410D8A417D0000E146E59
:100CA000220E136E84EC21F013501410D8A40DD032
:100CB000000E146E200E136E84EC21F013501410ED
:100CC000D8A403D0030E00018A6F000E05EC1FF0BC
:100CD000020E45EC1FF0D3EF0AF0000E146E230E47
:100CE000136E84EC21F013501410D8B40BD0000E06
:100CF0001A6E280E196E000E1C6E010E1B6E4FEC44
:100D000020F07DD0000E146E240E136E84EC21F0C2
:100D100013501410D8B40BD0000E1A6E280E196E92
:100D2000000E1C6E020E1B6E4FEC20F068D0000E01
:100D3000146E250E136E84EC21F013501410D8B4E9
:100D40000BD0000E1A6E280E196E000E1C6E030ECC
:100D50001B6E4FEC20F053D0000E146E260E136E57
:100D600084EC21F013501410D8B40BD0000E1A6E7E
:100D7000280E196E000E1C6E040E1B6E4FEC20F038
:100D80003ED0000E146E220E136E84EC21F0135030
:100D90001410D8B40BD0000E1A6E280E196E000E67
:100DA0001C6E050E1B6E4FEC20F029D0000E146E49
:100DB000200E136E84EC21F013501410D8B40BD015
:100DC000000E1A6E280E196E000E1C6E090E1B6E98
:100DD0004FEC20F014D0000E146E270E136E84EC2E
:100DE00021F013501410D8B40CD0000E146E280E3D
:100DF000136E84EC21F013501410D8B402D0040EFA
:100E0000B0D6020E45EC1FF0030EABD6000E146EEA
:100E1000230E136E84EC21F013501410D8A47ED04E
:100E2000000E146E240E136E84EC21F01350141077
:100E3000D8A474D0000E146E250E136E84EC21F02D
:100E400013501410D8A46AD0000E146E260E136E20
:100E500084EC21F013501410D8A460D0000E146E4E
:100E6000220E136E84EC21F013501410D8A456D027
:100E7000000E146E200E136E84EC21F0135014102B
:100E8000D8A44CD0000E146E270E136E84EC21F003
:100E900013C0CFF014C0D0F0000E146E280E136EE5
:100EA00084EC21F013500001CF191EE11450D01929
:100EB000D8A41AD0000E1A6E280E196E000E1C6EE1
:100EC000000E1B6E4FEC20F0000E1A6E270E196EEE
:100ED000000E1C6E000E1B6E4FEC20F0010E05EC98
:100EE0001FF0010E00018A6F000E146E270E136EA4
:100EF00084EC21F013C0CFF014C0D0F0000E146EBB
:100F0000280E136E84EC21F013500001CF1904E178
:100F10001450D019D8B402D0050E8A6F020E45ECD9
:100F20001FF041D3000E146E280E136E84EC21F0D6
:100F3000090E13181410D8B403D0060E00018A6FDE
:100F4000000E146E280E136E84EC21F0090E131897
:100F50001410D8A428D3090E04D6080E03D6000E08
:100F6000146E200E136E84EC21F013501410D8A4CC
:100F70000AD0000E146E460E136E84EC21F013504E
:100F80001410D8B411D0020E0001E16F000E8A6F68
:100F9000000E856F000E1A6E460E196E000E1C6E46
:100FA000000E1B6E4FEC20F0030E45EC1FF0000E00
:100FB00005EC1FF0F8D2000E146E270E136E84ECB1
:100FC00021F0050E13181410D8B414D02BD0010E34
:100FD00005D0050E03D0020E01D0030E0001896F6B
:100FE000070E8A6F1FD0080E00018A6F010E05ECF4
:100FF0001FF018D0000E146E280E136E84EC21F032
:101000001450000AD8A4EFD71350010AD8B4DFD780
:10101000030AD8B4DED7010AD8B4DDD7070AD8B49A
:10102000DCD7E1D7000E146E280E136E84EC21F08D
:10103000050E13181410D8B414D02BD0010E05D0FF
:10104000050E03D0020E01D0030E0001896F070EBA
:101050008A6F1FD0080E00018A6F010E05EC1FF089
:1010600018D0000E146E270E136E84EC21F014506D
:10107000000AD8A4EFD71350010AD8B4DFD7030A67
:10108000D8B4DED7010AD8B4DDD7070AD8B4DCD784
:10109000E1D7000E146E270E136E84EC21F0050EBE
:1010A00013181410D8B47FD2000E146E280E136ECD
:1010B00084EC21F0050E13181410D8A495D073D227
:1010C000010E66D0020E64D0040E62D0080E00013C
:1010D0008A6F010E05EC1FF066D2000E146E280E0A
:1010E000136E84EC21F01450000AD8A4EFD71350EB
:1010F000010AD8B451D0030AD8B4E2D7010AD8B44F
:10110000E1D7070AD8B4E0D7E1D7000E41D0080EE6
:1011100000018A6F010E05EC1FF045D2000E146E1F
:10112000280E136E84EC21F01450000AD8A4EFD7D7
:101130001350010AD8B4C4D7030AD8B42DD0010A79
:10114000D8B4E3D7070AD8B420D0E1D7080E0001FD
:101150008A6F010E05EC1FF026D2000E146E280EC9
:10116000136E84EC21F01450000AD8A4EFD713506A
:10117000010AD8B4A7D7030AD8B4C7D7010AD8B48C
:101180000BD0070AD8B403D0E1D7060E01D0030E66
:101190000001896F070EE6D4000EE3D4080E0001AB
:1011A0008A6F010E05EC1FF0FED1000E146E280EA2
:1011B000136E84EC21F01450000AD8A4EFD713501A
:1011C000010AD8B481D7030AD8B4DFD7010AD8B44A
:1011D000DED7070AD8B4E0D7E1D7080E00018A6F3E
:1011E000010E05EC1FF0DFD1000E146E270E136EFA
:1011F00084EC21F01450000AD8A4EFD71350010A50
:10120000D8B46BD7030AD8B489D7010AD8B4A5D704
:10121000070AD8B4CAD7E1D70B0EA3D4000E146EB8
:10122000200E136E84EC21F013501410D8A40AD0B1
:10123000000E146E460E136E84EC21F01350141041
:10124000D8B407D0030E0001E16F000E8A6F000EC4
:10125000856F030E45EC1FF0000E05EC1FF0A3D1C7
:10126000000E146E270E136E84EC21F0050E131879
:101270001410D8A412D0000E05D0010E03D0030E16
:1012800001D0020E0001896F0A0E6CD40B0E000112
:101290008A6F010E05EC1FF086D1000E146E270E2A
:1012A000136E84EC21F01450000AD8A4EFD7135029
:1012B000010AD8B4E2D7030AD8B4E1D7010AD8B4F6
:1012C000DAD7070AD8B4DDD7E1D7000E00018A6F5C
:1012D000010E05EC1FF067D100018A51000AD8B455
:1012E00023D4010AD8B428D4030AD8B4AFD4010A4D
:1012F000D8B4F3D4070AD8B489D5010AD8B412D621
:10130000030AD8B42AD6010AD8B429D60F0AD8B409
:1013100052D6010AD8B480D7030AD8B47FD7010ABD
:10132000D8B49ED7D2D7010ECD6F030E27EC11F0A3
:101330000009D8A487D0010E0001896F62EC19F072
:1013400000018505D8A47ED0010EE16F7BD0030E8D
:10135000CD6F020E27EC11F00009D8A473D0020E55
:101360000001896F62EC19F0EBD7040ECD6F010E0E
:1013700027EC11F00009D8A465D0030E0001896F95
:1013800062EC19F0DDD7010ECD6F030E27EC11F0E2
:101390000009D8A457D0040E0001896F62EC19F03F
:1013A000CFD7020ECD6F040E27EC11F00009D8A4A0
:1013B00049D0050E0001896F62EC19F0C1D7040E07
:1013C000CD6F010E27EC11F00009D8A43BD0060E1A
:1013D0000001896F62EC19F0B3D7030ECD6F020ED6
:1013E00027EC11F00009D8A42DD0070E0001896F59
:1013F00062EC19F0A5D7020ECD6F040E27EC11F0A8
:101400000009D8A41FD0000E0001896F62EC19F00A
:1014100097D78951000AD8B486D7010AD8B497D78C
:10142000030AD8B4A2D7010AD8B4ADD7070AD8B4F2
:10143000B8D7010AD8B4C3D7030AD8B4CED7010AA3
:10144000D8B4D9D7000E146E210E136E84EC21F09F
:1014500013501410D8A40AD0000E146E470E136E49
:1014600084EC21F013501410D8B40DD0010E0001FB
:10147000856F000E1A6E470E196E000E1C6E000E60
:101480001B6E4FEC20F000018505D8A403D0020E9E
:1014900005EC1FF0010E45EC1FF085D0010E000198
:1014A000CD6F030E27EC11F00009D8A444D0010E33
:1014B0000001896F62EC19F000018505D8A43BD0CA
:1014C000010EE16F38D0040ECD6F010E27EC11F044
:1014D0000009D8A430D0020E0001896F62EC19F027
:1014E000EBD7020ECD6F040E27EC11F00009D8A443
:1014F00022D0030E0001896F62EC19F0DDD7030ED4
:10150000CD6F020E27EC11F00009D8A414D0000E04
:101510000001896F62EC19F0CFD700018951000AF0
:10152000D8B4BCD7010AD8B4CED7030AD8B4D9D717
:10153000010AD8B4E4D7000E146E210E136E84ECA9
:1015400021F013501410D8A40AD0000E146E470EC8
:10155000136E84EC21F013501410D8B40DD0010E8A
:101560000001856F000E1A6E470E196E000E1C6E7C
:10157000000E1B6E4FEC20F000018505D8A403D0AF
:10158000020E05EC1FF0010E45EC1FF00CD000011F
:10159000E151010AD8B469EF04F0030AD8B439D78D
:1015A000010AD8B4BAD7000E1A6E3F0E196EE1C008
:1015B0001BF01C6A4FEC20F0000E1A6E500E196ED4
:1015C00089C01BF01C6A4FEC20F01200000E146E54
:1015D000400E136E84EC21F01346134613468050E0
:1015E0001318F70B1318806E000E146E410E136E55
:1015F00084EC21F01346134680501318FB0B13188C
:10160000806E000E146E420E136E84EC21F01346B1
:1016100080501318FD0B1318806E000E146E430ECD
:10162000136E84EC21F080501318FE0B1318806E9B
:10163000000E146E450E136E84EC21F082501318C8
:10164000FE0B1318826E000E146E580E136E84EC8F
:1016500021F013C015F014C016F0DAEC20F02CD0F5
:101660003E50D8B402D03E065FD0000E1A6E1F0E58
:10167000196E000E1C6E000E1B6E4FEC20F054D045
:101680003E501F6E206A000E146E1B0E136E84EC0B
:1016900021F01F50135C20501458D8A002D03E2ACD
:1016A00043D0000E1A6E1F0E196E000E1C6E010E36
:1016B0001B6E4FEC20F038D083A202D0010E01D077
:1016C000000E000AD8B4DCD7010AD8B4C9D72CD090
:1016D0003D50D8B402D03D065FD0000E1A6E1E0EEB
:1016E000196E000E1C6E000E1B6E4FEC20F054D0D5
:1016F0003D501F6E206A000E146E1B0E136E84EC9C
:1017000021F01F50135C20501458D8A002D03D2A5D
:1017100043D0000E1A6E1E0E196E000E1C6E010EC6
:101720001B6E4FEC20F038D083A002D0010E01D008
:10173000000E000AD8B4DCD7010AD8B4C9D72CD01F
:101740003C50D8B402D03C065FD0000E1A6E1D0E7D
:10175000196E000E1C6E000E1B6E4FEC20F054D064
:101760003C501F6E206A000E146E1B0E136E84EC2C
:1017700021F01F50135C20501458D8A002D03C2AEE
:1017800043D0000E1A6E1D0E196E000E1C6E010E57
:101790001B6E4FEC20F038D083A602D0010E01D092
:1017A000000E000AD8B4DCD7010AD8B4C9D72CD0AF
:1017B0003B50D8B402D03B065FD0000E1A6E1C0E10
:1017C000196E000E1C6E000E1B6E4FEC20F054D0F4
:1017D0003B501F6E206A000E146E1B0E136E84ECBD
:1017E00021F01F50135C20501458D8A002D03B2A7F
:1017F00043D0000E1A6E1C0E196E000E1C6E010EE8
:101800001B6E4FEC20F038D083A402D0010E01D023
:10181000000E000AD8B4DCD7010AD8B4C9D72CD03E
:1018200036501F6E206A000E146E1B0E136E84EC71
:1018300021F01F50135C20501458D8A002D0362A33
:101840005AD0000E1A6E200E196E000E1C6E010E7C
:101850001B6E4FEC20F04FD03650D8B402D0360675
:101860004AD0000E1A6E200E196E000E1C6E000E6D
:101870001B6E4FEC20F03FD081B002D0010E01D0A2
:10188000000E1F6E206A2050000AD8A434D01F50CA
:10189000000AD8B4E1D7010AD8B4C2D72CD0355049
:1018A0001F6E206A000E146E1B0E136E84EC21F066
:1018B0001F50135C20501458D8A002D0352A5AD09B
:1018C000000E1A6E210E196E000E1C6E010E1B6E9C
:1018D0004FEC20F04FD03550D8B402D035064AD066
:1018E000000E1A6E210E196E000E1C6E000E1B6E7D
:1018F0004FEC20F03FD083BE02D0010E01D0000E8D
:101900001F6E206A2050000AD8A434D01F50000A4D
:10191000D8B4E1D7010AD8B4C2D72CD034501F6E46
:10192000206A000E146E1B0E136E84EC21F01F5003
:10193000135C20501458D8A002D0342A5AD0000E7C
:101940001A6E220E196E000E1C6E010E1B6E4FECED
:1019500020F04FD03450D8B402D034064AD0000E14
:101960001A6E220E196E000E1C6E000E1B6E4FECCE
:1019700020F03FD081B202D0010E01D0000E1F6EC8
:10198000206A2050000AD8A434D01F50000AD8B4CE
:10199000E1D7010AD8B4C2D72CD033501F6E206AC9
:1019A000000E146E1B0E136E84EC21F01F50135C9E
:1019B00020501458D8A002D0332A5AD0000E1A6EE4
:1019C000230E196E000E1C6E010E1B6E4FEC20F0E4
:1019D0004FD03350D8B402D033064AD0000E1A6E1E
:1019E000230E196E000E1C6E000E1B6E4FEC20F0C5
:1019F0003FD081BA02D0010E01D0000E1F6E206AC6
:101A00002050000AD8A434D01F50000AD8B4E1D71F
:101A1000010AD8B4C2D72CD032501F6E206A000EF3
:101A2000146E1B0E136E84EC21F01F50135C2050BB
:101A30001458D8A002D0322A5AD0000E1A6E240EA2
:101A4000196E000E1C6E010E1B6E4FEC20F04FD075
:101A50003250D8B402D032064AD0000E1A6E240E8C
:101A6000196E000E1C6E000E1B6E4FEC20F03FD066
:101A700081B802D0010E01D0000E1F6E206A2050E6
:101A8000000AD8A434D01F50000AD8B4E1D7010A04
:101A9000D8B4C2D72CD031501F6E206A000E146EFD
:101AA0001B0E136E84EC21F01F50135C2050145851
:101AB000D8A002D0312A5AD0000E1A6E250E196E07
:101AC000000E1C6E010E1B6E4FEC20F04FD03150FB
:101AD000D8B402D031064AD0000E1A6E250E196E07
:101AE000000E1C6E000E1B6E4FEC20F03FD081B636
:101AF00002D0010E01D0000E1F6E206A2050000A95
:101B0000D8A434D01F50000AD8B4E1D7010AD8B401
:101B1000C2D72CD030501F6E206A000E146E1B0EE0
:101B2000136E84EC21F01F50135C20501458D8A081
:101B300002D0302A5AD0000E1A6E260E196E000EF0
:101B40001C6E010E1B6E4FEC20F04FD03050D8B4FD
:101B500002D030064AD0000E1A6E260E196E000E04
:101B60001C6E000E1B6E4FEC20F03FD081B402D0F3
:101B7000010E01D0000E1F6E206A2050000AD8A46A
:101B800034D01F50000AD8B4E1D7010AD8B4C2D764
:101B90002CD03A501F6E206A000E146E1B0E136E6E
:101BA00084EC21F01F50135C20501458D8A002D0B0
:101BB0003A2A53D0000E1A6E290E196E000E1C6EB2
:101BC000010E1B6E4FEC20F048D03A50D8B402D032
:101BD0003A0643D0000E1A6E290E196E000E1C6EC6
:101BE000000E1B6E4FEC20F038D082A202D0010E06
:101BF00001D0000E000AD8B4CCD7010AD8B4E5D77A
:101C00002CD039501F6E206A000E146E1B0E136EFE
:101C100084EC21F01F50135C20501458D8A002D03F
:101C2000392A53D0000E1A6E2A0E196E000E1C6E41
:101C3000010E1B6E4FEC20F048D03950D8B402D0C2
:101C4000390643D0000E1A6E2A0E196E000E1C6E55
:101C5000000E1B6E4FEC20F038D083A802D0010E8E
:101C600001D0000E000AD8B4CCD7010AD8B4E5D709
:101C70002CD038501F6E206A000E146E1B0E136E8F
:101C800084EC21F01F50135C20501458D8A002D0CF
:101C9000382A53D0000E1A6E2B0E196E000E1C6ED1
:101CA000010E1B6E4FEC20F048D03850D8B402D053
:101CB000380643D0000E1A6E2B0E196E000E1C6EE5
:101CC000000E1B6E4FEC20F038D084A202D0010E23
:101CD00001D0000E000AD8B4CCD7010AD8B4E5D799
:101CE0002CD037501F6E206A000E146E1B0E136E20
:101CF00084EC21F01F50135C20501458D8A002D05F
:101D0000372A1200000E1A6E2C0E196E000E1C6E71
:101D1000010E1B6E4FEC20F012003750D8B402D0E9
:101D200037061200000E1A6E2C0E196E000E1C6E75
:101D3000000E1B6E4FEC20F0120084A002D0010EAA
:101D400001D0000E000AD8B4CCD7010AD8A41200E2
:101D5000E4D7000E146E000E136E14502EE1590ECF
:101D6000135CD8B02AD0D8901334D96E1434DA6EFC
:101D7000000ED926020EDA22000EDE6E000EDD6E97
:101D8000D8901334D96E1434DA6E000ED926010EB1
:101D9000DA22000EDE6E000EDD6ED8901334D96E9E
:101DA0001434DA6E000ED926030EDA22FF0EDE6E30
:101DB000FF0EDD6E134A142AD0D7000E0201216FE8
:101DC000000E206F000E236F000E226F000E256F95
:101DD000010E246F000E276F010E266F000E296F73
:101DE000010E286F000E2B6F010E2A6F000E2D6F53
:101DF000010E2C6F000E2F6F010E2E6F000E316F33
:101E0000010E306F000E336F010E326F000E356F12
:101E1000010E346F000E376F010E366F000E396FF2
:101E2000000E386F000E3B6F000E3A6F000E3D6FD4
:101E3000000E3C6F000E3F6F000E3E6F000E416FB4
:101E4000000E406F000E436F000E426F000E456F94
:101E5000000E446F000E476F000E466F000E496F74
:101E6000000E486F000E4B6F000E4A6F000E4D6F54
:101E7000000E4C6F000E4F6F010E4E6F000E516F33
:101E8000010E506F000E536F000E526F000E556F13
:101E9000000E546F000E576F000E566F000E596FF4
:101EA000000E586F000E5B6F010E5A6F000E5D6FD3
:101EB000010E5C6F000E5F6F010E5E6F000E616FB2
:101EC000010E606F000E636F010E626F000E656F92
:101ED000010E646F000E676F010E666F000E696F72
:101EE000010E686F000E6B6F010E6A6F000E6D6F52
:101EF000010E6C6F000E6F6F010E6E6F000E716F32
:101F0000010E706F000E736F010E726F000E756F11
:101F1000010E746F000E776F010E766F000E796FF1
:101F2000010E786F000E7B6F000E7A6F000E7D6FD2
:101F3000000E7C6F000E7F6F000E7E6F000E816FB3
:101F4000000E806F000E836F000E826F000E856F93
:101F5000000E846F000E876F000E866F000E896F73
:101F6000000E886F000E8B6F000E8A6F000E8D6F53
:101F7000010E8C6F000E8F6F010E8E6F000E916F31
:101F8000010E906F000E936F010E926F000E956F11
:101F9000010E946F000E976F010E966F000E996FF1
:101FA000010E986F000E9B6F010E9A6F000E9D6FD1
:101FB000010E9C6F000E9F6F010E9E6F000EA16FB1
:101FC000000EA06F000EA36F010EA26F000EA56F92
:101FD000000EA46F000EA76F000EA66F000EA96F73
:101FE000000EA86F000EAB6F000EAA6F000EAD6F53
:101FF000000EAC6F000EAF6F010EAE6F000EB16F32
:10200000000EB06F000E0101216F590E206F000EFF
:10201000236F000E226F270E256F100E246F030E04
:10202000276F200E266F130E296F880E286F000E63
:102030002B6F140E2A6F000E2D6F140E2C6F000ED6
:102040002F6F6B0E2E6F000E316F6B0E306F000E08
:10205000336F500E326F000E356F2D0E346F000E41
:10206000376F140E366F000E396F000E386F000E8A
:102070003B6F000E3A6F000E3D6F000E3C6F000E7E
:102080003F6F000E3E6F000E416F000E406F000E5E
:10209000436F000E426F000E456F000E446F000E3E
:1020A000476F000E466F000E496F000E486F000E1E
:1020B0004B6F000E4A6F000E4D6F000E4C6F000EFE
:1020C0004F6F000E4E6F000E516F000E506F000EDE
:1020D000536F000E526F000E556F000E546F000EBE
:1020E000576F000E566F000E596F000E586F000E9E
:1020F0005B6F000E5A6F000E5D6F500E5C6F000E2E
:102100005F6F780E5E6F000E616F000E606F000EE5
:10211000636F500E626F000E656F000E646F000EED
:10212000676F000E666F000E696F780E686F000EA5
:102130006B6F640E6A6F000E6D6F640E6C6F000E35
:102140006F6F640E6E6F000E716F640E706F000E15
:10215000736F640E726F000E756F640E746F000EF5
:10216000776F640E766F000E796F640E786F000ED5
:102170007B6F000E7A6F000E7D6F000E7C6F000E7D
:102180007F6F010E7E6F000E816F000E806F000E5C
:10219000836F000E826F000E856F000E846F000E3D
:1021A000876F000E866F000E896F000E886F000E1D
:1021B0008B6F010E8A6F000E8D6F000E8C6F000EFC
:1021C0008F6F000E8E6F000E916F000E906F000EDD
:1021D000936F000E926F000E956F000E946F000EBD
:1021E000976F000E966F000E996F000E986F000E9D
:1021F0009B6F000E9A6F000E9D6F000E9C6F000E7D
:102200009F6F000E9E6F000EA16F000EA06F000E5C
:10221000A36F000EA26F000EA56F010EA46F000E3B
:10222000A76F000EA66F000EA96F010EA86F000E1B
:10223000AB6F000EAA6F000EAD6F000EAC6F000EFC
:10224000AF6F000EAE6F010EB16FB06912000001EA
:10225000CE6F000E1A6E3D0E196ECEC01BF01C6ABA
:102260004FEC20F0000E1A6E3E0E196ECDC01BF022
:102270001C6A4FEC20F0ACD1000E1F6E010E4CEC2E
:1022800015F00009D8B418D0010E0001E06FCAD1D2
:10229000010E1F6E010E4CEC15F0F3D7010E1F6EF0
:1022A000000E4CEC15F0EDD7000E1F6E000E4CEC3E
:1022B00015F00009D8A4E8D7010E15D00001CE51C1
:1022C000010AD8B4EBD7030AD8B4EED7010AD8B4C0
:1022D000D3D7070AD8B4DCD7A5D1000E1F6E010EE4
:1022E0004CEC15F016D00001866F010EE06FCCD7D4
:1022F000010E1F6E010E4CEC15F00BD0010E1F6E7F
:10230000000E4CEC15F005D0000E1F6E000E4CECCC
:1023100015F00009D8A4B8D7020EE5D7CD51010AAF
:10232000D8B4ECD7030AD8B4EFD7010AD8B4D5D7BC
:10233000070AD8B4DDD776D1C7EC18F008D0C7ECBF
:1023400018F005D02BEC18F002D02BEC18F0000997
:10235000D8A49AD7030EC7D7CD51010AD8B4F2D763
:10236000030AD8B4F2D7010AD8B4E6D7070AD8B41A
:10237000E6D758D1000E146E1C0E136E84EC21F0BB
:1023800013041410D8B49BD0000E146E290E136ED3
:1023900084EC21F013041410D8B432D0000E146E63
:1023A0002A0E136E84EC21F013041410D8B434D028
:1023B000000E146E2C0E136E84EC21F01304141016
:1023C000D8B436D0000E146E2B0E136E84EC21F0B0
:1023D00037D00001866F58D7000E146E1D0E136E95
:1023E00084EC21F013041410D8B469D0000E146EDC
:1023F000290E136E84EC21F013041410D8A402D01B
:10240000050EE7D7000E146E2A0E136E84EC21F031
:1024100013041410D8A402D0060EDBD7000E146EDD
:102420002C0E136E84EC21F013041410D8A402D0E7
:10243000070ECFD7000E146E2B0E136E84EC21F016
:1024400013041410D8A420D7080EC3D7000E146E9E
:102450001E0E136E84EC21F013041410D8B42FD088
:10246000000E146E290E136E84EC21F01304141068
:10247000D8B431D0000E146E2A0E136E84EC21F005
:1024800013041410D8B433D0000E146E2C0E136E37
:1024900084EC21F013041410D8B435D0000E146E5F
:1024A0002B0E136E84EC21F036D0000E146E1F0E2E
:1024B000136E84EC21F013041410D8A402D0040E7F
:1024C00088D7000E146E290E136E84EC21F01304CD
:1024D0001410D8A402D00C0E7CD7000E146E2A0E55
:1024E000136E84EC21F013041410D8A402D00B0E48
:1024F00070D7000E146E2C0E136E84EC21F01304B2
:102500001410D8A402D00A0E64D7000E146E2B0E3D
:10251000136E84EC21F013041410D8A4B5D6090E60
:1025200058D7CD51010AD8B491D7030AD8B4BDD732
:10253000010AD8B41FD7070AD8B44ED773D08BEC92
:1025400017F008D08BEC17F005D0E8EC16F002D0AD
:10255000E8EC16F00009D8A497D6000E0001866FAB
:10256000000E94D6CD51010AD8B4EFD7030AD8B4DF
:10257000EFD7010AD8B4E3D7070AD8B4E3D752D0CB
:10258000010E2FEC1CF01BD0020E2FEC1CF017D00C
:10259000030E1BEC1BF013D0040E1BEC1BF00FD032
:1025A000040E91EC1AF00BD0030E91EC1AF007D048
:1025B000020EB8EC1CF003D0010EB8EC1CF00009C0
:1025C000D8A462D6030E05D7000E866F010E5ED624
:1025D00000018651000AD8B471D6010AD8B49ED63B
:1025E000030AD8B4B9D6010AD8B49BD7070AD8B41D
:1025F000B9D7010AD8B4C4D7030AD8B4C5D7010AD9
:10260000D8B4C6D70F0AD8B4C7D7010AD8B4C8D728
:10261000030AD8B4C9D7010AD8B4CAD7070AD8B4AC
:10262000CBD7D2D7E0511200110E00016C5D270EFE
:102630006D59D8A013D1000E6D6F000E6C6FE9D0EC
:102640008C0E726F000E736F8C0E706F000E716FB8
:10265000000E6F6F010E6E6F12008C0E706F000E09
:10266000716F7251701904E173517119D8B412006D
:102670008CC0D8F08DC0D9F08EC0DAF08FC0DBF0FE
:1026800065EC21F0040E00017027000E7123000E8E
:102690006F6F020E6E6F12007251701904E1735168
:1026A0007119D8B4120090C0D8F091C0D9F092C07E
:1026B000DAF093C0DBF065EC21F0040E0001702726
:1026C000000E7123000E6F6F030E6E6F12007251B9
:1026D000701904E173517119D8B4120094C0D8F084
:1026E00095C0D9F096C0DAF097C0DBF065EC21F028
:1026F000040E00017027000E7123000E6F6F040E90
:102700006E6F12007251701904E173517119D8B4CF
:10271000120098C0D8F099C0D9F09AC0DAF09BC0E6
:10272000DBF065EC21F0040E00017027000E712330
:10273000000E6F6F050E6E6F12007251701904E17A
:1027400073517119D8B412009CC0D8F09DC0D9F053
:102750009EC0DAF09FC0DBF065EC21F0040E0001B2
:102760007027000E7123000E6F6F060E6E6F120041
:102770007251701904E173517119D8B41200A0C0DC
:10278000D8F0A1C0D9F0A2C0DAF0A3C0DBF065ECAC
:1027900021F0040E00017027000E7123000E6F6FF0
:1027A000070E6E6F12007251701904E173517119A6
:1027B000D8B41200A4C0D8F0A5C0D9F0A6C0DAF0F1
:1027C000A7C0DBF065EC21F0040E00017027000EBD
:1027D0007123000E6F6F080E6E6F12007251701928
:1027E00004E173517119D8B41200A8C0D8F0A9C07F
:1027F000D9F0AAC0DAF0ABC0DBF065EC21F08C0EAA
:102800000001706F000E716F000E6F6F010E6E6F22
:1028100012006EC020F06FC021F02150000AD8A431
:1028200012002050000AD8B40BD7010AD8B415D72B
:10283000030AD8B431D7010AD8B449D7070AD8B4A3
:1028400061D7010AD8B479D7030AD8B491D7010A5D
:10285000D8B4A9D70F0AD8A41200C0D76C4B6D2BDF
:102860001200F8D08C0E0001726F000E736F72C0F0
:10287000D9FF73C0DAFF13C0DEFF14C0DDFF020E04
:102880007227000E732372C0D9FF73C0DAFF15C020
:10289000DEFF16C0DDFF020E7227000E7323000E4E
:1028A000756F010E746F120072C0D9FF73C0DAFF2A
:1028B00013C0DEFF14C0DDFF020E00017227000E00
:1028C000732372C0D9FF73C0DAFF15C0DEFF16C0D4
:1028D000DDFF020E7227000E7323000E756F020ECD
:1028E000746F120072C0D9FF73C0DAFF13C0DEFF2D
:1028F00014C0DDFF020E00017227000E732372C0A8
:10290000D9FF73C0DAFF15C0DEFF16C0DDFF020E6F
:102910007227000E7323000E756F030E746F120082
:1029200072C0D9FF73C0DAFF13C0DEFF14C0DDFF31
:10293000020E00017227000E732372C0D9FF73C00C
:10294000DAFF15C0DEFF16C0DDFF020E7227000E93
:102950007323000E756F040E746F120072C0D9FFDE
:1029600073C0DAFF13C0DEFF14C0DDFF020E0001EA
:102970007227000E732372C0D9FF73C0DAFF15C02F
:10298000DEFF16C0DDFF020E7227000E7323000E5D
:10299000756F050E746F120072C0D9FF73C0DAFF35
:1029A00013C0DEFF14C0DDFF020E00017227000E0F
:1029B000732372C0D9FF73C0DAFF15C0DEFF16C0E3
:1029C000DDFF020E7227000E7323000E756F060ED8
:1029D000746F120072C0D9FF73C0DAFF13C0DEFF3C
:1029E00014C0DDFF020E00017227000E732372C0B7
:1029F000D9FF73C0DAFF15C0DEFF16C0DDFF020E7F
:102A00007227000E7323000E756F070E746F12008D
:102A100072C0D9FF73C0DAFF13C0DEFF14C0DDFF40
:102A2000020E00017227000E732372C0D9FF73C01B
:102A3000DAFF15C0DEFF16C0DDFF020E7227000EA2
:102A400073238C0E726F000E736F000E756F000E85
:102A5000746F120074C017F075C018F01850000A97
:102A6000D8A412001750000AD8B4FCD6010AD8B472
:102A70001BD7030AD8B436D7010AD8B451D7070AEE
:102A8000D8B46CD7010AD8B487D7030AD8B4A2D770
:102A9000010AD8A41200BCD7206EE2D0010E4C6E01
:102AA0008CD0000E1A6E400E196E000E1C6E010EB8
:102AB0001B6E4FEC20F0000E1A6E520E196E000EB7
:102AC0001C6E010E1B6E4FEC20F0000E1A6E530EA2
:102AD000196E000E1C6E000E1B6E4FEC20F074D0B1
:102AE000000E1A6E410E196E000E1C6E010E1B6E4A
:102AF0004FEC20F0000E1A6E520E196E000E1C6E76
:102B0000000E1B6E4FEC20F0000E1A6E530E196E65
:102B1000000E1C6E010E1B6E4FEC20F055D01F50A6
:102B2000000AD8B4BED7010AD8B4DAD74DD0000E07
:102B30001A6E420E196E000E1C6E010E1B6E4FECCB
:102B400020F0000E1A6E540E196E000E1C6E010E4F
:102B50001B6E4FEC20F0000E1A6E550E196E000E13
:102B60001C6E000E1B6E4FEC20F02ED0000E1A6E65
:102B7000430E196E000E1C6E010E1B6E4FEC20F002
:102B8000000E1A6E540E196E000E1C6E000E1B6E97
:102B90004FEC20F0000E1A6E550E196E000E1C6ED2
:102BA000010E1B6E4FEC20F00FD01F50000AD8B45E
:102BB000BED7010AD8B4DAD707D02050000AD8B45B
:102BC000AED7010AD8B4F1D7010E2F6E53D0000E44
:102BD000146E130E136E84EC21F0135000016A5D25
:102BE00014506B59D8A008D0020E2F6E000E6B6FD8
:102BF000000E6A6F010E32D0010E4C6E010E2F6E68
:102C00006A4B6B2B37D0000E1A6E400E196E000EF9
:102C10001C6E000E1B6E4FEC20F0000E1A6E410E63
:102C2000196E000E1C6E000E1B6E4FEC20F0000E95
:102C30001A6E420E196E000E1C6E000E1B6E4FECCB
:102C400020F0000E1A6E430E196E000E1C6E000E60
:102C50001B6E4FEC20F0000E2F6E000E4C6E0AD053
:102C60002F50000AD8B41AD7010AD8B4B0D7030A33
:102C7000D8B4C9D74C501200730E0001AC19D8A4B7
:102C800063D0AE0E786F000E796F78C019F079C0FE
:102C90001AF0B0EC1DF019C022F01AC023F0B10EEA
:102CA0000001786F000E796F78C019F079C01AF0C2
:102CB000B0EC1DF019C020F01AC021F022C013F0B2
:102CC00023C014F092EC21F013501410D8A408D0B3
:102CD000550E0001CB6F080ECC6FFCEC19F0120002
:102CE00023500CE10F0E225CD8B008D05C0E00011E
:102CF000CB6F080ECC6FFCEC19F01200235004E1EE
:102D00005A0E225CD8A008D0630E0001CB6F080ECB
:102D1000CC6FFCEC19F0120020280BE12128D8A47C
:102D200008D06A0E0001CB6F080ECC6FFCEC19F0D6
:102D3000120022C015F023C016F020C017F021C0E9
:102D400018F0BCEC20F01200670E0001AC19D8A4FA
:102D50001200AE0E786F000E796F78C019F079C04E
:102D60001AF0B0EC1DF019C022F01AC023F0235065
:102D70000CE10F0E225CD8B008D05C0E0001CB6FC6
:102D8000080ECC6FFCEC19F01200235004E15A0E2F
:102D9000225CD8A008D0630E0001CB6F080ECC6F68
:102DA000FCEC19F0120022C013F023C014F084ECE4
:102DB00021F013C020F014C021F022C013F023C072
:102DC00014F020C015F021C016F031EC14F0120000
:102DD00092D07EC01FF07FC020F0000E216E17EC55
:102DE0001EF0010E0001DE6F000E146E150E136E44
:102DF00084EC21F000017E51135C7F511458D8A05F
:102E000002D0010E74D0000E146E190E136E84ECF5
:102E100021F013500001685D14506959D8A008D002
:102E20007E07D8A07F07000E696F000E686F71D013
:102E3000684B692B6ED0000E146E120E136E84EC6C
:102E400021F013500001645D14506559D8A007D0DB
:102E5000020E806F000E656F000E646F49D0010E88
:102E6000DE6F644B652B010E806F53D0000E146E25
:102E7000150E136E84EC21F013C0CBF014C0CCF00F
:102E8000CBC01FF0CCC020F0000E216E17EC1EF05E
:102E9000000E1A6E450E196E000E1C6E010E1B6E92
:102EA0004FEC20F0000E146E150E136E84EC21F022
:102EB00013C07EF014C07FF0030E000118D0000E86
:102EC000146E140E136E84EC21F013500001645D37
:102ED00014506559D8A008D0000E806F000E656FA1
:102EE000000E646F000E05D0644B652B030E806FDF
:102EF000010EDE6F0ED000018051000AD8B469D7F0
:102F0000010AD8B498D7030AD8B4B0D7010AD8B404
:102F1000D6D7DE5112008FD07EC01FF07FC020F0C8
:102F2000010E216E17EC1EF0000E146E160E136EBD
:102F300084EC21F000017E51135C7F511458D8A01D
:102F400002D0010E74D0000E146E190E136E84ECB4
:102F500021F013500001685D14506959D8A008D0C1
:102F60007E07D8A07F07000E696F000E686F60D0E3
:102F7000684B692B5DD0000E146E120E136E84EC3C
:102F800021F013500001605D14506159D8A007D0A2
:102F9000020E806F000E616F000E606F49D0010E4F
:102FA000DC6F604B612B010E806F53D0000E146EEE
:102FB000160E136E84EC21F013C0CBF014C0CCF0CD
:102FC000CBC01FF0CCC020F0010E216E17EC1EF01C
:102FD000000E1A6E450E196E000E1C6E010E1B6E51
:102FE0004FEC20F0000E146E160E136E84EC21F0E0
:102FF00013C07EF014C07FF0030E000118D0000E45
:10300000146E140E136E84EC21F013500001605DF9
:1030100014506159D8A008D0000E806F000E616F67
:10302000000E606F000E05D0604B612B030E806FA9
:10303000010EDC6F0ED000018051000AD8B46CD7AD
:10304000010AD8B498D7030AD8B4B0D7010AD8B4C3
:10305000D6D7DC5112008BD0000E146E140E136EF6
:1030600084EC21F013500001665D14506759D8A01C
:1030700002D0010E3ED0664B672B000E43D0010EEE
:10308000DF6F83D0000E146E150E136E84EC21F0EA
:1030900013C0CBF014C0CCF0CBC01FF0CCC020F0DC
:1030A000000E216E17EC1EF0000E146E150E136E3E
:1030B00084EC21F013C07EF014C07FF0000E1A6E75
:1030C000450E196E000E1C6E000E1B6E4FEC20F0AC
:1030D000020E000117D0000E146E120E136E84EC57
:1030E00021F013500001665D14506759D8A007D035
:1030F000030E806F000E676F000E666FC0D7664BC1
:10310000672B020E806FBBD77EC01FF07FC020F000
:10311000000E216E17EC1EF0010E0001DF6F000E95
:10312000146E180E136E84EC21F0135000017E5DB6
:1031300014507F59D8A004D0000E806F000EA0D785
:10314000000E146E1A0E136E84EC21F01350000161
:10315000685D14506959D8A007D07E4B7F2B000EB4
:10316000696F000E686F11D0684B692B0ED000019B
:103170008051000AD8B470D7010AD8B483D7030AA3
:10318000D8B4A9D7010AD8B4BFD7DF5112008AD06A
:10319000000E146E140E136E84EC21F01350000117
:1031A000625D14506359D8A002D0010E3DD0624B2D
:1031B000632B000E806F73D0000E146E160E136E0C
:1031C00084EC21F013C0CBF014C0CCF0CBC01FF0C6
:1031D000CCC020F0010E216E17EC1EF0000E146E14
:1031E000160E136E84EC21F013C07EF014C07FF035
:1031F000000E1A6E450E196E000E1C6E000E1B6E30
:103200004FEC20F0010E0001DD6F18D0000E146E9F
:10321000120E136E84EC21F013500001625D145005
:103220006359D8A007D0030E806F000E636F000EA5
:10323000626F35D0010EDD6F624B632B020E806F23
:103240003FD07EC01FF07FC020F0010E216E17EC32
:103250001EF0000E146E170E136E84EC21F0135046
:1032600000017E5D14507F59D8A004D0000E806FFD
:10327000000E16D0000E146E1A0E136E84EC21F0A0
:1032800013500001685D14506959D8A006D07E4BD8
:103290007F2B000E696F000E686F684B692B010E63
:1032A000DD6F0ED000018051000AD8B471D7010A39
:1032B000D8B482D7030AD8B4A9D7010AD8B4C1D7E1
:1032C000DD511200000E246E1B0E246401D012008A
:1032D0002450020D010EF324F66E080EF420F76E52
:1032E0000800F5CF23F02450020D010EF324F66EF2
:1032F000080EF420F76E0900F5CF1BF00900F5CF9A
:103300001CF0D8901B361C36000E1B24D96E030E01
:103310001C20DA6E2450020D010EF324F66E080E06
:10332000F420F76E0900F5CF1FF00900F5CF20F06B
:10333000D8901F362036000E1F24E16E010E20208B
:10334000E26EDE50E61804E1DE50E618D8B452D042
:1033500024C013F0146A2450020D010EF324F66EFB
:10336000080EF420F76E0900F5CF1BF00900F5CF29
:103370001CF0D8901B361C36000E1B24D96E010E93
:103380001C20DA6EDECF15F0DDCF16F0C2EC1FF098
:103390002450020D010EF324F66E080EF420F76E91
:1033A0000900F5CF1BF00900F5CF1CF0D8901B36B3
:1033B0001C36000E1B24D96E010E1C20DA6E245020
:1033C000020D010EF324F66E080EF420F76E0900CC
:1033D000F5CF1DF00900F5CF1EF0D8901D361E3632
:1033E000000E1D24E16E030E1E20E26EDECFE6FF0E
:1033F000DDCFE5FF242A68D7CD0E0001D16F000E86
:10340000D26F81D0250ED719D8B404D0D751ACECE7
:1034100021F079D0000E0001D36FCBC0F6FFCCC0F5
:10342000F7FFCB4BCC2B0800F5CFD7F0D751000AD4
:10343000D8B41200640AD8B403D00D0AD8A463D05B
:10344000D1C0D9FFD2C0DAFFDECFD5F0DDCFD6F0C4
:10345000020ED127000ED223D6AF06D0030ED3130F
:10346000D56DD61FD8B0D62B010ED76F050ED71944
:10347000D8B412D0D751020D390EF324F66E080ECF
:10348000F420F76E0900F550D55D0900F550D659C6
:10349000D8A002D0D72BEAD7D3C01FF0030E1F1637
:1034A000D8B403D02D0EACEC21F0D7C0D4F026D088
:1034B0000001D451020D390EF324F66E080EF420EB
:1034C000F76E0900F5CF15F00A00F5CF16F0D5C05C
:1034D00013F0D6C014F026EC20F013C01AF014C07C
:1034E0001BF0000E1D6E0A0E1C6E9BEC20F01A5095
:1034F000300F0001D76FD751ACEC21F00001D40799
:10350000D429D8A4D5D7CBC0F6FFCCC0F7FF000193
:10351000CB4BCC2B0800F5CFD7F0D751D8B4120045
:1035200071D70001CB6F7ED0030E0001CB19D8B448
:103530000CD0000E146E350E136E84EC21F0135077
:10354000265C14502758D8A007D0010E2E6E000E0E
:10355000276E000E266E63D0264A272A60D0040EFE
:103560000001CB19D8A426D07EC01FF07FC020F068
:10357000000E216E17EC1EF0000E146E2E0E136E50
:1035800084EC21F000017E51135C7F511458D8B0B7
:103590002AD0000E146E1A0E136E84EC21F0135014
:1035A0000001685D14506959D8A037D07E07D8A0B3
:1035B0007F072ED0030ECB19D8A431D07EC01FF0C8
:1035C0007FC020F0000E216E17EC1EF0000E146E6E
:1035D000180E136E84EC21F0135000017E5D145020
:1035E0007F59D8A006D0000E806F000E2E6E000E00
:1035F00017D0000E146E1A0E136E84EC21F01350C7
:103600000001685D14506959D8A007D07E4B7F2B0C
:10361000000E696F000E686F02D0684B692B010EB7
:103620004B6E07D02E50000AD8B47ED7010AD8B40A
:1036300096D74B5012000001CB6F7ED0040E0001D4
:10364000CB19D8B40CD0000E146E380E136E84EC67
:1036500021F01350265C14502758D8A007D0010E33
:103660002E6E000E276E000E266E63D0264A272A85
:1036700060D0030E0001CB19D8A425D07EC01FF066
:103680007FC020F0010E216E17EC1EF0000E146EAC
:103690002F0E136E84EC21F0135000017E5D145048
:1036A0007F59D8B029D0000E146E1A0E136E84EC18
:1036B00021F013500001685D14506959D8A037D02B
:1036C0007E4B7F2B2FD0040ECB19D8A432D07EC0D6
:1036D0001FF07FC020F0010E216E17EC1EF0000ECF
:1036E000146E170E136E84EC21F000017E51135CF2
:1036F0007F511458D8A006D0000E806F000E2E6E99
:10370000000E18D0000E146E1A0E136E84EC21F009
:1037100013500001685D14506959D8A008D07E0785
:10372000D8A07F07000E696F000E686F02D0684B4B
:10373000692B010E486E07D02E50000AD8B47ED7F0
:10374000010AD8B496D7485012003F50D8B47BD065
:10375000F7EC20F00001846F6BD0AC0E786F000E98
:10376000796FFF0ED86FFF0ED96F430EF66E080EFD
:10377000F76E0800F550DA6FDB6BD851DA27D951B4
:10378000DB23AC0EDA25766F000EDB21776F730E2C
:103790008419D8B404D0670E8419D8A40AD078C08C
:1037A000D9FF79C0DAFF84C0DFFF784B792B010E97
:1037B0003DD0000E3BD0780E8419D8A4FAD778C03B
:1037C000D9FF79C0DAFF84C0DFFF2DD0470E8419FE
:1037D000D8B409D013D078C0D9FF79C0DAFF000E71
:1037E000DF6E784B792B7651785D77517959D8A077
:1037F000F2D7030E836F010E826F25D078C0D9FFF8
:1038000079C0DAFF84C0DFFF7851765D795177594E
:10381000D8B009D04E0ECB6F080ECC6FFCEC19F06F
:10382000000E000103D0784B792B020E836F0BD072
:103830008351000AD8B491D7010AD8B4BCD7030A7F
:10384000D8B4C4D7010A00018205D8A412003CEC08
:1038500016F0000E0001826F000E836F120000014F
:10386000CB6F7DD0020E0001CB19D8B40CD0000E66
:10387000146E3B0E136E84EC21F01350265C145032
:103880002758D8A007D0010E2E6E000E276E000E0E
:10389000266E62D0264A272A5FD00001CB05D8A425
:1038A00026D07EC01FF07FC020F0010E216E17ECE5
:1038B0001EF0000E146E310E136E84EC21F0000128
:1038C0007E51135C7F511458D8B02AD0000E146E6C
:1038D0001A0E136E84EC21F013500001685D145031
:1038E0006959D8A037D07E07D8A07F072ED0020E06
:1038F000CB19D8A431D07EC01FF07FC020F0010EBC
:10390000216E17EC1EF0000E146E170E136E84EC71
:1039100021F0135000017E5D14507F59D8A006D0CD
:10392000000E806F000E2E6E000E17D0000E146E6B
:103930001A0E136E84EC21F013500001685D1450D0
:103940006959D8A007D07E4B7F2B000E696F000EFF
:10395000686F02D0684B692B010E496E07D02E505C
:10396000000AD8B47FD7010AD8B497D749501200BB
:103970000001CB6F7CD00001CB05D8B40CD0000E79
:10398000146E3A0E136E84EC21F01350265C145022
:103990002758D8A007D0010E2E6E000E276E000EFD
:1039A000266E62D0264A272A5FD0020E0001CB196C
:1039B000D8A425D07EC01FF07FC020F0000E216E5D
:1039C00017EC1EF0000E146E340E136E84EC21F012
:1039D000135000017E5D14507F59D8B028D0000EDE
:1039E000146E1A0E136E84EC21F013500001685D02
:1039F00014506959D8A036D07E4B7F2B2ED0CB05E2
:103A0000D8A432D07EC01FF07FC020F0000E216EFF
:103A100017EC1EF0000E146E180E136E84EC21F0DD
:103A200000017E51135C7F511458D8A006D0000EBF
:103A3000806F000E2E6E000E18D0000E146E1A0E3F
:103A4000136E84EC21F013500001685D1450695925
:103A5000D8A008D07E07D8A07F07000E696F000E9F
:103A6000686F02D0684B692B010E4A6E07D02E504A
:103A7000000AD8B480D7010AD8B497D74A501200A8
:103A80000600FACF01F0FBCF02F0E9CF03F0EACF56
:103A900004F0E1CF05F0E2CF06F0D9CF07F0DACF9E
:103AA00008F0F3CF09F0F4CF0AF0F6CF0BF0F7CF20
:103AB0000CF0F8CF0DF0F5CF0EF04DC00FF04EC06A
:103AC00010F04FC011F050C012F0F2A419D02D50D8
:103AD00006E1650E2C5CD8B002D0808801D08098B9
:103AE000BC0E2C5C020E2D58D8A004D0000E2D6EFA
:103AF000000E2C6E2C4A2D2A010E00018B6FF294C1
:103B00009DBA9EAA02D028EC21F09DB89EA802D0B2
:103B100011EC21F012C050F011C04FF010C04EF067
:103B20000FC04DF00EC0F5FF0DC0F8FF0CC0F7FF41
:103B30000BC0F6FF0AC0F4FF09C0F3FF08C0DAFFAC
:103B400007C0D9FF06C0E2FF05C0E1FF04C0EAFFDD
:103B500003C0E9FF02C0FBFF01C0FAFF4D92110054
:103B600002D0194A1A2A19C0D9FF1AC0DAFF200E4A
:103B7000DE18D8B4F6D719C0D9FF1AC0DAFF090E7B
:103B8000DE18D8B4EED7000E1F6E000E1E6E000EAB
:103B90001D6E19C0D9FF1AC0DAFF2D0EDE18D8A489
:103BA00002D01D2A24D019C0D9FF1AC0DAFF2B0E6B
:103BB000DE18D8A41ED01BD01EC013F01FC014F0F6
:103BC000000E166E0A0E156E52EC21F019C0D9FFC8
:103BD0001AC0DAFFDF501B6E1C6A13501B261450EC
:103BE0001C22D00E1B241E6EFF0E1C201F6E194AB5
:103BF0001A2A19C0D9FF1AC0DAFFDF5075EC21F07C
:103C0000D8B0DAD71D50D8B40DD01EC01BF01FC0DD
:103C10001CF01B1E1C1E1B4A1C2A1BC019F01CC0BA
:103C20001AF012001EC019F01FC01AF01200010E87
:103C3000256E24682150226E236A000E146E560EE3
:103C4000136E84EC21F02250131804E12350141851
:103C5000D8B409D0000E1A6E560E196E21C01BF092
:103C60001C6A4FEC20F02150D8A41CD01FC022F0B9
:103C700020C023F0D89022362336221E231E224A4B
:103C8000232AFF0E2224246E010E2320256E000E0F
:103C90001A6E580E196E24C01BF025C01CF04FEC94
:103CA00020F012002104D8A412001FC022F020C06E
:103CB00023F0D89022362336FF0E2224246E010EE4
:103CC0002320256E000E1A6E580E196E24C01BF0AC
:103CD00025C01CF04FEC20F01200000E1F6E000EED
:103CE0001E6E000E1D6E000E1F6E1B0E1F6401D097
:103CF00012001FC013F0146AF5EC1FF013C01DF082
:103D000014C01EF01F50020D010EF324F66E080EB3
:103D1000F420F76E0900F5CF1BF00900F5CF1CF079
:103D2000D8901B361C36000E1B24D96E010E1C20A9
:103D3000DA6E1DC0DEFF1EC0DDFF1F50020D010E3A
:103D4000F324F66E080EF420F76E0900F5CF1BF091
:103D50000900F5CF1CF0D8901B361C36000E1B2432
:103D6000D96E030E1C20DA6E1DC0DEFF1EC0DDFF03
:103D70001F2ABBD7640EF66E430EF76E000EF86E68
:103D800000EEDCF010EE06F00900F5CFEEFFE55096
:103D9000E150FAE16A0EF66E430EF76E000EF86E11
:103DA00000EE48F010EE05F00900F5CFEEFFE5500B
:103DB000E150FAE104EE00F0FC0EEE6AE806FDE1E7
:103DC00003EE00F0B20EEE6AE806FDE102EE00F04E
:103DD000B20EEE6AE806FDE101EE00F0B20EEE6A08
:103DE000E806FDE100EE60F0560EEE6AE806FDE141
:103DF00000EE26F0220EEE6AE806FDE14D904D92AF
:103E0000000EF86E000185EF1FF0136E30D0839A1C
:103E10001200838A1200284A292AB80E285C0B0E49
:103E20002958D8A004D0000E296E000E286EDC0E92
:103E3000285C050E2958D8A002D0838A1200839AE4
:103E40001200284A292AE80E285C030E2958D8A017
:103E500004D0000E296E000E286EF40E285C010EB0
:103E60002958D8A002D0838A1200839A12001350D6
:103E7000000AD8B4CCD7010AD8B4CBD7030AD8B437
:103E8000CAD7010AD8A41200DCD7136E30D0839CA5
:103E90001200838C12002A4A2B2AB80E2A5C0B0EC1
:103EA0002B58D8A004D0000E2B6E000E2A6EDC0E0C
:103EB0002A5C050E2B58D8A002D0838C1200839C5C
:103EC00012002A4A2B2AE80E2A5C030E2B58D8A08F
:103ED00004D0000E2B6E000E2A6EF40E2A5C010E2A
:103EE0002B58D8A002D0838C1200839C1200135050
:103EF000000AD8B4CCD7010AD8B4CBD7030AD8B4B7
:103F0000CAD7010AD8A41200DCD7926893689468D3
:103F1000956896680F0EC16E070EB46E9298959ACA
:103F2000959C8098839C839A929092929294929678
:103F300080968094809280909584958695809582D5
:103F400094829588968096829380938293849386B8
:103F50009388938A958EA9EC0EF03EEC21F0A0ECAC
:103F600021F077EC20F06DEC1EF000018B05D8A459
:103F700004D0000E8B6F39EC04F0A5EC1BF014ECB0
:103F800013F0F3D7D8901334196E14341A6E010E4F
:103F90001924176E000E1A20186E000EF26EA696E7
:103FA00019C0A9FF1650A86EA69EA69CA684550E01
:103FB000A76EAA0EA76EA682A6B2FED7A198A69655
:103FC00017C0A9FF15C0A8FFA69EA69CA684000E38
:103FD000F26E550EA76EAA0EA76EA682A6B2FED7E7
:103FE000A198A694A00EF26E1200D8901334176E0A
:103FF0001434186E010E1724156E000E1820166E5C
:10400000000E1A6E000E196E000EF26EA69EA69C91
:1040100017C0A9FFA680A6B0FED7A8CF19F01A6ACC
:1040200019501A6E196AA69EA69C15C0A9FFA680F3
:10403000A6B0FED71950A810196E1A501A6EA00E0D
:10404000F26E19C013F01AC014F01200000E196EAF
:10405000000E186E15501610D8B41CD0010E176E35
:1040600004D0D89015361636172A16AEFAD7D8903F
:10407000183619361550135C16501458D8A005D0B0
:104080001550135E1650145A1880D89016321532F7
:10409000172EEDD718C013F019C014F01200D890E5
:1040A0001934D96E1A34DA6E000ED926010EDA22CE
:1040B0001B50DE1804E11C50DE18D8B41200D89052
:1040C0001934D96E1A34DA6E000ED926010EDA22AE
:1040D0001BC0DEFF1CC0DDFF19C013F01AC014F0B6
:1040E0001BC015F01CC016F031EC14F012009D9AA4
:1040F0009D98B886AB8EAB9CAB88AB96AC9CAC8ADB
:10410000AC98AC96AC84AC82AC90010E146EA10E4F
:10411000136E1450B06E13C0AFFF000E446E000E4D
:10412000436E7E0E426E000E416E000E406E000E1B
:104130003F6E9D8A12001C501D10D8B418D0010E7D
:104140001E6E04D0D8901C361D361E2A1DAEFAD71E
:104150001C501A5C1D501B58D8A004D01C501A5E6D
:104160001D501B5AD8901D321C321E2EF1D71AC07A
:104170001AF01BC01BF01200D8901534D96E1634FB
:10418000DA6E000ED926010EDA221750DE1804E18D
:104190001850DE18D8B41200D8901534D96E1634E1
:1041A000DA6E000ED926010EDA2217C0DEFF18C023
:1041B000DDFF120015C017F016C018F0060ED890DB
:1041C00017361836E82EFBD717C019F018C01AF0AA
:1041D0001AC0BEFF19C017F0D8901732D890173206
:1041E000300E1716BD50CF0B1710BD6E1200000E0B
:1041F000136E3F50D8B4FDD79D9A4050010D000E6C
:10420000F324D96E040EF420DA6EDF50136E402AC8
:104210007D0E406402D0000E406E3F069D8A135012
:1042200012007E0E426012D04350010D7E0EF32428
:10423000D96E040EF420DA6EDF50AD6E432A7D0E87
:10424000436402D0000E436E422A12009D98120071
:10425000ABA202D0AB98AB884150010D000EF32405
:10426000D96E040EF420DA6EAECFDFFF412A7D0E48
:10427000416402D0000E416E3F2A1200000E1A6EF9
:10428000450E196E000E1C6E010E1B6E4FEC20F0D9
:10429000CB687F0EBE6E0F0EBD6E040ECA6E949478
:1042A0009490120013501502F3CF17F0F4CF18F0CA
:1042B00013501602F350182614501502F350182606
:1042C00017C013F018C014F01200440E0001CB6F99
:1042D000080ECC6FD8C0CDF0D9C0CEF0DAC0CFF088
:1042E000DBC0D0F0FCEC19F01200156E000E146E5D
:1042F0003A0E156005D02F0E156402D0010E146E13
:1043000014C013F013301200D8901334D96E143443
:10431000DA6E000ED926010EDA22DECF13F0DDCFE1
:1043200014F01200D8901334D96E1434DA6E000EE3
:10433000D926020EDA22DECF13F0DDCF14F0120000
:10434000D08EA00EF26E840EF16E000ED76E000EAF
:10435000D66EC30ED56E1200136E9EA8FED713C084
:0F436000ADFF1200010101010101010101010185
:020000040020DA
:08000000FFFFFFFFFFFFFFFF00
:020000040030CA
:0E0000002C0E1800FF8181FF0FC00FE00F4093
:00000001FF
