:0400000063EF00F0BA
:060008004D8260ED1DF0C9
:100018004D80D8CFBAF0E8CFBBF0E0CFBCF0FACF34
:10002800BDF0FBCFBEF0E9CFBFF0EACFC0F0E1CF23
:10003800C1F0E2CFC2F0D9CFC3F0DACFC4F0F3CF2A
:10004800C5F0F4CFC6F0F6CFC7F0F7CFC8F0F8CFB9
:10005800C9F0F5CFCAF04DC0CBF04EC0CCF04FC0C0
:10006800CDF050C0CEF0CEC050F0CDC04FF0CCC0D7
:100078004EF0CBC04DF0CAC0F5FFC9C0F8FFC8C0EC
:10008800F7FFC7C0F6FFC6C0F4FFC5C0F3FFC4C082
:10009800DAFFC3C0D9FFC2C0E2FFC1C0E1FFC0C0E0
:1000A800EAFFBFC0E9FFBEC0FBFFBDC0FAFFBCC08E
:1000B800E0FFBBC0E8FFBAC0D8FF4D90100044EF86
:0200C8001FF027
:10080000001200130014001500160017001800193C
:10081000001A001B00270028002D002E002F00309A
:100820000031003200330034003500360037003824
:100830000039003A003B003C0001000A006400E877
:100840000310270A4D2325642025640D0A00452343
:1008500031300D0A00452331310D0A004523313274
:100860000D0A00452331330D0A00452331340D0AAA
:100870000000000E146E480E136ECFEC21F01350E2
:100880001410D8B40CD0000E1A6E480E196E000E5B
:100890001C6E000E1B6E9AEC20F0FF001AD0000EAA
:1008A000146E570E136ECFEC21F013501410D8B401
:1008B00010D040EC16F01B041C10D8A40AD0000E77
:1008C0001A6E570E196E000E1C6E000E1B6E9AECFF
:1008D00020F0EAEC0AF0CBEF0AF0000E146E4A0E9C
:1008E000136ECFEC21F013501410D8B415D0010EB4
:1008F0001F6E000E50EC15F00009D8A4D7EF0AF0D7
:10090000000E166E4A0E156E000E186E000E176E53
:1009100007EC21F0D7EF0AF0000E146E490E136EAB
:10092000CFEC21F013501410D8B415D0000E1F6E68
:10093000000E50EC15F00009D8A4D7EF0AF0000E15
:10094000166E490E156E000E186E000E176E07EC2F
:1009500021F0D7EF0AF0000E146E4C0E136ECFECA0
:1009600021F013501410D8B415D0010E1F6E010ED3
:1009700050EC15F00009D8A4D7EF0AF0000E166E5F
:100980004C0E156E000E186E000E176E07EC21F05F
:10099000D7EF0AF0000E146E4B0E136ECFEC21F061
:1009A00013501410D8B415D0000E1F6E010E50EC69
:1009B00015F00009D8A4D7EF0AF0000E166E4B0E02
:1009C000156E000E186E000E176E07EC21F0D7EFB3
:1009D0000AF0000E146E4D0E136ECFEC21F0135082
:1009E0001410D8B416D0000E1A6E450E196E000EF3
:1009F0001C6E010E1B6E9AEC20F0000E166E4D0E52
:100A0000156E000E186E000E176E07EC21F0D7EF72
:100A10000AF0000E146E4E0E136ECFEC21F0135040
:100A20001410D8B416D0000E1A6E450E196E000EB2
:100A30001C6E000E1B6E9AEC20F0000E166E4E0E11
:100A4000156E000E186E000E176E07EC21F0D7EF32
:100A50000AF0000E146E440E136ECFEC21F013C09A
:100A6000D3F014C0D4F0000E146E4F0E136ECFEC02
:100A700021F013500001D31904E11450D419D8B453
:100A80002DD0000E166E440E156E000E146E4F0E15
:100A9000136ECFEC21F013C017F014C018F007EC60
:100AA00021F0000E146E440E136ECFEC21F013C033
:100AB000D5F014C0D6F0000E146E560E136ECFECA7
:100AC00021F013500001D76FD5C01FF0D6C020F021
:100AD000D7C021F0A0EC1EF0D7EF0AF0000E146E84
:100AE000560E136ECFEC21F013C0D3F014C0D4F027
:100AF000000E146E510E136ECFEC21F01350000156
:100B0000D31904E11450D419D8B4EAD3000E166EE8
:100B1000560E156E000E146E510E136ECFEC21F0B2
:100B200013C017F014C018F007EC21F0D7EF0AF04B
:100B3000000ECFEC1FF0000E8FEC1FF0010E15D051
:100B4000000E146E230E136ECFEC21F01350141010
:100B5000D8B40FD0000E1A6E270E196E000E1C6E40
:100B6000010E1B6E9AEC20F057D000018E6FD7EF6C
:100B70000AF0000E146E240E136ECFEC21F0135009
:100B80001410D8B40BD0000E1A6E270E196E000E7A
:100B90001C6E020E1B6E9AEC20F03ED0000E146EFE
:100BA000250E136ECFEC21F013501410D8B40BD0D7
:100BB000000E1A6E270E196E000E1C6E030E1B6EB1
:100BC0009AEC20F029D0000E146E260E136ECFEC96
:100BD00021F013501410D8B40BD0000E1A6E270E4B
:100BE000196E000E1C6E040E1B6E9AEC20F014D0D1
:100BF000000E146E220E136ECFEC21F01350141061
:100C0000D8B40CD0000E1A6E270E196E000E1C6E92
:100C1000050E1B6E9AEC20F0020EA7D7000E146E84
:100C2000270E136ECFEC21F013501410D8B40AD055
:100C3000000E146E280E136ECFEC21F0135014101A
:100C4000D8A4E1D0010E00018E6F020ECFEC1FF090
:100C5000D7EF0AF0000E146E230E136ECFEC21F0C6
:100C600013501410D8A435D0000E146E240E136E39
:100C7000CFEC21F013501410D8A42BD0000E146E1A
:100C8000250E136ECFEC21F013501410D8A421D0F0
:100C9000000E146E260E136ECFEC21F013501410BC
:100CA000D8A417D0000E146E220E136ECFEC21F0D4
:100CB00013501410D8A40DD0000E146E200E136E15
:100CC000CFEC21F013501410D8A403D0030E000170
:100CD0008E6F000E8FEC1FF0020ECFEC1FF0D7EFDF
:100CE0000AF0000E146E230E136ECFEC21F0135099
:100CF0001410D8B40BD0000E1A6E280E196E000E08
:100D00001C6E010E1B6E9AEC20F07DD0000E146E4E
:100D1000240E136ECFEC21F013501410D8B40BD066
:100D2000000E1A6E280E196E000E1C6E020E1B6E3F
:100D30009AEC20F068D0000E146E250E136ECFECE6
:100D400021F013501410D8B40BD0000E1A6E280ED8
:100D5000196E000E1C6E030E1B6E9AEC20F053D021
:100D6000000E146E260E136ECFEC21F013501410EB
:100D7000D8B40BD0000E1A6E280E196E000E1C6E21
:100D8000040E1B6E9AEC20F03ED0000E146E220E64
:100D9000136ECFEC21F013501410D8B40BD0000E0A
:100DA0001A6E280E196E000E1C6E050E1B6E9AEC44
:100DB00020F029D0000E146E200E136ECFEC21F01F
:100DC00013501410D8B40BD0000E1A6E280E196EE2
:100DD000000E1C6E090E1B6E9AEC20F014D0000E53
:100DE000146E270E136ECFEC21F013501410D8B4EC
:100DF0000CD0000E146E280E136ECFEC21F01350A1
:100E00001410D8B402D0040EB0D6020ECFEC1FF0EE
:100E1000030EABD6000E146E230E136ECFEC21F032
:100E200013501410D8A47ED0000E146E240E136E2E
:100E3000CFEC21F013501410D8A474D0000E146E0F
:100E4000250E136ECFEC21F013501410D8A46AD0E5
:100E5000000E146E260E136ECFEC21F013501410FA
:100E6000D8A460D0000E146E220E136ECFEC21F0C9
:100E700013501410D8A456D0000E146E200E136E0A
:100E8000CFEC21F013501410D8A44CD0000E146EE7
:100E9000270E136ECFEC21F013C0D3F014C0D4F0A2
:100EA000000E146E280E136ECFEC21F013500001CB
:100EB000D3191EE11450D419D8A41AD0000E1A6EFA
:100EC000280E196E000E1C6E000E1B6E9AEC20F0A0
:100ED000000E1A6E270E196E000E1C6E000E1B6E91
:100EE0009AEC20F0010E8FEC1FF0010E00018E6FC6
:100EF000000E146E270E136ECFEC21F013C0D3F04A
:100F000014C0D4F0000E146E280E136ECFEC21F036
:100F100013500001D31904E11450D419D8B402D0ED
:100F2000050E8E6F020ECFEC1FF041D3000E146E33
:100F3000280E136ECFEC21F0090E13181410D8B43C
:100F400003D0060E00018E6F000E146E280E136E75
:100F5000CFEC21F0090E13181410D8A428D3090ED1
:100F600004D6080E03D6000E146E200E136ECFECBE
:100F700021F013501410D8A40AD0000E146E460E9F
:100F8000136ECFEC21F013501410D8B411D0020E10
:100F90000001E76F000E8E6F000E896F000E1A6E53
:100FA000460E196E000E1C6E000E1B6E9AEC20F0A1
:100FB000030ECFEC1FF0000E8FEC1FF0F8D2000EE6
:100FC000146E270E136ECFEC21F0050E13181410BB
:100FD000D8B414D02BD0010E05D0050E03D0020ECC
:100FE00001D0030E00018D6F070E8E6F1FD0080E0B
:100FF00000018E6F010E8FEC1FF018D0000E146EE2
:10100000280E136ECFEC21F01450000AD8A4EFD7AD
:101010001350010AD8B4DFD7030AD8B4DED7010AC7
:10102000D8B4DDD7070AD8B4DCD7E1D7000E146EE8
:10103000280E136ECFEC21F0050E13181410D8B43F
:1010400014D02BD0010E05D0050E03D0020E01D016
:10105000030E00018D6F070E8E6F1FD0080E00016A
:101060008E6F010E8FEC1FF018D0000E146E270E3D
:10107000136ECFEC21F01450000AD8A4EFD7135010
:10108000010AD8B4DFD7030AD8B4DED7010AD8B42E
:10109000DDD7070AD8B4DCD7E1D7000E146E270ECF
:1010A000136ECFEC21F0050E13181410D8B47FD2B4
:1010B000000E146E280E136ECFEC21F0050E1318DF
:1010C0001410D8A495D073D2010E66D0020E64D04D
:1010D000040E62D0080E00018E6F010E8FEC1FF01F
:1010E00066D2000E146E280E136ECFEC21F0145051
:1010F000000AD8A4EFD71350010AD8B451D0030A7C
:10110000D8B4E2D7010AD8B4E1D7070AD8B4E0D7F7
:10111000E1D7000E41D0080E00018E6F010E8FEC5A
:101120001FF045D2000E146E280E136ECFEC21F086
:101130001450000AD8A4EFD71350010AD8B4C4D76A
:10114000030AD8B42DD0010AD8B4E3D7070AD8B41B
:1011500020D0E1D7080E00018E6F010E8FEC1FF03A
:1011600026D2000E146E280E136ECFEC21F0145010
:10117000000AD8A4EFD71350010AD8B4A7D7030A9E
:10118000D8B4C7D7010AD8B40BD0070AD8B403D053
:10119000E1D7060E01D0030E00018D6F070EE6D4D5
:1011A000000EE3D4080E00018E6F010E8FEC1FF0CD
:1011B000FED1000E146E280E136ECFEC21F01450E9
:1011C000000AD8A4EFD71350010AD8B481D7030A74
:1011D000D8B4DFD7010AD8B4DED7070AD8B4E0D72D
:1011E000E1D7080E00018E6F010E8FEC1FF0DFD1EA
:1011F000000E146E270E136ECFEC21F01450000A6F
:10120000D8A4EFD71350010AD8B46BD7030AD8B4C7
:1012100089D7010AD8B4A5D7070AD8B4CAD7E1D765
:101220000B0EA3D4000E146E200E136ECFEC21F023
:1012300013501410D8A40AD0000E146E460E136E6C
:10124000CFEC21F013501410D8B407D0030E0001D6
:10125000E76F000E8E6F000E896F030ECFEC1FF04C
:10126000000E8FEC1FF0A3D1000E146E270E136E2C
:10127000CFEC21F0050E13181410D8A412D0000ED4
:1012800005D0010E03D0030E01D0020E00018D6FB8
:101290000A0E6CD40B0E00018E6F010E8FEC1FF046
:1012A00086D1000E146E270E136ECFEC21F0145071
:1012B000000AD8A4EFD71350010AD8B4E2D7030A22
:1012C000D8B4E1D7010AD8B4DAD7070AD8B4DDD741
:1012D000E1D7000E00018E6F010E8FEC1FF067D179
:1012E00000018E51000AD8B423D4010AD8B428D4FE
:1012F000030AD8B4AFD4010AD8B4F3D4070AD8B4D7
:1013000089D5010AD8B412D6030AD8B42AD6010A5C
:10131000D8B429D60F0AD8B452D6010AD8B480D787
:10132000030AD8B47FD7010AD8B49ED7D2D7010E0A
:10133000D16F030E2BEC11F00009D8A487D0010E59
:1013400000018D6F40EC16F000018905D8A47ED015
:10135000010EE76F7BD0030ED16F020E2BEC11F064
:101360000009D8A473D0020E00018D6F40EC16F076
:10137000EBD7040ED16F010E2BEC11F00009D8A4AD
:1013800065D0030E00018D6F40EC16F0DDD7010E25
:10139000D16F030E2BEC11F00009D8A457D0040E26
:1013A00000018D6F40EC16F0CFD7020ED16F040E06
:1013B0002BEC11F00009D8A449D0050E00018D6F67
:1013C00040EC16F0C1D7040ED16F010E2BEC11F0DA
:1013D0000009D8A43BD0060E00018D6F40EC16F03A
:1013E000B3D7030ED16F020E2BEC11F00009D8A475
:1013F0002DD0070E00018D6F40EC16F0A5D7020E20
:10140000D16F040E2BEC11F00009D8A41FD0000EF0
:1014100000018D6F40EC16F097D78D51000AD8B4BB
:1014200086D7010AD8B497D7030AD8B4A2D7010A3D
:10143000D8B4ADD7070AD8B4B8D7010AD8B4C3D73F
:10144000030AD8B4CED7010AD8B4D9D7000E146E87
:10145000210E136ECFEC21F013501410D8A40AD033
:10146000000E146E470E136ECFEC21F013501410C3
:10147000D8B40DD0010E0001896F000E1A6E470E10
:10148000196E000E1C6E000E1B6E9AEC20F000010F
:101490008905D8A403D0020E8FEC1FF0010ECFEC0B
:1014A0001FF085D0010E0001D16F030E2BEC11F05F
:1014B0000009D8A444D0010E00018D6F40EC16F055
:1014C00000018905D8A43BD0010EE76F38D0040E87
:1014D000D16F010E2BEC11F00009D8A430D0020E10
:1014E00000018D6F40EC16F0EBD7020ED16F040EA9
:1014F0002BEC11F00009D8A422D0030E00018D6F4F
:1015000040EC16F0DDD7030ED16F020E2BEC11F07C
:101510000009D8A414D0000E00018D6F40EC16F025
:10152000CFD700018D51000AD8B4BCD7010AD8B476
:10153000CED7030AD8B4D9D7010AD8B4E4D7000E5D
:10154000146E210E136ECFEC21F013501410D8A49A
:101550000AD0000E146E470E136ECFEC21F013501C
:101560001410D8B40DD0010E0001896F000E1A6E50
:10157000470E196E000E1C6E000E1B6E9AEC20F0CA
:1015800000018905D8A403D0020E8FEC1FF0010ED4
:10159000CFEC1FF00CD00001E751010AD8B46DEF79
:1015A00004F0030AD8B439D7010AD8B4BAD7000E68
:1015B0001A6E3F0E196EE7C01BF01C6A9AEC20F001
:1015C000000E1A6E500E196E8DC01BF01C6A9AEC3C
:1015D00020F01200000E146E400E136ECFEC21F0BE
:1015E00013461346134680501318F70B1318806EDA
:1015F000000E146E410E136ECFEC21F0134613460D
:1016000080501318FB0B1318806E000E146E420EE0
:10161000136ECFEC21F0134680501318FD0B1318F6
:10162000806E000E146E430E136ECFEC21F08050CE
:101630001318FE0B1318806E000E146E450E136EF9
:10164000CFEC21F082501318FE0B1318826E000E9F
:10165000146E580E136ECFEC21F013C015F014C0A9
:1016600016F025EC21F02CD03E50D8B402D03E0626
:101670005FD0000E1A6E1F0E196E000E1C6E000E4B
:101680001B6E9AEC20F054D03E501F6E206A000E64
:10169000146E1B0E136ECFEC21F01F50135C205004
:1016A0001458D8A002D03E2A43D0000E1A6E1F0E46
:1016B000196E000E1C6E010E1B6E9AEC20F038D0D5
:1016C00083A202D0010E01D0000E000AD8B4DCD7EC
:1016D000010AD8B4C9D72CD03D50D8B402D03D06A9
:1016E0005FD0000E1A6E1E0E196E000E1C6E000EDC
:1016F0001B6E9AEC20F054D03D501F6E206A000EF5
:10170000146E1B0E136ECFEC21F01F50135C205093
:101710001458D8A002D03D2A43D0000E1A6E1E0ED7
:10172000196E000E1C6E010E1B6E9AEC20F038D064
:1017300083A002D0010E01D0000E000AD8B4DCD77D
:10174000010AD8B4C9D72CD03C50D8B402D03C063A
:101750005FD0000E1A6E1D0E196E000E1C6E000E6C
:101760001B6E9AEC20F054D03C501F6E206A000E85
:10177000146E1B0E136ECFEC21F01F50135C205023
:101780001458D8A002D03C2A43D0000E1A6E1D0E69
:10179000196E000E1C6E010E1B6E9AEC20F038D0F4
:1017A00083A602D0010E01D0000E000AD8B4DCD707
:1017B000010AD8B4C9D72CD03B50D8B402D03B06CC
:1017C0005FD0000E1A6E1C0E196E000E1C6E000EFD
:1017D0001B6E9AEC20F054D03B501F6E206A000E16
:1017E000146E1B0E136ECFEC21F01F50135C2050B3
:1017F0001458D8A002D03B2A43D0000E1A6E1C0EFB
:10180000196E000E1C6E010E1B6E9AEC20F038D083
:1018100083A402D0010E01D0000E000AD8B4DCD798
:10182000010AD8B4C9D72CD036501F6E206A000EDA
:10183000146E1B0E136ECFEC21F01F50135C205062
:101840001458D8A002D0362A5AD0000E1A6E200E94
:10185000196E000E1C6E010E1B6E9AEC20F04FD01C
:101860003650D8B402D036064AD0000E1A6E200E7A
:10187000196E000E1C6E000E1B6E9AEC20F03FD00D
:1018800081B002D0010E01D0000E1F6E206A2050E0
:10189000000AD8A434D01F50000AD8B4E1D7010AF6
:1018A000D8B4C2D72CD035501F6E206A000E146EEB
:1018B0001B0E136ECFEC21F01F50135C20501458F8
:1018C000D8A002D0352A5AD0000E1A6E210E196EF9
:1018D000000E1C6E010E1B6E9AEC20F04FD035509E
:1018E000D8B402D035064AD0000E1A6E210E196EF9
:1018F000000E1C6E000E1B6E9AEC20F03FD083BED3
:1019000002D0010E01D0000E1F6E206A2050000A86
:10191000D8A434D01F50000AD8B4E1D7010AD8B4F3
:10192000C2D72CD034501F6E206A000E146E1B0ECE
:10193000136ECFEC21F01F50135C20501458D8A028
:1019400002D0342A5AD0000E1A6E220E196E000EE2
:101950001C6E010E1B6E9AEC20F04FD03450D8B4A0
:1019600002D034064AD0000E1A6E220E196E000EF6
:101970001C6E000E1B6E9AEC20F03FD081B202D09C
:10198000010E01D0000E1F6E206A2050000AD8A45C
:1019900034D01F50000AD8B4E1D7010AD8B4C2D756
:1019A0002CD033501F6E206A000E146E1B0E136E67
:1019B000CFEC21F01F50135C20501458D8A002D057
:1019C000332A5AD0000E1A6E230E196E000E1C6EAA
:1019D000010E1B6E9AEC20F04FD03350D8B402D0D9
:1019E00033064AD0000E1A6E230E196E000E1C6EBE
:1019F000000E1B6E9AEC20F03FD081BA02D0010E8F
:101A000001D0000E1F6E206A2050000AD8A434D0E6
:101A10001F50000AD8B4E1D7010AD8B4C2D72CD0DD
:101A200032501F6E206A000E146E1B0E136ECFEC28
:101A300021F01F50135C20501458D8A002D0322A35
:101A40005AD0000E1A6E240E196E000E1C6E010E76
:101A50001B6E9AEC20F04FD03250D8B402D0320630
:101A60004AD0000E1A6E240E196E000E1C6E000E67
:101A70001B6E9AEC20F03FD081B802D0010E01D04D
:101A8000000E1F6E206A2050000AD8A434D01F50C8
:101A9000000AD8B4E1D7010AD8B4C2D72CD031504B
:101AA0001F6E206A000E146E1B0E136ECFEC21F019
:101AB0001F50135C20501458D8A002D0312A5AD09D
:101AC000000E1A6E250E196E000E1C6E010E1B6E96
:101AD0009AEC20F04FD03150D8B402D031064AD021
:101AE000000E1A6E250E196E000E1C6E000E1B6E77
:101AF0009AEC20F03FD081B602D0010E01D0000E4A
:101B00001F6E206A2050000AD8A434D01F50000A4B
:101B1000D8B4E1D7010AD8B4C2D72CD030501F6E48
:101B2000206A000E146E1B0E136ECFEC21F01F50B6
:101B3000135C20501458D8A002D0302A5AD0000E7E
:101B40001A6E260E196E000E1C6E010E1B6E9AEC9C
:101B500020F04FD03050D8B402D030064AD0000E1A
:101B60001A6E260E196E000E1C6E000E1B6E9AEC7D
:101B700020F03FD081B402D0010E01D0000E1F6EC4
:101B8000206A2050000AD8A434D01F50000AD8B4CC
:101B9000E1D7010AD8B4C2D72CD03A501F6E206AC0
:101BA000000E146E1B0E136ECFEC21F01F50135C51
:101BB00020501458D8A002D03A2A53D0000E1A6EE2
:101BC000290E196E000E1C6E010E1B6E9AEC20F091
:101BD00048D03A50D8B402D03A0643D0000E1A6E1C
:101BE000290E196E000E1C6E000E1B6E9AEC20F072
:101BF00038D082A202D0010E01D0000E000AD8B463
:101C0000CCD7010AD8B4E5D72CD039501F6E206A42
:101C1000000E146E1B0E136ECFEC21F01F50135CE0
:101C200020501458D8A002D0392A53D0000E1A6E72
:101C30002A0E196E000E1C6E010E1B6E9AEC20F01F
:101C400048D03950D8B402D0390643D0000E1A6EAD
:101C50002A0E196E000E1C6E000E1B6E9AEC20F000
:101C600038D083A802D0010E01D0000E000AD8B4EB
:101C7000CCD7010AD8B4E5D72CD038501F6E206AD3
:101C8000000E146E1B0E136ECFEC21F01F50135C70
:101C900020501458D8A002D0382A53D0000E1A6E03
:101CA0002B0E196E000E1C6E010E1B6E9AEC20F0AE
:101CB00048D03850D8B402D0380643D0000E1A6E3F
:101CC0002B0E196E000E1C6E000E1B6E9AEC20F08F
:101CD00038D084A202D0010E01D0000E000AD8B480
:101CE000CCD7010AD8B4E5D72CD037501F6E206A64
:101CF000000E146E1B0E136ECFEC21F01F50135C00
:101D000020501458D8A002D0372A1200000E1A6EA4
:101D10002C0E196E000E1C6E010E1B6E9AEC20F03C
:101D200012003750D8B402D037061200000E1A6ED7
:101D30002C0E196E000E1C6E000E1B6E9AEC20F01D
:101D4000120084A002D0010E01D0000E000AD8B407
:101D5000CCD7010AD8A41200E4D7000E146E000EEE
:101D6000136E14502EE1590E135CD8B02AD0D890BF
:101D70001334D96E1434DA6E000ED926020EDA222C
:101D8000000EDE6E000EDD6ED8901334D96E143462
:101D9000DA6E000ED926010EDA22000EDE6E000E7B
:101DA000DD6ED8901334D96E1434DA6E000ED92655
:101DB000030EDA22FF0EDE6EFF0EDD6E134A142ACA
:101DC000D0D7000E0201216F000E206F000E236F8E
:101DD000000E226F000E256F010E246F000E276F7C
:101DE000010E266F000E296F010E286F000E2B6F5B
:101DF000010E2A6F000E2D6F010E2C6F000E2F6F3B
:101E0000010E2E6F000E316F010E306F000E336F1A
:101E1000010E326F000E356F010E346F000E376FFA
:101E2000010E366F000E396F000E386F000E3B6FDB
:101E3000000E3A6F000E3D6F000E3C6F000E3F6FBC
:101E4000000E3E6F000E416F000E406F000E436F9C
:101E5000000E426F000E456F000E446F000E476F7C
:101E6000000E466F000E496F000E486F000E4B6F5C
:101E7000000E4A6F000E4D6F000E4C6F000E4F6F3C
:101E8000010E4E6F000E516F010E506F000E536F1A
:101E9000000E526F000E556F000E546F000E576FFC
:101EA000000E566F000E596F000E586F000E5B6FDC
:101EB000010E5A6F000E5D6F010E5C6F000E5F6FBA
:101EC000010E5E6F000E616F010E606F000E636F9A
:101ED000010E626F000E656F010E646F000E676F7A
:101EE000010E666F000E696F010E686F000E6B6F5A
:101EF000010E6A6F000E6D6F010E6C6F000E6F6F3A
:101F0000010E6E6F000E716F010E706F000E736F19
:101F1000010E726F000E756F010E746F000E776FF9
:101F2000010E766F000E796F010E786F000E7B6FD9
:101F3000000E7A6F000E7D6F000E7C6F000E7F6FBB
:101F4000000E7E6F000E816F000E806F000E836F9B
:101F5000000E826F000E856F000E846F000E876F7B
:101F6000000E866F000E896F000E886F000E8B6F5B
:101F7000000E8A6F000E8D6F010E8C6F000E8F6F3A
:101F8000010E8E6F000E916F010E906F000E936F19
:101F9000010E926F000E956F010E946F000E976FF9
:101FA000010E966F000E996F010E986F000E9B6FD9
:101FB000010E9A6F000E9D6F010E9C6F000E9F6FB9
:101FC000010E9E6F000EA16F000EA06F000EA36F9A
:101FD000010EA26F000EA56F000EA46F000EA76F7A
:101FE000000EA66F000EA96F000EA86F000EAB6F5B
:101FF000000EAA6F000EAD6F000EAC6F000EAF6F3B
:10200000010EAE6F000EB16F000EB06F000E010139
:10201000216F590E206F000E236F000E226F270EC6
:10202000256F100E246F030E276F200E266F130EE0
:10203000296F880E286F000E2B6F140E2A6F000E6A
:102040002D6F140E2C6F000E2F6F6B0E2E6F000E67
:10205000316F6B0E306F000E336F500E326F000E0B
:10206000356F2D0E346F000E376F140E366F000E65
:10207000396F000E386F000E3B6F000E3A6F000E86
:102080003D6F000E3C6F000E3F6F000E3E6F000E66
:10209000416F000E406F000E436F000E426F000E46
:1020A000456F000E446F000E476F000E466F000E26
:1020B000496F000E486F000E4B6F000E4A6F000E06
:1020C0004D6F000E4C6F000E4F6F000E4E6F000EE6
:1020D000516F000E506F000E536F000E526F000EC6
:1020E000556F000E546F000E576F000E566F000EA6
:1020F000596F000E586F000E5B6F000E5A6F000E86
:102100005D6F500E5C6F000E5F6F780E5E6F000E9D
:10211000616F000E606F000E636F500E626F000EF5
:10212000656F000E646F000E676F000E666F000E25
:10213000696F780E686F000E6B6F640E6A6F000E29
:102140006D6F640E6C6F000E6F6F640E6E6F000E1D
:10215000716F640E706F000E736F640E726F000EFD
:10216000756F640E746F000E776F640E766F000EDD
:10217000796F640E786F000E7B6F000E7A6F000E21
:102180007D6F000E7C6F000E7F6F010E7E6F000E64
:10219000816F000E806F000E836F000E826F000E45
:1021A000856F000E846F000E876F000E866F000E25
:1021B000896F000E886F000E8B6F010E8A6F000E04
:1021C0008D6F000E8C6F000E8F6F000E8E6F000EE5
:1021D000916F000E906F000E936F000E926F000EC5
:1021E000956F000E946F000E976F000E966F000EA5
:1021F000996F000E986F000E9B6F000E9A6F000E85
:102200009D6F000E9C6F000E9F6F000E9E6F000E64
:10221000A16F000EA06F000EA36F000EA26F000E44
:10222000A56F010EA46F000EA76F000EA66F000E23
:10223000A96F010EA86F000EAB6F000EAA6F000E03
:10224000AD6F000EAC6F000EAF6F000EAE6F010EE3
:10225000B16FB06912000001D26F000E1A6E3D0E10
:10226000196ED2C01BF01C6A9AEC20F0000E1A6E98
:102270003E0E196ED1C01BF01C6A9AEC20F0ACD156
:10228000000E1F6E010E50EC15F00009D8B418D0E6
:10229000010E0001E66FCAD1010E1F6E010E50EC57
:1022A00015F0F3D7010E1F6E000E50EC15F0EDD7B0
:1022B000000E1F6E000E50EC15F00009D8A4E8D7F0
:1022C000010E15D00001D251010AD8B4EBD7030A90
:1022D000D8B4EED7010AD8B4D3D7070AD8B4DCD71C
:1022E000A5D1000E1F6E010E50EC15F016D00001A6
:1022F0008A6F010EE66FCCD7010E1F6E010E50ECF7
:1023000015F00BD0010E1F6E000E50EC15F005D02D
:10231000000E1F6E000E50EC15F00009D8A4B8D7BF
:10232000020EE5D7D151010AD8B4ECD7030AD8B4CC
:10233000EFD7010AD8B4D5D7070AD8B4DDD776D1FC
:1023400081EC19F008D081EC19F005D0E5EC18F01B
:1023500002D0E5EC18F00009D8A49AD7030EC7D72D
:10236000D151010AD8B4F2D7030AD8B4F2D7010A7E
:10237000D8B4E6D7070AD8B4E6D758D1000E146E01
:102380001C0E136ECFEC21F013041410D8B49BD0A4
:10239000000E146E290E136ECFEC21F013041410EE
:1023A000D8B432D0000E146E2A0E136ECFEC21F08A
:1023B00013041410D8B434D0000E146E2C0E136E07
:1023C000CFEC21F013041410D8B436D0000E146EE4
:1023D0002B0E136ECFEC21F037D000018A6F58D747
:1023E000000E146E1D0E136ECFEC21F013041410AA
:1023F000D8B469D0000E146E290E136ECFEC21F004
:1024000013041410D8A402D0050EE7D7000E146EE2
:102410002A0E136ECFEC21F013041410D8A402D0AE
:10242000060EDBD7000E146E2C0E136ECFEC21F0CF
:1024300013041410D8A402D0070ECFD7000E146EC8
:102440002B0E136ECFEC21F013041410D8A420D758
:10245000080EC3D7000E146E1E0E136ECFEC21F0C3
:1024600013041410D8B42FD0000E146E290E136E5E
:10247000CFEC21F013041410D8B431D0000E146E38
:102480002A0E136ECFEC21F013041410D8B433D0FD
:10249000000E146E2C0E136ECFEC21F013041410EA
:1024A000D8B435D0000E146E2B0E136ECFEC21F085
:1024B00036D0000E146E1F0E136ECFEC21F01304F5
:1024C0001410D8A402D0040E88D7000E146E290E62
:1024D000136ECFEC21F013041410D8A402D00C0E0C
:1024E0007CD7000E146E2A0E136ECFEC21F013046D
:1024F0001410D8A402D00B0E70D7000E146E2C0E40
:10250000136ECFEC21F013041410D8A402D00A0EDD
:1025100064D7000E146E2B0E136ECFEC21F0130453
:102520001410D8A4B5D6090E58D7D151010AD8B481
:1025300091D7030AD8B4BDD7010AD8B41FD7070A68
:10254000D8B44ED773D045EC18F008D045EC18F04D
:1025500005D0A2EC17F002D0A2EC17F00009D8A425
:1025600097D6000E00018A6F000E94D6D151010A51
:10257000D8B4EFD7030AD8B4EFD7010AD8B4E3D759
:10258000070AD8B4E3D752D0010E4FEC1CF01BD091
:10259000020E4FEC1CF017D0030E3BEC1BF013D0D7
:1025A000040E3BEC1BF00FD0040EB1EC1AF00BD074
:1025B000030EB1EC1AF007D0020ED8EC1CF003D0D9
:1025C000010ED8EC1CF00009D8A462D6030E05D782
:1025D000000E8A6F010E5ED600018A51000AD8B43F
:1025E00071D6010AD8B49ED6030AD8B4B9D6010A66
:1025F000D8B49BD7070AD8B4B9D7010AD8B4C4D77E
:10260000030AD8B4C5D7010AD8B4C6D70F0AD8B4BC
:10261000C7D7010AD8B4C8D7030AD8B4C9D7010AA2
:10262000D8B4CAD7070AD8B4CBD7D2D7E65112004C
:10263000110E0001705D270E7159D8A013D1000E44
:10264000716F000E706FE9D0900E766F000E776F8D
:10265000900E746F000E756F000E736F010E726F27
:102660001200900E746F000E756F7651741904E1AC
:1026700077517519D8B4120090C0DCF091C0DDF02C
:1026800092C0DEF093C0DFF0B0EC21F0040E000148
:102690007427000E7523000E736F020E726F120006
:1026A0007651741904E177517519D8B4120094C0A9
:1026B000DCF095C0DDF096C0DEF097C0DFF0B0EC46
:1026C00021F0040E00017427000E7523000E736FB5
:1026D000030E726F12007651741904E17751751967
:1026E000D8B4120098C0DCF099C0DDF09AC0DEF0DA
:1026F0009BC0DFF0B0EC21F0040E00017427000E47
:102700007523000E736F040E726F120076517419E8
:1027100004E177517519D8B412009CC0DCF09DC05B
:10272000DDF09EC0DEF09FC0DFF0B0EC21F0040EC3
:1027300000017427000E7523000E736F050E726F73
:1027400012007651741904E177517519D8B412004A
:10275000A0C0DCF0A1C0DDF0A2C0DEF0A3C0DFF0BD
:10276000B0EC21F0040E00017427000E7523000E5A
:10277000736F060E726F12007651741904E177516F
:102780007519D8B41200A4C0DCF0A5C0DDF0A6C055
:10279000DEF0A7C0DFF0B0EC21F0040E00017427DA
:1027A000000E7523000E736F070E726F12007651C4
:1027B000741904E177517519D8B41200A8C0DCF07F
:1027C000A9C0DDF0AAC0DEF0ABC0DFF0B0EC21F0B4
:1027D000040E00017427000E7523000E736F080E9F
:1027E000726F12007651741904E177517519D8B4DB
:1027F0001200ACC0DCF0ADC0DDF0AEC0DEF0AFC0AA
:10280000DFF0B0EC21F0900E0001746F000E756FD8
:10281000000E736F010E726F120072C020F073C051
:1028200021F02150000AD8A412002050000AD8B488
:102830000BD7010AD8B415D7030AD8B431D7010A87
:10284000D8B449D7070AD8B461D7010AD8B479D720
:10285000030AD8B491D7010AD8B4A9D70F0AD8A4CB
:102860001200C0D7704B712B1200F8D0900E0001EF
:10287000766F000E776F76C0D9FF77C0DAFF13C08E
:10288000DEFF14C0DDFF020E7627000E772376C030
:10289000D9FF77C0DAFF15C0DEFF16C0DDFF020EDC
:1028A0007627000E7723000E796F010E786F1200E5
:1028B00076C0D9FF77C0DAFF13C0DEFF14C0DDFF9A
:1028C000020E00017627000E772376C0D9FF77C06D
:1028D000DAFF15C0DEFF16C0DDFF020E7627000E00
:1028E0007723000E796F020E786F120076C0D9FF41
:1028F00077C0DAFF13C0DEFF14C0DDFF020E000157
:102900007627000E772376C0D9FF77C0DAFF15C08F
:10291000DEFF16C0DDFF020E7627000E7723000EC5
:10292000796F030E786F120076C0D9FF77C0DAFF97
:1029300013C0DEFF14C0DDFF020E00017627000E7B
:10294000772376C0D9FF77C0DAFF15C0DEFF16C047
:10295000DDFF020E7627000E7723000E796F040E3E
:10296000786F120076C0D9FF77C0DAFF13C0DEFFA0
:1029700014C0DDFF020E00017627000E772376C01B
:10298000D9FF77C0DAFF15C0DEFF16C0DDFF020EEB
:102990007627000E7723000E796F050E786F1200F0
:1029A00076C0D9FF77C0DAFF13C0DEFF14C0DDFFA9
:1029B000020E00017627000E772376C0D9FF77C07C
:1029C000DAFF15C0DEFF16C0DDFF020E7627000E0F
:1029D0007723000E796F060E786F120076C0D9FF4C
:1029E00077C0DAFF13C0DEFF14C0DDFF020E000166
:1029F0007627000E772376C0D9FF77C0DAFF15C09F
:102A0000DEFF16C0DDFF020E7627000E7723000ED4
:102A1000796F070E786F120076C0D9FF77C0DAFFA2
:102A200013C0DEFF14C0DDFF020E00017627000E8A
:102A3000772376C0D9FF77C0DAFF15C0DEFF16C056
:102A4000DDFF020E7627000E7723900E766F000EC4
:102A5000776F000E796F000E786F120078C017F054
:102A600079C018F01850000AD8A412001750000AB4
:102A7000D8B4FCD6010AD8B41BD7030AD8B436D7C9
:102A8000010AD8B451D7070AD8B46CD7010AD8B410
:102A900087D7030AD8B4A2D7010AD8A41200BCD79A
:102AA000206EE2D0010E4C6E8CD0000E1A6E400EDD
:102AB000196E000E1C6E010E1B6E9AEC20F0000EBB
:102AC0001A6E520E196E000E1C6E010E1B6E9AECE1
:102AD00020F0000E1A6E530E196E000E1C6E000EC2
:102AE0001B6E9AEC20F074D0000E1A6E410E196E17
:102AF000000E1C6E010E1B6E9AEC20F0000E1A6E7A
:102B0000520E196E000E1C6E000E1B6E9AEC20F019
:102B1000000E1A6E530E196E000E1C6E010E1B6E07
:102B20009AEC20F055D01F50000AD8B4BED7010A45
:102B3000D8B4DAD74DD0000E1A6E420E196E000EC0
:102B40001C6E010E1B6E9AEC20F0000E1A6E540ED5
:102B5000196E000E1C6E010E1B6E9AEC20F0000E1A
:102B60001A6E550E196E000E1C6E000E1B6E9AEC3E
:102B700020F02ED0000E1A6E430E196E000E1C6E41
:102B8000010E1B6E9AEC20F0000E1A6E540E196E98
:102B9000000E1C6E000E1B6E9AEC20F0000E1A6EDA
:102BA000550E196E000E1C6E010E1B6E9AEC20F075
:102BB0000FD01F50000AD8B4BED7010AD8B4DAD754
:102BC00007D02050000AD8B4AED7010AD8B4F1D744
:102BD000010E2F6E53D0000E146E130E136ECFEC39
:102BE00021F0135000016A5D14506B59D8A008D031
:102BF000020E2F6E000E6B6F000E6A6F010E32D048
:102C0000010E4C6E010E2F6E6A4B6B2B37D0000EEF
:102C10001A6E400E196E000E1C6E000E1B6E9AECA2
:102C200020F0000E1A6E410E196E000E1C6E000E82
:102C30001B6E9AEC20F0000E1A6E420E196E000EFA
:102C40001C6E000E1B6E9AEC20F0000E1A6E430EE6
:102C5000196E000E1C6E000E1B6E9AEC20F0000E1A
:102C60002F6E000E4C6E0AD02F50000AD8B41AD71F
:102C7000010AD8B4B0D7030AD8B4C9D74C5012004F
:102C800000016E516F11D8A4ACD0000E6D6F010E13
:102C90006C6F000EF26E000ED06F1B0ED06501D06F
:102CA00095D0D051020D010EF324F66E080EF420DB
:102CB000F76E0800F5CFCFF0D051020D010EF324CE
:102CC000F66E080EF420F76E0900F5CF1DF009002E
:102CD000F5CF1EF0D8901D361E36000E1D24D96E7D
:102CE000030E1E20DA6ED051020D010EF324F66E93
:102CF000080EF420F76E0900F5CF21F00900F5CF9A
:102D000022F0D89021362236000E2124E16E010EE9
:102D10002220E26EDE50E61804E1DE50E618D8B458
:102D200053D0D0C013F0146AD051020D010EF32419
:102D3000F66E080EF420F76E0900F5CF1DF00900BD
:102D4000F5CF1EF0D8901D361E36000E1D24D96E0C
:102D5000010E1E20DA6EDECF15F0DDCF16F00FEC7F
:102D600020F00001D051020D010EF324F66E080E82
:102D7000F420F76E0900F5CF1DF00900F5CF1EF025
:102D8000D8901D361E36000E1D24D96E010E1E2051
:102D9000DA6ED051020D010EF324F66E080EF42007
:102DA000F76E0900F5CF1FF00900F5CF20F0D8909D
:102DB0001F362036000E1F24E16E030E2020E26E27
:102DC000DECFE6FFDDCFE5FFD02B67D7A00EF26E9A
:102DD000000E6D6F000E6C6F000E1C6E010E1B6EF0
:102DE0001200000E1C6E000E1B6E1200730E00010E
:102DF000B019D8A463D0B20E7C6F000E7D6F7CC07A
:102E000019F07DC01AF039EC1EF019C022F01AC07A
:102E100023F0B50E00017C6F000E7D6F7CC019F0B1
:102E20007DC01AF039EC1EF019C020F01AC021F054
:102E300022C013F023C014F0DDEC21F01350141065
:102E4000D8A408D0550E0001CF6F080ED06F1CEC2F
:102E50001AF0120023500CE10F0E225CD8B008D0FB
:102E60005C0E0001CF6F080ED06F1CEC1AF0120040
:102E7000235004E15A0E225CD8A008D0630E000152
:102E8000CF6F080ED06F1CEC1AF0120020280BE157
:102E90002128D8A408D06A0E0001CF6F080ED06F89
:102EA0001CEC1AF0120022C015F023C016F020C04E
:102EB00017F021C018F007EC21F01200670E000196
:102EC000B019D8A41200B20E7C6F000E7D6F7CC0CA
:102ED00019F07DC01AF039EC1EF019C022F01AC0AA
:102EE00023F023500CE10F0E225CD8B008D05C0E0A
:102EF0000001CF6F080ED06F1CEC1AF012002350A7
:102F000004E15A0E225CD8A008D0630E0001CF6FF6
:102F1000080ED06F1CEC1AF0120022C013F023C070
:102F200014F0CFEC21F013C020F014C021F022C027
:102F300013F023C014F020C015F021C016F035ECBA
:102F400014F0120092D082C01FF083C020F0000E57
:102F5000216EA0EC1EF0010E0001E46F000E146E55
:102F6000150E136ECFEC21F000018251135C8351DA
:102F70001458D8A002D0010E74D0000E146E190E91
:102F8000136ECFEC21F013500001685D14506959A5
:102F9000D8A008D08207D8A08307000E696F000E62
:102FA000686F71D0684B692B6ED0000E146E120ED4
:102FB000136ECFEC21F013500001645D145065597D
:102FC000D8A007D0020E846F000E656F000E646FEC
:102FD00049D0010EE46F644B652B010E846F53D012
:102FE000000E146E150E136ECFEC21F013C0CFF04F
:102FF00014C0D0F0CFC01FF0D0C020F0000E216E62
:10300000A0EC1EF0000E1A6E450E196E000E1C6E1E
:10301000010E1B6E9AEC20F0000E146E150E136E4E
:10302000CFEC21F013C082F014C083F0030E000136
:1030300018D0000E146E140E136ECFEC21F0135046
:103040000001645D14506559D8A008D0000E846F4B
:10305000000E656F000E646F000E05D0644B652B8B
:10306000030E846F010EE46F0ED000018451000A3C
:10307000D8B469D7010AD8B498D7030AD8B4B0D75E
:10308000010AD8B4D6D7E45112008FD082C01FF005
:1030900083C020F0010E216EA0EC1EF0000E146E15
:1030A000160E136ECFEC21F000018251135C835198
:1030B0001458D8A002D0010E74D0000E146E190E50
:1030C000136ECFEC21F013500001685D1450695964
:1030D000D8A008D08207D8A08307000E696F000E21
:1030E000686F60D0684B692B5DD0000E146E120EB5
:1030F000136ECFEC21F013500001605D1450615944
:10310000D8A007D0020E846F000E616F000E606FB2
:1031100049D0010EE26F604B612B010E846F53D0DA
:10312000000E146E160E136ECFEC21F013C0CFF00C
:1031300014C0D0F0CFC01FF0D0C020F0010E216E1F
:10314000A0EC1EF0000E1A6E450E196E000E1C6EDD
:10315000010E1B6E9AEC20F0000E146E160E136E0C
:10316000CFEC21F013C082F014C083F0030E0001F5
:1031700018D0000E146E140E136ECFEC21F0135005
:103180000001605D14506159D8A008D0000E846F12
:10319000000E616F000E606F000E05D0604B612B5A
:1031A000030E846F010EE26F0ED000018451000AFD
:1031B000D8B46CD7010AD8B498D7030AD8B4B0D71A
:1031C000010AD8B4D6D7E25112008BD0000E146E8B
:1031D000140E136ECFEC21F013500001665D1450F5
:1031E0006759D8A002D0010E3ED0664B672B000E67
:1031F00043D0010EE56F83D0000E146E150E136ED2
:10320000CFEC21F013C0CFF014C0D0F0CFC01FF02E
:10321000D0C020F0000E216EA0EC1EF0000E146E47
:10322000150E136ECFEC21F013C082F014C083F0A2
:10323000000E1A6E450E196E000E1C6E000E1B6EEF
:103240009AEC20F0020E000117D0000E146E120E40
:10325000136ECFEC21F013500001665D14506759D6
:10326000D8A007D0030E846F000E676F000E666F44
:10327000C0D7664B672B020E846FBBD782C01FF08E
:1032800083C020F0000E216EA0EC1EF0010E0001A4
:10329000E56F000E146E180E136ECFEC21F0135074
:1032A0000001825D14508359D8A004D0000E846FB1
:1032B000000EA0D7000E146E1A0E136ECFEC21F084
:1032C00013500001685D14506959D8A007D0824B93
:1032D000832B000E696F000E686F11D0684B692B4D
:1032E0000ED000018451000AD8B470D7010AD8B4B6
:1032F00083D7030AD8B4A9D7010AD8B4BFD7E551F8
:1033000012008AD0000E146E140E136ECFEC21F052
:1033100013500001625D14506359D8A002D0010E11
:103320003DD0624B632B000E846F73D0000E146E81
:10333000160E136ECFEC21F013C0CFF014C0D0F0F6
:10334000CFC01FF0D0C020F0010E216EA0EC1EF007
:10335000000E146E160E136ECFEC21F013C082F027
:1033600014C083F0000E1A6E450E196E000E1C6E0E
:10337000000E1B6E9AEC20F0010E0001E36F18D0D6
:10338000000E146E120E136ECFEC21F013500001DC
:10339000625D14506359D8A007D0030E846F000EED
:1033A000636F000E626F35D0010EE36F624B632BCB
:1033B000020E846F3FD082C01FF083C020F0010E48
:1033C000216EA0EC1EF0000E146E170E136ECFECE3
:1033D00021F013500001825D14508359D8A004D00D
:1033E000000E846F000E16D0000E146E1A0E136EAF
:1033F000CFEC21F013500001685D14506959D8A03A
:1034000006D0824B832B000E696F000E686F684BED
:10341000692B010EE36F0ED000018451000AD8B46D
:1034200071D7010AD8B482D7030AD8B4A9D7010A40
:10343000D8B4C1D7E3511200D10E0001D56F000EF0
:10344000D66F81D0250EDB19D8B404D0DB51F7EC50
:1034500021F079D0000E0001D76FCFC0F6FFD0C0A9
:10346000F7FFCF4BD02B0800F5CFDBF0DB51000A84
:10347000D8B41200640AD8B403D00D0AD8A463D01B
:10348000D5C0D9FFD6C0DAFFDECFD9F0DDCFDAF074
:10349000020ED527000ED623DAAF06D0030ED713BF
:1034A000D96DDA1FD8B0DA2B010EDB6F050EDB19F0
:1034B000D8B412D0DB51020D390EF324F66E080E8B
:1034C000F420F76E0900F550D95D0900F550DA597E
:1034D000D8A002D0DB2BEAD7D7C01FF0030E1F16EF
:1034E000D8B403D02D0EF7EC21F0DBC0D8F026D0F5
:1034F0000001D851020D390EF324F66E080EF420A7
:10350000F76E0900F5CF15F00A00F5CF16F0D9C017
:1035100013F0DAC014F071EC20F013C01AF014C0EC
:103520001BF0000E1D6E0A0E1C6EE6EC20F01A5009
:10353000300F0001DB6FDB51F7EC21F00001D80701
:10354000D829D8A4D5D7CFC0F6FFD0C0F7FF000147
:10355000CF4BD02B0800F5CFDBF0DB51D8B41200F5
:1035600071D70001CF6F7ED0030E0001CF19D8B400
:103570000CD0000E146E350E136ECFEC21F01350EC
:10358000265C14502758D8A007D0010E2E6E000ECE
:10359000276E000E266E63D0264A272A60D0040EBE
:1035A0000001CF19D8A426D082C01FF083C020F01C
:1035B000000E216EA0EC1EF0000E146E2E0E136E87
:1035C000CFEC21F000018251135C83511458D8B024
:1035D0002AD0000E146E1A0E136ECFEC21F0135089
:1035E0000001685D14506959D8A037D08207D8A06F
:1035F00083072ED0030ECF19D8A431D082C01FF07C
:1036000083C020F0000E216EA0EC1EF0000E146EA0
:10361000180E136ECFEC21F013500001825D145090
:103620008359D8A006D0000E846F000E2E6E000EB7
:1036300017D0000E146E1A0E136ECFEC21F013503B
:103640000001685D14506959D8A007D0824B832BC4
:10365000000E696F000E686F02D0684B692B010E77
:103660004B6E07D02E50000AD8B47ED7010AD8B4CA
:1036700096D74B5012000001CF6F7ED0040E000190
:10368000CF19D8B40CD0000E146E380E136ECFECD8
:1036900021F01350265C14502758D8A007D0010EF3
:1036A0002E6E000E276E000E266E63D0264A272A45
:1036B00060D0030E0001CF19D8A425D082C01FF01E
:1036C00083C020F0010E216EA0EC1EF0000E146EDF
:1036D0002F0E136ECFEC21F013500001825D1450B9
:1036E0008359D8B029D0000E146E1A0E136ECFEC89
:1036F00021F013500001685D14506959D8A037D0EB
:10370000824B832B2FD0040ECF19D8A432D082C085
:103710001FF083C020F0010E216EA0EC1EF0000E01
:10372000146E170E136ECFEC21F000018251135C62
:1037300083511458D8A006D0000E846F000E2E6E50
:10374000000E18D0000E146E1A0E136ECFEC21F07E
:1037500013500001685D14506959D8A008D0820741
:10376000D8A08307000E696F000E686F02D0684B07
:10377000692B010E486E07D02E50000AD8B47ED7B0
:10378000010AD8B496D7485012003F50D8B47BD025
:1037900042EC21F00001886F6BD0B00E7C6F000E00
:1037A0007D6FFF0EDC6FFF0EDD6F430EF66E080EB1
:1037B000F76E0800F550DE6FDF6BDC51DE27DD5160
:1037C000DF23B00EDE257A6F000EDF217B6F730ED4
:1037D0008819D8B404D0670E8819D8A40AD07CC040
:1037E000D9FF7DC0DAFF88C0DFFF7C4B7D2B010E47
:1037F0003DD0000E3BD0780E8819D8A4FAD77CC0F3
:10380000D9FF7DC0DAFF88C0DFFF2DD0470E8819B1
:10381000D8B409D013D07CC0D9FF7DC0DAFF000E28
:10382000DF6E7C4B7D2B7A517C5D7B517D59D8A01E
:10383000F2D7030E876F010E866F25D07CC0D9FFAB
:103840007DC0DAFF88C0DFFF7C517A5D7D517B59F6
:10385000D8B009D04E0ECF6F080ED06F1CEC1AF006
:10386000000E000103D07C4B7D2B020E876F0BD026
:103870008751000AD8B491D7010AD8B4BCD7030A3B
:10388000D8B4C4D7010A00018605D8A41200F6EC0A
:1038900016F0000E0001866F000E876F1200000107
:1038A000CF6F7DD0020E0001CF19D8B40CD0000E1E
:1038B000146E3B0E136ECFEC21F01350265C1450A7
:1038C0002758D8A007D0010E2E6E000E276E000ECE
:1038D000266E62D0264A272A5FD00001CF05D8A4E1
:1038E00026D082C01FF083C020F0010E216EA0EC14
:1038F0001EF0000E146E310E136ECFEC21F000019D
:103900008251135C83511458D8B02AD0000E146E23
:103910001A0E136ECFEC21F013500001685D1450A5
:103920006959D8A037D08207D8A083072ED0020EBD
:10393000CF19D8A431D082C01FF083C020F0010E6F
:10394000216EA0EC1EF0000E146E170E136ECFEC5D
:1039500021F013500001825D14508359D8A006D085
:10396000000E846F000E2E6E000E17D0000E146E27
:103970001A0E136ECFEC21F013500001685D145045
:103980006959D8A007D0824B832B000E696F000EB7
:10399000686F02D0684B692B010E496E07D02E501C
:1039A000000AD8B47FD7010AD8B497D7495012007B
:1039B0000001CF6F7CD00001CF05D8B40CD0000E31
:1039C000146E3A0E136ECFEC21F01350265C145097
:1039D0002758D8A007D0010E2E6E000E276E000EBD
:1039E000266E62D0264A272A5FD0020E0001CF1928
:1039F000D8A425D082C01FF083C020F0000E216E15
:103A0000A0EC1EF0000E146E340E136ECFEC21F0FD
:103A100013500001825D14508359D8B028D0000E95
:103A2000146E1A0E136ECFEC21F013500001685D76
:103A300014506959D8A036D0824B832B2ED0CF0595
:103A4000D8A432D082C01FF083C020F0000E216EB7
:103A5000A0EC1EF0000E146E180E136ECFEC21F0C9
:103A600000018251135C83511458D8A006D0000E77
:103A7000846F000E2E6E000E18D0000E146E1A0EFB
:103A8000136ECFEC21F013500001685D145069599A
:103A9000D8A008D08207D8A08307000E696F000E57
:103AA000686F02D0684B692B010E4A6E07D02E500A
:103AB000000AD8B480D7010AD8B497D74A50120068
:103AC0000600FACF01F0FBCF02F0E9CF03F0EACF16
:103AD00004F0E1CF05F0E2CF06F0D9CF07F0DACF5E
:103AE00008F0F3CF09F0F4CF0AF0F6CF0BF0F7CFE0
:103AF0000CF0F8CF0DF0F5CF0EF04DC00FF04EC02A
:103B000010F04FC011F050C012F0F2A419D02D5097
:103B100006E1650E2C5CD8B002D0808801D0809878
:103B2000BC0E2C5C020E2D58D8A004D0000E2D6EB9
:103B3000000E2C6E2C4A2D2A010E00018F6FF2947C
:103B40009DBA9EAA02D073EC21F09DB89EA802D027
:103B50005CEC21F012C050F011C04FF010C04EF0DC
:103B60000FC04DF00EC0F5FF0DC0F8FF0CC0F7FF01
:103B70000BC0F6FF0AC0F4FF09C0F3FF08C0DAFF6C
:103B800007C0D9FF06C0E2FF05C0E1FF04C0EAFF9D
:103B900003C0E9FF02C0FBFF01C0FAFF4D92110014
:103BA000000E216E000E206E000E1F6E00016C5183
:103BB0006D11D8A459D0000E6F6F010E6E6F000EFC
:103BC000F26E000E216E1B0E216401D041D021C087
:103BD00013F0146A43EC20F013C01FF014C020F05F
:103BE0002150020D010EF324F66E080EF420F76E3C
:103BF0000900F5CF1DF00900F5CF1EF0D8901D3655
:103C00001E36000E1D24D96E010E1E20DA6E1FC056
:103C1000DEFF20C0DDFF2150020D010EF324F66E01
:103C2000080EF420F76E0900F5CF1DF00900F5CF5E
:103C30001EF0D8901D361E36000E1D24D96E030EC0
:103C40001E20DA6E1FC0DEFF20C0DDFF212ABBD799
:103C5000A00EF26E000E00016F6F000E6E6F000E70
:103C60001C6E010E1B6E1200000E1C6E000E1B6EF1
:103C7000120002D0194A1A2A19C0D9FF1AC0DAFF55
:103C8000200EDE18D8B4F6D719C0D9FF1AC0DAFF53
:103C9000090EDE18D8B4EED7000E1F6E000E1E6E91
:103CA000000E1D6E19C0D9FF1AC0DAFF2D0EDE18E6
:103CB000D8A402D01D2A24D019C0D9FF1AC0DAFF17
:103CC0002B0EDE18D8A41ED01BD01EC013F01FC0B0
:103CD00014F0000E166E0A0E156E9DEC21F019C040
:103CE000D9FF1AC0DAFFDF501B6E1C6A13501B2667
:103CF00014501C22D00E1B241E6EFF0E1C201F6EA3
:103D0000194A1A2A19C0D9FF1AC0DAFFDF50C0ECCD
:103D100021F0D8B0DAD71D50D8B40DD01EC01BF09A
:103D20001FC01CF01B1E1C1E1B4A1C2A1BC019F0A6
:103D30001CC01AF012001EC019F01FC01AF01200A9
:103D4000010E256E24682150226E236A000E146E27
:103D5000560E136ECFEC21F02250131804E12350BD
:103D60001418D8B409D0000E1A6E560E196E21C060
:103D70001BF01C6A9AEC20F02150D8A41CD01FC064
:103D800022F020C023F0D89022362336221E231E94
:103D9000224A232AFF0E2224246E010E2320256EA0
:103DA000000E1A6E580E196E24C01BF025C01CF0B0
:103DB0009AEC20F012002104D8A412001FC022F0B7
:103DC00020C023F0D89022362336FF0E2224246E02
:103DD000010E2320256E000E1A6E580E196E24C097
:103DE0001BF025C01CF09AEC20F01200926893683A
:103DF0009468956896680F0EC16E070EB46E92981F
:103E0000959A959C8098839C839A92909292929492
:103E100092968096809480928090958495869580E5
:103E200095829482958896809682938093829384DB
:103E300093869388938A958EADEC0EF01F0E000149
:103E4000E16F710EE06F1E0EE82EFED7E02FFCD75B
:103E5000E12FFAD700F0D0EC1DF01B501C10D8B4A5
:103E6000FAD789EC21F0EBEC21F0C2EC20F0000154
:103E70008F05D8A404D0000E8F6F39EC04F0C5EC88
:103E80001BF018EC13F0F3D7FA0EF66E430EF76E34
:103E9000000EF86E00EEE2F010EE06F00900F5CF2D
:103EA000EEFFE550E150FAE1000EF66E440EF76EBB
:103EB000000EF86E00EE48F010EE05F00900F5CFA8
:103EC000EEFFE550E150FAE104EE00F0FC0EEE6A80
:103ED000E806FDE103EE00F0B20EEE6AE806FDE151
:103EE00002EE00F0B20EEE6AE806FDE101EE00F02F
:103EF000B20EEE6AE806FDE100EE60F05A0EEE6AE0
:103F0000E806FDE100EE26F0220EEE6AE806FDE18D
:103F10004D904D92000EF86E0001F6EF1EF0136EFC
:103F200030D0839A1200838A1200284A292AB80EB8
:103F3000285C0B0E2958D8A004D0000E296E000E64
:103F4000286EDC0E285C050E2958D8A002D0838A82
:103F50001200839A1200284A292AE80E285C030ED0
:103F60002958D8A004D0000E296E000E286EF40E39
:103F7000285C010E2958D8A002D0838A1200839AA7
:103F800012001350000AD8B4CCD7010AD8B4CBD74A
:103F9000030AD8B4CAD7010AD8A41200DCD7136E1A
:103FA00030D0839C1200838C12002A4A2B2AB80E30
:103FB0002A5C0B0E2B58D8A004D0000E2B6E000EDE
:103FC0002A6EDC0E2A5C050E2B58D8A002D0838CFA
:103FD0001200839C12002A4A2B2AE80E2A5C030E48
:103FE0002B58D8A004D0000E2B6E000E2A6EF40EB3
:103FF0002A5C010E2B58D8A002D0838C1200839C1F
:1040000012001350000AD8B4CCD7010AD8B4CBD7C9
:10401000030AD8B4CAD7010AD8A41200DCD7D890B2
:104020001334196E14341A6E010E1924176E000E13
:104030001A20186EA69619C0A9FF1650A86EA69E43
:10404000A69CA684550EA76EAA0EA76EA682A6A24F
:1040500002D0A1A8FCD7A198A69617C0A9FF15C0A9
:10406000A8FFA69EA69CA684000EF26E550EA76E13
:10407000AA0EA76EA682A6A202D0A1A8FCD7A198DC
:10408000A694A9681200D8901334176E1434186ED1
:10409000010E1724156E000E1820166E000E1A6EF3
:1040A000000E196EA69EA69C17C0A9FFA680A6B0FA
:1040B000FED7A8CF19F01A6A19501A6E196AA69E6F
:1040C000A69C15C0A9FFA680A6B0FED71950A810BF
:1040D000196E1A501A6EA96819C013F01AC014F09C
:1040E0001200000E196E000E186E15501610D8B47E
:1040F0001CD0010E176E04D0D89015361636172A2C
:1041000016AEFAD7D890183619361550135C1650DB
:104110001458D8A005D01550135E1650145A1880A4
:10412000D89016321532172EEDD718C013F019C0DB
:1041300014F01200D8901934D96E1A34DA6E000EC9
:10414000D926010EDA221B50DE1804E11C50DE18BD
:10415000D8B41200D8901934D96E1A34DA6E000E21
:10416000D926010EDA221BC0DEFF1CC0DDFF19C0FC
:1041700013F01AC014F01BC015F01CC016F035EC7B
:1041800014F012009D9A9D98B886AB8EAB9CAB88BC
:10419000AB96AC9CAC8AAC98AC96AC84AC82AC9040
:1041A000010E146EA10E136E1450B06E13C0AFFF4B
:1041B000000E446E000E436E7E0E426E000E416E87
:1041C000000E406E000E3F6E9D8A12001C501D10A6
:1041D000D8B418D0010E1E6E04D0D8901C361D36EF
:1041E0001E2A1DAEFAD71C501A5C1D501B58D8A0B1
:1041F00004D01C501A5E1D501B5AD8901D321C3220
:104200001E2EF1D71AC01AF01BC01BF01200D89056
:104210001534D96E1634DA6E000ED926010EDA2264
:104220001750DE1804E11850DE18D8B41200D890E8
:104230001534D96E1634DA6E000ED926010EDA2244
:1042400017C0DEFF18C0DDFF120015C017F016C042
:1042500018F0060ED89017361836E82EFBD717C080
:1042600019F018C01AF01AC0BEFF19C017F0D89084
:104270001732D8901732300E1716BD50CF0B1710CB
:10428000BD6E1200000E136E3F50D8B4FDD79D9A3C
:104290004050010D000EF324D96E040EF420DA6EA6
:1042A000DF50136E402A7D0E406402D0000E406E37
:1042B0003F069D8A135012007E0E426012D043507A
:1042C000010D7E0EF324D96E040EF420DA6EDF5059
:1042D000AD6E432A7D0E436402D0000E436E422A27
:1042E00012009D981200ABA202D0AB98AB8841504F
:1042F000010D000EF324D96E040EF420DA6EAECF59
:10430000DFFF412A7D0E416402D0000E416E3F2A3C
:104310001200000E1A6E450E196E000E1C6E010E74
:104320001B6E9AEC20F0CB687F0EBE6E0F0EBD6E3A
:10433000040ECA6E94949490120013501502F3CF99
:1043400017F0F4CF18F013501602F350182614503B
:104350001502F350182617C013F018C014F01200FD
:10436000440E0001CF6F080ED06FDCC0D1F0DDC06D
:10437000D2F0DEC0D3F0DFC0D4F01CEC1AF0120093
:10438000156E000E146E3A0E156005D02F0E1564D2
:1043900002D0010E146E14C013F013301200D89026
:1043A0001334D96E1434DA6E000ED926010EDA22D7
:1043B000DECF13F0DDCF14F01200D8901334D96E95
:1043C0001434DA6E000ED926020EDA22DECF13F094
:1043D000DDCF14F01200D08EA00EF26E840EF16EBE
:1043E000000ED76E000ED66EC30ED56E1200136E81
:1043F0009EA8FED713C0ADFF12000101010101010B
:054400000101010101B2
:020000040020DA
:08000000FFFFFFFFFFFFFFFF00
:020000040030CA
:0E0000002C0E0E00FF8181FF0FC00FE00F409D
:00000001FF
