:0400000053EF00F0CA
:0E0008004082FACF01F0FBCF02F04AED1BF070
:100018004080D8CF0FF0E8CF10F0E0CF11F0FACF42
:1000280012F0FBCF13F0E9CF14F0EACF15F0E1CFCF
:1000380016F0E2CF17F0D9CF18F0DACF19F0F3CFD6
:100048001AF0F4CF1BF0F6CF1CF0F7CF1DF0F8CF65
:100058001EF0F5CF1FF01FC0F5FF1EC0F8FF1DC032
:10006800F7FF1CC0F6FF1BC0F4FF1AC0F3FF19C04E
:10007800DAFF18C0D9FF17C0E2FF16C0E1FF15C0AC
:10008800EAFF14C0E9FF13C0FBFF12C0FAFF11C05A
:10009800E0FF10C0E8FF0FC0D8FF40901000E8EF65
:0200A8001CF04A
:100800000001000A006400E80310270A0D0A4D23C6
:1008100025642025640D0A000D0A452331300D0A98
:10082000000D0A452331310D0A000D0A45233132EE
:100830000D0A000D0A452331330D0A000D0A452328
:0D08400031340D0A000D0A58300D0A000079
:10084E00480E56EC1EF00001905100019111D8B4E3
:10085E0009D0000E0001AD6F000EAC6F480E49ECD2
:10086E001DF0FF000CEC0AF0F8EF09F04A0E56EC02
:10087E001EF00001905100019111D8B414D0010E58
:10088E000001B16F000E2AEC16F00009D8A404EF97
:10089E000AF0000E0001AD6F000EAC6F4A0E49EC6F
:1008AE001DF004EF0AF0490E56EC1EF000019051B7
:1008BE0000019111D8B414D0000E0001B16F000EDA
:1008CE002AEC16F00009D8A404EF0AF0000E00017D
:1008DE00AD6F000EAC6F490E49EC1DF004EF0AF03F
:1008EE004C0E56EC1EF00001905100019111D8B43F
:1008FE0014D0010E0001B16F010E2AEC16F00009A2
:10090E00D8A404EF0AF0000E0001AD6F000EAC6F1C
:10091E004C0E49EC1DF004EF0AF04B0E56EC1EF097
:10092E000001905100019111D8B414D0000E0001B5
:10093E00B16F010E2AEC16F00009D8A404EF0AF0EC
:10094E00000E0001AD6F000EAC6F4B0E49EC1DF0AA
:10095E0004EF0AF04D0E56EC1EF00001905100010E
:10096E009111D8B412D0000E0001AD6F010EAC6F14
:10097E00450E49EC1DF0000E0001AD6F000EAC6F80
:10098E004D0E49EC1DF004EF0AF04E0E56EC1EF023
:10099E000001905100019111D8B412D0000E000147
:1009AE00AD6F000EAC6F450E49EC1DF0000E000150
:1009BE00AD6F000EAC6F4E0E49EC1DF004EF0AF059
:1009CE00440E56EC1EF090C0BBF091C0BCF04F0E22
:1009DE0056EC1EF0000190510001BB1906E100011A
:1009EE0091510001BC19D8B49BD34F0E56EC1EF09A
:1009FE0090C0ACF091C0ADF0440E49EC1DF004EF88
:100A0E000AF0000E32EC1CF0000EF2EC1BF0010EA0
:100A1E0012D0230E56EC1EF00001905100019111E0
:100A2E00D8B40DD0000E0001AD6F010EAC6F270EC5
:100A3E0049EC1DF04BD000017E6F04EF0AF0240E3E
:100A4E0056EC1EF00001905100019111D8B409D05E
:100A5E00000E0001AD6F020EAC6F270E49EC1DF0BB
:100A6E0035D0250E56EC1EF000019051000191116B
:100A7E00D8B409D0000E0001AD6F030EAC6F270E77
:100A8E0049EC1DF023D0260E56EC1EF000019051BD
:100A9E0000019111D8B409D0000E0001AD6F040E03
:100AAE00AC6F270E49EC1DF011D0220E56EC1EF045
:100ABE000001905100019111D8B40AD0000E00012E
:100ACE00AD6F050EAC6F270E49EC1DF0020EB3D7BD
:100ADE00270E56EC1EF00001905100019111D8B472
:100AEE0009D0280E56EC1EF0000190510001911114
:100AFE00D8A4C7D0010E00017E6F020E32EC1CF09E
:100B0E0004EF0AF0230E56EC1EF000019051000186
:100B1E009111D8A430D0240E56EC1EF00001905145
:100B2E0000019111D8A427D0250E56EC1EF000011D
:100B3E00905100019111D8A41ED0260E56EC1EF035
:100B4E000001905100019111D8A415D0220E56EC3F
:100B5E001EF00001905100019111D8A40CD0200E6E
:100B6E0056EC1EF00001905100019111D8A403D053
:100B7E00030E00017E6F000EF2EC1BF0020E32EC43
:100B8E001CF004EF0AF0230E56EC1EF000019051FB
:100B9E0000019111D8B409D0000E0001AD6F010E05
:100BAE00AC6F280E49EC1DF06CD0240E56EC1EF0E6
:100BBE000001905100019111D8B409D0000E00012E
:100BCE00AD6F020EAC6F280E49EC1DF05AD0250EFB
:100BDE0056EC1EF00001905100019111D8B409D0CD
:100BEE00000E0001AD6F030EAC6F280E49EC1DF028
:100BFE0048D0260E56EC1EF00001905100019111C6
:100C0E00D8B409D0000E0001AD6F040EAC6F280EE3
:100C1E0049EC1DF036D0220E56EC1EF0000190511C
:100C2E0000019111D8B409D0000E0001AD6F050E70
:100C3E00AC6F280E49EC1DF024D0200E56EC1EF0A1
:100C4E000001905100019111D8B409D0000E00019D
:100C5E00AD6F090EAC6F280E49EC1DF012D0270EA9
:100C6E0056EC1EF00001905100019111D8B40BD03A
:100C7E00280E56EC1EF00001905100019111D8B4CF
:100C8E0002D0040ED8D6020E32EC1CF0030ED3D6D0
:100C9E00230E56EC1EF00001905100019111D8A4C4
:100CAE0070D0240E56EC1EF00001905100019111EF
:100CBE00D8A467D0250E56EC1EF00001905100010D
:100CCE009111D8A45ED0260E56EC1EF00001905164
:100CDE0000019111D8A455D0220E56EC1EF0000141
:100CEE00905100019111D8A44CD0200E56EC1EF05C
:100CFE000001905100019111D8A443D0270E56EC5B
:100D0E001EF090C0BBF091C0BCF0280E56EC1EF049
:100D1E00000190510001BB191CE10001915100012D
:100D2E00BC19D8A416D0000E0001AD6F000EAC6F2A
:100D3E00280E49EC1DF0000E0001AD6F000EAC6FD9
:100D4E00270E49EC1DF0010EF2EC1BF0010E000116
:100D5E007E6F270E56EC1EF090C0BBF091C0BCF01B
:100D6E00280E56EC1EF0000190510001BB1906E151
:100D7E00000191510001BC19D8B403D0050E000139
:100D8E007E6F020E32EC1CF038D3280E56EC1EF09D
:100D9E00090E0001901900019111D8B403D0060E6E
:100DAE0000017E6F280E56EC1EF0090E0001901900
:100DBE0000019111D8A421D3090E3DD6080E3BD6C1
:100DCE00200E56EC1EF00001905100019111D8A496
:100DDE0009D0460E56EC1EF0000190510001911103
:100DEE00D8B411D0010E0001806F000E00017E6F8D
:100DFE00000E00017D6F000E0001AD6F000EAC6F96
:100E0E00460E49EC1DF0030E32EC1CF0000EF2EC17
:100E1E001BF0F3D2270E56EC1EF0050E00019019B2
:100E2E0000019111D8B415D02BD0010E05D0050EAE
:100E3E0003D0020E01D0030E0001826F070E0001D7
:100E4E007E6F1ED0080E00017E6F010EF2EC1BF0BD
:100E5E0017D0280E56EC1EF000019151000AD8A4AE
:100E6E00F1D700019051010AD8B4DFD7030AD8B4E4
:100E7E00DED7010AD8B4DDD7070AD8B4DCD7E2D75B
:100E8E00280E56EC1EF0050E00019019000191116E
:100E9E00D8B415D02BD0010E05D0050E03D0020EFE
:100EAE0001D0030E0001826F070E00017E6F1ED06F
:100EBE00080E00017E6F010EF2EC1BF017D0270E0C
:100ECE0056EC1EF000019151000AD8A4F1D7000192
:100EDE009051010AD8B4DFD7030AD8B4DED7010A7D
:100EEE00D8B4DDD7070AD8B4DCD7E2D7270E56EC34
:100EFE001EF0050E0001901900019111D8B47DD29B
:100F0E00280E56EC1EF0050E0001901900019111ED
:100F1E00D8A491D072D2010E63D0020E61D0040E0D
:100F2E005FD0080E00017E6F010EF2EC1BF065D251
:100F3E00280E56EC1EF000019151000AD8A4F1D7EC
:100F4E0000019051010AD8B44FD0030AD8B4E3D7A8
:100F5E00010AD8B4E2D7070AD8B4E1D7E2D7000E17
:100F6E003FD0080E00017E6F010EF2EC1BF045D251
:100F7E00280E56EC1EF000019151000AD8A4F1D7AC
:100F8E0000019051010AD8B4C6D7030AD8B42CD0A8
:100F9E00010AD8B4E4D7070AD8B41FD0E2D7080E96
:100FAE0000017E6F010EF2EC1BF027D2280E56ECDC
:100FBE001EF000019151000AD8A4F1D70001905102
:100FCE00010AD8B4AAD7030AD8B4C9D7010AD8B42B
:100FDE000BD0070AD8B403D0E2D7060E01D0030E09
:100FEE000001826F070E27D5000E25D5080E0001D1
:100FFE007E6F010EF2EC1BF000D2280E56EC1EF0A6
:10100E0000019151000AD8A4F1D700019051010AB4
:10101E00D8B485D7030AD8B4E0D7010AD8B4DFD73D
:10102E00070AD8B4E1D7E2D7080E00017E6F010E91
:10103E00F2EC1BF0E2D1270E56EC1EF0000191519E
:10104E00000AD8A4F1D700019051010AD8B470D784
:10105E00030AD8B48DD7010AD8B4A8D7070AD8B4D2
:10106E00CCD7E2D70B0EE7D4200E56EC1EF00001C3
:10107E00905100019111D8A409D0460E56EC1EF0E5
:10108E000001905100019111D8B409D0020E000157
:10109E00806F000E00017E6F000E00017D6F030E4B
:1010AE0032EC1CF0000EF2EC1BF0A7D1270E56EC22
:1010BE001EF0050E0001901900019111D8A412D056
:1010CE00000E05D0010E03D0030E01D0020E00015A
:1010DE00826F0A0EB0D40B0E00017E6F010EF2EC81
:1010EE001BF08BD1270E56EC1EF000019151000A19
:1010FE00D8A4F1D700019051010AD8B4E3D7030A5E
:10110E00D8B4E2D7010AD8B4DBD7070AD8B4DED7F1
:10111E00E2D7000E00017E6F010EF2EC1BF06DD1D6
:10112E0000017E51000AD8B46CD4010AD8B471D42F
:10113E00030AD8B4E7D4010AD8B425D5070AD8B41F
:10114E00A7D5010AD8B421D6030AD8B437D6010AD6
:10115E00D8B436D60F0AD8B45DD6010AD8B482D721
:10116E00030AD8B481D7010AD8B4A0D7D2D7010EBA
:10117E000001B96F030EEBEC10F00009D8A490D06B
:10118E00010E0001826FE1EC1AF000017D05D8A47A
:10119E0087D0000E0001806F83D0030E0001B96F5F
:1011AE00020EEBEC10F00009D8A47AD0020E00016A
:1011BE00826FE1EC1AF0E9D7040E0001B96F010E4F
:1011CE00EBEC10F00009D8A46BD0030E0001826F77
:1011DE00E1EC1AF0DAD7010E0001B96F030EEBEC59
:1011EE0010F00009D8A45CD0040E0001826FE1EC6F
:1011FE001AF0CBD7020E0001B96F040EEBEC10F013
:10120E000009D8A44DD0050E0001826FE1EC1AF052
:10121E00BCD7040E0001B96F010EEBEC10F0000903
:10122E00D8A43ED0060E0001826FE1EC1AF0ADD7C5
:10123E00030E0001B96F020EEBEC10F00009D8A4FA
:10124E002FD0070E0001826FE1EC1AF09ED7020E2E
:10125E000001B96F040EEBEC10F00009D8A420D0F9
:10126E00000E0001826FE1EC1AF08FD7000182515F
:10127E00000AD8B47CD7010AD8B48FD7030AD8B4E1
:10128E009BD7010AD8B4A7D7070AD8B4B3D7010A97
:10129E00D8B4BFD7030AD8B4CBD7010AD8B4D7D79E
:1012AE00210E56EC1EF00001905100019111D8A4B0
:1012BE0009D0470E56EC1EF000019051000191111D
:1012CE00D8B40BD0010E00017D6F000E0001AD6F82
:1012DE00000EAC6F470E49EC1DF000017D05D8A441
:1012EE0003D0020EF2EC1BF0010E32EC1CF085D096
:1012FE00010E0001B96F030EEBEC10F00009D8A43B
:10130E0048D0010E0001826FE1EC1AF000017D055C
:10131E00D8A43FD0000E0001806F3BD0040E000118
:10132E00B96F010EEBEC10F00009D8A432D0020E0A
:10133E000001826FE1EC1AF0E9D7020E0001B96FDD
:10134E00040EEBEC10F00009D8A423D0030E00011C
:10135E00826FE1EC1AF0DAD7030E0001B96F020EBC
:10136E00EBEC10F00009D8A414D0000E0001826F2F
:10137E00E1EC1AF0CBD700018251000AD8B4B8D7ED
:10138E00010AD8B4CBD7030AD8B4D7D7010AD8B438
:10139E00E3D7210E56EC1EF0000190510001911181
:1013AE00D8A409D0470E56EC1EF000019051000152
:1013BE009111D8B40BD0010E00017D6F000E00010B
:1013CE00AD6F000EAC6F470E49EC1DF000017D05B0
:1013DE00D8A403D0020EF2EC1BF0010E32EC1CF07E
:1013EE000CD000018051000AD8B43DEF04F0010A80
:1013FE00D8B43CD7030AD8B4BED780C0ACF0000135
:10140E00AD6B3F0E49EC1DF01200400E56EC1EF077
:10141E000001904700019047000190478050000165
:10142E009019F70B00019019806E410E56EC1EF0CC
:10143E000001904700019047805000019019FB0B6E
:10144E0000019019806E420E56EC1EF0000190477E
:10145E00805000019019FD0B00019019806E430E13
:10146E0056EC1EF0805000019019FE0B00019019F1
:10147E00806E450E56EC1EF0825000019019FE0B48
:10148E0000019019826E440E56EC1EF090C092F040
:10149E0091C093F099EC1DF02AD02D50D8B402D003
:1014AE002D065BD0000E0001AD6F000EAC6F1F0E4F
:1014BE0049EC1DF052D02D500001B16FB26B1B0ED6
:1014CE0056EC1EF00001B1510001905D0001B251C9
:1014DE0000019159D8A002D02D2A3FD0000E000154
:1014EE00AD6F010EAC6F1F0E49EC1DF036D083A20E
:1014FE0002D0010E01D0000E000AD8B4DCD7010ACA
:10150E00D8B4CBD72AD02C50D8B402D02C065BD06E
:10151E00000E0001AD6F000EAC6F1E0E49EC1DF0FB
:10152E0052D02C500001B16FB26B1B0E56EC1EF058
:10153E000001B1510001905D0001B25100019159BD
:10154E00D8A002D02C2A3FD0000E0001AD6F010EA4
:10155E00AC6F1E0E49EC1DF036D083A002D0010EEA
:10156E0001D0000E000AD8B4DCD7010AD8B4CBD70C
:10157E002AD03150D8B402D031065BD0000E000113
:10158E00AD6F000EAC6F1D0E49EC1DF052D03150F8
:10159E000001B16FB26B1B0E56EC1EF00001B15183
:1015AE000001905D0001B25100019159D8A002D006
:1015BE00312A3FD0000E0001AD6F010EAC6F1D0E33
:1015CE0049EC1DF036D083A602D0010E01D0000EDC
:1015DE00000AD8B4DCD7010AD8B4CBD72AD0305001
:1015EE00D8B402D030065BD0000E0001AD6F000EF5
:1015FE00AC6F1C0E49EC1DF052D030500001B16F93
:10160E00B26B1B0E56EC1EF00001B1510001905D45
:10161E000001B25100019159D8A002D0302A3FD01A
:10162E00000E0001AD6F010EAC6F1C0E49EC1DF0EB
:10163E0036D083A402D0010E01D0000E000AD8B419
:10164E00DCD7010AD8B4CBD72AD02A500001B16F0B
:10165E00B26B1B0E56EC1EF00001B1510001905DF5
:10166E000001B25100019159D8A002D02A2A57D0B8
:10167E00000E0001AD6F010EAC6F200E49EC1DF097
:10168E004ED02A50D8B402D02A0649D0000E0001FE
:10169E00AD6F000EAC6F200E49EC1DF040D081B046
:1016AE0002D0010E01D0000E0001B16FB26B00012D
:1016BE00B251000AD8A433D00001B151000AD8B4F7
:1016CE00E0D7010AD8B4C1D72AD02B500001B16F90
:1016DE00B26B1B0E56EC1EF00001B1510001905D75
:1016EE000001B25100019159D8A002D02B2A57D037
:1016FE00000E0001AD6F010EAC6F210E49EC1DF016
:10170E004ED02B50D8B402D02B0649D0000E00017B
:10171E00AD6F000EAC6F210E49EC1DF040D083BEB4
:10172E0002D0010E01D0000E0001B16FB26B0001AC
:10173E00B251000AD8A433D00001B151000AD8B476
:10174E00E0D7010AD8B4C1D72AD027500001B16F13
:10175E00B26B1B0E56EC1EF00001B1510001905DF4
:10176E000001B25100019159D8A002D0272A57D0BA
:10177E00000E0001AD6F010EAC6F220E49EC1DF094
:10178E004ED02750D8B402D0270649D0000E000103
:10179E00AD6F000EAC6F220E49EC1DF040D081B241
:1017AE0002D0010E01D0000E0001B16FB26B00012C
:1017BE00B251000AD8A433D00001B151000AD8B4F6
:1017CE00E0D7010AD8B4C1D72AD025500001B16F95
:1017DE00B26B1B0E56EC1EF00001B1510001905D74
:1017EE000001B25100019159D8A002D0252A57D03C
:1017FE00000E0001AD6F010EAC6F230E49EC1DF013
:10180E004ED02550D8B402D0250649D0000E000186
:10181E00AD6F000EAC6F230E49EC1DF040D081BAB7
:10182E0002D0010E01D0000E0001B16FB26B0001AB
:10183E00B251000AD8A433D00001B151000AD8B475
:10184E00E0D7010AD8B4C1D72AD026500001B16F13
:10185E00B26B1B0E56EC1EF00001B1510001905DF3
:10186E000001B25100019159D8A002D0262A57D0BA
:10187E00000E0001AD6F010EAC6F240E49EC1DF091
:10188E004ED02650D8B402D0260649D0000E000104
:10189E00AD6F000EAC6F240E49EC1DF040D081B838
:1018AE0002D0010E01D0000E0001B16FB26B00012B
:1018BE00B251000AD8A433D00001B151000AD8B4F5
:1018CE00E0D7010AD8B4C1D72AD028500001B16F91
:1018DE00B26B1B0E56EC1EF00001B1510001905D73
:1018EE000001B25100019159D8A002D0282A57D038
:1018FE00000E0001AD6F010EAC6F250E49EC1DF010
:10190E004ED02850D8B402D0280649D0000E00017F
:10191E00AD6F000EAC6F250E49EC1DF040D081B6B8
:10192E0002D0010E01D0000E0001B16FB26B0001AA
:10193E00B251000AD8A433D00001B151000AD8B474
:10194E00E0D7010AD8B4C1D72AD029500001B16F0F
:10195E00B26B1B0E56EC1EF00001B1510001905DF2
:10196E000001B25100019159D8A002D0292A57D0B6
:10197E00000E0001AD6F010EAC6F260E49EC1DF08E
:10198E004ED02950D8B402D0290649D0000E0001FD
:10199E00AD6F000EAC6F260E49EC1DF040D081B439
:1019AE0002D0010E01D0000E0001B16FB26B00012A
:1019BE00B251000AD8A433D00001B151000AD8B4F4
:1019CE00E0D7010AD8B4C1D72AD02F500001B16F89
:1019DE00B26B1B0E56EC1EF00001B1510001905D72
:1019EE000001B25100019159D8A002D02F2A4DD03A
:1019FE00000E0001AD6F010EAC6F290E49EC1DF00B
:101A0E0044D02F50D8B402D02F063FD0000E000184
:101A1E00AD6F000EAC6F290E49EC1DF036D082A2D0
:101A2E0002D0010E01D0000E000AD8B4CED7010AA2
:101A3E00D8B4E7D72AD02E500001B16FB26B1B0E6F
:101A4E0056EC1EF00001B1510001905D0001B25143
:101A5E0000019159D8A002D02E2A4DD0000E0001BF
:101A6E00AD6F010EAC6F2A0E49EC1DF044D02E5016
:101A7E00D8B402D02E063FD0000E0001AD6F000E7E
:101A8E00AC6F2A0E49EC1DF036D083A802D0010EA1
:101A9E0001D0000E000AD8B4CED7010AD8B4E7D7C9
:101AAE002AD033500001B16FB26B1B0E56EC1EF0F4
:101ABE000001B1510001905D0001B2510001915938
:101ACE00D8A002D0332A4DD0000E0001AD6F010E0A
:101ADE00AC6F2B0E49EC1DF044D03350D8B402D06D
:101AEE0033063FD0000E0001AD6F000EAC6F2B0E13
:101AFE0049EC1DF036D084A202D0010E01D0000EAA
:101B0E00000AD8B4CED7010AD8B4E7D72AD03250BB
:101B1E000001B16FB26B1B0E56EC1EF00001B151FD
:101B2E000001905D0001B25100019159D8A002D080
:101B3E00322A1200000E0001AD6F010EAC6F2C0E9A
:101B4E0049EC1DF012003250D8B402D03206120009
:101B5E00000E0001AD6F000EAC6F2C0E49EC1DF0A7
:101B6E00120084A002D0010E01D0000E000AD8B4DB
:101B7E00CED7010AD8A41200E6D7000E0001916F4D
:101B8E00000E906F000191512AE1910E0001905DBF
:101B9E00D8B025D0D89000019035D96E000191357E
:101BAE00DA6E1C0ED926030EDA22000EDE6E000E41
:101BBE00DD6ED89000019035D96E00019135DA6E48
:101BCE00FC0ED926010EDA22000EDE6E000EDD6E40
:101BDE000001904B912B0001915101E1D6D7000EDF
:101BEE00E8CF3CF3000EE8CF3DF3010EE8CF40F313
:101BFE00000EE8CF41F3010EE8CF42F3000EE8CF1E
:101C0E0043F3010EE8CF44F3000EE8CF45F3010E87
:101C1E00E8CF46F3000EE8CF47F3010EE8CF48F3C6
:101C2E00000EE8CF49F3010EE8CF4AF3000EE8CFDD
:101C3E004BF3010EE8CF4CF3000EE8CF4DF3010E3F
:101C4E00E8CF4EF3000EE8CF4FF3010EE8CF50F37E
:101C5E00000EE8CF51F3010EE8CF52F3000EE8CF9D
:101C6E0053F3000EE8CF54F3000EE8CF55F3000EF9
:101C7E00E8CF56F3000EE8CF57F3000EE8CF58F337
:101C8E00000EE8CF59F3000EE8CF5AF3000EE8CF5E
:101C9E005BF3000EE8CF5CF3000EE8CF5DF3000EB1
:101CAE00E8CF5EF3000EE8CF5FF3000EE8CF60F3EF
:101CBE00000EE8CF61F3000EE8CF62F3000EE8CF1E
:101CCE0063F3000EE8CF64F3000EE8CF65F3000E69
:101CDE00E8CF66F3000EE8CF67F3000EE8CF68F3A7
:101CEE00000EE8CF69F3010EE8CF6AF3000EE8CFDD
:101CFE006BF3010EE8CF6CF3000EE8CF6DF3000E20
:101D0E00E8CF6EF3000EE8CF6FF3000EE8CF70F35E
:101D1E00000EE8CF71F3000EE8CF72F3000EE8CF9D
:101D2E0073F3000EE8CF74F3000EE8CF75F3010ED7
:101D3E00E8CF76F3000EE8CF77F3010EE8CF78F315
:101D4E00000EE8CF79F3010EE8CF7AF3000EE8CF5C
:101D5E007BF3010EE8CF7CF3000EE8CF7DF3010E8E
:101D6E00E8CF7EF3000EE8CF7FF3010EE8CF80F3CD
:101D7E00000EE8CF81F3010EE8CF82F3000EE8CF1C
:101D8E0083F3010EE8CF84F3000EE8CF85F3010E46
:101D9E00E8CF86F3000EE8CF87F3010EE8CF88F385
:101DAE00000EE8CF89F3010EE8CF8AF3000EE8CFDC
:101DBE008BF3010EE8CF8CF3000EE8CF8DF3010EFE
:101DCE00E8CF8EF3000EE8CF8FF3010EE8CF90F33D
:101DDE00000EE8CF91F3010EE8CF92F3000EE8CF9C
:101DEE0093F3010EE8CF94F3000EE8CF95F3000EB7
:101DFE00E8CF96F3000EE8CF97F3000EE8CF98F3F6
:101E0E00000EE8CF99F3000EE8CF9AF3000EE8CF5C
:101E1E009BF3000EE8CF9CF3000EE8CF9DF3000E6F
:101E2E00E8CF9EF3000EE8CF9FF3000EE8CFA0F3AD
:101E3E00000EE8CFA1F3000EE8CFA2F3000EE8CF1C
:101E4E00A3F3000EE8CFA4F3000EE8CFA5F3000E27
:101E5E00E8CFA6F3000EE8CFA7F3010EE8CFA8F364
:101E6E00000EE8CFA9F3010EE8CFAAF3000EE8CFDB
:101E7E00ABF3010EE8CFACF3000EE8CFADF3010EDD
:101E8E00E8CFAEF3000EE8CFAFF3010EE8CFB0F31C
:101E9E00000EE8CFB1F3010EE8CFB2F3000EE8CF9B
:101EAE00B3F3010EE8CFB4F3000EE8CFB5F3010E95
:101EBE00E8CFB6F3000EE8CFB7F3010EE8CFB8F3D4
:101ECE00000EE8CFB9F3010EE8CFBAF3000EE8CF5B
:101EDE00BBF3900EE8CF1CF2000EE8CF1DF2100EF1
:101EEE00E8CF20F2270EE8CF21F2200EE8CF22F223
:101EFE00030EE8CF23F2880EE8CF24F2130EE8CFBC
:101F0E0025F2140EE8CF26F2000EE8CF27F2140EBB
:101F1E00E8CF28F2000EE8CF29F26B0EE8CF2AF2B6
:101F2E00000EE8CF2BF26B0EE8CF2CF2000EE8CFAE
:101F3E002DF2500EE8CF2EF2000EE8CF2FF22D0E1E
:101F4E00E8CF30F2000EE8CF31F2140EE8CF32F2C5
:101F5E00000EE8CF33F2000EE8CF34F2000EE8CFD9
:101F6E0035F2000EE8CF36F2000EE8CF37F2000E53
:101F7E00E8CF38F2000EE8CF39F2000EE8CF3AF291
:101F8E00000EE8CF3BF2000EE8CF3CF2000EE8CF99
:101F9E003DF2000EE8CF3EF2000EE8CF3FF2000E0B
:101FAE00E8CF40F2000EE8CF41F2000EE8CF42F249
:101FBE00000EE8CF43F2000EE8CF44F2000EE8CF59
:101FCE0045F2000EE8CF46F2000EE8CF47F2000EC3
:101FDE00E8CF48F2000EE8CF49F2000EE8CF4AF201
:101FEE00000EE8CF4BF2000EE8CF4CF2000EE8CF19
:101FFE004DF2000EE8CF4EF2000EE8CF4FF2000E7B
:10200E00E8CF50F2000EE8CF51F2000EE8CF52F2B8
:10201E00000EE8CF53F2000EE8CF54F2000EE8CFD8
:10202E0055F2000EE8CF56F2000EE8CF57F2500EE2
:10203E00E8CF58F2000EE8CF59F2780EE8CF5AF2F8
:10204E00000EE8CF5BF2000EE8CF5CF2000EE8CF98
:10205E005DF2500EE8CF5EF2000EE8CF5FF2000E9A
:10206E00E8CF60F2000EE8CF61F2000EE8CF62F228
:10207E00000EE8CF63F2780EE8CF64F2000EE8CFE0
:10208E0065F2640EE8CF66F2000EE8CF67F2640EDA
:10209E00E8CF68F2000EE8CF69F2640EE8CF6AF27C
:1020AE00000EE8CF6BF2640EE8CF6CF2000EE8CFB4
:1020BE006DF2640EE8CF6EF2000EE8CF6FF2640E92
:1020CE00E8CF70F2000EE8CF71F2640EE8CF72F234
:1020DE00000EE8CF73F2640EE8CF74F2000EE8CF74
:1020EE0075F2000EE8CF76F2000EE8CF77F2000E12
:1020FE00E8CF78F2000EE8CF79F2000EE8CF7AF250
:10210E00000EE8CF7BF2000EE8CF7CF2000EE8CF97
:10211E007DF2000EE8CF7EF2000EE8CF7FF2000EC9
:10212E00E8CF80F2000EE8CF81F2000EE8CF82F207
:10213E00000EE8CF83F2FF0EE8CF84F2010EE8CF57
:10214E0085F2010EE8CF86F2000EE8CF87F2000E80
:10215E00E8CF88F2000EE8CF89F2000EE8CF8AF2BF
:10216E00000EE8CF8BF2000EE8CF8CF2000EE8CF17
:10217E008DF2000EE8CF8EF2000EE8CF8FF2000E39
:10218E00E8CF90F2000EE8CF91F2000EE8CF92F277
:10219E00000EE8CF93F2000EE8CF94F2000EE8CFD7
:1021AE0095F2000EE8CF96F2000EE8CF97F2000EF1
:1021BE00E8CF98F2000EE8CF99F2FF0EE8CF9AF230
:1021CE00010EE8CF9BF212000001BA6FBAC0ACF05C
:1021DE000001AD6B3D0E49EC1DF0B9C0ACF0000135
:1021EE00AD6B3E0E49EC1DF0A1D1000E0001B16F9A
:1021FE00010E2AEC16F00009D8B41BD0010E000116
:10220E00C66FBED1010E0001B16F010E2AEC16F0A1
:10221E00F2D7010E0001B16F000E2AEC16F0EBD7CB
:10222E00000E0001B16F000E2AEC16F00009D8A4C2
:10223E00E5D7010E16D00001BA51010AD8B4E9D77C
:10224E00030AD8B4EDD7010AD8B4CFD7070AD8B449
:10225E00D9D796D1000E0001B16F010E2AEC16F0FF
:10226E001AD00001846F010E0001C66FC7D7010E90
:10227E000001B16F010E2AEC16F00DD0010E000117
:10228E00B16F000E2AEC16F006D0000E0001B16FF1
:10229E00000E2AEC16F00009D8A4B0D7020EE1D732
:1022AE000001B951010AD8B4E9D7030AD8B4EDD761
:1022BE00010AD8B4CFD7070AD8B4D9D761D1C9EC9F
:1022CE0016F008D0C9EC16F005D067EC17F002D066
:1022DE0067EC17F00009D8A491D7030EC2D70001FE
:1022EE00B951010AD8B4F1D7030AD8B4F1D7010A0B
:1022FE00D8B4E5D7070AD8B4E5D742D11C0E56ECB0
:10230E001EF00001900500019111D8B488D0290E5D
:10231E0056EC1EF00001900500019111D8A402D0D8
:10232E00050E49D02A0E56EC1EF000019005000154
:10233E009111D8A402D0060E3ED02C0E56EC1EF0F3
:10234E000001900500019111D8A402D0070E33D0E0
:10235E002B0E56EC1EF00001900500019111D8A431
:10236E004DD7080E28D01D0E56EC1EF0000190051C
:10237E0000019111D8B453D0290E56EC1EF0000175
:10238E00900500019111D8B4CBD72A0E56EC1EF051
:10239E000001900500019111D8B4CDD72C0E56EC4A
:1023AE001EF00001900500019111D8B4CFD72B0E6D
:1023BE0056EC1EF0D0D70001846F20D71E0E56ECBF
:1023CE001EF00001900500019111D8B428D0290EFD
:1023DE0056EC1EF00001900500019111D8B42AD0E0
:1023EE002A0E56EC1EF00001900500019111D8B492
:1023FE002CD02C0E56EC1EF0000190050001911110
:10240E00D8B42ED02B0E56EC1EF02FD01F0E56EC3D
:10241E001EF00001900500019111D8A402D0040E07
:10242E00CAD7290E56EC1EF000019005000191113D
:10243E00D8A402D00C0EBFD72A0E56EC1EF0000107
:10244E00900500019111D8A402D00B0EB4D72C0E1A
:10245E0056EC1EF00001900500019111D8A402D097
:10246E000A0EA9D72B0E56EC1EF0000190050001A6
:10247E009111D8A4C3D6090E9ED70001B951010AF5
:10248E00D8B49CD7030AD8B4C1D7010AD8B436D76A
:10249E00070AD8B468D774D088EC15F008D088EC49
:1024AE0015F005D0E3EC14F002D0E3EC14F00009C3
:1024BE00D8A4A4D6000E0001846F000EA0D6000191
:1024CE00B951010AD8B4EED7030AD8B4EED7010A2F
:1024DE00D8B4E2D7070AD8B4E2D752D0010E37ECFF
:1024EE0019F01BD0020E37EC19F017D0030E9DEC2D
:1024FE0018F013D0040E9DEC18F00FD0040E03EC60
:10250E0018F00BD0030E03EC18F007D0020ED0EC2F
:10251E0019F003D0010ED0EC19F00009D8A46ED634
:10252E00030E01D0000E0001846F68D600018451A5
:10253E00000AD8B480D6010AD8B4B2D6030AD8B4E9
:10254E00CED6010AD8B499D7070AD8B4B8D7010A9B
:10255E00D8B4C4D7030AD8B4C5D7010AD8B4C6D7DD
:10256E000F0AD8B4C7D7010AD8B4C8D7030AD8B44B
:10257E00C9D7010AD8B4CAD7070AD8B4CBD7D2D78D
:10258E000001C6511200730E00018619D8A46ED038
:10259E00880E0001766F000E0001776F76C096F000
:1025AE0077C097F068EC1AF096C0B3F097C0B4F00D
:1025BE008B0E0001766F000E0001776F76C096F0DD
:1025CE0077C097F068EC1AF096C0B1F097C0B2F0F1
:1025DE000001B35164EC1EF0000190510001911105
:1025EE00D8A409D0210E00019B6F080E00019C6F2C
:1025FE0039EC14F012000001B4510EE10F0E00017F
:10260E00B35DD8B009D02A0E00019B6F080E0001F1
:10261E009C6F39EC14F012000001B45105E1910EDB
:10262E000001B35DD8A009D0330E00019B6F080ED8
:10263E0000019C6F39EC14F012000001B1290DE17C
:10264E000001B229D8A409D03C0E00019B6F080EE0
:10265E0000019C6F39EC14F01200B1C0ACF0B2C0A6
:10266E00ADF00001B35149EC1DF01200670E0001F0
:10267E008619D8A41200880E0001766F000E000194
:10268E00776F76C096F077C097F068EC1AF096C028
:10269E00B3F097C0B4F00001B4510EE10F0E00017B
:1026AE00B35DD8B009D02A0E00019B6F080E000151
:1026BE009C6F39EC14F012000001B45105E1910E3B
:1026CE000001B35DD8A009D0330E00019B6F080E38
:1026DE0000019C6F39EC14F012000001B35156EC5E
:1026EE001EF090C0B1F091C0B2F0B1C0A9F0B2C06E
:1026FE00AAF00001B35131EC1EF012003A50D8B4DA
:10270E00A4D0D6EC1DF000017B6F93D0860E000195
:10271E00766F000E0001776FFF0E0001B56FFF0E92
:10272E000001B66F0B0EF66E080EF76E0800F55030
:10273E000001B76FB86B0001B5510001B72700015A
:10274E00B6510001B823860E0001B7250001786F3F
:10275E00000E0001B8210001796F730E00017B1984
:10276E00D8B405D0670E00017B19D8A40BD076C063
:10277E00D9FF77C0DAFF7BC0DFFF0001764B772BE6
:10278E00010E0FD0000E0DD0780E00017B19D8A4CB
:10279E00F9D776C0D9FF77C0DAFF7BC0DFFF45D00F
:1027AE00020E00017C6F51D0470E00017B19D8B488
:1027BE000AD022D076C0D9FF77C0DAFF000EDF6EC6
:1027CE000001764B772B000178510001765D0001F8
:1027DE00795100017759D8A0EDD7450E00019B6FB6
:1027EE00080E00019C6F39EC14F0030E00017C6F93
:1027FE00010E00017A6F29D076C0D9FF77C0DAFFBB
:10280E007BC0DFFF000176510001785D000177513A
:10281E0000017959D8B009D0180E00019B6F080E2F
:10282E0000019C6F39EC14F0ADD70001764B772B7D
:10283E00B7D700017C51000AD8B468D7010AD8B4C2
:10284E00A3D7030AD8B4B0D7010A00017A05D8A4D9
:10285E001200CAEC12F0000E00017A6F000E000199
:10286E007C6F12009D0E0001A26F000E0001A36F7F
:10287E0094D0250E0001A819D8B405D00001A85196
:10288E007EEC1EF08AD0000E0001A46F9BC0F6FFF6
:10289E009CC0F7FF00019B4B9C2B0800F5CFA8F0C6
:1028AE000001A851000AD8B41200640AD8B403D0AB
:1028BE000D0AD8A472D0A2C0D9FFA3C0DAFFDECF12
:1028CE00A6F0DDCFA7F0020E0001A227000EA32373
:1028DE000001A7AF08D0030E0001A4130001A66DDE
:1028EE00A71FD8B0A72B010E0001A86F050E00017F
:1028FE00A819D8B416D00001A851020D010EF32468
:10290E00F66E080EF420F76E0900F5500001A65D74
:10291E000900F5500001A759D8A003D00001A82B3B
:10292E00E5D7A4C0A1F0030E0001A117D8B403D0BF
:10293E002D0E7EEC1EF0A8C0A5F029D00001A551E9
:10294E00020D010EF324F66E080EF420F76E090048
:10295E00F5CF92F00A00F5CF93F0A6C090F0A7C085
:10296E0091F072EC1CF090C097F091C098F0000EB0
:10297E0000019A6F0A0E996F1BEC1DF00001975122
:10298E00300F0001A86F0001A8517EEC1EF000016F
:10299E00A5070001A529D8A4D1D79BC0F6FF9CC0DE
:1029AE00F7FF00019B4B9C2B0800F5CFA8F0000110
:1029BE00A851D8B412005DD793D072C0B1F073C0D5
:1029CE00B2F0000E0001B36FACEC1BF0010E000173
:1029DE00C26F150E56EC1EF0000172510001905D93
:1029EE000001735100019159D8A002D0010E72D08E
:1029FE00190E56EC1EF0000190510001745D00019D
:102A0E00915100017559D8A00AD000017207D8A0C3
:102A1E007307000E0001756F000E746F6FD000010A
:102A2E00744B752B6BD0120E56EC1EF000019051AC
:102A3E000001625D0001915100016359D8A009D0D7
:102A4E00020E0001836F000E0001636F000E626FB5
:102A5E0043D0010E0001C26F0001624B632B010EC9
:102A6E000001836F4BD0150E56EC1EF090C0B1F0E6
:102A7E0091C0B2F0000E0001B36FACEC1BF0000E73
:102A8E000001AD6F010EAC6F450E49EC1DF0150E39
:102A9E0056EC1EF090C072F091C073F01AD0140E66
:102AAE0056EC1EF0000190510001625D0001915143
:102ABE0000016359D8A00AD0000E0001836F000EEA
:102ACE000001636F000E626F000E07D00001624BB3
:102ADE00632B030E0001836F010E0001C26F0ED037
:102AEE0000018351000AD8B468D7010AD8B49BD725
:102AFE00030AD8B4B8D7010AD8B4D1D70001C2514D
:102B0E00120090D072C0B1F073C0B2F0010E00018D
:102B1E00B36FACEC1BF0160E56EC1EF000017251AA
:102B2E000001905D0001735100019159D8A002D0AF
:102B3E00010E72D0190E56EC1EF0000190510001DC
:102B4E00745D0001915100017559D8A00AD00001A1
:102B5E007207D8A07307000E0001756F000E746F18
:102B6E005DD00001744B752B59D0120E56EC1EF031
:102B7E00000190510001665D0001915100016759FD
:102B8E00D8A009D0020E0001836F000E0001676FFE
:102B9E00000E666F43D0010E0001C46F0001664B3C
:102BAE00672B010E0001836F4BD0160E56EC1EF0F4
:102BBE0090C0B1F091C0B2F0010E0001B36FACEC59
:102BCE001BF0000E0001AD6F010EAC6F450E49EC0F
:102BDE001DF0160E56EC1EF090C072F091C073F000
:102BEE001AD0140E56EC1EF0000190510001665DD5
:102BFE000001915100016759D8A00AD0000E0001C2
:102C0E00836F000E0001676F000E666F000E07D017
:102C1E000001664B672B030E0001836F010E00014E
:102C2E00C46F0ED000018351000AD8B46BD7010ACD
:102C3E00D8B49BD7030AD8B4B8D7010AD8B4D1D721
:102C4E000001C45112000001B26F8ED0010E0001BE
:102C5E00BD6F36D0000E0001AD6F010EAC6F400E91
:102C6E0049EC1DF035D0000E0001AD6F010EAC6FBA
:102C7E00410E49EC1DF02CD00001B151000AD8B420
:102C8E00E9D7010AD8B4EFD723D0000E0001AD6FFB
:102C9E00010EAC6F420E49EC1DF01AD0000E000171
:102CAE00AD6F010EAC6F430E49EC1DF011D000015B
:102CBE00B151000AD8B4E9D7010AD8B4EFD708D079
:102CCE000001B251000AD8B4D7D7010AD8B4EFD751
:102CDE00010E00017F6F53D0130E56EC1EF0000153
:102CEE0090510001605D0001915100016159D8A021
:102CFE000AD0020E00017F6F000E0001616F000E00
:102D0E00606F010E2ED0010E0001BD6F010E00018D
:102D1E007F6F0001604B612B32D0000E0001AD6F52
:102D2E00000EAC6F400E49EC1DF0000E0001AD6FB1
:102D3E00000EAC6F410E49EC1DF0000E0001AD6FA0
:102D4E00000EAC6F420E49EC1DF0000E0001AD6F8F
:102D5E00000EAC6F430E49EC1DF0000E00017F6FAC
:102D6E00000E0001BD6F0BD000017F51000AD8B4D8
:102D7E006DD7010AD8B4B0D7030AD8B4CED70001A4
:102D8E00BD5112008CD0140E56EC1EF00001905165
:102D9E000001685D0001915100016959D8A002D06F
:102DAE00010E34D00001684B692B000E0001836FB9
:102DBE0072D0160E56EC1EF090C0B1F091C0B2F06B
:102DCE00010E0001B36FACEC1BF0160E56EC1EF0AC
:102DDE0090C072F091C073F0000E0001AD6F000E46
:102DEE00AC6F450E49EC1DF0010E0001C56F1CD0F5
:102DFE00120E56EC1EF0000190510001685D0001AC
:102E0E00915100016959D8A009D0030E0001836FBA
:102E1E00000E0001696F000E686F3DD0010E0001BB
:102E2E00C56F0001684B692B020E0001836F45D000
:102E3E0072C0B1F073C0B2F0010E0001B36FACEC12
:102E4E001BF0170E56EC1EF0000190510001725D42
:102E5E000001915100017359D8A005D0000E000158
:102E6E00836F000E19D01A0E56EC1EF00001905111
:102E7E000001745D0001915100017559D8A008D070
:102E8E000001724B732B000E0001756F000E746FF4
:102E9E000001744B752B010E0001C56F0ED00001A1
:102EAE008351000AD8B46FD7010AD8B482D7030A67
:102EBE00D8B49ED7010AD8B4BBD70001C5511200B1
:102ECE008AD0140E56EC1EF0000190510001645D84
:102EDE000001915100016559D8A002D0010E36D0E3
:102EEE000001644B652B000E20D0010E0001C36F54
:102EFE0080D0150E56EC1EF090C0B1F091C0B2F01D
:102F0E00000E0001B36FACEC1BF0150E56EC1EF06C
:102F1E0090C072F091C073F0000E0001AD6F000E04
:102F2E00AC6F450E49EC1DF01CD00001836FDDD750
:102F3E00120E56EC1EF0000190510001645D00016E
:102F4E00915100016559D8A009D0030E0001836F7D
:102F5E00000E0001656F000E646FC7D70001644B51
:102F6E00652B020EE2D772C0B1F073C0B2F0000E44
:102F7E000001B36FACEC1BF0010E0001C36F180E15
:102F8E0056EC1EF0000190510001725D000191514E
:102F9E0000017359D8A005D0000E0001836F000EFA
:102FAE00A5D71A0E56EC1EF0000190510001745D6B
:102FBE000001915100017559D8A009D00001724B42
:102FCE00732B000E0001756F000E746F12D000018E
:102FDE00744B752B0ED000018351000AD8B471D7F3
:102FEE00010AD8B486D7030AD8B4A2D7010AD8B436
:102FFE00BAD70001C35112000001B86F8CD0030E76
:10300E000001B819D8B40DD0350E56EC1EF00001E3
:10301E0090510001705D0001915100017159D8A0CD
:10302E0009D0010E0001816F000E0001716F000EBC
:10303E00706F6DD00001704B712B69D0040E0001C2
:10304E00B819D8A428D072C0B1F073C0B2F0000E77
:10305E000001B36FACEC1BF02E0E56EC1EF000010F
:10306E0072510001905D0001735100019159D8B069
:10307E002DD01A0E56EC1EF0000190510001745D19
:10308E000001915100017559D8A03ED00001720780
:10309E00D8A0730733D0030E0001B819D8A437D0C7
:1030AE0072C0B1F073C0B2F0000E0001B36FACECA1
:1030BE001BF0180E56EC1EF0000190510001725DCF
:1030CE000001915100017359D8A008D0000E0001E3
:1030DE00836F000E0001816F000E1AD01A0E56EC8F
:1030EE001EF0000190510001745D0001915100012C
:1030FE007559D8A009D00001724B732B000E000138
:10310E00756F000E746F03D00001744B752B010E9A
:10311E000001C16F08D000018151000AD8B46FD7E9
:10312E00010AD8B48BD70001C15112000001B86F4B
:10313E008CD0040E0001B819D8B40DD0380E56EC50
:10314E001EF0000190510001705D000191510001CF
:10315E007159D8A009D0010E0001816F000E000137
:10316E00716F000E706F6DD00001704B712B69D0B6
:10317E00030E0001B819D8A427D072C0B1F073C0E5
:10318E00B2F0010E0001B36FACEC1BF02F0E56EC3B
:10319E001EF0000190510001725D0001915100017D
:1031AE007359D8B02CD01A0E56EC1EF00001905167
:1031BE000001745D0001915100017559D8A03ED0F7
:1031CE000001724B732B34D0040E0001B819D8A431
:1031DE0038D072C0B1F073C0B2F0010E0001B36FFF
:1031EE00ACEC1BF0170E56EC1EF0000172510001F4
:1031FE00905D0001735100019159D8A008D0000EC6
:10320E000001836F000E0001816F000E1BD01A0E9D
:10321E0056EC1EF0000190510001745D00019151B9
:10322E0000017559D8A00AD000017207D8A0730703
:10323E00000E0001756F000E746F03D00001744B09
:10324E00752B010E0001C06F08D000018151000ADC
:10325E00D8B46FD7010AD8B48BD70001C051120071
:10326E000001B86F8BD0020E0001B819D8B40DD082
:10327E003B0E56EC1EF0000190510001705D0001F6
:10328E00915100017159D8A009D0010E0001816F32
:10329E00000E0001716F000E706F6CD00001704B4C
:1032AE00712B68D00001B805D8A428D072C0B1F037
:1032BE0073C0B2F0010E0001B36FACEC1BF0310E17
:1032CE0056EC1EF0000172510001905D0001735129
:1032DE0000019159D8B02DD01A0E56EC1EF00001F7
:1032EE0090510001745D0001915100017559D8A0F3
:1032FE003ED000017207D8A0730733D0020E000132
:10330E00B819D8A437D072C0B1F073C0B2F0010EA4
:10331E000001B36FACEC1BF0170E56EC1EF0000163
:10332E0090510001725D0001915100017359D8A0B6
:10333E0008D0000E0001836F000E0001816F000E99
:10334E001AD01A0E56EC1EF0000190510001745D59
:10335E000001915100017559D8A009D00001724B9E
:10336E00732B000E0001756F000E746F03D00001F9
:10337E00744B752B010E0001BE6F08D000018151F8
:10338E00000AD8B470D7010AD8B48CD70001BE5148
:10339E0012000001B86F8AD00001B805D8B40DD064
:1033AE003A0E56EC1EF0000190510001705D0001C6
:1033BE00915100017159D8A009D0010E0001816F01
:1033CE00000E0001716F000E706F6CD00001704B1B
:1033DE00712B68D0020E0001B819D8A427D072C084
:1033EE00B1F073C0B2F0000E0001B36FACEC1BF085
:1033FE00340E56EC1EF0000190510001725D00017A
:10340E00915100017359D8B02BD01A0E56EC1EF004
:10341E00000190510001745D000191510001755938
:10342E00D8A03DD00001724B732B33D00001B805EC
:10343E00D8A438D072C0B1F073C0B2F0000E000143
:10344E00B36FACEC1BF0180E56EC1EF0000172516F
:10345E000001905D0001735100019159D8A008D070
:10346E00000E0001836F000E0001816F000E1BD055
:10347E001A0E56EC1EF0000190510001745D000111
:10348E00915100017559D8A00AD000017207D8A039
:10349E007307000E0001756F000E746F03D00001EC
:1034AE00744B752B010E0001BF6F08D000018151C6
:1034BE00000AD8B471D7010AD8B48CD70001BF5115
:1034CE00120003D00001964B972B96C0D9FF97C0E0
:1034DE00DAFF200EDE18D8B4F5D796C0D9FF97C004
:1034EE00DAFF090EDE18D8B4EDD7000E00019C6F7E
:1034FE00000E9B6F000E00019A6F96C0D9FF97C009
:10350E00DAFF2D0EDE18D8A403D000019A2B2ED090
:10351E0096C0D9FF97C0DAFF2B0EDE18D8A429D09B
:10352E0025D09BC090F09CC091F0000E0001936FCF
:10353E000A0E926FBBEC1DF096C0D9FF97C0DAFF52
:10354E00DF500001986F996B000190510001982790
:10355E000001915100019923D00E00019825000120
:10356E009B6FFF0E0001992100019C6F0001964B8D
:10357E00972B96C0D9FF97C0DAFFDF501DEC1EF0D7
:10358E00D8B0CFD700019A510001D8B40ED09BC04D
:10359E0098F09CC099F00001981F991F984B992B99
:1035AE0098C096F099C097F012009BC096F09CC000
:1035BE0097F01200000EF26EA69EA684010EA96E62
:1035CE00170E56EC1EF000019051A86E550EA76E08
:1035DE00AA0EA76EA682A1A8FED7A198A69EA68423
:1035EE00000EA96E170E56EC1EF0000191C090F061
:1035FE000001916B00019051A86E550EA76EAA0E98
:10360E00A76EA682A1A8FED7A198A69EA684030E99
:10361E00A96E180E56EC1EF000019051A86E550EB4
:10362E00A76EAA0EA76EA682A1A8FED7A198A69EE7
:10363E00A684020EA96E180E56EC1EF0000191C063
:10364E0090F00001916B00019051A86E550EA76E7F
:10365E00AA0EA76EA682A1A8FED7A198A69EA684A2
:10366E00040EA96E190E56EC1EF000019051A86EB4
:10367E00550EA76EAA0EA76EA682A1A8FED7A19878
:10368E00A00EF26E12000600E9CF03F0EACF04F0AE
:10369E00E1CF05F0E2CF06F0D9CF07F0DACF08F090
:1036AE00F3CF09F0F4CF0AF0F6CF0BF0F7CF0CF012
:1036BE00F8CF0DF0F5CF0EF0F2A41FD000016F5130
:1036CE0007E1650E00016E5DD8B002D0808801D092
:1036DE008098BC0E00016E5D020E00016F59D8A0DD
:1036EE0005D0000E00016F6F000E6E6F00016E4B65
:1036FE006F2B010E0001856FF2949DBA9EAA02D027
:10370E0007EC1EF09DB89EA802D0F0EC1DF00EC086
:10371E00F5FF0DC0F8FF0CC0F7FF0BC0F6FF0AC097
:10372E00F4FF09C0F3FF08C0DAFF07C0D9FF06C0D7
:10373E00E2FF05C0E1FF04C0EAFF03C0E9FF02C0DB
:10374E00FBFF01C0FAFF40921100010E0001B76F9E
:10375E00B6690001B3510001D8A41FD0B1C0B4F0B6
:10376E00B2C0B5F0D8900001B437B5370001B41F20
:10377E00B51FB44BB52BFF0E0001B4250001B66F7B
:10378E00010E0001B5210001B76FB6C0ACF0B7C095
:10379E00ADF0440E49EC1DF012000001B305D8A4A3
:1037AE001200B1C0B4F0B2C0B5F0D8900001B43779
:1037BE00B537FF0E0001B4250001B66F010E0001F2
:1037CE00B5210001B76FB6C0ACF0B7C0ADF0440E76
:1037DE0049EC1DF01200206E30D0839A1200838ABD
:1037EE001200234A242AB80E235C0B0E2458D8A0AC
:1037FE0004D0000E246E000E236EDC0E235C050E2C
:10380E002458D8A002D0838A1200839A1200234A29
:10381E00242AE80E235C030E2458D8A004D0000EF0
:10382E00246E000E236EF40E235C010E2458D8A0D5
:10383E0002D0838A1200839A12002050000AD8B454
:10384E00CCD7010AD8B4CBD7030AD8B4CAD7010A49
:10385E00D8A41200DCD7206E30D0839C1200838C4B
:10386E001200214A222AB80E215C0B0E2258D8A033
:10387E0004D0000E226E000E216EDC0E215C050EB1
:10388E002258D8A002D0838C1200839C1200214AA9
:10389E00222AE80E215C030E2258D8A004D0000E76
:1038AE00226E000E216EF40E215C010E2258D8A05D
:1038BE0002D0838C1200839C12002050000AD8B4D0
:1038CE00CCD7010AD8B4CBD7030AD8B4CAD7010AC9
:1038DE00D8A41200DCD7000E0001966F000E956F73
:1038EE000001925100019311D8B42CD0010E0001A9
:1038FE00946F06D00001D890923793370001942B25
:10390E00000193AFF7D70001D89095379637000195
:10391E0092510001905D0001935100019159D8A080
:10392E000AD0000192510001905F000193510001F5
:10393E00915B000195810001D89093339233000181
:10394E00942FE1D795C090F096C091F01200926836
:10395E0093689468956896680F0EC16E070EB46EE4
:10396E009298959A959C8098839C839A9290929225
:10397E00929492968096809480928090958495866B
:10398E009580958294829588968096829380938274
:10399E00938493869388938A958EC4EC0DF044ECB1
:1039AE001EF072EC1EF073EC1DF000018505D8A41C
:1039BE0005D0000E0001856F27EC04F085EC13F0A6
:1039CE00F4D701EEFCF012EE40F0EE6AE550E15055
:1039DE00FCE1E250FAE101EE00F0FC0EEE6AE806C0
:1039EE00FDE100EE60F0300EEE6AE806FDE100EE5D
:1039FE0021F01F0EEE6AE806FDE1080EF66E3D0E92
:103A0E00F76E000EF86E00EEBDF010EE0AF0090033
:103A1E00F5CFEEFFE550E150FAE140904092000EF6
:103A2E00F86E0001AEEF1CF00001995100019A11E1
:103A3E00D8B423D0010E206E05D00001D89099374E
:103A4E009A37202A00019AAFF8D700019951000148
:103A5E00975D00019A5100019859D8A008D0000135
:103A6E0099510001975F00019A510001985B000186
:103A7E00D8909A339933202EE8D797C097F098C0F4
:103A8E0098F012000001B06F0001B051020DFC0E53
:103A9E00F324D96E010EF420DA6E0001AC51DE185B
:103AAE0005E10001AD51DE18D8B412000001B0518D
:103ABE00020DFC0EF324D96E010EF420DA6EACC0AA
:103ACE00DEFFADC0DDFFACC0A9F0ADC0AAF00001B5
:103ADE00B05131EC1EF012009D9A9D98B886AB8EB7
:103AEE00AB9CAB88AB96AC9CAC8AAC98AC96AC84D9
:103AFE00AC82AC90010E0001916FA10E906F00018F
:103B0E009151B06E90C0AFFF000E3E6E000E3F6E34
:103B1E007E0E3D6E000E3B6E000E3C6E000E3A6E3B
:103B2E009D8A120092C094F093C095F0060ED89024
:103B3E00000194379537E82EFAD794C096F095C0C9
:103B4E0097F097C0BEFF96C094F00001D8909433C2
:103B5E000001D8909433300E00019417BD50CF0B56
:103B6E0000019411BD6E12000001905100019203EC
:103B7E00F3CF94F0F4CF95F0000190510001930330
:103B8E00F350000195270001915100019203F3506B
:103B9E000001952794C090F095C091F01200000E90
:103BAE00206E3A50D8B4FDD79D9A3C50010D000EB0
:103BBE00F324D96E010EF420DA6EDF50206E3C2A0B
:103BCE007D0E3C6402D0000E3C6E3A069D8A20505B
:103BDE0012007E0E3D6012D03F50010D7E0EF3247A
:103BEE00D96E010EF420DA6EDF50AD6E3F2A7D0ED7
:103BFE003F6402D0000E3F6E3D2A12009D981200C7
:103C0E00ABA202D0AB98AB883B50010D000EF32453
:103C1E00D96E010EF420DA6EAECFDFFF3B2A7D0E99
:103C2E003B6402D0000E3B6E3A2A12000001916FE7
:103C3E00000E0001906F3A0E0001916107D02F0E19
:103C4E000001916503D0010E0001906F90C020F02D
:103C5E00203012000001AB6F0C0E00019B6F080E9E
:103C6E0000019C6FABC09DF000019E6BA9C09FF040
:103C7E00AAC0A0F039EC14F01200000E0001AD6FD6
:103C8E00010EAC6F450E49EC1DF0CB687F0EBE6E7B
:103C9E000F0EBD6E040ECA6E949494901200206E98
:103CAE002050020DFC0EF324D96E010EF420DA6EB4
:103CBE00DECF90F0DDCF91F01200206E2050020D7D
:103CCE001C0EF324D96E030EF420DA6EDECF90F0C4
:103CDE00DDCF91F01200D08EA00EF26E840EF16E3A
:103CEE00000ED76E000ED66EC30ED56E1200206E6D
:103CFE009EA8FED720C0ADFF1200010101010101F7
:043D0E0001010101AD
:020000040020DA
:08000000FFFFFFFFFFFFFFFF00
:020000040030CA
:0E0000002C0E1800FF8181FF0FC00FE00F4093
:00000001FF
