:0400000053EF00F0CA
:0E0008004E82FACF2FF0FBCF30F0A7ED0BF0B9
:100018004E80D8CF7EF1E8CF7FF1E0CF80F1FACFE4
:1000280081F1FBCF82F1E9CF83F1EACF84F1E1CF0F
:1000380085F1E2CF86F1D9CF87F1DACF88F1F3CF16
:1000480089F1F4CF8AF1F6CF8BF1F7CF8CF1F8CFA5
:100058008DF1F5CF8EF18EC1F5FF8DC1F8FF8CC102
:10006800F7FF8BC1F6FF8AC1F4FF89C1F3FF88C18E
:10007800DAFF87C1D9FF86C1E2FF85C1E1FF84C1EC
:10008800EAFF83C1E9FF82C1FBFF81C1FAFF80C19A
:10009800E0FF7FC1E8FF7EC1D8FF4E901000E2EF7D
:1000A8000CF038EC07F02CEF07F0A69E040EA96EB2
:1000B800A680A8CF4DF0A69E000EA96EA680A8CF58
:1000C80049F04A6A49504A6E496AA69E010EA96ECD
:1000D800A6804950A810496E4A504A6E270E495CBE
:1000E800020E4A58D8B006D0020E4A6ED50E496E96
:1000F800500E4D6EA69E020EA96EA680A8CF47F0A0
:10010800486A4750486E476AA69E030EA96EA680A5
:100118004750A810476E4850486ECC0E475C010EF9
:100128004858D8A006D0010E486E330E476E500EC0
:100138004D6EA69E050EA96EA680A8CF21F0A69E9C
:10014800060EA96EA680A8CF23F049C0F5F04AC0D4
:10015800F6F047C0F3F048C0F4F04DC0FDF0000ED3
:10016800A2EC0CF0000E62EC0CF01904D8A407D035
:100178002104D8A404D0070E0001F26F120019045C
:10018800D8A408D0020E2118D8A404D00A0E000161
:10019800F26F1200010E0001F26F12000B50D8B47A
:1001A80006D0000E266E020E0001F26F12000C50EF
:1001B800D8B406D0010E266E020E0001F26F1200AE
:1001C8000E50D8B406D0020E266E020E0001F26F51
:1001D80012000F50D8B406D0030E266E020E00018E
:1001E800F26F12000D50D8B406D0040E266E020E1F
:1001F8000001F26F1200010E0001F26F020EA2EC74
:100208000CF012000B50D8A412D00C50D8A40FD068
:100218000E50D8A40CD00F50D8A409D00D50D8A493
:1002280006D01050D8A403D0030E0001F26F000EC0
:1002380062EC0CF0020EA2EC0CF012000B50D8B4D9
:1002480006D0000E276E040E0001F26F12000C504B
:10025800D8B406D0010E276E040E0001F26F12000A
:100268000E50D8B406D0020E276E040E0001F26FAD
:1002780012000F50D8B406D0030E276E040E0001EA
:10028800F26F12000D50D8B406D0040E276E040E7B
:100298000001F26F12001050D8B406D0090E276E74
:1002A800040E0001F26F1200020EA2EC0CF0030E15
:1002B8000001F26F12000B50D8A420D00C50D8A423
:1002C8001DD00E50D8A41AD00F50D8A417D00D5056
:1002D800D8A414D01050D8A411D027502618D8A4C8
:1002E80006D0010E62EC0CF0010E0001F26F2750EF
:1002F8002618D8B403D0050E0001F26F020EA2EC46
:100308000CF01200090E2718D8B403D0060E00010D
:10031800F26F090E2718D8A41200090E0001F26F17
:1003280012002604D8A40AD0020E2718D8A406D092
:1003380023C022F0070E0001F26F1200080E000120
:10034800F26F12002604D8A409D02750D8A406D0EA
:1003580023C022F0070E0001F26F1200080E000100
:10036800F26F12002650D8A40AD0020E2718D8A47B
:1003780006D023C022F0070E0001F26F1200080E0B
:100388000001F26F1200020E2618D8A40AD0030E3C
:100398002718D8A406D023C022F0070E0001F26F58
:1003A8001200080E0001F26F12002650D8A40AD0DD
:1003B800030E2718D8A406D023C022F0070E000188
:1003C800F26F1200080E0001F26F12002650D8A436
:1003D80009D02704D8A406D023C022F0070E0001B4
:1003E800F26F1200080E0001F26F12002604D8A462
:1003F8000AD0030E2718D8A406D023C022F0070E6F
:100408000001F26F1200080E0001F26F1200030ED5
:100418002618D8A40AD0020E2718D8A406D023C0BC
:1004280022F0070E0001F26F1200080E0001F26FB1
:100438001200080E0001F26F12002350000AD8B40F
:1004480070D7010AD8B47ED7030AD8B48BD7010A6B
:10045800D8B499D7070AD8B4A8D7010AD8B4B6D758
:10046800030AD8B4C3D7010AD8B4D1D7E2D71050F9
:10047800D8B407D0010E206E000E0001F26F000EF6
:10048800196E030EA2EC0CF0000E62EC0CF01200D8
:10049800040E2618D8B414D021D0010E05D0050EAC
:1004A80003D0020E01D0030E226E070E0001F26F78
:1004B80015D0080E0001F26F010E62EC0CF00ED0A0
:1004C8002750000AD8B4E9D7010AD8B4E8D7030AF4
:1004D800D8B4E7D7010AD8B4E6D7EBD7040E271863
:1004E800D8B414D021D0010E05D0050E03D0020EC9
:1004F80001D0030E226E070E0001F26F15D0080E10
:100508000001F26F010E62EC0CF00ED02650000ACA
:10051800D8B4E9D7010AD8B4E8D7030AD8B4E7D7DA
:10052800010AD8B4E6D7EBD7040E2618D8B41200BF
:10053800040E2718D8B41200B3D0000E0001F26FD1
:100548001200010E226E070E0001F26F1200020E59
:10055800226E070E0001F26F1200040E226E070EC3
:100568000001F26F1200080E0001F26F010E62EC3A
:100578000CF012002750000AD8B4DFD7010AD8B40B
:10058800E0D7030AD8B4E3D7010AD8B4E6D7EBD743
:10059800010E226E070E0001F26F1200000E00011C
:1005A800F26F1200000E226E070E0001F26F1200A9
:1005B800060E226E070E0001F26F1200080E0001EF
:1005C800F26F010E62EC0CF012002750000AD8B44A
:1005D800DFD7010AD8B4E2D7030AD8B4E3D7010AAF
:1005E800D8B4E6D7EBD7020E226E070E0001F26FE1
:1005F8001200000E226E070E0001F26F1200000EAC
:100608000001F26F1200030E226E070E0001F26F56
:100618001200080E0001F26F010E62EC0CF01200DD
:100628002750000AD8B4DFD7010AD8B4E2D7030AA2
:10063800D8B4E5D7010AD8B4E6D7EBD7040E226EB2
:10064800070E0001F26F1200060E226E070E00015F
:10065800F26F1200030E226E070E0001F26F1200F5
:10066800000E0001F26F1200080E0001F26F010E79
:1006780062EC0CF012002750000AD8B4DFD7010A48
:10068800D8B4E2D7030AD8B4E5D7010AD8B4E8D772
:10069800EBD7080E0001F26F010E62EC0CF01200AD
:1006A8002650000AD8B466D7010AD8B48ED7030AF0
:1006B800D8B4B6D7010AD8B4DED7EBD7020E2618BD
:1006C800D8A406D023C022F00A0E0001F26F12004F
:1006D8000B0E0001F26F12002650D8A406D023C0DA
:1006E80022F00A0E0001F26F12000B0E0001F26FE9
:1006F8001200030E2618D8A406D023C022F00A0E32
:100708000001F26F12000B0E0001F26F12002604B6
:10071800D8A406D023C022F00A0E0001F26F1200FE
:100728000B0E0001F26F12000B0E0001F26F1200A7
:100738002350000AD8B4C2D7010AD8B4CDD7030AC7
:10074800D8B4D7D7010AD8B4E2D7EED71050D8B466
:1007580007D0020E206E000E0001F26F000E196E17
:10076800030EA2EC0CF0000E62EC0CF01200040E6A
:100778002618D8A425D0000E226E0A0E0001F26FAA
:100788001200010E226E0A0E0001F26F1200030E13
:10079800226E0A0E0001F26F1200000E226E0A0E7F
:1007A8000001F26F1200020E226E0A0E0001F26FB3
:1007B80012000B0E0001F26F010E62EC0CF0120039
:1007C8002650000AD8B4DDD7010AD8B4E0D7030A06
:1007D800D8B4E3D7010AD8B4E6D7EBD7000E0001A6
:1007E800F26F010E62EC0CF012000001F251000AE7
:1007F800D8B45BD4010AD8B4D1D4030AD8B402D58A
:10080800010AD8B41BD5070AD8B455D5010AD8B4FB
:1008180079D5030AD8B411D6010AD8B428D60F0A54
:10082800D8B436D6010AD8B483D7030AD8B48ED739
:10083800010AD8B49CD7D2D7000E456E020E83ECBD
:1008480008F00009D8A48BD1010E226E40EC0BF001
:100858001904D8A484D1000E206E81D1020E456EF1
:10086800010E83EC08F00009D8A479D1020E226E9B
:1008780040EC0BF0EDD7030E456E000E83EC08F04C
:100888000009D8A46CD1030E226E40EC0BF0E0D71F
:10089800000E456E020E83EC08F00009D8A45FD163
:1008A800040E226E40EC0BF0D3D7010E456E030EFA
:1008B80083EC08F00009D8A452D1050E226E40EC52
:1008C8000BF0C6D7030E456E000E83EC08F0000946
:1008D800D8A445D1060E226E40EC0BF0B9D7020E13
:1008E800456E010E83EC08F00009D8A438D1070E34
:1008F800226E40EC0BF0ACD7010E456E030E83EC74
:1009080008F00009D8A42BD1000E226E40EC0BF0A1
:100918009FD72250000AD8B48FD7010AD8B49ED7DF
:10092800030AD8B4A8D7010AD8B4B2D7070AD8B4EA
:10093800BCD7010AD8B4C6D7030AD8B4D0D7010A9D
:10094800D8B4DAD70CD10C50D8B409D00F50D8B4D9
:1009580006D0010E1A6E030E62EC0CF00BD1000EDD
:100968001A6E000E62EC0CF005D10C50D8A409D018
:100978000F50D8A406D0020E1A6E030E62EC0CF0CB
:1009880005D0010E1A6E030E62EC0CF0270E000162
:10099800E96F100EE86FEED00C50D8A40ED00F50AF
:1009A800D8A40BD00E50D8A408D00B50D8A405D08A
:1009B8000001E807D8A0E90705D0270E0001E96F74
:1009C800100EE86F030E62EC0CF02DD0000E1ED056
:1009D800260E495C020E4A58D8A003D04906D8A072
:1009E8004A06CD0E475C010E4858D8B002D0474A97
:1009F800482A010E0BD0025004E1140E015CD8A065
:100A080007D0000E026E000E016EE0D71B6E3DD0BF
:100A1800014A022A3AD01B50000AD8B4D9D7010A91
:100A2800D8B4E9D7D3D70B50000AD8B4CFD7010A26
:100A3800D8B4F1D72AD0000E1BD04928030E4A5843
:100A4800D8B002D0494A4A2A47504810D8B403D0EF
:100A58004706D8A04806010E0BD0025004E1140E38
:100A6800015CD8A007D0000E026E000E016EE3D71D
:100A78001C6E33D0014A022A30D01C50000AD8B468
:100A8800DCD7010AD8B4E9D7D6D70C50000AD8B4B5
:100A9800D2D7010AD8B4F1D720D0000E11D0FB0E5E
:100AA8004D6001D04D2A010E0BD0025004E1140E06
:100AB800015CD8A007D0000E026E000E016EEDD7C3
:100AC8001D6E32D0014A022A2FD01D50000AD8B418
:100AD800E6D7010AD8B4E9D7E0D70E50000AD8B44F
:100AE800DCD7010AD8B4F1D71FD0000E10D04D5072
:100AF800D8A44D06010E0BD0025004E1140E015C7F
:100B0800D8A007D0000E026E000E016EEED71E6E42
:100B180012D0014A022A0FD01E50000AD8B4E7D7D3
:100B2800010AD8B4E9D7E1D70F50000AD8B4DDD705
:100B3800010AD8B4F1D70001E9511CE1020E000105
:100B4800E85DD8B017D0000E1A6E000E62EC0CF0FB
:100B580011D0000E1A6E000E62EC0CF00BD01A5079
:100B6800000AD8B4F0D6010AD8B4FFD6030AD8B41C
:100B780013D7EFD70001F151D8B402D0010E196E86
:100B88001904D8A403D0020E62EC0CF0010EA2ECFA
:100B98000CF01200000E456E020E83EC08F00009FE
:100BA800D8A44BD1010E226E40EC0BF01904D8A446
:100BB80044D1000E206E41D1030E456E000E83EC29
:100BC80008F00009D8A439D1020E226E40EC0BF0CF
:100BD800EDD7010E456E030E83EC08F00009D8A48A
:100BE8002CD1030E226E40EC0BF0E0D7020E456EBE
:100BF800010E83EC08F00009D8A41FD1000E226E64
:100C080040EC0BF0D3D72250000AD8B4C3D7010A5E
:100C1800D8B4D2D7030AD8B4DCD7010AD8B4E6D7F7
:100C28000CD10C50D8B409D00F50D8B406D0010E4E
:100C38001A6E030E62EC0CF01200000E1A6E000E13
:100C480062EC0CF012000C50D8A409D00F50D8A4B4
:100C580006D0020E1A6E030E62EC0CF005D0010EDF
:100C68001A6E030E62EC0CF0270E0001E96F100EED
:100C7800E86F12000C50D8A40ED00F50D8A40BD097
:100C88000E50D8A408D00B50D8A405D00001E8070E
:100C9800D8A0E90705D0270E0001E96F100EE86F0C
:100CA800030E62EC0CF02DD0000E1ED0260E495C0F
:100CB800020E4A58D8A003D04906D8A04A06CD0E3D
:100CC800475C010E4858D8B002D0474A482A010E5E
:100CD8000BD0025004E1140E015CD8A007D0000E1E
:100CE800026E000E016EE0D71B6E3DD0014A022A4B
:100CF8003AD01B50000AD8B4D9D7010AD8B4E9D7DA
:100D0800D3D70B50000AD8B4CFD7010AD8B4F1D73B
:100D18002AD0000E1BD04928030E4A58D8B002D05A
:100D2800494A4A2A47504810D8B403D04706D8A0A1
:100D38004806010E0BD0025004E1140E015CD8A045
:100D480007D0000E026E000E016EE3D71C6E33D082
:100D5800014A022A30D01C50000AD8B4DCD7010A54
:100D6800D8B4E9D7D6D70C50000AD8B4D2D7010ADC
:100D7800D8B4F1D720D0000E11D0FB0E4D6001D0B1
:100D88004D2A010E0BD0025004E1140E015CD8A0CC
:100D980007D0000E026E000E016EEDD71D6E32D028
:100DA800014A022A2FD01D50000AD8B4E6D7010AFA
:100DB800D8B4E9D7E0D70E50000AD8B4DCD7010A76
:100DC800D8B4F1D71FD0000E10D04D50D8A44D067E
:100DD800010E0BD0025004E1140E015CD8A007D01C
:100DE800000E026E000E016EEED71E6E12D0014A82
:100DF800022A0FD01E50000AD8B4E7D7010AD8B487
:100E0800E9D7E1D70F50000AD8B4DDD7010AD8B422
:100E1800F1D70001E95127E1020E0001E85DD8B0E1
:100E28001200000E1A6E000E62EC0CF01200000E9A
:100E38001A6E000E62EC0CF012001A50000AD8B4B8
:100E4800F0D6010AD8B4FFD6030AD8B413D7EFD71F
:100E58002050000AD8B4C9D4010AD8B45AD5030A14
:100E6800D8A41200D0D612000CD0000E166E000EB8
:100E780006D0150E166002D0162A1BD0010E126E6F
:100E880018D083A402D0010E01D0000E000AD8B4F5
:100E9800F0D7010AD8B4E9D70CD0000E156E000EB1
:100EA80006D0150E156002D0152A1BD0010E116E42
:100EB80018D083A602D0010E01D0000E000AD8B4C3
:100EC800F0D7010AD8B4E9D70CD0000E186E000E7E
:100ED80006D0150E186002D0182A1BD0010E146E09
:100EE80018D083A002D0010E01D0000E000AD8B499
:100EF800F0D7010AD8B4E9D70CD0000E176E000E4F
:100F080006D0150E176002D0172A1BD0010E136EDB
:100F180018D083A202D0010E01D0000E000AD8B466
:100F2800F0D7010AD8B4E9D70CD0150E096002D061
:100F3800092A27D0010E03D0000E096E000E106E8C
:100F480020D081B002D0010E01D0000E3D6E3E6A65
:100F58003E50000AD8A415D03D50000AD8B4ECD7AA
:100F6800010AD8B4E2D70DD0150E0A6002D00A2AB9
:100F78002AD0010E03D0000E0A6E000E0001F16F98
:100F880022D083BE02D0010E01D0000E3D6E3E6A13
:100F98003E50000AD8A417D03D50000AD8B4EBD769
:100FA800010AD8B4E1D70FD0150E0001EE6103D0C5
:100FB8000001EE2B2AD0010E04D0000E0001EE6FC6
:100FC800000E0D6E22D081B202D0010E01D0000EAB
:100FD8003D6E3E6A3E50000AD8A417D03D50000A24
:100FE800D8B4EBD7010AD8B4DFD70FD0150E00015B
:100FF800EC6103D00001EC2B2AD0010E04D0000EC6
:101008000001EC6F000E0B6E22D081BA02D0010EE7
:1010180001D0000E3D6E3E6A3E50000AD8A417D09B
:101028003D50000AD8B4EBD7010AD8B4DFD70FD0A7
:10103800150E0001ED6103D00001ED2B2AD0010E41
:1010480004D0000E0001ED6F000E0C6E22D081B8A6
:1010580002D0010E01D0000E3D6E3E6A3E50000ADD
:10106800D8A417D03D50000AD8B4EBD7010AD8B499
:10107800DFD70FD0150E0001EF6103D00001EF2B71
:101088002BD0010E04D0000E0001EF6F000E0E6E83
:1010980023D081B602D0010E01D0000E3D6E3E6A0B
:1010A8003E50000AD8A418D03D50000AD8B4EBD757
:1010B800010AD8B4DFD710D0150E0001F06103D0B3
:1010C8000001F02B1200010E0F6E1200000E00013D
:1010D800F06F000E0F6E120081B402D0010E01D025
:1010E800000E3D6E3E6A3E50000AD8A412003D50E4
:1010F800000AD8B4EBD7010AD8A41200DDD7466E8F
:10110800EED0000E3D6E010E0AEC0CF00DD0256EEF
:101118002AD0010E3D6E010E0AEC0CF005D0010E2E
:101128003D6E000E0AEC0CF00009D8A470D0010E38
:10113800EED7000E3D6E000E0AEC0CF0F5D74650C7
:10114800000AD8B4ECD7010AD8B4F3D7030AD8B444
:10115800D8D7010AD8B4DDD7D3D0000E3D6E010E22
:101168000AEC0CF00ED00001FC6951D0010E3D6E66
:10117800010E0AEC0CF005D0010E3D6E000E0AECD3
:101188000CF00009D8A443D0020EC1D7000E3D6E62
:10119800000E0AEC0CF0F5D74550000AD8B4ECD78D
:1011A800010AD8B4F3D7030AD8B4D7D7010AD8B4F8
:1011B800DDD7A6D06CEC0AF00009D8A428D009D055
:1011C8006CEC0AF0F9D7D6EC0AF0F6D7D6EC0AF0B0
:1011D800F3D7030E9CD74550000AD8B4F4D7010AB8
:1011E800D8B4F4D7030AD8B4E5D7010AD8B4E8D7F5
:1011F80087D01304D8A404D0040E256E0001FC691E
:1012080049C03DF04AC03EF091EC0DF010D000010D
:10121800FC6976D01404D8A404D0040E256E00010D
:10122800FC6949C03DF04AC03EF091EC0DF049C060
:101238004BF04AC04CF0EBD71104D8A404D0040EEC
:10124800256E0001FC6947C03DF048C03EF091ECB6
:101258000DF00DD01204D8A404D0040E256E0001A0
:10126800FC6947C03DF048C03EF091EC0DF047C026
:101278004BF048C04CF0CBD74550000AD8B4DCD767
:10128800010AD8B4E7D7030AD8B4B3D7010AD8B447
:10129800C1D736D0FAEC09F008D0FAEC09F005D03D
:1012A80087EC09F002D087EC09F00009D8A4AFD781
:1012B800000E256E000E0001FC6F22D04550000A7A
:1012C800D8B4EED7010AD8B4EED7030AD8B4E2D717
:1012D800010AD8B4E2D714D0000E256E11D02550DB
:1012E800000AD8B42CD7010AD8B456D7030AD8B400
:1012F80072D7010AD8B4C0D7070AD8B4DFD7ECD759
:101308000001FC51120062D04BC03DF04CC03EF0D1
:1013180091EC0DF00001F869CC0E4B5C010E4C58B5
:10132800D8A003D0010E246E36D04D50436E446AC7
:101338004350075C44500858D8A006D04B4A4C2A62
:10134800000E086E000E076E074A082A4CD0100ED1
:101358000001E05D270E0001E159D8A008D0020E77
:10136800246E000E0001E16F000EE06F14D0000142
:10137800F8690001E04BE12B010E246E34D0010E18
:101388003E6ECC0E3D6E91EC0DF08280010E4C6EDF
:10139800CC0E4B6E19D00001F86925D0880E0001DB
:1013A800E05D130E0001E159D8A00BD0000E246EA9
:1013B800000E0001E16F000EE06F000E0001F86FF3
:1013C80012D00001E04BE12B030EADD72450000AE8
:1013D800D8B49AD7010AD8B4BAD7030AD8B4CFD7A1
:1013E800010AD8B4DBD70001F851120061D04BC014
:1013F8003DF04CC03EF091EC0DF0270E4B5C020E18
:101408004C58D8B003D0010E246E37D04D50436EDF
:10141800446A4350075C44500858D8A007D04B068C
:10142800D8A04C06000E086E000E076E074A082A60
:1014380024D0100E0001E45D270E0001E559D8A064
:1014480008D0020E246E000E0001E56F000EE46F56
:1014580014D00001FA690001E44BE52B010E246E5B
:1014680034D0020E3E6E260E3D6E91EC0DF0828059
:10147800020E4C6E260E4B6E19D00001FA6925D06B
:10148800880E0001E45D130E0001E559D8A00BD0C9
:10149800000E246E000E0001E56F000EE46F000ED2
:1014A8000001FA6F12D00001E44BE52B030EACD714
:1014B8002450000AD8B49BD7010AD8B4BAD7030A73
:1014C800D8B4CFD7010AD8B4DBD70001FA5112003B
:1014D80059D0880E0001E65D130E0001E759D8A027
:1014E80008D0010E246E000E0001E76F000EE66FB3
:1014F80046D00001E64BE72B000E246E40D0020ECA
:101508003E6E260E3D6E91EC0DF0020E4C6E260ED0
:101518004B6E82900001FB690FD0100E0001E65D52
:10152800270E0001E759D8A002D0030EDBD700012F
:10153800FB690001E64BE72B020E246E30D04BC04E
:101548003DF04CC03EF091EC0DF049504B5C4A50D8
:101558004C58D8A006D0000E246E000E0001FB6F78
:101568001ED0085004E12D0E075CD8A006D04B4AC7
:101578004C2A000E086E000E076E074A082A000162
:10158800FB690DD02450000AD8B4A3D7010AD8B4F7
:10159800B6D7030AD8B4C1D7010AD8B4D0D7000146
:1015A800FB51120059D0880E0001E25D130E0001B4
:1015B800E359D8A002D0010E1FD00001E24BE32B63
:1015C800000E0FD00001F96954D0010E3E6ECC0E0A
:1015D8003D6E91EC0DF0010E4C6ECC0E4B6E829070
:1015E80015D0246EEFD7100E0001E25D270E000122
:1015F800E359D8A008D0030E246E000E0001E36F53
:10160800000EE26FDFD70001E24BE32B020EE9D7B1
:101618004BC03DF04CC03EF091EC0DF00001F96973
:101628004B50475C4C504858D8A006D0000E246E4A
:10163800000E0001F96F1DD0085004E12D0E075C63
:10164800D8A007D04B06D8A04C06000E086E000E96
:10165800076E074A082A0DD02450000AD8B4A3D729
:10166800010AD8B4B2D7030AD8B4BDD7010AD8B48E
:10167800CFD70001F9511200000EF26EA69EA68483
:10168800010EA96E49C0A8FF550EA76EAA0EA76E37
:10169800A682A1A8FED7A198A69EA684000EA96E30
:1016A8004A50A86E550EA76EAA0EA76EA682A1A8CC
:1016B800FED7A198A69EA684030EA96E47C0A8FFD0
:1016C800550EA76EAA0EA76EA682A1A8FED7A1984E
:1016D800A69EA684020EA96E4850A86E550EA76E47
:1016E800AA0EA76EA682A1A8FED7A198A69EA68438
:1016F800040EA96E4DC0A8FF550EA76EAA0EA76EC0
:10170800A682A1A8FED7A198A69EA684050EA96EBA
:1017180020C0A8FF550EA76EAA0EA76EA682A1A884
:10172800FED7A198A69EA684060EA96E22C0A8FF81
:10173800550EA76EAA0EA76EA682A1A8FED7A198DD
:10174800A00EF26E12000600E9CF31F0EACF32F0B7
:10175800E1CF33F0E2CF34F0D9CF35F0DACF36F03D
:10176800F3CF37F0F4CF38F0F6CF39F0F7CF3AF0BF
:10177800F8CF3BF0F5CF3CF0F2A420D00001EB51BC
:1017880007E1650E0001EA5DD8B002D0808801D07B
:101798008098BC0E0001EA5D020E0001EB59D8A04A
:1017A80007D0000E0001EB6F000EEA6F0EEC0EF092
:1017B8000001EA4BEB2B010E286EF2949DBA9EAA0B
:1017C80002D0C7EC0DF09DB89EA802D0AEEC0DF08B
:1017D8003CC0F5FF3BC0F8FF3AC0F7FF39C0F6FF41
:1017E80038C0F4FF37C0F3FF36C0DAFF35C0D9FF81
:1017F80034C0E2FF33C0E1FF32C0EAFF31C0E9FF85
:1018080030C0FBFF2FC0FAFF4E9211003E6E49D048
:101818000001F76918D080861DD080841BD03D5008
:10182800000AD8B4F8D7010AD8B4F7D713D0808201
:1018380011D080800FD03D50000AD8B4F8D7010AE3
:10184800D8B4F7D707D03E50000AD8B4E8D7010A71
:10185800D8B4F1D7010E1F6E2ED0200E0001DE5D28
:10186800030E0001DF59D8A00AD0020E1F6E000E29
:101878000001DF6F000EDE6F0001F7691CD0000168
:10188800F769010E1F6E0001DE4BDF2B14D0809626
:10189800809480928090000E1F6E000E0001F76FFA
:1018A8000AD01F50000AD8B4B3D7010AD8B4D5D784
:1018B800030AD8B4ECD70001F75112003D6E30D0BE
:1018C800839A1200838A1200054A062AB80E055C1C
:1018D8000B0E0658D8A004D0000E066E000E056E3A
:1018E800DC0E055C050E0658D8A002D0838A1200CB
:1018F800839A1200054A062AE80E055C030E06586C
:10190800D8A004D0000E066E000E056EF40E055C1D
:10191800010E0658D8A002D0838A1200839A1200BA
:101928003D50000AD8B4CCD7010AD8B4CBD7030AA3
:10193800D8B4CAD7010AD8A41200DCD73D6E30D07B
:10194800839C1200838C1200034A042AB80E035C9D
:101958000B0E0458D8A004D0000E046E000E036EBF
:10196800DC0E035C050E0458D8A002D0838C12004C
:10197800839C1200034A042AE80E035C030E0458F1
:10198800D8A004D0000E046E000E036EF40E035CA3
:10199800010E0458D8A002D0838C1200839C120038
:1019A8003D50000AD8B4CCD7010AD8B4CBD7030A23
:1019B800D8B4CAD7010AD8A41200DCD701EE00F0C7
:1019C8007E0EEE6AE806FDE100EE60F0930EEE6A28
:1019D800E806FDE100EE01F02D0EEE6AE806FDE1F5
:1019E800100EF66E1C0EF76E000EF86E00EEF3F099
:1019F80010EE0BF00900F5CFEEFFE550E150FAE1EB
:101A0800240EF66E1C0EF76E000EF86E00EE47F010
:101A180010EE07F00900F5CFEEFFE550E150FAE1CE
:101A28004E904E92000EF86E00011BEF0DF092687A
:101A380093689468956896680F0EC16E070EB46E29
:101A48009298959A959C8098839C839A929092926A
:101A580092949296809680948092809095849586B0
:101A68009580958293809382938493869388938AB2
:101A7800958EFDEC0DF0F1EC0DF04DEC0DF0DDEC7C
:101A88000DF02804D8A4FDD7000E286E55EC00F000
:101A9800F8D79D9A9D98B886AB8EAB9CAB88AB96D1
:101AA800AC9CAC8AAC98AC96AC84AC82AC90010E81
:101AB8003E6EA10E3D6E3E50B06E3DC0AFFF000EB3
:101AC8002C6E000E2D6E7E0E0001FE6F000E2A6E2B
:101AD800000E2B6E000E296E9D8A12002E6E0001DC
:101AE800FE51D8B4FCD79DB803D02EC0ADFF13D09B
:101AF8009D982C50010D600EF324D96E000EF42031
:101B0800DA6E2EC0DFFF2C2A7D0E2C6402D0000E68
:101B18002C6E0001FE079D8812003DC03FF03EC0BC
:101B280040F0060ED8903F364036E82EFBD73FC02F
:101B380041F040C042F042C0BEFF41C03FF0D890E3
:101B48003F32D8903F32300E3F16BD50CF0B3F107A
:101B5800BD6E12007E0E0001FE6113D02D50010DE6
:101B6800600EF324D96E000EF420DA6EDF50AD6EED
:101B78002D2A7D0E2D6402D0000E2D6E0001FE2B45
:101B880012009D981200ABA202D0AB98AB882A50E5
:101B9800010D000EF324D96E010EF420DA6EAECFDB
:101BA800DFFF2A2A7D0E2A6402D0000E2A6E292A17
:101BB8001200000E3E6E000E3D6E000E3E6E000ED0
:101BC8003D6E3EBE06D03E5007E1160E3D5CD8B0D5
:101BD80012003D4A3E2AF5D71200D08EA00EF26EB2
:101BE800840EF16E000ED76E000ED66EC30ED56E43
:101BF80012008280CB687F0EBE6E0F0EBD6E040E83
:101C0800CA6E9494949012003301D502FFFFFFFF2F
:031C1800FFFF507B
:0F1C1C00410E72EC0DF012003301D502FF0150A2
:020000040020DA
:08000000FFFFFFFFFFFFFFFF00
:020000040030CA
:0E0000002C0E1800FF8181FF0FC00FE00F4093
:00000001FF
