:0400000063EF00F0BA
:060008004D823EED1DF0EB
:100018004D80D8CFB6F0E8CFB7F0E0CFB8F0FACF40
:10002800B9F0FBCFBAF0E9CFBBF0EACFBCF0E1CF33
:10003800BDF0E2CFBEF0D9CFBFF0DACFC0F0F3CF3A
:10004800C1F0F4CFC2F0F6CFC3F0F7CFC4F0F8CFC9
:10005800C5F0F5CFC6F04DC0C7F04EC0C8F04FC0D0
:10006800C9F050C0CAF0CAC050F0C9C04FF0C8C0EB
:100078004EF0C7C04DF0C6C0F5FFC5C0F8FFC4C0FC
:10008800F7FFC3C0F6FFC2C0F4FFC1C0F3FFC0C092
:10009800DAFFBFC0D9FFBEC0E2FFBDC0E1FFBCC0F0
:1000A800EAFFBBC0E9FFBAC0FBFFB9C0FAFFB8C09E
:1000B800E0FFB7C0E8FFB6C0D8FF4D9010006BEF67
:0200C8001EF028
:10080000001200130014001500160017001800193C
:10081000001A001B00270028002D002E002F00309A
:100820000031003200330034003500360037003824
:100830000039003A003B003C0001000A006400E877
:100840000310270A4D2325642025640D0A00452343
:1008500031300D0A00452331310D0A004523313274
:100860000D0A00452331330D0A00452331340D0AAA
:100870000000000E146E480E136E44EC21F013506D
:100880001410D8B40BD0000E1A6E480E196E000E5C
:100890001C6E000E1B6EC8EC1FF0FF00E7EC0AF0A8
:1008A000C8EF0AF0000E146E4A0E136E44EC21F0ED
:1008B00013501410D8B415D0010E1F6E000E45EC65
:1008C00015F00009D8A4D4EF0AF0000E166E4A0EF7
:1008D000156E000E186E000E176E7CEC20F0D4EF33
:1008E0000AF0000E146E490E136E44EC21F0135002
:1008F0001410D8B415D0000E1F6E000E45EC15F084
:100900000009D8A4D4EF0AF0000E166E490E156E39
:10091000000E186E000E176E7CEC20F0D4EF0AF07B
:10092000000E146E4C0E136E44EC21F01350141094
:10093000D8B415D0010E1F6E010E45EC15F000095C
:10094000D8A4D4EF0AF0000E166E4C0E156E000EF1
:10095000186E000E176E7CEC20F0D4EF0AF0000E3B
:10096000146E4B0E136E44EC21F013501410D8B4D7
:1009700015D0000E1F6E010E45EC15F00009D8A42D
:10098000D4EF0AF0000E166E4B0E156E000E186EA8
:10099000000E176E7CEC20F0D4EF0AF0000E146EFF
:1009A0004D0E136E44EC21F013501410D8B416D031
:1009B000000E1A6E450E196E000E1C6E010E1B6E97
:1009C000C8EC1FF0000E166E4D0E156E000E186E60
:1009D000000E176E7CEC20F0D4EF0AF0000E146EBF
:1009E0004E0E136E44EC21F013501410D8B416D0F0
:1009F000000E1A6E450E196E000E1C6E000E1B6E58
:100A0000C8EC1FF0000E166E4E0E156E000E186E1E
:100A1000000E176E7CEC20F0D4EF0AF0000E146E7E
:100A2000440E136E44EC21F013C0CFF014C0D0F08C
:100A3000000E146E4F0E136E44EC21F013500001A3
:100A4000CF1904E11450D019D8B42DD0000E166E71
:100A5000440E156E000E146E4F0E136E44EC21F012
:100A600013C017F014C018F07CEC20F0000E146EC8
:100A7000440E136E44EC21F013C0D1F014C0D2F038
:100A8000000E146E560E136E44EC21F0135000014C
:100A9000D36FD1C01FF0D2C020F0D3C021F015EC2D
:100AA0001EF0D4EF0AF0000E146E560E136E44ECD6
:100AB00021F013C0CFF014C0D0F0000E146E510E10
:100AC000136E44EC21F013500001CF1904E11450CF
:100AD000D019D8B412D0000E166E560E156E000E38
:100AE000146E510E136E44EC21F013C017F014C0B5
:100AF00018F07CEC20F0D4EF0AF0000E146E570EC4
:100B0000136E44EC21F013501410D8B4E6D324EC47
:100B100018F0000E166E570E156E000E186E000EB1
:100B2000176E7CEC20F0D4EF0AF0000EF6EC1EF00D
:100B3000000EB6EC1EF0010E15D0000E146E230E42
:100B4000136E44EC21F013501410D8B40FD0000EE3
:100B50001A6E270E196E000E1C6E010E1B6EC8EC6D
:100B60001FF057D000018A6FD4EF0AF0000E146E08
:100B7000240E136E44EC21F013501410D8B40BD093
:100B8000000E1A6E270E196E000E1C6E020E1B6EE2
:100B9000C8EC1FF03ED0000E146E250E136E44EC10
:100BA00021F013501410D8B40BD0000E1A6E270E7B
:100BB000196E000E1C6E030E1B6EC8EC1FF029D0C0
:100BC000000E146E260E136E44EC21F01350141018
:100BD000D8B40BD0000E1A6E270E196E000E1C6EC4
:100BE000040E1B6EC8EC1FF014D0000E146E220E03
:100BF000136E44EC21F013501410D8B40CD0000E36
:100C00001A6E270E196E000E1C6E050E1B6EC8ECB8
:100C10001FF0020EA7D7000E146E270E136E44ECC1
:100C200021F013501410D8B40AD0000E146E280E00
:100C3000136E44EC21F013501410D8A4E1D0010E2F
:100C400000018A6F020EF6EC1EF0D4EF0AF0000EDF
:100C5000146E230E136E44EC21F013501410D8A41C
:100C600035D0000E146E240E136E44EC21F0135098
:100C70001410D8A42BD0000E146E250E136E44EC65
:100C800021F013501410D8A421D0000E146E260E9B
:100C9000136E44EC21F013501410D8A417D0000E9A
:100CA000146E220E136E44EC21F013501410D8A4CD
:100CB0000DD0000E146E200E136E44EC21F0135074
:100CC0001410D8A403D0030E00018A6F000EB6ECF6
:100CD0001EF0020EF6EC1EF0D4EF0AF0000E146EB9
:100CE000230E136E44EC21F013501410D8B40BD023
:100CF000000E1A6E280E196E000E1C6E010E1B6E71
:100D0000C8EC1FF07DD0000E146E240E136E44EC60
:100D100021F013501410D8B40BD0000E1A6E280E08
:100D2000196E000E1C6E020E1B6EC8EC1FF068D010
:100D3000000E146E250E136E44EC21F013501410A7
:100D4000D8B40BD0000E1A6E280E196E000E1C6E51
:100D5000030E1B6EC8EC1FF053D0000E146E260E4F
:100D6000136E44EC21F013501410D8B40BD0000EC5
:100D70001A6E280E196E000E1C6E040E1B6EC8EC47
:100D80001FF03ED0000E146E220E136E44EC21F0C4
:100D900013501410D8B40BD0000E1A6E280E196E12
:100DA000000E1C6E050E1B6EC8EC1FF029D0000E45
:100DB000146E200E136E44EC21F013501410D8B4AE
:100DC0000BD0000E1A6E280E196E000E1C6E090E46
:100DD0001B6EC8EC1FF014D0000E146E270E136E9D
:100DE00044EC21F013501410D8B40CD0000E146E43
:100DF000280E136E44EC21F013501410D8B402D016
:100E0000040EB0D6020EF6EC1EF0030EABD6000EAA
:100E1000146E230E136E44EC21F013501410D8A45A
:100E20007ED0000E146E240E136E44EC21F013508D
:100E30001410D8A474D0000E146E250E136E44EC5A
:100E400021F013501410D8A46AD0000E146E260E90
:100E5000136E44EC21F013501410D8A460D0000E8F
:100E6000146E220E136E44EC21F013501410D8A40B
:100E700056D0000E146E200E136E44EC21F0135069
:100E80001410D8A44CD0000E146E270E136E44EC30
:100E900021F013C0CFF014C0D0F0000E146E280E55
:100EA000136E44EC21F013500001CF191EE11450D1
:100EB000D019D8A41AD0000E1A6E280E196E000E82
:100EC0001C6E000E1B6EC8EC1FF0000E1A6E270E73
:100ED000196E000E1C6E000E1B6EC8EC1FF0010E8A
:100EE000B6EC1EF0010E00018A6F000E146E270E84
:100EF000136E44EC21F013C0CFF014C0D0F0000EFC
:100F0000146E280E136E44EC21F013500001CF191B
:100F100004E11450D019D8B402D0050E8A6F020E25
:100F2000F6EC1EF041D3000E146E280E136E44EC46
:100F300021F0090E13181410D8B403D0060E0001C6
:100F40008A6F000E146E280E136E44EC21F0090E09
:100F500013181410D8A428D3090E04D6080E03D6EB
:100F6000000E146E200E136E44EC21F0135014107A
:100F7000D8A40AD0000E146E460E136E44EC21F075
:100F800013501410D8B411D0020E0001E16F000EFE
:100F90008A6F000E876F000E1A6E460E196E000ED5
:100FA0001C6E000E1B6EC8EC1FF0030EF6EC1EF05C
:100FB000000EB6EC1EF0F8D2000E146E270E136E63
:100FC00044EC21F0050E13181410D8B414D02BD013
:100FD000010E05D0050E03D0020E01D0030E000154
:100FE000896F070E8A6F1FD0080E00018A6F010EED
:100FF000B6EC1EF018D0000E146E280E136E44ECE2
:1010000021F01450000AD8A4EFD71350010AD8B425
:10101000DFD7030AD8B4DED7010AD8B4DDD7070A70
:10102000D8B4DCD7E1D7000E146E280E136E44EC52
:1010300021F0050E13181410D8B414D02BD0010EC3
:1010400005D0050E03D0020E01D0030E0001896FFA
:10105000070E8A6F1FD0080E00018A6F010EB6ECD2
:101060001EF018D0000E146E270E136E44EC21F003
:101070001450000AD8A4EFD71350010AD8B4DFD710
:10108000030AD8B4DED7010AD8B4DDD7070AD8B42A
:10109000DCD7E1D7000E146E270E136E44EC21F05E
:1010A000050E13181410D8B47FD2000E146E280E3B
:1010B000136E44EC21F0050E13181410D8A495D02B
:1010C00073D2010E66D0020E64D0040E62D0080EF8
:1010D00000018A6F010EB6EC1EF066D2000E146E8F
:1010E000280E136E44EC21F01450000AD8A4EFD758
:1010F0001350010AD8B451D0030AD8B4E2D7010A78
:10110000D8B4E1D7070AD8B4E0D7E1D7000E41D070
:10111000080E00018A6F010EB6EC1EF045D2000EDB
:10112000146E280E136E44EC21F01450000AD8A45B
:10113000EFD71350010AD8B4C4D7030AD8B42DD0BE
:10114000010AD8B4E3D7070AD8B420D0E1D7080EF3
:1011500000018A6F010EB6EC1EF026D2000E146E4E
:10116000280E136E44EC21F01450000AD8A4EFD7D7
:101170001350010AD8B4A7D7030AD8B4C7D7010AB5
:10118000D8B40BD0070AD8B403D0E1D7060E01D0EB
:10119000030E0001896F070EE6D4000EE3D4080E9B
:1011A00000018A6F010EB6EC1EF0FED1000E146E27
:1011B000280E136E44EC21F01450000AD8A4EFD787
:1011C0001350010AD8B481D7030AD8B4DFD7010A73
:1011D000D8B4DED7070AD8B4E0D7E1D7080E0001AB
:1011E0008A6F010EB6EC1EF0DFD1000E146E270ED2
:1011F000136E44EC21F01450000AD8A4EFD713501A
:10120000010AD8B46BD7030AD8B489D7010AD8B475
:10121000A5D7070AD8B4CAD7E1D70B0EA3D4000EBE
:10122000146E200E136E44EC21F013501410D8A449
:101230000AD0000E146E460E136E44EC21F01350CB
:101240001410D8B407D0030E0001E16F000E8A6FAE
:10125000000E876F030EF6EC1EF0000EB6EC1EF0CB
:10126000A3D1000E146E270E136E44EC21F0050E70
:1012700013181410D8A412D0000E05D0010E03D0FC
:10128000030E01D0020E0001896F0A0E6CD40B0E02
:1012900000018A6F010EB6EC1EF086D1000E146EAE
:1012A000270E136E44EC21F01450000AD8A4EFD797
:1012B0001350010AD8B4E2D7030AD8B4E1D7010A1F
:1012C000D8B4DAD7070AD8B4DDD7E1D7000E0001C9
:1012D0008A6F010EB6EC1EF067D100018A51000A38
:1012E000D8B423D4010AD8B428D4030AD8B4AFD4CC
:1012F000010AD8B4F3D4070AD8B489D5010AD8B4FE
:1013000012D6030AD8B42AD6010AD8B429D60F0AAD
:10131000D8B452D6010AD8B480D7030AD8B47FD73C
:10132000010AD8B49ED7D2D7010ECD6F030E20ECA0
:1013300011F00009D8A487D0010E0001896F24ECB8
:1013400018F000018705D8A47ED0010EE16F7BD094
:10135000030ECD6F020E20EC11F00009D8A473D05B
:10136000020E0001896F24EC18F0EBD7040ECD6F4C
:10137000010E20EC11F00009D8A465D0030E000185
:10138000896F24EC18F0DDD7010ECD6F030E20EC31
:1013900011F00009D8A457D0040E0001896F24EC85
:1013A00018F0CFD7020ECD6F040E20EC11F000091B
:1013B000D8A449D0050E0001896F24EC18F0C1D7DC
:1013C000040ECD6F010E20EC11F00009D8A43BD023
:1013D000060E0001896F24EC18F0B3D7030ECD6F11
:1013E000020E20EC11F00009D8A42DD0070E000148
:1013F000896F24EC18F0A5D7020ECD6F040E20ECF7
:1014000011F00009D8A41FD0000E0001896F24EC50
:1014100018F097D78951000AD8B486D7010AD8B4F2
:1014200097D7030AD8B4A2D7010AD8B4ADD7070A10
:10143000D8B4B8D7010AD8B4C3D7030AD8B4CED722
:10144000010AD8B4D9D7000E146E210E136E44ECE5
:1014500021F013501410D8A40AD0000E146E470EB9
:10146000136E44EC21F013501410D8B40DD0010EBB
:101470000001876F000E1A6E470E196E000E1C6E6B
:10148000000E1B6EC8EC1FF000018705D8A403D026
:10149000020EB6EC1EF0010EF6EC1EF085D0010E29
:1014A0000001CD6F030E20EC11F00009D8A444D048
:1014B000010E0001896F24EC18F000018705D8A403
:1014C0003BD0010EE16F38D0040ECD6F010E20EC41
:1014D00011F00009D8A430D0020E0001896F24EC6D
:1014E00018F0EBD7020ECD6F040E20EC11F00009BE
:1014F000D8A422D0030E0001896F24EC18F0DDD7A8
:10150000030ECD6F020E20EC11F00009D8A414D008
:10151000000E0001896F24EC18F0CFD7000189512B
:10152000000AD8B4BCD7010AD8B4CED7030AD8B4BD
:10153000D9D7010AD8B4E4D7000E146E210E136E69
:1015400044EC21F013501410D8A40AD0000E146EED
:10155000470E136E44EC21F013501410D8B40DD084
:10156000010E0001876F000E1A6E470E196E000EF5
:101570001C6E000E1B6EC8EC1FF000018705D8A47E
:1015800003D0020EB6EC1EF0010EF6EC1EF00CD0ED
:101590000001E151010AD8B452EF04F0030AD8B4B3
:1015A00039D7010AD8B4BAD7000E1A6E3F0E196E99
:1015B000E1C01BF01C6AC8EC1FF0000E1A6E500E42
:1015C000196E89C01BF01C6AC8EC1FF01200000ED7
:1015D000146E400E136E44EC21F01346134613466E
:1015E00080501318F70B1318806E000E146E410E06
:1015F000136E44EC21F01346134680501318FB0B76
:101600001318806E000E146E420E136E44EC21F01F
:10161000134680501318FD0B1318806E000E146EC5
:10162000430E136E44EC21F080501318FE0B131878
:10163000806E000E146E450E136E44EC21F0825045
:101640001318FE0B1318826E000E146E580E136ED4
:1016500044EC21F013C015F014C016F09AEC20F001
:101660002CD03C50D8B402D03C065FD0000E1A6E8D
:101670001F0E196E000E1C6E000E1B6EC8EC1FF0C4
:1016800054D03C501F6E206A000E146E1B0E136E59
:1016900044EC21F01F50135C20501458D8A002D005
:1016A0003C2A43D0000E1A6E1F0E196E000E1C6EDF
:1016B000010E1B6EC8EC1FF038D083A202D0010EC1
:1016C00001D0000E000AD8B4DCD7010AD8B4C9D7BB
:1016D0002CD03B50D8B402D03B065FD0000E1A6E1F
:1016E0001E0E196E000E1C6E000E1B6EC8EC1FF055
:1016F00054D03B501F6E206A000E146E1B0E136EEA
:1017000044EC21F01F50135C20501458D8A002D094
:101710003B2A43D0000E1A6E1E0E196E000E1C6E70
:10172000010E1B6EC8EC1FF038D083A002D0010E52
:1017300001D0000E000AD8B4DCD7010AD8B4C9D74A
:101740002CD03A50D8B402D03A065FD0000E1A6EB0
:101750001D0E196E000E1C6E000E1B6EC8EC1FF0E5
:1017600054D03A501F6E206A000E146E1B0E136E7A
:1017700044EC21F01F50135C20501458D8A002D024
:101780003A2A43D0000E1A6E1D0E196E000E1C6E02
:10179000010E1B6EC8EC1FF038D083A602D0010EDC
:1017A00001D0000E000AD8B4DCD7010AD8B4C9D7DA
:1017B0002CD03950D8B402D039065FD0000E1A6E42
:1017C0001C0E196E000E1C6E000E1B6EC8EC1FF076
:1017D00054D039501F6E206A000E146E1B0E136E0B
:1017E00044EC21F01F50135C20501458D8A002D0B4
:1017F000392A43D0000E1A6E1C0E196E000E1C6E94
:10180000010E1B6EC8EC1FF038D083A402D0010E6D
:1018100001D0000E000AD8B4DCD7010AD8B4C9D769
:101820002CD034501F6E206A000E146E1B0E136EE7
:1018300044EC21F01F50135C20501458D8A002D063
:10184000342A5AD0000E1A6E200E196E000E1C6E2D
:10185000010E1B6EC8EC1FF04FD03450D8B402D02C
:1018600034064AD0000E1A6E200E196E000E1C6E41
:10187000000E1B6EC8EC1FF03FD081B002D0010EED
:1018800001D0000E1F6E206A2050000AD8A434D068
:101890001F50000AD8B4E1D7010AD8B4C2D72CD05F
:1018A00033501F6E206A000E146E1B0E136E44EC34
:1018B00021F01F50135C20501458D8A002D0332AB6
:1018C0005AD0000E1A6E210E196E000E1C6E010EFB
:1018D0001B6EC8EC1FF04FD03350D8B402D0330683
:1018E0004AD0000E1A6E210E196E000E1C6E000EEC
:1018F0001B6EC8EC1FF03FD083BE02D0010E01D09A
:10190000000E1F6E206A2050000AD8A434D01F5049
:10191000000AD8B4E1D7010AD8B4C2D72CD03250CB
:101920001F6E206A000E146E1B0E136E44EC21F025
:101930001F50135C20501458D8A002D0322A5AD01D
:10194000000E1A6E220E196E000E1C6E010E1B6E1A
:10195000C8EC1FF04FD03250D8B402D032064AD073
:10196000000E1A6E220E196E000E1C6E000E1B6EFB
:10197000C8EC1FF03FD081B202D0010E01D0000EA2
:101980001F6E206A2050000AD8A434D01F50000ACD
:10199000D8B4E1D7010AD8B4C2D72CD031501F6EC9
:1019A000206A000E146E1B0E136E44EC21F01F50C3
:1019B000135C20501458D8A002D0312A5AD0000EFF
:1019C0001A6E230E196E000E1C6E010E1B6EC8ECF3
:1019D0001FF04FD03150D8B402D031064AD0000E9B
:1019E0001A6E230E196E000E1C6E000E1B6EC8ECD4
:1019F0001FF03FD081BA02D0010E01D0000E1F6E41
:101A0000206A2050000AD8A434D01F50000AD8B44D
:101A1000E1D7010AD8B4C2D72CD030501F6E206A4B
:101A2000000E146E1B0E136E44EC21F01F50135C5D
:101A300020501458D8A002D0302A5AD0000E1A6E66
:101A4000240E196E000E1C6E010E1B6EC8EC1FF0EA
:101A50004FD03050D8B402D030064AD0000E1A6EA3
:101A6000240E196E000E1C6E000E1B6EC8EC1FF0CB
:101A70003FD081B802D0010E01D0000E1F6E206A47
:101A80002050000AD8A434D01F50000AD8B4E1D79F
:101A9000010AD8B4C2D72CD02F501F6E206A000E76
:101AA000146E1B0E136E44EC21F01F50135C20507B
:101AB0001458D8A002D02F2A5AD0000E1A6E250E24
:101AC000196E000E1C6E010E1B6EC8EC1FF04FD07D
:101AD0002F50D8B402D02F064AD0000E1A6E250E11
:101AE000196E000E1C6E000E1B6EC8EC1FF03FD06E
:101AF00081B602D0010E01D0000E1F6E206A205068
:101B0000000AD8A434D01F50000AD8B4E1D7010A83
:101B1000D8B4C2D72CD02E501F6E206A000E146E7F
:101B20001B0E136E44EC21F01F50135C2050145810
:101B3000D8A002D02E2A5AD0000E1A6E260E196E88
:101B4000000E1C6E010E1B6EC8EC1FF04FD02E5005
:101B5000D8B402D02E064AD0000E1A6E260E196E88
:101B6000000E1C6E000E1B6EC8EC1FF03FD081B43F
:101B700002D0010E01D0000E1F6E206A2050000A14
:101B8000D8A434D01F50000AD8B4E1D7010AD8B481
:101B9000C2D72CD038501F6E206A000E146E1B0E58
:101BA000136E44EC21F01F50135C20501458D8A041
:101BB00002D0382A53D0000E1A6E290E196E000E6C
:101BC0001C6E010E1B6EC8EC1FF048D03850D8B404
:101BD00002D0380643D0000E1A6E290E196E000E80
:101BE0001C6E000E1B6EC8EC1FF038D082A202D013
:101BF000010E01D0000E000AD8B4CCD7010AD8B427
:101C0000E5D72CD037501F6E206A000E146E1B0EC5
:101C1000136E44EC21F01F50135C20501458D8A0D0
:101C200002D0372A53D0000E1A6E2A0E196E000EFB
:101C30001C6E010E1B6EC8EC1FF048D03750D8B494
:101C400002D0370643D0000E1A6E2A0E196E000E0F
:101C50001C6E000E1B6EC8EC1FF038D083A802D09B
:101C6000010E01D0000E000AD8B4CCD7010AD8B4B6
:101C7000E5D72CD036501F6E206A000E146E1B0E56
:101C8000136E44EC21F01F50135C20501458D8A060
:101C900002D0362A53D0000E1A6E2B0E196E000E8B
:101CA0001C6E010E1B6EC8EC1FF048D03650D8B425
:101CB00002D0360643D0000E1A6E2B0E196E000E9F
:101CC0001C6E000E1B6EC8EC1FF038D084A202D030
:101CD000010E01D0000E000AD8B4CCD7010AD8B446
:101CE000E5D72CD035501F6E206A000E146E1B0EE7
:101CF000136E44EC21F01F50135C20501458D8A0F0
:101D000002D0352A1200000E1A6E2C0E196E000E2B
:101D10001C6E010E1B6EC8EC1FF012003550D8B4BB
:101D200002D035061200000E1A6E2C0E196E000E2F
:101D30001C6E000E1B6EC8EC1FF0120084A002D0B7
:101D4000010E01D0000E000AD8B4CCD7010AD8A4E5
:101D50001200E4D7000E146E000E136E14502EE124
:101D6000590E135CD8B02AD0D8901334D96E1434DD
:101D7000DA6E000ED926020EDA22000EDE6E000E9A
:101D8000DD6ED8901334D96E1434DA6E000ED92675
:101D9000010EDA22000EDE6E000EDD6ED8901334D6
:101DA000D96E1434DA6E000ED926030EDA22000E34
:101DB000DE6E000EDD6E134A142AD0D7000E02012B
:101DC000216F000E206F000E256F010E246F000E94
:101DD000276F010E266F000E296F010E286F000E6F
:101DE0002B6F010E2A6F000E2D6F010E2C6F000E4F
:101DF0002F6F010E2E6F000E316F010E306F000E2F
:101E0000336F010E326F000E356F010E346F000E0E
:101E1000376F010E366F000E396F000E386F000EEF
:101E20003B6F000E3A6F000E3D6F000E3C6F000ED0
:101E30003F6F000E3E6F000E416F000E406F000EB0
:101E4000436F000E426F000E456F000E446F000E90
:101E5000476F000E466F000E496F000E486F000E70
:101E60004B6F000E4A6F000E4D6F000E4C6F000E50
:101E70004F6F010E4E6F000E516F010E506F000E2E
:101E8000536F000E526F000E556F000E546F000E10
:101E9000576F000E566F000E596F000E586F000EF0
:101EA0005B6F010E5A6F000E5D6F010E5C6F000ECE
:101EB0005F6F010E5E6F000E616F010E606F000EAE
:101EC000636F010E626F000E656F010E646F000E8E
:101ED000676F010E666F000E696F010E686F000E6E
:101EE0006B6F010E6A6F000E6D6F010E6C6F000E4E
:101EF0006F6F010E6E6F000E716F010E706F000E2E
:101F0000736F010E726F000E756F010E746F000E0D
:101F1000776F010E766F000E796F010E786F000EED
:101F20007B6F000E7A6F000E7D6F000E7C6F000ECF
:101F30007F6F000E7E6F000E816F000E806F000EAF
:101F4000836F000E826F000E856F000E846F000E8F
:101F5000876F000E866F000E896F000E886F000E6F
:101F60008B6F000E8A6F000E8D6F010E8C6F000E4E
:101F70008F6F010E8E6F000E916F010E906F000E2D
:101F8000936F010E926F000E956F010E946F000E0D
:101F9000976F010E966F000E996F010E986F000EED
:101FA0009B6F010E9A6F000E9D6F010E9C6F000ECD
:101FB0009F6F010E9E6F000EA16F000EA06F000EAE
:101FC000A36F010EA26F000EA56F000EA46F000E8E
:101FD000A76F000EA66F000EA96F000EA86F000E6F
:101FE000AB6F000EAA6F000EAD6F000EAC6F000E4F
:101FF000AF6F010EAE6F000EB16F000EB06F000E2E
:102000000101216F590E206F270E256F100E246FCE
:10201000030E276F200E266F130E296F880E286F70
:10202000000E2B6F140E2A6F000E2D6F140E2C6FE6
:10203000000E2F6F6B0E2E6F000E316F6B0E306F18
:10204000000E336F500E326F000E356F2D0E346F51
:10205000000E376F140E366F000E396F000E386F9A
:10206000000E3B6F000E3A6F000E3D6F000E3C6F8E
:10207000000E3F6F000E3E6F000E416F000E406F6E
:10208000000E436F000E426F000E456F000E446F4E
:10209000000E476F000E466F000E496F000E486F2E
:1020A000000E4B6F000E4A6F000E4D6F000E4C6F0E
:1020B000000E4F6F000E4E6F000E516F000E506FEE
:1020C000000E536F000E526F000E556F000E546FCE
:1020D000000E576F000E566F000E596F000E586FAE
:1020E000000E5B6F000E5A6F000E5D6F500E5C6F3E
:1020F000000E5F6F780E5E6F000E616F000E606FF6
:10210000000E636F500E626F000E656F000E646FFD
:10211000000E676F000E666F000E696F780E686FB5
:10212000000E6B6F640E6A6F000E6D6F640E6C6F45
:10213000000E6F6F640E6E6F000E716F640E706F25
:10214000000E736F640E726F000E756F640E746F05
:10215000000E776F640E766F000E796F640E786FE5
:10216000000E7B6F000E7A6F000E7D6F000E7C6F8D
:10217000000E7F6F010E7E6F000E816F000E806F6C
:10218000000E836F000E826F000E856F000E846F4D
:10219000000E876F000E866F000E896F000E886F2D
:1021A000000E8B6F010E8A6F000E8D6F000E8C6F0C
:1021B000000E8F6F000E8E6F000E916F000E906FED
:1021C000000E936F000E926F000E956F000E946FCD
:1021D000000E976F000E966F000E996F000E986FAD
:1021E000000E9B6F000E9A6F000E9D6F000E9C6F8D
:1021F000000E9F6F000E9E6F000EA16F000EA06F6D
:10220000000EA36F000EA26F000EA56F010EA46F4B
:10221000000EA76F000EA66F000EA96F010EA86F2B
:10222000000EAB6F000EAA6F000EAD6F000EAC6F0C
:10223000000EAF6F000EAE6F010EB16FB0691200ED
:102240000001CE6F000E1A6E3D0E196ECEC01BF04F
:102250001C6AC8EC1FF0000E1A6E3E0E196ECDC03F
:102260001BF01C6AC8EC1FF0ACD1000E1F6E010EF3
:1022700045EC15F00009D8B418D0010E0001E06F4C
:10228000CAD1010E1F6E010E45EC15F0F3D7010EF9
:102290001F6E000E45EC15F0EDD7000E1F6E000E00
:1022A00045EC15F00009D8A4E8D7010E15D00001BF
:1022B000CE51010AD8B4EBD7030AD8B4EED7010A3D
:1022C000D8B4D3D7070AD8B4DCD7A5D1000E1F6E77
:1022D000010E45EC15F016D00001886F010EE06F7D
:1022E000CCD7010E1F6E010E45EC15F00BD0010E80
:1022F0001F6E000E45EC15F005D0000E1F6E000E8F
:1023000045EC15F00009D8A4B8D7020EE5D7CD5199
:10231000010AD8B4ECD7030AD8B4EFD7010AD8B46D
:10232000D5D7070AD8B4DDD776D15FEC19F008D03D
:102330005FEC19F005D0C3EC18F002D0C3EC18F034
:102340000009D8A49AD7030EC7D7CD51010AD8B433
:10235000F2D7030AD8B4F2D7010AD8B4E6D7070AED
:10236000D8B4E6D758D1000E146E1C0E136E44EC90
:1023700021F013041410D8B49BD0000E146E290E53
:10238000136E44EC21F013041410D8B432D0000EB4
:10239000146E2A0E136E44EC21F013041410D8B4FA
:1023A00034D0000E146E2C0E136E44EC21F0130486
:1023B0001410D8B436D0000E146E2B0E136E44ECED
:1023C00021F037D00001886F58D7000E146E1D0E13
:1023D000136E44EC21F013041410D8B469D0000E2D
:1023E000146E290E136E44EC21F013041410D8A4BB
:1023F00002D0050EE7D7000E146E2A0E136E44ECC1
:1024000021F013041410D8A402D0060EDBD7000E5E
:10241000146E2C0E136E44EC21F013041410D8A487
:1024200002D0070ECFD7000E146E2B0E136E44ECA5
:1024300021F013041410D8A420D7080EC3D7000E1F
:10244000146E1E0E136E44EC21F013041410D8B455
:102450002FD0000E146E290E136E44EC21F01304DD
:102460001410D8B431D0000E146E2A0E136E44EC42
:1024700021F013041410D8B433D0000E146E2C0EB7
:10248000136E44EC21F013041410D8B435D0000EB0
:10249000146E2B0E136E44EC21F036D0000E146E29
:1024A0001F0E136E44EC21F013041410D8A402D0B4
:1024B000040E88D7000E146E290E136E44EC21F022
:1024C00013041410D8A402D00C0E7CD7000E146E86
:1024D0002A0E136E44EC21F013041410D8A402D079
:1024E0000B0E70D7000E146E2C0E136E44EC21F000
:1024F00013041410D8A402D00A0E64D7000E146E70
:102500002B0E136E44EC21F013041410D8A4B5D68E
:10251000090E58D7CD51010AD8B491D7030AD8B4BF
:10252000BDD7010AD8B41FD7070AD8B44ED773D085
:1025300084EC17F008D084EC17F005D0E1EC16F02D
:1025400002D0E1EC16F00009D8A497D6000E0001E5
:10255000886F000E94D6CD51010AD8B4EFD7030A84
:10256000D8B4EFD7010AD8B4E3D7070AD8B4E3D771
:1025700052D0010E2DEC1CF01BD0020E2DEC1CF0E5
:1025800017D0030E19EC1BF013D0040E19EC1BF03E
:102590000FD0040E8FEC1AF00BD0030E8FEC1AF054
:1025A00007D0020EB6EC1CF003D0010EB6EC1CF006
:1025B0000009D8A462D6030E05D7000E886F010E5D
:1025C0005ED600018851000AD8B471D6010AD8B489
:1025D0009ED6030AD8B4B9D6010AD8B49BD7070A45
:1025E000D8B4B9D7010AD8B4C4D7030AD8B4C5D768
:1025F000010AD8B4C6D70F0AD8B4C7D7010AD8B4CD
:10260000C8D7030AD8B4C9D7010AD8B4CAD7070AA9
:10261000D8B4CBD7D2D7E0511200110E00016C5DB7
:10262000270E6D59D8A013D1000E6D6F000E6C6F80
:10263000E9D08C0E726F000E736F8C0E706F000EEF
:10264000716F000E6F6F010E6E6F12008C0E706F47
:10265000000E716F7251701904E173517119D8B481
:1026600012008CC0D8F08DC0D9F08EC0DAF08FC0C7
:10267000DBF025EC21F0040E00017027000E712321
:10268000000E6F6F020E6E6F12007251701904E12E
:1026900073517119D8B4120090C0D8F091C0D9F01C
:1026A00092C0DAF093C0DBF025EC21F0040E0001BB
:1026B0007027000E7123000E6F6F030E6E6F1200F5
:1026C0007251701904E173517119D8B4120094C099
:1026D000D8F095C0D9F096C0DAF097C0DBF025ECC1
:1026E00021F0040E00017027000E7123000E6F6FA1
:1026F000040E6E6F12007251701904E1735171195A
:10270000D8B4120098C0D8F099C0D9F09AC0DAF0C5
:102710009BC0DBF025EC21F0040E00017027000EB9
:102720007123000E6F6F050E6E6F120072517019DB
:1027300004E173517119D8B412009CC0D8F09DC047
:10274000D9F09EC0DAF09FC0DBF025EC21F0040E3A
:1027500000017027000E7123000E6F6F060E6E6F62
:1027600012007251701904E173517119D8B412003A
:10277000A0C0D8F0A1C0D9F0A2C0DAF0A3C0DBF0AD
:1027800025EC21F0040E00017027000E7123000ECD
:102790006F6F070E6E6F12007251701904E1735162
:1027A0007119D8B41200A4C0D8F0A5C0D9F0A6C041
:1027B000DAF0A7C0DBF025EC21F0040E0001702751
:1027C000000E7123000E6F6F080E6E6F12007251B3
:1027D000701904E173517119D8B41200A8C0D8F06F
:1027E000A9C0D9F0AAC0DAF0ABC0DBF025EC21F02B
:1027F0008C0E0001706F000E716F000E6F6F010E76
:102800006E6F12006EC020F06FC021F02150000AE0
:10281000D8A412002050000AD8B40BD7010AD8B4AB
:1028200015D7030AD8B431D7010AD8B449D7070A53
:10283000D8B461D7010AD8B479D7030AD8B491D7EC
:10284000010AD8B4A9D70F0AD8A41200C0D76C4B7C
:102850006D2B1200F8D08C0E0001726F000E736F9A
:1028600072C0D9FF73C0DAFF13C0DEFF14C0DDFFF2
:10287000020E7227000E732372C0D9FF73C0DAFFF5
:1028800015C0DEFF16C0DDFF020E7227000E732397
:10289000000E756F010E746F120072C0D9FF73C005
:1028A000DAFF13C0DEFF14C0DDFF020E0001722745
:1028B000000E732372C0D9FF73C0DAFF15C0DEFFAC
:1028C00016C0DDFF020E7227000E7323000E756F17
:1028D000020E746F120072C0D9FF73C0DAFF13C00A
:1028E000DEFF14C0DDFF020E00017227000E73230D
:1028F00072C0D9FF73C0DAFF15C0DEFF16C0DDFF5E
:10290000020E7227000E7323000E756F030E746F94
:10291000120072C0D9FF73C0DAFF13C0DEFF14C00B
:10292000DDFF020E00017227000E732372C0D9FF73
:1029300073C0DAFF15C0DEFF16C0DDFF020E72277E
:10294000000E7323000E756F040E746F120072C0B8
:10295000D9FF73C0DAFF13C0DEFF14C0DDFF020E23
:1029600000017227000E732372C0D9FF73C0DAFF13
:1029700015C0DEFF16C0DDFF020E7227000E7323A6
:10298000000E756F050E746F120072C0D9FF73C010
:10299000DAFF13C0DEFF14C0DDFF020E0001722754
:1029A000000E732372C0D9FF73C0DAFF15C0DEFFBB
:1029B00016C0DDFF020E7227000E7323000E756F26
:1029C000060E746F120072C0D9FF73C0DAFF13C015
:1029D000DEFF14C0DDFF020E00017227000E73231C
:1029E00072C0D9FF73C0DAFF15C0DEFF16C0DDFF6D
:1029F000020E7227000E7323000E756F070E746FA0
:102A0000120072C0D9FF73C0DAFF13C0DEFF14C01A
:102A1000DDFF020E00017227000E732372C0D9FF82
:102A200073C0DAFF15C0DEFF16C0DDFF020E72278D
:102A3000000E73238C0E726F000E736F000E756F95
:102A4000000E746F120074C017F075C018F01850A3
:102A5000000AD8A412001750000AD8B4FCD6010A04
:102A6000D8B41BD7030AD8B436D7010AD8B451D783
:102A7000070AD8B46CD7010AD8B487D7030AD8B4E8
:102A8000A2D7010AD8A41200BCD7206EE2D0010E52
:102A90004C6E8CD0000E1A6E400E196E000E1C6E1D
:102AA000010E1B6EC8EC1FF0000E1A6E520E196E4E
:102AB000000E1C6E010E1B6EC8EC1FF0000E1A6E8D
:102AC000530E196E000E1C6E000E1B6EC8EC1FF02C
:102AD00074D0000E1A6E410E196E000E1C6E010E9F
:102AE0001B6EC8EC1FF0000E1A6E520E196E000E0F
:102AF0001C6E000E1B6EC8EC1FF0000E1A6E530EFB
:102B0000196E000E1C6E010E1B6EC8EC1FF055D026
:102B10001F50000AD8B4BED7010AD8B4DAD74DD0B6
:102B2000000E1A6E420E196E000E1C6E010E1B6E08
:102B3000C8EC1FF0000E1A6E540E196E000E1C6EBB
:102B4000010E1B6EC8EC1FF0000E1A6E550E196EAA
:102B5000000E1C6E000E1B6EC8EC1FF02ED0000E77
:102B60001A6E430E196E000E1C6E010E1B6EC8EC21
:102B70001FF0000E1A6E540E196E000E1C6E000E21
:102B80001B6EC8EC1FF0000E1A6E550E196E000E6B
:102B90001C6E010E1B6EC8EC1FF00FD01F50000AF8
:102BA000D8B4BED7010AD8B4DAD707D02050000A6B
:102BB000D8B4AED7010AD8B4F1D7010E2D6E53D0D8
:102BC000000E146E130E136E44EC21F0135000012E
:102BD0006A5D14506B59D8A008D0020E2D6E000EFD
:102BE0006B6F000E6A6F010E32D0010E4C6E010E3B
:102BF0002D6E6A4B6B2B37D0000E1A6E400E196E7D
:102C0000000E1C6E000E1B6EC8EC1FF0000E1A6E3C
:102C1000410E196E000E1C6E000E1B6EC8EC1FF0EC
:102C2000000E1A6E420E196E000E1C6E000E1B6E08
:102C3000C8EC1FF0000E1A6E430E196E000E1C6ECB
:102C4000000E1B6EC8EC1FF0000E2D6E000E4C6EB9
:102C50000AD02D50000AD8B41AD7010AD8B4B0D778
:102C6000030AD8B4C9D74C501200730E0001AC1936
:102C7000D8A463D0AE0E786F000E796F78C019F0CB
:102C800079C01AF0AEEC1DF019C022F01AC023F082
:102C9000B10E0001786F000E796F78C019F079C01D
:102CA0001AF0AEEC1DF019C020F01AC021F022C0BD
:102CB00013F023C014F052EC21F013501410D8A4D8
:102CC00008D0550E0001CB6F080ECC6FFAEC19F04E
:102CD000120023500CE10F0E225CD8B008D05C0E1D
:102CE0000001CB6F080ECC6FFAEC19F012002350E4
:102CF00004E15A0E225CD8A008D0630E0001CB6F0D
:102D0000080ECC6FFAEC19F0120020280BE12128F4
:102D1000D8A408D06A0E0001CB6F080ECC6FFAEC75
:102D200019F0120022C015F023C016F020C017F0D1
:102D300021C018F07CEC20F01200670E0001AC19E5
:102D4000D8A41200AE0E786F000E796F78C019F01B
:102D500079C01AF0AEEC1DF019C022F01AC023F0B1
:102D600023500CE10F0E225CD8B008D05C0E00019D
:102D7000CB6F080ECC6FFAEC19F01200235004E16F
:102D80005A0E225CD8A008D0630E0001CB6F080E4B
:102D9000CC6FFAEC19F0120022C013F023C014F02B
:102DA00044EC21F013C020F014C021F022C013F035
:102DB00023C014F020C015F021C016F02AEC14F046
:102DC000120092D080C01FF081C020F0000E216E52
:102DD00015EC1EF0010E0001DE6F000E146E150ED4
:102DE000136E44EC21F000018051135C81511458A2
:102DF000D8A002D0010E74D0000E146E190E136EFE
:102E000044EC21F013500001685D14506959D8A0BA
:102E100008D08007D8A08107000E696F000E686F88
:102E200071D0684B692B6ED0000E146E120E136EAB
:102E300044EC21F013500001645D14506559D8A092
:102E400007D0020E826F000E656F000E646F49D0CE
:102E5000010EDE6F644B652B010E826F53D0000EA6
:102E6000146E150E136E44EC21F013C0CBF014C099
:102E7000CCF0CBC01FF0CCC020F0000E216E15ECC2
:102E80001EF0000E1A6E450E196E000E1C6E010E1D
:102E90001B6EC8EC1FF0000E146E150E136E44EC82
:102EA00021F013C080F014C081F0030E000118D08F
:102EB000000E146E140E136E44EC21F0135000013A
:102EC000645D14506559D8A008D0000E826F000EC2
:102ED000656F000E646F000E05D0644B652B030E0A
:102EE000826F010EDE6F0ED000018251000AD8B44D
:102EF00069D7010AD8B498D7030AD8B4B0D7010A61
:102F0000D8B4D6D7DE5112008FD080C01FF081C058
:102F100020F0010E216E15EC1EF0000E146E160E40
:102F2000136E44EC21F000018051135C8151145860
:102F3000D8A002D0010E74D0000E146E190E136EBC
:102F400044EC21F013500001685D14506959D8A079
:102F500008D08007D8A08107000E696F000E686F47
:102F600060D0684B692B5DD0000E146E120E136E8C
:102F700044EC21F013500001605D14506159D8A059
:102F800007D0020E826F000E616F000E606F49D095
:102F9000010EDC6F604B612B010E826F53D0000E6F
:102FA000146E160E136E44EC21F013C0CBF014C057
:102FB000CCF0CBC01FF0CCC020F0010E216E15EC80
:102FC0001EF0000E1A6E450E196E000E1C6E010EDC
:102FD0001B6EC8EC1FF0000E146E160E136E44EC40
:102FE00021F013C080F014C081F0030E000118D04E
:102FF000000E146E140E136E44EC21F013500001F9
:10300000605D14506159D8A008D0000E826F000E88
:10301000616F000E606F000E05D0604B612B030ED8
:10302000826F010EDC6F0ED000018251000AD8B40D
:103030006CD7010AD8B498D7030AD8B4B0D7010A1C
:10304000D8B4D6D7DC511200000E246E000E236EC9
:10305000245005E11C0E235CD8B0120001D01200F0
:10306000D8902334F66E2434F76E010EF626080E3F
:10307000F7220900F5CF1BF00900F5CF1CF0D8901E
:103080001B361C36000E1B24D96E030E1C20DA6E74
:10309000D8902334F66E2434F76E010EF626080E0F
:1030A000F7220900F5CF1FF00900F5CF20F0D890E6
:1030B0001F362036000E1F24E16E010E2020E26E26
:1030C000DE50E61804E1DE50E618D8B456D023C02E
:1030D00013F024C014F0D8902334F66E2434F76E25
:1030E000010EF626080EF7220900F5CF1BF00900A5
:1030F000F5CF1CF0D8901B361C36000E1B24D96E61
:10310000010E1C20DA6EDECF15F0DDCF16F073EC69
:103110001FF0D8902334F66E2434F76E010EF62695
:10312000080EF7220900F5CF1BF00900F5CF1CF0BF
:10313000D8901B361C36000E1B24D96E010E1C20A5
:10314000DA6ED8902334F66E2434F76E010EF6262C
:10315000080EF7220900F5CF1DF00900F5CF1EF08B
:10316000D8901D361E36000E1D24E16E030E1E2063
:10317000E26EDECFE6FFDDCFE5FF234A242A2450AE
:1031800001E168D712008BD0000E146E140E136E7E
:1031900044EC21F013500001665D14506759D8A02B
:1031A00002D0010E3ED0664B672B000E43D0010EBD
:1031B000DF6F83D0000E146E150E136E44EC21F0F9
:1031C00013C0CBF014C0CCF0CBC01FF0CCC020F0AB
:1031D000000E216E15EC1EF0000E146E150E136E0F
:1031E00044EC21F013C080F014C081F0000E1A6E80
:1031F000450E196E000E1C6E000E1B6EC8EC1FF003
:10320000020E000117D0000E146E120E136E44EC65
:1032100021F013500001665D14506759D8A007D003
:10322000030E826F000E676F000E666FC0D7664B8D
:10323000672B020E826FBBD780C01FF081C020F0C9
:10324000000E216E15EC1EF0010E0001DF6F000E66
:10325000146E180E136E44EC21F013500001805DC3
:1032600014508159D8A004D0000E826F000EA0D750
:10327000000E146E1A0E136E44EC21F01350000170
:10328000685D14506959D8A007D0804B812B000E7F
:10329000696F000E686F11D0684B692B0ED000016A
:1032A0008251000AD8B470D7010AD8B483D7030A70
:1032B000D8B4A9D7010AD8B4BFD7DF5112008AD039
:1032C000000E146E140E136E44EC21F01350000126
:1032D000625D14506359D8A002D0010E3DD0624BFC
:1032E000632B000E826F73D0000E146E160E136ED9
:1032F00044EC21F013C0CBF014C0CCF0CBC01FF0D5
:10330000CCC020F0010E216E15EC1EF0000E146EE4
:10331000160E136E44EC21F013C080F014C081F03F
:10332000000E1A6E450E196E000E1C6E000E1B6EFE
:10333000C8EC1FF0010E0001DD6F18D0000E146EF6
:10334000120E136E44EC21F013500001625D145014
:103350006359D8A007D0030E826F000E636F000E72
:10336000626F35D0010EDD6F624B632B020E826FF0
:103370003FD080C01FF081C020F0010E216E15ECFF
:103380001EF0000E146E170E136E44EC21F0135055
:103390000001805D14508159D8A004D0000E826FC6
:1033A000000E16D0000E146E1A0E136E44EC21F0AF
:1033B00013500001685D14506959D8A006D0804BA5
:1033C000812B000E696F000E686F684B692B010E30
:1033D000DD6F0ED000018251000AD8B471D7010A06
:1033E000D8B482D7030AD8B4A9D7010AD8B4C1D7B0
:1033F000DD511200CD0E0001D16F000ED26F81D0D1
:10340000250ED719D8B404D0D7516CEC21F079D05F
:10341000000E0001D36FCBC0F6FFCCC0F7FFCB4B43
:10342000CC2B0800F5CFD7F0D751000AD8B4120042
:10343000640AD8B403D00D0AD8A463D0D1C0D9FF90
:10344000D2C0DAFFDECFD5F0DDCFD6F0020ED12725
:10345000000ED223D6AF06D0030ED313D56DD61FE0
:10346000D8B0D62B010ED76F050ED719D8B412D00D
:10347000D751020D390EF324F66E080EF420F76EC4
:103480000900F550D55D0900F550D659D8A002D0F5
:10349000D72BEAD7D3C01FF0030E1F16D8B403D022
:1034A0002D0E6CEC21F0D7C0D4F026D00001D45101
:1034B000020D390EF324F66E080EF420F76E0900A3
:1034C000F5CF15F00A00F5CF16F0D5C013F0D6C031
:1034D00014F09FEC1FF013C01AF014C01BF0000E84
:1034E0001D6E0A0E1C6E3BEC20F01A50300F0001CE
:1034F000D76FD7516CEC21F00001D407D429D8A4A0
:10350000D5D7CBC0F6FFCCC0F7FF0001CB4BCC2BFF
:103510000800F5CFD7F0D751D8B4120071D7000109
:10352000CB6F7ED0030E0001CB19D8B40CD0000EA7
:10353000146E350E136E44EC21F01350265C1450BB
:103540002758D8A007D0010E2C6E000E276E000E53
:10355000266E63D0264A272A60D0040E0001CB19BC
:10356000D8A426D080C01FF081C020F0000E216EAC
:1035700015EC1EF0000E146E2E0E136E44EC21F0AE
:1035800000018051135C81511458D8B02AD0000E2C
:10359000146E1A0E136E44EC21F013500001685D96
:1035A00014506959D8A037D08007D8A081072ED0F1
:1035B000030ECB19D8A431D080C01FF081C020F0F9
:1035C000000E216E15EC1EF0000E146E180E136E18
:1035D00044EC21F013500001805D14508159D8A0B3
:1035E00006D0000E826F000E2C6E000E17D0000E5B
:1035F000146E1A0E136E44EC21F013500001685D36
:1036000014506959D8A007D0804B812B000E696FE8
:10361000000E686F02D0684B692B010E4B6E07D00D
:103620002C50000AD8B47ED7010AD8B496D74B5094
:1036300012000001CB6F7ED0040E0001CB19D8B46C
:103640000CD0000E146E380E136E44EC21F01350A3
:10365000265C14502758D8A007D0010E2C6E000EFF
:10366000276E000E266E63D0264A272A60D0030EEE
:103670000001CB19D8A425D080C01FF081C020F054
:10368000010E216E15EC1EF0000E146E2F0E136E3F
:1036900044EC21F013500001805D14508159D8B0E2
:1036A00029D0000E146E1A0E136E44EC21F0135044
:1036B0000001685D14506959D8A037D0804B812B28
:1036C0002FD0040ECB19D8A432D080C01FF081C0F7
:1036D00020F0010E216E15EC1EF0000E146E170E78
:1036E000136E44EC21F000018051135C8151145899
:1036F000D8A006D0000E826F000E2C6E000E18D0DF
:10370000000E146E1A0E136E44EC21F013500001DB
:10371000685D14506959D8A008D08007D8A08107E7
:10372000000E696F000E686F02D0684B692B010EA6
:10373000486E07D02C50000AD8B47ED7010AD8B4FE
:1037400096D7485012003D50D8B47BD0B7EC20F04B
:103750000001866F6BD0AC0E786F000E796FFF0E94
:10376000D86FFF0ED96F430EF66E080EF76E080085
:10377000F550DA6FDB6BD851DA27D951DB23AC0E69
:10378000DA25766F000EDB21776F730E8619D8B4B9
:1037900004D0670E8619D8A40AD078C0D9FF79C0A2
:1037A000DAFF86C0DFFF784B792B010E3DD0000E8B
:1037B0003BD0780E8619D8A4FAD778C0D9FF79C043
:1037C000DAFF86C0DFFF2DD0470E8619D8B409D0A6
:1037D00013D078C0D9FF79C0DAFF000EDF6E784BC6
:1037E000792B7651785D77517959D8A0F2D7030EAD
:1037F000856F010E846F25D078C0D9FF79C0DAFFBC
:1038000086C0DFFF7851765D79517759D8B009D0FD
:103810004E0ECB6F080ECC6FFAEC19F0000E0001C3
:1038200003D0784B792B020E856F0BD08551000A9F
:10383000D8B491D7010AD8B4BCD7030AD8B4C4D736
:10384000010A00018405D8A4120035EC16F0000E20
:103850000001846F000E856F12000001CB6F7DD0D8
:10386000020E0001CB19D8B40CD0000E146E3B0E22
:10387000136E44EC21F01350265C14502758D8A046
:1038800007D0010E2C6E000E276E000E266E62D041
:10389000264A272A5FD00001CB05D8A426D080C0B5
:1038A0001FF081C020F0010E216E15EC1EF0000EFD
:1038B000146E310E136E44EC21F000018051135C44
:1038C00081511458D8B02AD0000E146E1A0E136EFF
:1038D00044EC21F013500001685D14506959D8A0E0
:1038E00037D08007D8A081072ED0020ECB19D8A4DC
:1038F00031D080C01FF081C020F0010E216E15EC88
:103900001EF0000E146E170E136E44EC21F01350CF
:103910000001805D14508159D8A006D0000E826F3E
:10392000000E2C6E000E17D0000E146E1A0E136EC1
:1039300044EC21F013500001685D14506959D8A07F
:1039400007D0804B812B000E696F000E686F02D08C
:10395000684B692B010E496E07D02C50000AD8B471
:103960007FD7010AD8B497D7495012000001CB6F16
:103970007CD00001CB05D8B40CD0000E146E3A0EEA
:10398000136E44EC21F01350265C14502758D8A035
:1039900007D0010E2C6E000E276E000E266E62D030
:1039A000264A272A5FD0020E0001CB19D8A425D0C1
:1039B00080C01FF081C020F0000E216E15EC1EF0BB
:1039C000000E146E340E136E44EC21F013500001FF
:1039D000805D14508159D8B028D0000E146E1A0E94
:1039E000136E44EC21F013500001685D14506959C6
:1039F000D8A036D0804B812B2ED0CB05D8A432D086
:103A000080C01FF081C020F0000E216E15EC1EF06A
:103A1000000E146E180E136E44EC21F0000180515C
:103A2000135C81511458D8A006D0000E826F000E8E
:103A30002C6E000E18D0000E146E1A0E136E44EC8D
:103A400021F013500001685D14506959D8A008D0C6
:103A50008007D8A08107000E696F000E686F02D042
:103A6000684B692B010E4A6E07D02C50000AD8B45F
:103A700080D7010AD8B497D74A5012000600FACF6F
:103A800001F0FBCF02F0E9CF03F0EACF04F0E1CF81
:103A900005F0E2CF06F0D9CF07F0DACF08F0F3CF88
:103AA00009F0F4CF0AF0F6CF0BF0F7CF0CF0F8CF17
:103AB0000DF0F5CF0EF04DC00FF04EC010F04FC01E
:103AC00011F050C012F0F2A419D000017F5106E1AC
:103AD000650E7E5DD8B002D0808801D08098BC0E83
:103AE0007E5D020E7F59D8A004D0000E7F6F000EBD
:103AF0007E6F7E4B7F2B010E8B6FF2949DBA9EAA38
:103B000002D0E8EC20F09DB89EA802D0D1EC20F0C5
:103B100012C050F011C04FF010C04EF00FC04DF069
:103B20000EC0F5FF0DC0F8FF0CC0F7FF0BC0F6FF8D
:103B30000AC0F4FF09C0F3FF08C0DAFF07C0D9FFCD
:103B400006C0E2FF05C0E1FF04C0EAFF03C0E9FFD1
:103B500002C0FBFF01C0FAFF4D92110002D0194ACA
:103B60001A2A19C0D9FF1AC0DAFF200EDE18D8B4FD
:103B7000F6D719C0D9FF1AC0DAFF090EDE18D8B47B
:103B8000EED7000E1F6E000E1E6E000E1D6E19C0C9
:103B9000D9FF1AC0DAFF2D0EDE18D8A402D01D2AD4
:103BA00024D019C0D9FF1AC0DAFF2B0EDE18D8A412
:103BB0001ED01BD01EC013F01FC014F0000E166ED6
:103BC0000A0E156E12EC21F019C0D9FF1AC0DAFFE7
:103BD000DF501B6E1C6A13501B2614501C22D00E83
:103BE0001B241E6EFF0E1C201F6E194A1A2A19C0B4
:103BF000D9FF1AC0DAFFDF5035EC21F0D8B0DAD7A0
:103C00001D50D8B40DD01EC01BF01FC01CF01B1ED1
:103C10001C1E1B4A1C2A1BC019F01CC01AF01200E3
:103C20001EC019F01FC01AF01200010E256E246884
:103C30002150226E236A000E146E560E136E44EC51
:103C400021F02250131804E123501418D8B409D0DD
:103C5000000E1A6E560E196E21C01BF01C6AC8ECBD
:103C60001FF02150D8A41CD01FC022F020C023F088
:103C7000D89022362336221E231E224A232AFF0EE4
:103C80002224246E010E2320256E000E1A6E580E7B
:103C9000196E24C01BF025C01CF0C8EC1FF01200E8
:103CA0002104D8A412001FC022F020C023F0D89015
:103CB00022362336FF0E2224246E010E2320256E89
:103CC000000E1A6E580E196E24C01BF025C01CF091
:103CD000C8EC1FF01200E40EF66E420EF76E000EF6
:103CE000F86E00EEDCF010EE06F00900F5CFEEFF06
:103CF000E550E150FAE1EA0EF66E420EF76E000E64
:103D0000F86E00EE48F010EE05F00900F5CFEEFF7A
:103D1000E550E150FAE104EE00F0FC0EEE6AE80630
:103D2000FDE103EE00F0B20EEE6AE806FDE102EE00
:103D300000F0B20EEE6AE806FDE101EE00F0B20E10
:103D4000EE6AE806FDE100EE60F0560EEE6AE80667
:103D5000FDE100EE26F0220EEE6AE806FDE14D9050
:103D60004D92000EF86E000136EF1FF0136E30D04A
:103D7000839A1200838A1200284A292AB80E285CE6
:103D80000B0E2958D8A004D0000E296E000E286E04
:103D9000DC0E285C050E2958D8A002D0838A1200B8
:103DA000839A1200284A292AE80E285C030E295813
:103DB000D8A004D0000E296E000E286EF40E285CE8
:103DC000010E2958D8A002D0838A1200839A1200CB
:103DD0001350000AD8B4CCD7010AD8B4CBD7030A01
:103DE000D8B4CAD7010AD8A41200DCD7136E30D0D9
:103DF000839C1200838C12002A4A2B2AB80E2A5C5C
:103E00000B0E2B58D8A004D0000E2B6E000E2A6E7D
:103E1000DC0E2A5C050E2B58D8A002D0838C120031
:103E2000839C12002A4A2B2AE80E2A5C030E2B5888
:103E3000D8A004D0000E2B6E000E2A6EF40E2A5C61
:103E4000010E2B58D8A002D0838C1200839C120044
:103E50001350000AD8B4CCD7010AD8B4CBD7030A80
:103E6000D8B4CAD7010AD8A41200DCD792689368E4
:103E70009468956896680F0EC16E070EB46E92989E
:103E8000959A959C8098839C839A92909292929412
:103E90009296809680948092809095849586958065
:103EA000958294829588968096829380938293845B
:103EB00093869388938A958EAAEC0EF0FEEC20F000
:103EC00060EC21F017EC20F05CEC20F000018B0599
:103ED000D8A404D0000E8B6F39EC04F0A3EC1BF0D7
:103EE0000DEC13F0F3D7D8901334196E14341A6E06
:103EF000010E1924176E000E1A20186E000EF26EB5
:103F0000A69EA68417C0A9FF15C0A8FF550EA76ED0
:103F1000AA0EA76EA682A1A8FED7A198A69EA684E7
:103F200019C0A9FF1650A86E550EA76EAA0EA76E4F
:103F3000A682A1A8FED7A198A00EF26E1200000ED4
:103F4000196E000E186E15501610D8B41CD0010E44
:103F5000176E04D0D89015361636172A16AEFAD733
:103F6000D890183619361550135C16501458D8A02E
:103F700005D01550135E1650145A1880D89016327A
:103F80001532172EEDD718C013F019C014F0120017
:103F9000D8901934D96E1A34DA6E000ED926010E73
:103FA000DA221B50DE1804E11C50DE18D8B41200CF
:103FB000D8901934D96E1A34DA6E000ED926010E53
:103FC000DA221BC0DEFF1CC0DDFF19C013F01AC0CF
:103FD00014F01BC015F01CC016F02AEC14F01200EF
:103FE000D8901334176E1434186E010E1724156E02
:103FF000000E1820166E000E1A6E000E196EA69E88
:1040000017C0A9FFA680A8CF19F01A6A19501A6E16
:10401000196AA69E15C0A9FFA6801950A810196E8E
:104020001A501A6E19C013F01AC014F012009D9A9B
:104030009D98B886AB8EAB9CAB88AB96AC9CAC8A9B
:10404000AC98AC96AC84AC82AC90010E146EA10E10
:10405000136E1450B06E13C0AFFF000E426E000E10
:10406000416E7E0E406E000E3F6E000E3E6E000EE4
:104070003D6E9D8A12001C501D10D8B418D0010E40
:104080001E6E04D0D8901C361D361E2A1DAEFAD7DF
:104090001C501A5C1D501B58D8A004D01C501A5E2E
:1040A0001D501B5AD8901D321C321E2EF1D71AC03B
:1040B0001AF01BC01BF01200000E1E6E000E1D6ECB
:1040C000000E1C6E000E1B6E000E1E6E000E1D6E8E
:1040D0001E5011E11C0E1D5CD8B012001DC013F063
:1040E0001EC014F0F0EC1FF013C01BF014C01CF045
:1040F0001D4A1E2AEDD71200D8901534D96E1634F9
:10410000DA6E000ED926010EDA221750DE1804E10D
:104110001850DE18D8B41200D8901534D96E163461
:10412000DA6E000ED926010EDA2217C0DEFF18C0A3
:10413000DDFF120015C017F016C018F0060ED8905B
:1041400017361836E82EFBD717C019F018C01AF02A
:104150001AC0BEFF19C017F0D8901732D890173286
:10416000300E1716BD50CF0B1710BD6E1200000E8B
:10417000136E3D50D8B4FDD79D9A3E50010D000EF0
:10418000F324D96E040EF420DA6EDF50136E3E2A4B
:104190007D0E3E6402D0000E3E6E3D069D8A135099
:1041A00012007E0E406012D04150010D7E0EF324AD
:1041B000D96E040EF420DA6EDF50AD6E412A7D0E0A
:1041C000416402D0000E416E402A12009D981200F8
:1041D000ABA202D0AB98AB883F50010D000EF32488
:1041E000D96E040EF420DA6EAECFDFFF3F2A7D0ECB
:1041F0003F6402D0000E3F6E3D2A1200000E1A6E80
:10420000450E196E000E1C6E010E1B6EC8EC1FF0E1
:10421000CB687F0EBE6E0F0EBD6E040ECA6E9494F8
:104220009490120013501502F3CF17F0F4CF18F04A
:1042300013501602F350182614501502F350182686
:1042400017C013F018C014F01200440E0001CB6F19
:10425000080ECC6FD8C0CDF0D9C0CEF0DAC0CFF008
:10426000DBC0D0F0FAEC19F01200156E000E146EDF
:104270003A0E156005D02F0E156402D0010E146E93
:1042800014C013F013301200D8901334D96E1434C4
:10429000DA6E000ED926010EDA22DECF13F0DDCF62
:1042A00014F01200D8901334D96E1434DA6E000E64
:1042B000D926020EDA22DECF13F0DDCF14F0120081
:1042C000D08EA00EF26E840EF16E000ED76E000E30
:1042D000D66EC30ED56E1200136E9EA8FED713C005
:0F42E000ADFF1200010101010101010101010106
:020000040020DA
:08000000FFFFFFFFFFFFFFFF00
:020000040030CA
:0E0000002C0E1800FF8181FF0FC00FE00F4093
:00000001FF
