:0400000053EF00F0CA
:0E0008004082FACF01F0FBCF02F0E4ED1AF0D7
:100018004080D8CF0FF0E8CF10F0E0CF11F0FACF42
:1000280012F0FBCF13F0E9CF14F0EACF15F0E1CFCF
:1000380016F0E2CF17F0D9CF18F0DACF19F0F3CFD6
:100048001AF0F4CF1BF0F6CF1CF0F7CF1DF0F8CF65
:100058001EF0F5CF1FF01FC0F5FF1EC0F8FF1DC032
:10006800F7FF1CC0F6FF1BC0F4FF1AC0F3FF19C04E
:10007800DAFF18C0D9FF17C0E2FF16C0E1FF15C0AC
:10008800EAFF14C0E9FF13C0FBFF12C0FAFF11C05A
:10009800E0FF10C0E8FF0FC0D8FF409010008EEFBF
:0200A8001CF04A
:100800000001000A006400E80310270A0D0A4D23C6
:1008100025642025640D0A000D0A452331300D0A98
:10082000000D0A452331310D0A000D0A45233132EE
:100830000D0A000D0A452331330D0A000D0A452328
:1008400031340D0A0000480E20EC1EF000018F51DB
:1008500000019011D8B409D0000E0001AC6F000E59
:10086000AB6F480EF1EC1CF0FF001DEC0AF002EF3C
:100870000AF04A0E20EC1EF000018F510001901189
:10088000D8B414D0010E0001B06F000EC4EC15F006
:100890000009D8A40EEF0AF0000E0001AC6F000EA4
:1008A000AB6F4A0EF1EC1CF00EEF0AF0490E20EC93
:1008B0001EF000018F5100019011D8B414D0000E29
:1008C0000001B06F000EC4EC15F00009D8A40EEFC3
:1008D0000AF0000E0001AC6F000EAB6F490EF1EC98
:1008E0001CF00EEF0AF04C0E20EC1EF000018F51B0
:1008F00000019011D8B414D0010E0001B06F010EA8
:10090000C4EC15F00009D8A40EEF0AF0000E0001A7
:10091000AC6F000EAB6F4C0EF1EC1CF00EEF0AF05A
:100920004B0E20EC1EF000018F5100019011D8B445
:1009300014D0000E0001B06F010EC4EC15F00009D8
:10094000D8A40EEF0AF0000E0001AC6F000EAB6FE2
:100950004B0EF1EC1CF00EEF0AF04D0E20EC1EF0E9
:1009600000018F5100019011D8B412D0000E000187
:10097000AC6F010EAB6F450EF1EC1CF0000E0001E8
:10098000AC6F000EAB6F4D0EF1EC1CF00EEF0AF0E9
:100990004E0E20EC1EF000018F5100019011D8B4D2
:1009A00012D0000E0001AC6F000EAB6F450EF1ECE3
:1009B0001CF0000E0001AC6F000EAB6F4E0EF1ECA0
:1009C0001CF00EEF0AF0440E20EC1EF08FC0BAF0BF
:1009D00090C0BBF04F0E20EC1EF000018F510001C3
:1009E000BA1906E1000190510001BB19D8B4A9D38E
:1009F0004F0E20EC1EF08FC091F090C092F0440E8C
:100A000063EC1DF0510E20EC1EF08FC091F090C0F1
:100A100092F0440E20EC1EF000018F5163EC1DF0AB
:100A20000EEF0AF0000ED8EC1BF0000E98EC1BF055
:100A3000010E12D0230E20EC1EF000018F51000198
:100A40009011D8B40DD0000E0001AC6F010EAB6F49
:100A5000270EF1EC1CF04BD000017E6F0EEF0AF078
:100A6000240E20EC1EF000018F5100019011D8B42B
:100A700009D0000E0001AC6F020EAB6F270EF1EC37
:100A80001CF035D0250E20EC1EF000018F51000126
:100A90009011D8B409D0000E0001AC6F030EAB6FFB
:100AA000270EF1EC1CF023D0260E20EC1EF00001E6
:100AB0008F5100019011D8B409D0000E0001AC6F25
:100AC000040EAB6F270EF1EC1CF011D0220E20ECBF
:100AD0001EF000018F5100019011D8B40AD0000E11
:100AE0000001AC6F050EAB6F270EF1EC1CF0020E8F
:100AF000B3D7270E20EC1EF000018F51000190119A
:100B0000D8B409D0280E20EC1EF000018F5100014E
:100B10009011D8A4C7D0010E00017E6F020ED8EC50
:100B20001BF00EEF0AF0230E20EC1EF000018F5197
:100B300000019011D8A430D0240E20EC1EF000014A
:100B40008F5100019011D8A427D0250E20EC1EF063
:100B500000018F5100019011D8A41ED0260E20EC68
:100B60001EF000018F5100019011D8A415D0220E63
:100B700020EC1EF000018F5100019011D8A40CD080
:100B8000200E20EC1EF000018F5100019011D8A41E
:100B900003D0030E00017E6F000E98EC1BF0020ED6
:100BA000D8EC1BF00EEF0AF0230E20EC1EF0000133
:100BB0008F5100019011D8B409D0000E0001AC6F24
:100BC000010EAB6F280EF1EC1CF06CD0240E20EC63
:100BD0001EF000018F5100019011D8B409D0000E11
:100BE0000001AC6F020EAB6F280EF1EC1CF05AD076
:100BF000250E20EC1EF000018F5100019011D8B499
:100C000009D0000E0001AC6F030EAB6F280EF1ECA3
:100C10001CF048D0260E20EC1EF000018F51000180
:100C20009011D8B409D0000E0001AC6F040EAB6F68
:100C3000280EF1EC1CF036D0220E20EC1EF0000144
:100C40008F5100019011D8B409D0000E0001AC6F93
:100C5000050EAB6F280EF1EC1CF024D0200E20EC1A
:100C60001EF000018F5100019011D8B409D0000E80
:100C70000001AC6F090EAB6F280EF1EC1CF012D026
:100C8000270E20EC1EF000018F5100019011D8B406
:100C90000BD0280E20EC1EF000018F5100019011A6
:100CA000D8B402D0040ED8D6020ED8EC1BF0030E36
:100CB000D3D6230E20EC1EF000018F5100019011BD
:100CC000D8A470D0240E20EC1EF000018F5100013A
:100CD0009011D8A467D0250E20EC1EF000018F5192
:100CE00000019011D8A45ED0260E20EC1EF0000169
:100CF0008F5100019011D8A455D0220E20EC1EF087
:100D000000018F5100019011D8A44CD0200E20EC8E
:100D10001EF000018F5100019011D8A443D0270E7E
:100D200020EC1EF08FC0BAF090C0BBF0280E20EC73
:100D30001EF000018F510001BA191CE10001905111
:100D40000001BB19D8A416D0000E0001AC6F000E34
:100D5000AB6F280EF1EC1CF0000E0001AC6F000E22
:100D6000AB6F270EF1EC1CF0010E98EC1BF0010E9E
:100D700000017E6F270E20EC1EF08FC0BAF090C0ED
:100D8000BBF0280E20EC1EF000018F510001BA19B3
:100D900006E1000190510001BB19D8B403D0050E43
:100DA00000017E6F020ED8EC1BF038D3280E20EC29
:100DB0001EF0090E00018F1900019011D8B403D064
:100DC000060E00017E6F280E20EC1EF0090E0001B9
:100DD0008F1900019011D8A421D3090E3DD6080E19
:100DE0003BD6200E20EC1EF000018F510001901127
:100DF000D8A409D0460E20EC1EF000018F5100014E
:100E00009011D8B411D0020E0001C66F000E00017F
:100E10007E6F000E00017D6F000E0001AC6F000EB2
:100E2000AB6F460EF1EC1CF0030ED8EC1BF0000E7D
:100E300098EC1BF0F3D2270E20EC1EF0050E0001FB
:100E40008F1900019011D8B415D02BD0010E05D008
:100E5000050E03D0020E01D0030E0001816F070EB4
:100E600000017E6F1ED0080E00017E6F010E98EC0F
:100E70001BF017D0280E20EC1EF000019051000A44
:100E8000D8A4F1D700018F51010AD8B4DFD7030AE3
:100E9000D8B4DED7010AD8B4DDD7070AD8B4DCD776
:100EA000E2D7280E20EC1EF0050E00018F1900017C
:100EB0009011D8B415D02BD0010E05D0050E03D05B
:100EC000020E01D0030E0001816F070E00017E6F3C
:100ED0001ED0080E00017E6F010E98EC1BF017D09B
:100EE000270E20EC1EF000019051000AD8A4F1D783
:100EF00000018F51010AD8B4DFD7030AD8B4DED776
:100F0000010AD8B4DDD7070AD8B4DCD7E2D7270E58
:100F100020EC1EF0050E00018F1900019011D8B4CD
:100F20007DD2280E20EC1EF0050E00018F19000165
:100F30009011D8A491D072D2010E63D0020E61D06C
:100F4000040E5FD0080E00017E6F010E98EC1BF0BE
:100F500065D2280E20EC1EF000019051000AD8A4A2
:100F6000F1D700018F51010AD8B44FD0030AD8B489
:100F7000E3D7010AD8B4E2D7070AD8B4E1D7E2D759
:100F8000000E3FD0080E00017E6F010E98EC1BF0A2
:100F900045D2280E20EC1EF000019051000AD8A482
:100FA000F1D700018F51010AD8B4C6D7030AD8B4CB
:100FB0002CD0010AD8B4E4D7070AD8B41FD0E2D79E
:100FC000080E00017E6F010E98EC1BF027D2280E50
:100FD00020EC1EF000019051000AD8A4F1D70001C6
:100FE0008F51010AD8B4AAD7030AD8B4C9D7010AC5
:100FF000D8B40BD0070AD8B403D0E2D7060E01D07C
:10100000030E0001816F070E27D5000E25D5080EAF
:1010100000017E6F010E98EC1BF000D2280E20EC30
:101020001EF000019051000AD8A4F1D700018F51A1
:10103000010AD8B485D7030AD8B4E0D7010AD8B4D6
:10104000DFD7070AD8B4E1D7E2D7080E00017E6FD8
:10105000010E98EC1BF0E2D1270E20EC1EF00001EF
:101060009051000AD8A4F1D700018F51010AD8B4D9
:1010700070D7030AD8B48DD7010AD8B4A8D7070A05
:10108000D8B4CCD7E2D70B0EE7D4200E20EC1EF05C
:1010900000018F5100019011D8A409D0460E20EC18
:1010A0001EF000018F5100019011D8B409D0030E39
:1010B0000001C66F000E00017E6F000E00017D6F03
:1010C000030ED8EC1BF0000E98EC1BF0A7D1270EF6
:1010D00020EC1EF0050E00018F1900019011D8A41C
:1010E00012D0000E05D0010E03D0030E01D0020E67
:1010F0000001816F0A0EB0D40B0E00017E6F010E4D
:1011000098EC1BF08BD1270E20EC1EF000019051C3
:10111000000AD8A4F1D700018F51010AD8B4E3D74F
:10112000030AD8B4E2D7010AD8B4DBD7070AD8B487
:10113000DED7E2D7000E00017E6F010E98EC1BF0A7
:101140006DD100017E51000AD8B46CD4010AD8B424
:1011500071D4030AD8B4E7D4010AD8B425D5070A54
:10116000D8B4A7D5010AD8B421D6030AD8B437D643
:10117000010AD8B436D60F0AD8B45DD6010AD8B45D
:1011800082D7030AD8B481D7010AD8B4A0D7D2D75E
:10119000010E0001B86F030E8DEC10F00009D8A409
:1011A00090D0010E0001816F7BEC1AF000017D05EB
:1011B000D8A487D0010E0001C66F83D0030E0001B2
:1011C000B86F020E8DEC10F00009D8A47AD0020E90
:1011D0000001816F7BEC1AF0E9D7040E0001B86FB3
:1011E000010E8DEC10F00009D8A46BD0030E0001A5
:1011F000816F7BEC1AF0DAD7010E0001B86F030E95
:101200008DEC10F00009D8A45CD0040E0001816FB1
:101210007BEC1AF0CBD7020E0001B86F040E8DECF8
:1012200010F00009D8A44DD0050E0001816F7BECB1
:101230001AF0BCD7040E0001B86F010E8DEC10F04F
:101240000009D8A43ED0060E0001816F7BEC1AF095
:10125000ADD7030E0001B86F020E8DEC10F000093F
:10126000D8A42FD0070E0001816F7BEC1AF09ED717
:10127000020E0001B86F040E8DEC10F00009D8A426
:1012800020D0000E0001816F7BEC1AF08FD7000197
:101290008151000AD8B47CD7010AD8B48FD7030A89
:1012A000D8B49BD7010AD8B4A7D7070AD8B4B3D704
:1012B000010AD8B4BFD7030AD8B4CBD7010AD8B42F
:1012C000D7D7210E20EC1EF000018F5100019011A4
:1012D000D8A409D0470E20EC1EF000018F51000168
:1012E0009011D8B40BD0010E00017D6F000E0001EB
:1012F000AC6F000EAB6F470EF1EC1CF000017D05EA
:10130000D8A403D0020E98EC1BF0010ED8EC1BF011
:1013100085D0010E0001B86F030E8DEC10F00009AE
:10132000D8A448D0010E0001816F7BEC1AF00001B7
:101330007D05D8A43FD0010E0001C66F3BD0040E3E
:101340000001B86F010E8DEC10F00009D8A432D066
:10135000020E0001816F7BEC1AF0E9D7020E00014A
:10136000B86F040E8DEC10F00009D8A423D0030E42
:101370000001816F7BEC1AF0DAD7030E0001B86F21
:10138000020E8DEC10F00009D8A414D0000E00015C
:10139000816F7BEC1AF0CBD700018151000AD8B4E1
:1013A000B8D7010AD8B4CBD7030AD8B4D7D7010A23
:1013B000D8B4E3D7210E20EC1EF000018F510001BC
:1013C0009011D8A409D0470E20EC1EF000018F51D7
:1013D00000019011D8B40BD0010E00017D6F000EFA
:1013E0000001AC6F000EAB6F470EF1EC1CF000017A
:1013F0007D05D8A403D0020E98EC1BF0010ED8ECAA
:101400001BF00CD00001C651010AD8B439EF04F02A
:10141000030AD8B43CD7010AD8B4BED7C6C0ABF0D3
:101420000001AC6B3F0EF1EC1CF081C0ABF0000191
:10143000AC6B500EF1EC1CF01200400E20EC1EF0D4
:1014400000018F4700018F4700018F478050000146
:101450008F19F70B00018F19806E410E20EC1EF0E2
:1014600000018F4700018F47805000018F19FB0B4F
:1014700000018F19806E420E20EC1EF000018F4794
:10148000805000018F19FD0B00018F19806E430EF3
:1014900020EC1EF0805000018F19FE0B00018F1907
:1014A000806E450E20EC1EF0825000018F19FE0B5D
:1014B00000018F19826E440E20EC1EF08FC091F057
:1014C00090C092F041EC1DF02AD02D50D8B402D03B
:1014D0002D065BD0000E0001AC6F000EAB6F1F0E2F
:1014E000F1EC1CF052D02D500001B06FB16B1B0E0F
:1014F00020EC1EF00001B05100018F5D0001B151E0
:1015000000019059D8A002D02D2A3FD0000E000132
:10151000AC6F010EAB6F1F0EF1EC1CF036D083A246
:1015200002D0010E01D0000E000AD8B4DCD7010AA7
:10153000D8B4CBD72AD02C50D8B402D02C065BD04C
:10154000000E0001AC6F000EAB6F1E0EF1EC1CF034
:1015500052D02C500001B06FB16B1B0E20EC1EF06E
:101560000001B05100018F5D0001B151000190599F
:10157000D8A002D02C2A3FD0000E0001AC6F010E83
:10158000AB6F1E0EF1EC1CF036D083A002D0010E22
:1015900001D0000E000AD8B4DCD7010AD8B4CBD7EA
:1015A0002AD03150D8B402D031065BD0000E0001F1
:1015B000AC6F000EAB6F1D0EF1EC1CF052D0315031
:1015C0000001B06FB16B1B0E20EC1EF00001B0519A
:1015D00000018F5D0001B15100019059D8A002D0E7
:1015E000312A3FD0000E0001AC6F010EAB6F1D0E13
:1015F000F1EC1CF036D083A602D0010E01D0000E13
:10160000000AD8B4DCD7010AD8B4CBD72AD03050DE
:10161000D8B402D030065BD0000E0001AC6F000ED3
:10162000AB6F1C0EF1EC1CF052D030500001B06FCB
:10163000B16B1B0E20EC1EF00001B05100018F5D5C
:101640000001B15100019059D8A002D0302A3FD0FA
:10165000000E0001AC6F010EAB6F1C0EF1EC1CF024
:1016600036D083A402D0010E01D0000E000AD8B4F7
:10167000DCD7010AD8B4CBD72AD02A500001B06FEA
:10168000B16B1B0E20EC1EF00001B05100018F5D0C
:101690000001B15100019059D8A002D02A2A57D098
:1016A000000E0001AC6F010EAB6F200EF1EC1CF0D0
:1016B0004ED02A50D8B402D02A0649D0000E0001DC
:1016C000AC6F000EAB6F200EF1EC1CF040D081B07F
:1016D00002D0010E01D0000E0001B06FB16B00010D
:1016E000B151000AD8A433D00001B051000AD8B4D7
:1016F000E0D7010AD8B4C1D72AD02B500001B06F6F
:10170000B16B1B0E20EC1EF00001B05100018F5D8B
:101710000001B15100019059D8A002D02B2A57D016
:10172000000E0001AC6F010EAB6F210EF1EC1CF04E
:101730004ED02B50D8B402D02B0649D0000E000159
:10174000AC6F000EAB6F210EF1EC1CF040D083BEED
:1017500002D0010E01D0000E0001B06FB16B00018C
:10176000B151000AD8A433D00001B051000AD8B456
:10177000E0D7010AD8B4C1D72AD027500001B06FF2
:10178000B16B1B0E20EC1EF00001B05100018F5D0B
:101790000001B15100019059D8A002D0272A57D09A
:1017A000000E0001AC6F010EAB6F220EF1EC1CF0CD
:1017B0004ED02750D8B402D0270649D0000E0001E1
:1017C000AC6F000EAB6F220EF1EC1CF040D081B27A
:1017D00002D0010E01D0000E0001B06FB16B00010C
:1017E000B151000AD8A433D00001B051000AD8B4D6
:1017F000E0D7010AD8B4C1D72AD025500001B06F74
:10180000B16B1B0E20EC1EF00001B05100018F5D8A
:101810000001B15100019059D8A002D0252A57D01B
:10182000000E0001AC6F010EAB6F230EF1EC1CF04B
:101830004ED02550D8B402D0250649D0000E000164
:10184000AC6F000EAB6F230EF1EC1CF040D081BAF0
:1018500002D0010E01D0000E0001B06FB16B00018B
:10186000B151000AD8A433D00001B051000AD8B455
:10187000E0D7010AD8B4C1D72AD026500001B06FF2
:10188000B16B1B0E20EC1EF00001B05100018F5D0A
:101890000001B15100019059D8A002D0262A57D09A
:1018A000000E0001AC6F010EAB6F240EF1EC1CF0CA
:1018B0004ED02650D8B402D0260649D0000E0001E2
:1018C000AC6F000EAB6F240EF1EC1CF040D081B871
:1018D00002D0010E01D0000E0001B06FB16B00010B
:1018E000B151000AD8A433D00001B051000AD8B4D5
:1018F000E0D7010AD8B4C1D72AD028500001B06F70
:10190000B16B1B0E20EC1EF00001B05100018F5D89
:101910000001B15100019059D8A002D0282A57D017
:10192000000E0001AC6F010EAB6F250EF1EC1CF048
:101930004ED02850D8B402D0280649D0000E00015D
:10194000AC6F000EAB6F250EF1EC1CF040D081B6F1
:1019500002D0010E01D0000E0001B06FB16B00018A
:10196000B151000AD8A433D00001B051000AD8B454
:10197000E0D7010AD8B4C1D72AD029500001B06FEE
:10198000B16B1B0E20EC1EF00001B05100018F5D09
:101990000001B15100019059D8A002D0292A57D096
:1019A000000E0001AC6F010EAB6F260EF1EC1CF0C7
:1019B0004ED02950D8B402D0290649D0000E0001DB
:1019C000AC6F000EAB6F260EF1EC1CF040D081B472
:1019D00002D0010E01D0000E0001B06FB16B00010A
:1019E000B151000AD8A433D00001B051000AD8B4D4
:1019F000E0D7010AD8B4C1D72AD02F500001B06F68
:101A0000B16B1B0E20EC1EF00001B05100018F5D88
:101A10000001B15100019059D8A002D02F2A4DD019
:101A2000000E0001AC6F010EAB6F290EF1EC1CF043
:101A300044D02F50D8B402D02F063FD0000E000162
:101A4000AC6F000EAB6F290EF1EC1CF036D082A209
:101A500002D0010E01D0000E000AD8B4CED7010A80
:101A6000D8B4E7D72AD02E500001B06FB16B1B0E4F
:101A700020EC1EF00001B05100018F5D0001B1515A
:101A800000019059D8A002D02E2A4DD0000E00019E
:101A9000AC6F010EAB6F2A0EF1EC1CF044D02E504F
:101AA000D8B402D02E063FD0000E0001AC6F000E5D
:101AB000AB6F2A0EF1EC1CF036D083A802D0010ED9
:101AC00001D0000E000AD8B4CED7010AD8B4E7D7A7
:101AD0002AD033500001B06FB16B1B0E20EC1EF00A
:101AE0000001B05100018F5D0001B151000190591A
:101AF000D8A002D0332A4DD0000E0001AC6F010EE9
:101B0000AB6F2B0EF1EC1CF044D03350D8B402D0A4
:101B100033063FD0000E0001AC6F000EAB6F2B0EF2
:101B2000F1EC1CF036D084A202D0010E01D0000EE0
:101B3000000AD8B4CED7010AD8B4E7D72AD0325099
:101B40000001B06FB16B1B0E20EC1EF00001B05114
:101B500000018F5D0001B15100019059D8A002D061
:101B6000322A1200000E0001AC6F010EAB6F2C0E7A
:101B7000F1EC1CF012003250D8B402D03206120040
:101B8000000E0001AC6F000EAB6F2C0EF1EC1CF0E0
:101B9000120084A002D0010E01D0000E000AD8B4B9
:101BA000CED7010AD8A41200E6D7000E0001906F2C
:101BB000000E8F6F0001905127E1530E00018F5DE1
:101BC000D8B022D0D89000018F35D96E0001903561
:101BD000DA6E000ED926020EDA22000EDE6E000E3C
:101BE000DD6ED89000018F35D96E00019035DA6E28
:101BF000000ED926010EDA22000EDE6E000EDD6E1A
:101C000000018F4B902BD6D7000E0201216F000EE2
:101C1000206F000E0201256F010E246F000E0201DD
:101C2000276F010E266F000E0201296F010E286F2B
:101C3000000E02012B6F010E2A6F000E02012D6FA4
:101C4000010E2C6F000E02012F6F010E2E6F000E81
:101C50000201316F010E306F000E0201336F010E71
:101C6000326F000E0201356F010E346F000E02015B
:101C7000376F010E366F000E0201396F000E386F9C
:101C8000000E02013B6F000E3A6F000E02013D6F25
:101C9000000E3C6F000E02013F6F000E3E6F000E03
:101CA0000201416F000E406F000E0201436F000EF3
:101CB000426F000E0201456F000E446F000E0201DC
:101CC000476F000E466F000E0201496F000E486F0D
:101CD000000E02014B6F000E4A6F000E02014D6FA5
:101CE000000E4C6F000E02014F6F010E4E6F000E82
:101CF0000201516F010E506F000E0201536F000E72
:101D0000526F000E0201556F000E546F000E02015B
:101D1000576F000E566F000E0201596F000E586F7C
:101D2000000E02015B6F010E5A6F000E02015D6F23
:101D3000010E5C6F000E02015F6F010E5E6F000E00
:101D40000201616F010E606F000E0201636F010EF0
:101D5000626F000E0201656F010E646F000E0201DA
:101D6000676F010E666F000E0201696F010E686FEA
:101D7000000E02016B6F010E6A6F000E02016D6FA3
:101D8000010E6C6F000E02016F6F010E6E6F000E80
:101D90000201716F010E706F000E0201736F010E70
:101DA000726F000E0201756F010E746F000E02015A
:101DB000776F010E766F000E0201796F010E786F5A
:101DC000000E02017B6F000E7A6F000E02017D6F24
:101DD000000E7C6F000E02017F6F000E7E6F000E02
:101DE0000201816F000E806F000E0201836F000EF2
:101DF000826F000E0201856F000E846F000E0201DB
:101E0000876F000E866F000E0201896F000E886FCB
:101E1000000E02018B6F000E8A6F000E02018D6FA3
:101E2000010E8C6F000E02018F6F010E8E6F000E7F
:101E30000201916F010E906F000E0201936F010E6F
:101E4000926F000E0201956F010E946F000E020159
:101E5000976F010E966F000E0201996F010E986F39
:101E6000000E02019B6F010E9A6F000E02019D6F22
:101E7000010E9C6F000E02019F6F010E9E6F000EFF
:101E80000201A16F000EA06F000E0201A36F010EF0
:101E9000A26F000E0101216F520E206F270E01016B
:101EA000256F100E246F030E0101276F200E266F81
:101EB000130E0101296F880E286F000E01012B6F90
:101EC000140E2A6F000E01012D6F140E2C6F000EE0
:101ED00001012F6F6B0E2E6F000E0101316F6B0E23
:101EE000306F000E0101336F500E326F000E010192
:101EF000356F2D0E346F000E0101376F140E366FE3
:101F0000000E0101396F000E386F000E01013B6FAA
:101F1000000E3A6F000E01013D6F000E3C6F000E87
:101F200001013F6F000E3E6F000E0101416F000E78
:101F3000406F000E0101436F000E426F000E010161
:101F4000456F000E446F000E0101476F000E466F93
:101F5000000E0101496F000E486F000E01014B6F2A
:101F6000000E4A6F000E01014D6F000E4C6F000E07
:101F700001014F6F000E4E6F000E0101516F000EF8
:101F8000506F000E0101536F000E526F000E0101E1
:101F9000556F000E546F000E0101576F000E566F03
:101FA000000E0101596F000E586F000E01015B6FAA
:101FB000000E5A6F000E01015D6F500E5C6F000E37
:101FC00001015F6F780E5E6F000E0101616F000E00
:101FD000606F000E0101636F500E626F000E010111
:101FE000656F000E646F000E0101676F000E666F73
:101FF000000E0101696F780E686F000E01016B6FB2
:10200000640E6A6F000E01016D6F640E6C6F000E3E
:1020100001016F6F640E6E6F000E0101716F640E2F
:10202000706F000E0101736F640E726F000E01017C
:10203000756F640E746F000E0101776F640E766F1A
:10204000000E0101796F640E786F000E01017B6F45
:10205000000E7A6F000E01017D6F000E7C6F000E86
:1020600001017F6F010E7E6F000E0101816F000E76
:10207000806F000E0101836F000E826F000E010160
:10208000856F000E846F000E0101876F000E866F52
:10209000010E0101896F8869000E01018B6F010E2D
:1020A0008A6F000E01018D6F000E8C6F000E010112
:1020B0008F6F000E8E6F000E0101916F000E906FFA
:1020C000000E0101936F000E926F000E0101956FDB
:1020D000000E946F000E0101976F000E966F000EB8
:1020E0000101996F000E986F000E01019B6F000EA9
:1020F0009A6F000E01019D6F000E9C6F010E010191
:102100009F6F9E69000E0101A16F000EA06F000E6F
:102110000101A36F000EA26F12000001B96FB9C0D8
:10212000ABF00001AC6B3D0EF1EC1CF0B8C0ABF0B5
:102130000001AC6B3E0EF1EC1CF0A1D1000E0001D1
:10214000B06F010EC4EC15F00009D8B41BD0010E1D
:102150000001C56FBED1010E0001B06F010EC4ECCD
:1021600015F0F2D7010E0001B06F000EC4EC15F0AF
:10217000EBD7000E0001B06F000EC4EC15F00009A3
:10218000D8A4E5D7010E16D00001B951010AD8B480
:10219000E9D7030AD8B4EDD7010AD8B4CFD7070AD4
:1021A000D8B4D9D796D1000E0001B06F010EC4EC9F
:1021B00015F01AD00001836F010E0001C56FC7D75B
:1021C000010E0001B06F010EC4EC15F00DD0010E30
:1021D0000001B06F000EC4EC15F006D0000E000137
:1021E000B06F000EC4EC15F00009D8A4B0D7020EF1
:1021F000E1D70001B851010AD8B4E9D7030AD8B42D
:10220000EDD7010AD8B4CFD7070AD8B4D9D761D14E
:1022100063EC16F008D063EC16F005D001EC17F073
:1022200002D001EC17F00009D8A491D7030EC2D751
:102230000001B851010AD8B4F1D7030AD8B4F1D7D4
:10224000010AD8B4E5D7070AD8B4E5D742D11C0EA5
:1022500020EC1EF000018F0500019011D8B488D049
:10226000290E20EC1EF000018F0500019011D8A46A
:1022700002D0050E49D02A0E20EC1EF000018F0579
:1022800000019011D8A402D0060E3ED02C0E20ECF6
:102290001EF000018F0500019011D8A402D0070E96
:1022A00033D02B0E20EC1EF000018F0500019011A1
:1022B000D8A44DD7080E28D01D0E20EC1EF000012A
:1022C0008F0500019011D8B453D0290E20EC1EF0D8
:1022D00000018F0500019011D8B4CBD72A0E20EC55
:1022E0001EF000018F0500019011D8B4CDD72C0E3F
:1022F00020EC1EF000018F0500019011D8B4CFD75B
:102300002B0E20EC1EF0D0D70001836F20D71E0EBD
:1023100020EC1EF000018F0500019011D8B428D0E8
:10232000290E20EC1EF000018F0500019011D8B499
:102330002AD02A0E20EC1EF000018F05000190111A
:10234000D8B42CD02C0E20EC1EF000018F0500011B
:102350009011D8B42ED02B0E20EC1EF02FD01F0ED3
:1023600020EC1EF000018F0500019011D8A402D0CE
:10237000040ECAD7290E20EC1EF000018F050001C3
:102380009011D8A402D00C0EBFD72A0E20EC1EF05C
:1023900000018F0500019011D8A402D00B0EB4D714
:1023A0002C0E20EC1EF000018F0500019011D8A426
:1023B00002D00A0EA9D72B0E20EC1EF000018F05CB
:1023C00000019011D8A4C3D6090E9ED70001B851C0
:1023D000010AD8B49CD7030AD8B4C1D7010AD8B42B
:1023E00036D7070AD8B468D774D022EC15F008D0D5
:1023F00022EC15F005D07DEC14F002D07DEC14F049
:102400000009D8A4A4D6000E0001836F000EA0D648
:102410000001B851010AD8B4EED7030AD8B4EED7F8
:10242000010AD8B4E2D7070AD8B4E2D752D0010ED5
:10243000D1EC18F01BD0020ED1EC18F017D0030E1F
:1024400037EC18F013D0040E37EC18F00FD0040E50
:102450009DEC17F00BD0030E9DEC17F007D0020E89
:102460006AEC19F003D0010E6AEC19F00009D8A447
:102470006ED6030E01D0000E0001836F68D60001F6
:102480008351000AD8B480D6010AD8B4B2D6030A60
:10249000D8B4CED6010AD8B499D7070AD8B4B8D7D9
:1024A000010AD8B4C4D7030AD8B4C5D7010AD8B42E
:1024B000C6D70F0AD8B4C7D7010AD8B4C8D7030AF9
:1024C000D8B4C9D7010AD8B4CAD7070AD8B4CBD769
:1024D000D2D70001C5511200730E00018519D8A48E
:1024E0006ED0870E0001766F000E0001776F76C008
:1024F00095F077C096F002EC1AF095C0ADF096C05A
:10250000AEF08A0E0001766F000E0001776F76C084
:1025100095F077C096F002EC1AF095C0ABF096C03B
:10252000ACF00001AD512EEC1EF000018F51000106
:102530009011D8A409D0210E00019A6F080E000155
:102540009B6FD3EC13F012000001AE510EE10F0EA1
:102550000001AD5DD8B009D02A0E00019A6F080EB7
:1025600000019B6FD3EC13F012000001AE5105E1A6
:10257000530E0001AD5DD8A009D0330E00019A6F53
:10258000080E00019B6FD3EC13F012000001AB2981
:102590000DE10001AC29D8A409D03C0E00019A6FCE
:1025A000080E00019B6FD3EC13F01200ABC091F04A
:1025B000ACC092F00001AD5163EC1DF01200670E4B
:1025C00000018519D8A41200870E0001766F000E55
:1025D0000001776F76C095F077C096F002EC1AF0A4
:1025E00095C0ADF096C0AEF00001AE510EE10F0EF9
:1025F0000001AD5DD8B009D02A0E00019A6F080E17
:1026000000019B6FD3EC13F012000001AE5105E105
:10261000530E0001AD5DD8A009D0330E00019A6FB2
:10262000080E00019B6FD3EC13F012000001AD51B6
:1026300020EC1EF08FC0ABF090C0ACF0ABC0A8F0A7
:10264000ACC0A9F00001AD51FBEC1DF012003A50F6
:10265000D8B49CD0A0EC1DF000017B6F8BD0850E10
:102660000001766F000E0001776FFF0E0001AF6F63
:10267000FF0E0001B06F0B0EF66E080EF76E08002D
:10268000F5500001B16FB26B0001AF510001B127ED
:102690000001B0510001B223850E0001B1250001F7
:1026A000786F000E0001B2210001796F730E0001F6
:1026B0007B19D8B405D0670E00017B19D8A40BD0C4
:1026C00076C0D9FF77C0DAFF7BC0DFFF0001764B11
:1026D000772B010E0FD0000E0DD0780E00017B1964
:1026E000D8A4F9D776C0D9FF77C0DAFF7BC0DFFF67
:1026F0003DD0020E00017C6F49D0470E00017B19CE
:10270000D8B40AD01AD076C0D9FF77C0DAFF000E4D
:10271000DF6E0001764B772B000178510001765D6A
:102720000001795100017759D8A0EDD7030E0001BF
:102730007C6F010E00017A6F29D076C0D9FF77C077
:10274000DAFF7BC0DFFF000176510001785D0001F8
:10275000775100017959D8B009D0180E00019A6F4D
:10276000080E00019B6FD3EC13F0B5D70001764B38
:10277000772BBFD700017C51000AD8B470D7010A6B
:10278000D8B4ABD7030AD8B4B8D7010A00017A0588
:10279000D8A412006CEC12F0000E00017A6F000E4B
:1027A00000017C6F12009C0E0001A16F000E000161
:1027B000A26F94D0250E0001A719D8B405D000014E
:1027C000A75148EC1EF08AD0000E0001A36F9AC0FA
:1027D000F6FF9BC0F7FF00019A4B9B2B0800F5CF3B
:1027E000A7F00001A751000AD8B41200640AD8B4B7
:1027F00003D00D0AD8A472D0A1C0D9FFA2C0DAFFBD
:10280000DECFA5F0DDCFA6F0020E0001A127000E5D
:10281000A2230001A6AF08D0030E0001A3130001FC
:10282000A56DA61FD8B0A62B010E0001A76F050E3F
:102830000001A719D8B416D00001A751020D010E4E
:10284000F324F66E080EF420F76E0900F55000012F
:10285000A55D0900F5500001A659D8A003D00001DC
:10286000A72BE5D7A3C0A0F0030E0001A017D8B492
:1028700003D02D0E48EC1EF0A7C0A4F029D0000113
:10288000A451020D010EF324F66E080EF420F76E2B
:102890000900F5CF91F00A00F5CF92F0A5C08FF0B6
:1028A000A6C090F018EC1CF08FC096F090C097F086
:1028B000000E0001996F0A0E986FC3EC1CF0000126
:1028C0009651300F0001A76F0001A75148EC1EF090
:1028D0000001A4070001A429D8A4D1D79AC0F6FF0B
:1028E0009BC0F7FF00019A4B9B2B0800F5CFA7F088
:1028F0000001A751D8B412005DD793D072C0B0F0D8
:1029000073C0B1F0000E0001B26F46EC1BF0010E77
:102910000001C16F150E20EC1EF000017251000184
:102920008F5D0001735100019059D8A002D0010EB3
:1029300072D0190E20EC1EF000018F510001745D61
:102940000001905100017559D8A00AD0000172070A
:10295000D8A07307000E0001756F000E746F6FD062
:102960000001744B752B6BD0120E20EC1EF0000191
:102970008F510001625D0001905100016359D8A0A0
:1029800009D0020E0001826F000E0001636F000E7D
:10299000626F43D0010E0001C16F0001624B632BD7
:1029A000010E0001826F4BD0150E20EC1EF08FC07F
:1029B000B0F090C0B1F0000E0001B26F46EC1BF019
:1029C000000E0001AC6F010EAB6F450EF1EC1CF078
:1029D000150E20EC1EF08FC072F090C073F01AD06C
:1029E000140E20EC1EF000018F510001625D000109
:1029F000905100016359D8A00AD0000E0001826FE7
:102A0000000E0001636F000E626F000E07D0000120
:102A1000624B632B030E0001826F010E0001C16F38
:102A20000ED000018251000AD8B468D7010AD8B488
:102A30009BD7030AD8B4B8D7010AD8B4D1D70001BC
:102A4000C151120090D072C0B0F073C0B1F0010E4D
:102A50000001B26F46EC1BF0160E20EC1EF00001D8
:102A6000725100018F5D0001735100019059D8A08F
:102A700002D0010E72D0190E20EC1EF000018F5111
:102A80000001745D0001905100017559D8A00AD071
:102A900000017207D8A07307000E0001756F000EC9
:102AA000746F5DD00001744B752B59D0120E20EC61
:102AB0001EF000018F510001665D00019051000180
:102AC0006759D8A009D0020E0001826F000E0001E4
:102AD000676F000E666F43D0010E0001C36F0001E7
:102AE000664B672B010E0001826F4BD0160E20EC57
:102AF0001EF08FC0B0F090C0B1F0010E0001B26FB7
:102B000046EC1BF0000E0001AC6F010EAB6F450EE2
:102B1000F1EC1CF0160E20EC1EF08FC072F090C08D
:102B200073F01AD0140E20EC1EF000018F5100013A
:102B3000665D0001905100016759D8A00AD0000ECF
:102B40000001826F000E0001676F000E666F000EBD
:102B500007D00001664B672B030E0001826F010E48
:102B60000001C36F0ED000018251000AD8B46BD7A8
:102B7000010AD8B49BD7030AD8B4B8D7010AD8B48D
:102B8000D1D70001C35112000001B16F8ED0010EE8
:102B90000001BC6F36D0000E0001AC6F010EAB6FB0
:102BA000400EF1EC1CF035D0000E0001AC6F010EB0
:102BB000AB6F410EF1EC1CF02CD00001B051000ABB
:102BC000D8B4E9D7010AD8B4EFD723D0000E00015A
:102BD000AC6F010EAB6F420EF1EC1CF01AD0000E80
:102BE0000001AC6F010EAB6F430EF1EC1CF011D085
:102BF0000001B051000AD8B4E9D7010AD8B4EFD720
:102C000008D00001B151000AD8B4D7D7010AD8B40E
:102C1000EFD7010E00017F6F53D0130E20EC1EF092
:102C200000018F510001605D000190510001615968
:102C3000D8A00AD0020E00017F6F000E0001616F64
:102C4000000E606F010E2ED0010E0001BC6F010E50
:102C500000017F6F0001604B612B32D0000E00013C
:102C6000AC6F000EAB6F400EF1EC1CF0000E0001DB
:102C7000AC6F000EAB6F410EF1EC1CF0000E0001CA
:102C8000AC6F000EAB6F420EF1EC1CF0000E0001B9
:102C9000AC6F000EAB6F430EF1EC1CF0000E0001A8
:102CA0007F6F000E0001BC6F0BD000017F51000A46
:102CB000D8B46DD7010AD8B4B0D7030AD8B4CED7E8
:102CC0000001BC5112008CD0140E20EC1EF000014B
:102CD0008F510001685D0001905100016959D8A031
:102CE00002D0010E34D00001684B692B000E0001A8
:102CF000826F72D0160E20EC1EF08FC0B0F090C024
:102D0000B1F0010E0001B26F46EC1BF0160E20EC84
:102D10001EF08FC072F090C073F0000E0001AC6F17
:102D2000000EAB6F450EF1EC1CF0010E0001C46FFC
:102D30001CD0120E20EC1EF000018F510001685DC6
:102D40000001905100016959D8A009D0030E00017B
:102D5000826F000E0001696F000E686F3DD0010E9A
:102D60000001C46F0001684B692B020E0001826FE5
:102D700045D072C0B0F073C0B1F0010E0001B26F67
:102D800046EC1BF0170E20EC1EF000018F510001E5
:102D9000725D0001905100017359D8A005D0000E5A
:102DA0000001826F000E19D01A0E20EC1EF00001F7
:102DB0008F510001745D0001905100017559D8A038
:102DC00008D00001724B732B000E0001756F000ECE
:102DD000746F0001744B752B010E0001C46F0ED08F
:102DE00000018251000AD8B46FD7010AD8B482D743
:102DF000030AD8B49ED7010AD8B4BBD70001C45186
:102E000012008AD0140E20EC1EF000018F51000138
:102E1000645D0001905100016559D8A002D0010EF7
:102E200036D00001644B652B000E20D0010E00014E
:102E3000C26F80D0150E20EC1EF08FC0B0F090C095
:102E4000B1F0000E0001B26F46EC1BF0150E20EC45
:102E50001EF08FC072F090C073F0000E0001AC6FD6
:102E6000000EAB6F450EF1EC1CF01CD00001826F20
:102E7000DDD7120E20EC1EF000018F510001645DC1
:102E80000001905100016559D8A009D0030E00013E
:102E9000826F000E0001656F000E646FC7D70001DE
:102EA000644B652B020EE2D772C0B0F073C0B1F074
:102EB000000E0001B26F46EC1BF0010E0001C26F64
:102EC000180E20EC1EF000018F510001725D000110
:102ED000905100017359D8A005D0000E0001826FF7
:102EE000000EA5D71A0E20EC1EF000018F51000134
:102EF000745D0001905100017559D8A009D00001FE
:102F0000724B732B000E0001756F000E746F12D0A0
:102F10000001744B752B0ED000018251000AD8B409
:102F200071D7010AD8B486D7030AD8B4A2D7010A48
:102F3000D8B4BAD70001C25112000001B76F8CD0CB
:102F4000030E0001B719D8B40DD0350E20EC1EF0D9
:102F500000018F510001705D000190510001715915
:102F6000D8A009D0010E0001806F000E0001716F22
:102F7000000E706F6DD00001704B712B69D0040E84
:102F80000001B719D8A428D072C0B0F073C0B1F056
:102F9000000E0001B26F46EC1BF02E0E20EC1EF06E
:102FA0000001725100018F5D0001735100019059C1
:102FB000D8B02DD01A0E20EC1EF000018F51000168
:102FC000745D0001905100017559D8A03ED00001F8
:102FD0007207D8A0730733D0030E0001B719D8A425
:102FE00037D072C0B0F073C0B1F0000E0001B26F04
:102FF00046EC1BF0180E20EC1EF000018F51000172
:10300000725D0001905100017359D8A008D0000EE4
:103010000001826F000E0001806F000E1AD01A0EA0
:1030200020EC1EF000018F510001745D00019051F1
:1030300000017559D8A009D00001724B732B000E06
:103040000001756F000E746F03D00001744B752B77
:10305000010E0001C06F08D000018051000AD8B4F1
:103060006FD7010AD8B48BD70001C05112000001FC
:10307000B76F8CD0040E0001B719D8B40DD0380E3C
:1030800020EC1EF000018F510001705D0001905195
:1030900000017159D8A009D0010E0001806F000E07
:1030A0000001716F000E706F6DD00001704B712BBD
:1030B00069D0030E0001B719D8A427D072C0B0F0B0
:1030C00073C0B1F0010E0001B26F46EC1BF02F0E81
:1030D00020EC1EF000018F510001725D0001905143
:1030E00000017359D8B02CD01A0E20EC1EF000014C
:1030F0008F510001745D0001905100017559D8A0F5
:103100003ED00001724B732B34D0040E0001B7196E
:10311000D8A438D072C0B0F073C0B1F0010E000175
:10312000B26F46EC1BF0170E20EC1EF0000172513E
:1031300000018F5D0001735100019059D8A008D0A3
:10314000000E0001826F000E0001806F000E1BD088
:103150001A0E20EC1EF000018F510001745D000179
:10316000905100017559D8A00AD000017207D8A06B
:103170007307000E0001756F000E746F03D000011D
:10318000744B752B010E0001BF6F08D000018051F8
:10319000000AD8B46FD7010AD8B48BD70001BF5149
:1031A00012000001B76F8BD0020E0001B719D8B41E
:1031B0000DD03B0E20EC1EF000018F510001705D20
:1031C0000001905100017159D8A009D0010E0001F1
:1031D000806F000E0001716F000E706F6CD00001E7
:1031E000704B712B68D00001B705D8A428D072C0ED
:1031F000B0F073C0B1F0010E0001B26F46EC1BF0ED
:10320000310E20EC1EF00001725100018F5D0001B3
:10321000735100019059D8B02DD01A0E20EC1EF039
:1032200000018F510001745D00019051000175593A
:10323000D8A03ED000017207D8A0730733D0020E89
:103240000001B719D8A437D072C0B0F073C0B1F084
:10325000010E0001B26F46EC1BF0170E20EC1EF0C1
:1032600000018F510001725D0001905100017359FE
:10327000D8A008D0000E0001826F000E0001806F00
:10328000000E1AD01A0E20EC1EF000018F51000122
:10329000745D0001905100017559D8A009D000015A
:1032A000724B732B000E0001756F000E746F03D00C
:1032B0000001744B752B010E0001BD6F08D0000199
:1032C0008051000AD8B470D7010AD8B48CD7000155
:1032D000BD5112000001B76F8AD00001B705D8B404
:1032E0000DD03A0E20EC1EF000018F510001705DF0
:1032F0000001905100017159D8A009D0010E0001C0
:10330000806F000E0001716F000E706F6CD00001B5
:10331000704B712B68D0020E0001B719D8A427D0CA
:1033200072C0B0F073C0B1F0000E0001B26F46EC95
:103330001BF0340E20EC1EF000018F510001725D75
:103340000001905100017359D8B02BD01A0E20EC17
:103350001EF000018F510001745D000190510001C9
:103360007559D8A03DD00001724B732B33D00001AA
:10337000B705D8A438D072C0B0F073C0B1F0000E59
:103380000001B26F46EC1BF0180E20EC1EF000019D
:10339000725100018F5D0001735100019059D8A056
:1033A00008D0000E0001826F000E0001806F000E39
:1033B0001BD01A0E20EC1EF000018F510001745D2D
:1033C0000001905100017559D8A00AD00001720780
:1033D000D8A07307000E0001756F000E746F03D044
:1033E0000001744B752B010E0001BE6F08D0000167
:1033F0008051000AD8B471D7010AD8B48CD7000123
:10340000BE51120003D00001954B962B95C0D9FFF9
:1034100096C0DAFF200EDE18D8B4F5D795C0D9FFD4
:1034200096C0DAFF090EDE18D8B4EDD7000E000101
:103430009B6F000E9A6F000E0001996F95C0D9FF27
:1034400096C0DAFF2D0EDE18D8A403D00001992B08
:103450002ED095C0D9FF96C0DAFF2B0EDE18D8A467
:1034600029D025D09AC08FF09BC090F0000E0001AB
:10347000926F0A0E916F85EC1DF095C0D9FF96C032
:10348000DAFFDF500001976F986B00018F51000148
:1034900097270001905100019823D00E0001972535
:1034A00000019A6FFF0E0001982100019B6F00013F
:1034B000954B962B95C0D9FF96C0DAFFDF50E7EC0D
:1034C0001DF0D8B0CFD7000199510001D8B40ED06B
:1034D0009AC097F09BC098F00001971F981F974BD8
:1034E000982B97C095F098C096F012009AC095F06E
:1034F0009BC096F01200000EF26EA69EA684010EEE
:10350000A96E170E20EC1EF000018F51A86E550E0B
:10351000A76EAA0EA76EA682A1A8FED7A198A69E06
:10352000A684000EA96E170E20EC1EF0000190C0BC
:103530008FF00001906B00018F51A86E550EA76EA1
:10354000AA0EA76EA682A1A8FED7A198A69EA684C1
:10355000030EA96E180E20EC1EF000018F51A86E0C
:10356000550EA76EAA0EA76EA682A1A8FED7A19897
:10357000A69EA684020EA96E180E20EC1EF0000175
:1035800090C08FF00001906B00018F51A86E550E16
:10359000A76EAA0EA76EA682A1A8FED7A198A69E86
:1035A000A684040EA96E190E20EC1EF000018F51A6
:1035B000A86E550EA76EAA0EA76EA682A1A8FED76A
:1035C000A198A00EF26E12000600E9CF03F0EACF38
:1035D00004F0E1CF05F0E2CF06F0D9CF07F0DACF63
:1035E00008F0F3CF09F0F4CF0AF0F6CF0BF0F7CFE5
:1035F0000CF0F8CF0DF0F5CF0EF0F2A41FD00001C3
:103600006F5107E1650E00016E5DD8B002D0808871
:1036100001D08098BC0E00016E5D020E00016F5952
:10362000D8A005D0000E00016F6F000E6E6F000174
:103630006E4B6F2B010E0001846FF2949DBA9EAA0F
:1036400002D0D1EC1DF09DB89EA802D0BAEC1DF0BE
:103650000EC0F5FF0DC0F8FF0CC0F7FF0BC0F6FF62
:103660000AC0F4FF09C0F3FF08C0DAFF07C0D9FFA2
:1036700006C0E2FF05C0E1FF04C0EAFF03C0E9FFA6
:1036800002C0FBFF01C0FAFF40921100010E0001D1
:10369000B66FB5690001B2510001D8A425D0000170
:1036A000B0510001B111D8B41FD0B0C0B3F0B1C057
:1036B000B4F0D8900001B337B4370001B31FB41F82
:1036C000B34BB42BFF0E0001B3250001B56F010E03
:1036D0000001B4210001B66FB5C0ABF0B6C0ACF0CC
:1036E000440EF1EC1CF012000001B205D8A4120047
:1036F0000001B0510001B111D8B41200B0C0B3F054
:10370000B1C0B4F0D8900001B337B437FF0E000158
:10371000B3250001B56F010E0001B4210001B66FA1
:10372000B5C0ABF0B6C0ACF0440EF1EC1CF012002A
:10373000206E30D0839A1200838A1200234A242AF2
:10374000B80E235C0B0E2458D8A004D0000E246EB3
:10375000000E236EDC0E235C050E2458D8A002D088
:10376000838A1200839A1200234A242AE80E235CDB
:10377000030E2458D8A004D0000E246E000E236E31
:10378000F40E235C010E2458D8A002D0838A1200C4
:10379000839A12002050000AD8B4CCD7010AD8B4BA
:1037A000CBD7030AD8B4CAD7010AD8A41200DCD7F1
:1037B000206E30D0839C1200838C1200214A222A72
:1037C000B80E215C0B0E2258D8A004D0000E226E39
:1037D000000E216EDC0E215C050E2258D8A002D00E
:1037E000838C1200839C1200214A222AE80E215C5D
:1037F000030E2258D8A004D0000E226E000E216EB7
:10380000F40E215C010E2258D8A002D0838C120045
:10381000839C12002050000AD8B4CCD7010AD8B437
:10382000CBD7030AD8B4CAD7010AD8A41200DCD770
:10383000000E0001956F000E946F00019151000180
:103840009211D8B42CD0010E0001936F06D0000164
:10385000D890913792370001932B000192AFF7D7A0
:103860000001D890943795370001915100018F5D88
:103870000001925100019059D8A00AD00001915145
:1038800000018F5F000192510001905B0001948163
:103890000001D890923391330001932FE1D794C067
:1038A0008FF095C090F012009268936894689568C4
:1038B00096680F0EC16E070EB46E9298959A959CFD
:1038C0008098839C839A92909292929492968096FA
:1038D000809480928090958495869580958294823C
:1038E000958896809682938093829384938693881A
:1038F000938A958ED5EC0DF00EEC1EF03CEC1EF08C
:103900001BEC1DF000018405D8A405D0000E0001B9
:10391000846F23EC04F027EC13F0F4D703EE00F0EF
:10392000FC0EEE6AE806FDE102EE00F0A40EEE6A7F
:10393000E806FDE101EE00F0A40EEE6AE806FDE106
:1039400000EE60F02F0EEE6AE806FDE100EE21F0D9
:103950001F0EEE6AE806FDE19C0EF66E3C0EF76E59
:10396000000EF86E00EEBCF010EE0BF00900F5CF83
:10397000EEFFE550E150FAE140904092000EF86E03
:10398000000154EF1CF00001985100019911D8B4C6
:1039900023D0010E206E05D00001D89098379937BA
:1039A000202A000199AFF8D7000198510001965DD7
:1039B0000001995100019759D8A008D000019851F1
:1039C0000001965F000199510001975B0001D890BA
:1039D00099339833202EE8D796C096F097C097F089
:1039E00012000001AF6F0001AF51020D000EF32471
:1039F000D96E010EF420DA6E0001AB51DE1805E13C
:103A00000001AC51DE18D8B412000001AF51020D14
:103A1000000EF324D96E010EF420DA6EABC0DEFF87
:103A2000ACC0DDFFABC0A8F0ACC0A9F00001AF5145
:103A3000FBEC1DF012009D9A9D98B886AB8EAB9C56
:103A4000AB88AB96AC9CAC8AAC98AC96AC84AC82A0
:103A5000AC90010E0001906FA10E8F6F000190518C
:103A6000B06E8FC0AFFF000E3E6E000E3F6E7E0E3A
:103A70003D6E000E3B6E000E3C6E000E3A6E9D8A4F
:103A8000120091C093F092C094F0060ED8900001FD
:103A900093379437E82EFAD793C095F094C096F0F8
:103AA00096C0BEFF95C093F00001D89093330001FB
:103AB000D8909333300E00019317BD50CF0B000107
:103AC0009311BD6E12000001956F00019551020D1A
:103AD000000EF324D96E010EF420DA6E000191512C
:103AE000DE1805E100019251DE18D8B41200000181
:103AF0009551020D000EF324D96E010EF420DA6EFA
:103B000091C0DEFF92C0DDFF120000018F51000165
:103B10009103F3CF93F0F4CF94F000018F510001A3
:103B20009203F3500001942700019051000191038A
:103B3000F3500001942793C08FF094C090F01200CE
:103B4000000E206E3A50D8B4FDD79D9A3C50010D1E
:103B5000000EF324D96E030EF420DA6EDF50206ECF
:103B60003C2A7D0E3C6402D0000E3C6E3A069D8AD3
:103B7000205012007E0E3D6012D03F50010D7E0E8F
:103B8000F324D96E030EF420DA6EDF50AD6E3F2AB7
:103B90007D0E3F6402D0000E3F6E3D2A12009D98BC
:103BA0001200ABA202D0AB98AB883B50010D000EC7
:103BB000F324D96E030EF420DA6EAECFDFFF3B2A7A
:103BC0007D0E3B6402D0000E3B6E3A2A12000001CB
:103BD000906F000E00018F6F3A0E0001906107D0C8
:103BE0002F0E0001906503D0010E00018F6F8FC072
:103BF00020F0203012000001AA6F0C0E00019A6F15
:103C0000080E00019B6FAAC09CF000019D6BA8C02C
:103C10009EF0A9C09FF0D3EC13F01200000E00013B
:103C2000AC6F010EAB6F450EF1EC1CF0CB687F0E54
:103C3000BE6E0F0EBD6E040ECA6E94949490120068
:103C4000206E2050020D000EF324D96E010EF420D8
:103C5000DA6EDECF8FF0DDCF90F01200206E2050B4
:103C6000020D000EF324D96E020EF420DA6EDECFC0
:103C70008FF0DDCF90F01200D08EA00EF26E840E89
:103C8000F16E000ED76E000ED66EC30ED56E12000A
:103C9000206E9EA8FED720C0ADFF120001010101D9
:073CA0000101010101010116
:020000040020DA
:08000000FFFFFFFFFFFFFFFF00
:020000040030CA
:0E0000002C0E1800FF8181FF0FC00FE00F4093
:00000001FF
