:0400000053EF00F0CA
:0E0008004D82FACF2DF0FBCF2EF025ED14F037
:100018004D80D8CF3BF0E8CF3CF0E0CF3DF0FACFB1
:100028003EF0FBCF3FF0E9CF40F0EACF41F0E1CF1F
:1000380042F0E2CF43F0D9CF44F0DACF45F0F3CF26
:1000480046F0F4CF47F0F6CF48F0F7CF49F0F8CFB5
:100058004AF0F5CF4BF04BC0F5FF4AC0F8FF49C056
:10006800F7FF48C0F6FF47C0F4FF46C0F3FF45C09E
:10007800DAFF44C0D9FF43C0E2FF42C0E1FF41C0FC
:10008800EAFF40C0E9FF3FC0FBFF3EC0FAFF3DC0AA
:10009800E0FF3CC0E8FF3BC0D8FF4D90100050EF98
:1000A80015F047EC08F03AEF08F0000E0EEC15F0EA
:1000B800000ECCEC14F0010E1F6E1200130EA5EC0E
:1000C80016F00001F9510001FA11D8B40BD0000E56
:1000D8000001FA6F000EF96F170E95EC16F0020E7C
:1000E8001F6E1200140EA5EC16F00001F951000164
:1000F800FA11D8B40BD0000E0001FA6F010EF96F97
:10010800170E95EC16F0020E1F6E1200150EA5ECD8
:1001180016F00001F9510001FA11D8B40BD0000E05
:100128000001FA6F020EF96F170E95EC16F0020E29
:100138001F6E1200160EA5EC16F00001F951000111
:10014800FA11D8B40BD0000E0001FA6F030EF96F44
:10015800170E95EC16F0020E1F6E1200120EA5EC8B
:1001680016F00001F9510001FA11D8B40BD0000EB5
:100178000001FA6F040EF96F170E95EC16F0020ED7
:100188001F6E1200010E1F6E020E0EEC15F012000B
:10019800130EA5EC16F00001F9510001FA11D8A4CC
:1001A8002FD0140EA5EC16F00001F9510001FA1138
:1001B800D8A426D0150EA5EC16F00001F9510001BF
:1001C800FA11D8A41DD0160EA5EC16F00001F951AD
:1001D8000001FA11D8A414D0120EA5EC16F00001F3
:1001E800F9510001FA11D8A40BD0100EA5EC16F0A5
:1001F8000001F9510001FA11D8A402D0030E1F6EB4
:10020800000ECCEC14F0020E0EEC15F01200130EDA
:10021800A5EC16F00001F9510001FA11D8B40BD081
:10022800000E0001FA6F000EF96F180E95EC16F02B
:10023800040E1F6E1200140EA5EC16F00001F95101
:100248000001FA11D8B40BD0000E0001FA6F010EAC
:10025800F96F180E95EC16F0040E1F6E1200150EAD
:10026800A5EC16F00001F9510001FA11D8B40BD031
:10027800000E0001FA6F020EF96F180E95EC16F0D9
:10028800040E1F6E1200160EA5EC16F00001F951AF
:100298000001FA11D8B40BD0000E0001FA6F030E5A
:1002A800F96F180E95EC16F0040E1F6E1200120E60
:1002B800A5EC16F00001F9510001FA11D8B40BD0E1
:1002C800000E0001FA6F040EF96F180E95EC16F087
:1002D800040E1F6E1200100EA5EC16F00001F95165
:1002E8000001FA11D8B40BD0000E0001FA6F090E04
:1002F800F96F180E95EC16F0040E1F6E1200020E20
:100308000EEC15F0030E1F6E1200130EA5EC16F07E
:100318000001F9510001FA11D8A45ED0140EA5EC21
:1003280016F00001F9510001FA11D8A455D0150EA4
:10033800A5EC16F00001F9510001FA11D8A44CD02F
:10034800160EA5EC16F00001F9510001FA11D8A417
:1003580043D0120EA5EC16F00001F9510001FA1174
:10036800D8A43AD0100EA5EC16F00001F9510001FE
:10037800FA11D8A431D0170EA5EC16F0F9C083F203
:10038800FAC084F2180EA5EC16F00001F95102012A
:1003980083190BE10001FA5102018419D8A405D090
:1003A800010ECCEC14F0010E1F6E170EA5EC16F022
:1003B800F9C083F2FAC084F2180EA5EC16F0000119
:1003C800F9510201831906E10001FA510201841969
:1003D800D8B402D0050E1F6E020E0EEC15F01200F6
:1003E800180EA5EC16F0090E0001F9190001FA1112
:1003F800D8B402D0060E1F6E180EA5EC16F0090E22
:100408000001F9190001FA11D8A41200090E1F6E93
:100418001200080E1F6E1200100EA5EC16F0000157
:10042800F9510001FA11D8B406D0010E206E000E61
:100438001F6E000E196E030E0EEC15F0000ECCECBC
:1004480014F01200170EA5EC16F0040E0001F919AD
:100458000001FA11D8B412D028D0010E05D0050E2B
:1004680003D0020E01D0030E226E070E1F6E1DD0A0
:10047800080E1F6E010ECCEC14F017D0180EA5EC68
:1004880016F00001FA51000AD8A4F2D70001F95178
:10049800000AD8B4E2D7010AD8B4E1D7030AD8B41D
:1004A800E0D7010AD8B4DFD7E3D7180EA5EC16F0C9
:1004B800040E0001F9190001FA11D8B412D028D09D
:1004C800010E05D0050E03D0020E01D0030E226ED8
:1004D800070E1F6E1DD0080E1F6E010ECCEC14F017
:1004E80017D0170EA5EC16F00001FA51000AD8A48F
:1004F800F2D70001F951000AD8B4E2D7010AD8B4FA
:10050800E1D7030AD8B4E0D7010AD8B4DFD7E3D7D4
:10051800170EA5EC16F0040E0001F9190001FA11E6
:10052800D8B41200180EA5EC16F0040E0001F91943
:100538000001FA11D8B41200C2D0000E1F6E1200CA
:10054800010E226E070E1F6E1200020E226E070E9B
:100558001F6E1200040E226E070E1F6E1200080E88
:100568001F6E010ECCEC14F01200180EA5EC16F05C
:100578000001FA51000AD8A4F2D70001F951000A83
:10058800D8B4DBD7010AD8B4DBD7030AD8B4DDD78F
:10059800010AD8B4DFD7E3D7010E226E070E1F6E0B
:1005A8001200000E1F6E1200000E226E070E1F6E44
:1005B8001200060E226E070E1F6E1200080E1F6E26
:1005C800010ECCEC14F01200180EA5EC16F0000188
:1005D800FA51000AD8A4F2D70001F951000AD8B498
:1005E800DBD7010AD8B4DDD7030AD8B4DDD7010AAE
:1005F800D8B4DFD7E3D7020E226E070E1F6E1200A3
:10060800000E226E070E1F6E1200000E1F6E1200E3
:10061800030E226E070E1F6E1200080E1F6E010ECB
:10062800CCEC14F01200180EA5EC16F00001FA51EB
:10063800000AD8A4F2D70001F951000AD8B4DBD7D0
:10064800010AD8B4DDD7030AD8B4DFD7010AD8B471
:10065800DFD7E3D7040E226E070E1F6E1200060EB8
:10066800226E070E1F6E1200030E226E070E1F6EFB
:100678001200000E1F6E1200080E1F6E010ECCEC49
:1006880014F01200180EA5EC16F00001FA51000A39
:10069800D8A4F2D70001F951000AD8B4DBD7010A6F
:1006A800D8B4DDD7030AD8B4DFD7010AD8B4E1D764
:1006B800E3D7080E1F6E010ECCEC14F01200170ED3
:1006C800A5EC16F00001FA51000AD8A4F2D70001EF
:1006D800F951000AD8B449D7010AD8B475D7030A22
:1006E800D8B4A1D7010AD8B4CDD7E3D70B0E1F6E63
:1006F8001200100EA5EC16F00001F9510001FA11D4
:10070800D8B406D0020E206E000E1F6E000E196EB1
:10071800030E0EEC15F0000ECCEC14F01200170EC0
:10072800A5EC16F0040E0001F9190001FA11D8A47D
:100738001FD0000E226E0A0E1F6E1200010E226ECE
:100748000A0E1F6E1200030E226E0A0E1F6E120092
:10075800000E226E0A0E1F6E1200020E226E0A0E84
:100768001F6E12000B0E1F6E010ECCEC14F012005F
:10077800170EA5EC16F00001FA51000AD8A4F2D71A
:100788000001F951000AD8B4D9D7010AD8B4DBD787
:10079800030AD8B4DDD7010AD8B4DFD7E3D7000EEF
:1007A8001F6E010ECCEC14F012001F50000AD8B4D2
:1007B8007CD4010AD8B482D4030AD8B4E9D4010A93
:1007C800D8B425D5070AD8B4A0D5010AD8B408D614
:1007D800030AD8B41ED6010AD8B41ED60F0AD8B454
:1007E80031D6010AD8B482D7030AD8B482D7010A0D
:1007F800D8B495D7D4D7000E0101FF6F020E94EC40
:100808000BF00009D8A421D2010E226E55EC13F08A
:100818001904D8A41AD2000E206E17D2020E0101B4
:10082800FF6F010E94EC0BF00009D8A40ED2020E53
:10083800226E55EC13F0ECD7030E0101FF6F000E8A
:1008480094EC0BF00009D8A400D2030E226E55ECEC
:1008580013F0DED7000E0101FF6F020E94EC0BF0CF
:100868000009D8A4F2D1040E226E55EC13F0D0D7AB
:10087800010E0101FF6F030E94EC0BF00009D8A4E0
:10088800E4D1050E226E55EC13F0C2D7030E010118
:10089800FF6F000E94EC0BF00009D8A4D6D1060E19
:1008A800226E55EC13F0B4D7020E0101FF6F010E52
:1008B80094EC0BF00009D8A4C8D1070E226E55ECB1
:1008C80013F0A6D7010E0101FF6F030E94EC0BF095
:1008D8000009D8A4BAD1000E226E55EC13F098D7AF
:1008E8002250000AD8B487D7010AD8B497D7030A88
:1008F800D8B4A2D7010AD8B4ADD7070AD8B4B8D7A4
:10090800010AD8B4C3D7030AD8B4CED7010AD8B4D9
:10091800D9D79BD1140EA5EC16F00001F9510001AE
:10092800FA11D8B40FD0160EA5EC16F00001F95143
:100938000001FA11D8B406D0010E1A6E030ECCECE1
:1009480014F08ED1000E1A6E000ECCEC14F088D183
:10095800140EA5EC16F00001F9510001FA11D8A403
:100968000FD0160EA5EC16F00001F9510001FA118E
:10097800D8A406D0020E1A6E030ECCEC14F005D0E3
:10098800010E1A6E030ECCEC14F0270E0001E96F6D
:10099800100EE86F65D1140EA5EC16F00001F951A0
:1009A8000001FA11D8A420D0160EA5EC16F000010B
:1009B800F9510001FA11D8A417D0150EA5EC16F0BC
:1009C8000001F9510001FA11D8A40ED0130EA5ECBC
:1009D80016F00001F9510001FA11D8A405D0000160
:1009E800E807D8A0E90705D0270E0001E96F100E27
:1009F800E86F030ECCEC14F04AD0000E3BD0070E83
:100A0800A5EC16F0F9C083F2FAC084F2060EA5EC44
:100A180016F00001F9510201835D0001FA5102014B
:100A28008459D8A003D0070E3BEC16F0050EA5ECB0
:100A380016F0F9C083F2FAC084F2080EA5EC16F09D
:100A48000001F9510201835D0001FA510201845944
:100A5800D8A003D0080E69EC16F0010E0BD0025096
:100A680004E1140E015CD8A007D0000E026E000E3F
:100A7800016EC3D71B6E51D0014A022A4ED01B50BB
:100A8800000AD8B4BCD7010AD8B4E9D7B6D7130E30
:100A9800A5EC16F00001FA51000AD8A43ED00001D6
:100AA800F951000AD8B4A9D7010AD8B4E8D735D083
:100AB800000E26D0070EA5EC16F00001F929030E4A
:100AC8000001FA59D8B003D0070E69EC16F0080EE9
:100AD800A5EC16F00001F9510001FA11D8B403D0C1
:100AE800080E3BEC16F0010E0BD0025004E1140E78
:100AF800015CD8A007D0000E026E000E016ED8D798
:100B08001C6E46D0014A022A43D01C50000AD8B4B1
:100B1800D1D7010AD8B4E9D7CBD7140EA5EC16F073
:100B28000001FA51000AD8A433D00001F951000A93
:100B3800D8B4BED7010AD8B4E8D72AD0000E1BD043
:100B4800090EA5EC16F00001FA5108E1FB0E0001B0
:100B5800F95DD8B003D0090E69EC16F0010E0BD080
:100B6800025004E1140E015CD8A007D0000E026EFA
:100B7800000E016EE3D71D6E44D0014A022A41D00F
:100B88001D50000AD8B4DCD7010AD8B4E9D7D6D7A3
:100B9800150EA5EC16F00001FA51000AD8A431D0C0
:100BA8000001F951000AD8B4C9D7010AD8B4E8D766
:100BB80028D0000E19D0090EA5EC16F00001F95145
:100BC8000001FA11D8B403D0090E3BEC16F0010E5F
:100BD8000BD0025004E1140E015CD8A007D0000E1F
:100BE800026E000E016EE5D71E6E1BD0014A022A66
:100BF80018D01E50000AD8B4DED7010AD8B4E9D7F5
:100C0800D8D7160EA5EC16F00001FA51000AD8A4A0
:100C180008D00001F951000AD8B4CBD7010AD8B4DA
:100C2800E8D70001E9511CE1020E0001E85DD8B0E7
:100C380017D0000E1A6E000ECCEC14F011D0000E76
:100C48001A6E000ECCEC14F00BD01A50000AD8B46F
:100C580061D6010AD8B47CD6030AD8B49CD6EFD79B
:100C6800110EA5EC16F00001F9510001FA11D8B4E3
:100C780002D0010E196E1904D8A403D0020ECCECD0
:100C880014F0010E0EEC15F01200000E0101FF6FBA
:100C9800020E94EC0BF00009D8A4DDD1010E226EEF
:100CA80055EC13F01904D8A4D6D1000E206ED3D178
:100CB800030E0101FF6F000E94EC0BF00009D8A49D
:100CC800CAD1020E226E55EC13F0ECD7010E0101C9
:100CD800FF6F030E94EC0BF00009D8A4BCD1030EEF
:100CE800226E55EC13F0DED7020E0101FF6F010EE4
:100CF80094EC0BF00009D8A4AED1000E226E55EC8E
:100D080013F0D0D72250000AD8B4BFD7010AD8B4FC
:100D1800CFD7030AD8B4DAD7010AD8B4E5D79BD11C
:100D2800140EA5EC16F00001F9510001FA11D8B41F
:100D38000FD0160EA5EC16F00001F9510001FA11BA
:100D4800D8B406D0010E1A6E030ECCEC14F01200C3
:100D5800000E1A6E000ECCEC14F01200140EA5EC66
:100D680016F00001F9510001FA11D8A40FD0160E9F
:100D7800A5EC16F00001F9510001FA11D8A406D02B
:100D8800020E1A6E030ECCEC14F005D0010E1A6E8A
:100D9800030ECCEC14F0270E0001E96F100EE86F7B
:100DA8001200140EA5EC16F00001F9510001FA1119
:100DB800D8A420D0160EA5EC16F00001F9510001B8
:100DC800FA11D8A417D0150EA5EC16F00001F951A8
:100DD8000001FA11D8A40ED0130EA5EC16F00001EC
:100DE800F9510001FA11D8A405D00001E807D8A0EC
:100DF800E90705D0270E0001E96F100EE86F030E12
:100E0800CCEC14F04AD0000E3BD0070EA5EC16F03F
:100E1800F9C083F2FAC084F2060EA5EC16F00001C0
:100E2800F9510201835D0001FA5102018459D8A0E9
:100E380003D0070E3BEC16F0050EA5EC16F0F9C032
:100E480083F2FAC084F2080EA5EC16F00001F951FD
:100E58000201835D0001FA5102018459D8A003D030
:100E6800080E69EC16F0010E0BD0025004E1140EC6
:100E7800015CD8A007D0000E026E000E016EC3D729
:100E88001B6E51D0014A022A4ED01B50000AD8B41A
:100E9800BCD7010AD8B4E9D7B6D7130EA5EC16F01B
:100EA8000001FA51000AD8A43ED00001F951000A05
:100EB800D8B4A9D7010AD8B4E8D735D0000E26D0BF
:100EC800070EA5EC16F00001F929030E0001FA59E6
:100ED800D8B003D0070E69EC16F0080EA5EC16F092
:100EE8000001F9510001FA11D8B403D0080E3BEC07
:100EF80016F0010E0BD0025004E1140E015CD8A0CC
:100F080007D0000E026E000E016ED8D71C6E46D0B8
:100F1800014A022A43D01C50000AD8B4D1D7010A8A
:100F2800D8B4E9D7CBD7140EA5EC16F00001FA51C6
:100F3800000AD8A433D00001F951000AD8B4BED7AA
:100F4800010AD8B4E8D72AD0000E1BD0090EA5ECA8
:100F580016F00001FA5108E1FB0E0001F95DD8B066
:100F680003D0090E69EC16F0010E0BD0025004E113
:100F7800140E015CD8A007D0000E026E000E016EA0
:100F8800E3D71D6E44D0014A022A41D01D50000A01
:100F9800D8B4DCD7010AD8B4E9D7D6D7150EA5EC52
:100FA80016F00001FA51000AD8A431D00001F95115
:100FB800000AD8B4C9D7010AD8B4E8D728D0000E97
:100FC80019D0090EA5EC16F00001F9510001FA112B
:100FD800D8B403D0090E3BEC16F0010E0BD002502A
:100FE80004E1140E015CD8A007D0000E026E000EBA
:100FF800016EE5D71E6E1BD0014A022A18D01E507A
:10100800000AD8B4DED7010AD8B4E9D7D8D7160E63
:10101800A5EC16F00001FA51000AD8A408D0000186
:10102800F951000AD8B4CBD7010AD8B4E8D70001DF
:10103800E95128E1020E0001E85DD8B01200000E67
:101048001A6E000ECCEC14F01200000E1A6E000E90
:10105800CCEC14F012001A50000AD8B461D6010A78
:10106800D8B47CD6030AD8B49CD6EFD72050000A4F
:10107800D8B4D9EF03F0010AD8B432D4030AD8A4FB
:10108800120040D6120027D0000E126E000E00018A
:10109800FA6F000EF96F0F0E95EC16F04FD0125044
:1010A8000001FC6FFD6B0B0EA5EC16F00001FC5166
:1010B8000001F95D0001FD510001FA59D8A002D0E4
:1010C800122A3CD0000E0001FA6F010EF96F0F0EC4
:1010D80095EC16F033D083A402D0010E01D0000E97
:1010E800000AD8B4DCD7010AD8B4CED727D0000E6E
:1010F800116E000E0001FA6F000EF96F0E0E95ECDE
:1011080016F04FD011500001FC6FFD6B0B0EA5ECD3
:1011180016F00001FC510001F95D0001FD510001CC
:10112800FA59D8A002D0112A3CD0000E0001FA6F5B
:10113800010EF96F0E0E95EC16F033D083A602D08F
:10114800010E01D0000E000AD8B4DCD7010AD8B4C9
:10115800CED727D0000E166E000E0001FA6F000ED3
:10116800F96F0D0E95EC16F04FD016500001FC6F7C
:10117800FD6B0B0EA5EC16F00001FC510001F95DAA
:101188000001FD510001FA59D8A002D0162A3CD01E
:10119800000E0001FA6F010EF96F0D0E95EC16F0B6
:1011A80033D083A002D0010E01D0000E000AD8B4BB
:1011B800DCD7010AD8B4CED727D0000E156E000EA2
:1011C8000001FA6F000EF96F0C0E95EC16F04FD077
:1011D80015500001FC6FFD6B0B0EA5EC16F000011D
:1011E800FC510001F95D0001FD510001FA59D8A038
:1011F80002D0152A3CD0000E0001FA6F010EF96FDB
:101208000C0E95EC16F033D083A202D0010E01D05B
:10121800000E000AD8B4DCD7010AD8B4CED727D03C
:101228000F500001FC6FFD6B0B0EA5EC16F00001D2
:10123800FC510001F95D0001FD510001FA59D8A0E7
:1012480002D00F2A51D0000E0001FA6F010EF96F7B
:10125800100E95EC16F048D0000E0F6E000E00012F
:10126800FA6F000EF96F100E95EC16F03DD081B0B4
:1012780002D0010E01D0000E0001FC6FFD6B0001D1
:10128800FD51000AD8A430D00001FC51000AD8B49E
:10129800E3D7010AD8B4C4D727D010500001FC6F97
:1012A800FD6B0B0EA5EC16F00001FC510001F95D79
:1012B8000001FD510001FA59D8A002D0102A51D0DE
:1012C800000E0001FA6F010EF96F110E95EC16F081
:1012D80048D0000E106E000E0001FA6F000EF96F74
:1012E800110E95EC16F03DD083BE02D0010E01D050
:1012F800000E0001FC6FFD6B0001FD51000AD8A42F
:1013080030D00001FC51000AD8B4E3D7010AD8B4A0
:10131800C4D727D00E500001FC6FFD6B0B0EA5EC57
:1013280016F00001FC510001F95D0001FD510001BA
:10133800FA59D8A002D00E2A51D0000E0001FA6F37
:10134800010EF96F120E95EC16F048D0000E0E6ED5
:10135800000E0001FA6F000EF96F120E95EC16F0F0
:101368003DD081B202D0010E01D0000E0001FC6F09
:10137800FD6B0001FD51000AD8A430D00001FC51DA
:10138800000AD8B4E3D7010AD8B4C4D727D00D507F
:101398000001FC6FFD6B0B0EA5EC16F00001FC5173
:1013A8000001F95D0001FD510001FA59D8A002D0F1
:1013B8000D2A54D0000E0001FA6F010EF96F130EBA
:1013C80095EC16F04BD0000E0D6E000E0001FA6F72
:1013D800000EF96F130E95EC16F040D081BA02D0CA
:1013E800010E01D0000E0001FC6FFD6B0001FD51E4
:1013F800000AD8A433D00001FC51000AD8B4E3D7BE
:10140800010AD8B4C4D72AD00001EC510001FC6FFE
:10141800FD6B0B0EA5EC16F00001FC510001F95D07
:101428000001FD510001FA59D8A003D00001EC2BAE
:1014380055D0000E0001FA6F010EF96F140E95ECED
:1014480016F04CD0000E0001EC6F000E0001FA6F90
:10145800000EF96F140E95EC16F040D081B802D04A
:10146800010E01D0000E0001FC6FFD6B0001FD5163
:10147800000AD8A433D00001FC51000AD8B4E2D73E
:10148800010AD8B4C1D72AD00001ED510001FC6F80
:10149800FD6B0B0EA5EC16F00001FC510001F95D87
:1014A8000001FD510001FA59D8A003D00001ED2B2D
:1014B80055D0000E0001FA6F010EF96F150E95EC6C
:1014C80016F04CD0000E0001ED6F000E0001FA6F0F
:1014D800000EF96F150E95EC16F040D081B602D0CB
:1014E800010E01D0000E0001FC6FFD6B0001FD51E3
:1014F800000AD8A433D00001FC51000AD8B4E2D7BE
:10150800010AD8B4C1D72AD00001EE510001FC6FFE
:10151800FD6B0B0EA5EC16F00001FC510001F95D06
:101528000001FD510001FA59D8A003D00001EE2BAB
:1015380052D0000E0001FA6F010EF96F160E95ECED
:1015480016F049D0000E0001EE6F000E0001FA6F90
:10155800000EF96F160E95EC16F03DD081B402D04E
:10156800010E01D0000E0001FC6FFD6B0001FD5162
:10157800000AD8A430D00001FC51000AD8B4E2D740
:10158800010AD8B4C1D727D014500001FC6FFD6BF5
:101598000B0EA5EC16F00001FC510001F95D0001ED
:1015A800FD510001FA59D8A002D0142A47D0000EE4
:1015B8000001FA6F010EF96F190E95EC16F03ED086
:1015C800000E146E000E0001FA6F000EF96F190E6E
:1015D80095EC16F033D082A202D0010E01D0000E95
:1015E800000AD8B4EDD7010AD8B4CED727D0135003
:1015F8000001FC6FFD6B0B0EA5EC16F00001FC5111
:101608000001F95D0001FD510001FA59D8A002D08E
:10161800132A47D0000E0001FA6F010EF96F1A0E57
:1016280095EC16F03ED0000E136E000E0001FA6F16
:10163800000EF96F1A0E95EC16F033D083A802D07D
:10164800010E01D0000E000AD8B4EDD7010AD8B4B3
:10165800CED727D018500001FC6FFD6B0B0EA5EC00
:1016680016F00001FC510001F95D0001FD51000177
:10167800FA59D8A002D0182A47D0000E0001FA6FF4
:10168800010EF96F1B0E95EC16F03ED0000E186E89
:10169800000E0001FA6F000EF96F1B0E95EC16F0A4
:1016A80033D082A802D0010E01D0000E000AD8B4AF
:1016B800EDD7010AD8B4CED727D017500001FC6F58
:1016C800FD6B0B0EA5EC16F00001FC510001F95D55
:1016D8000001FD510001FA59D8A002D0172A1200C2
:1016E800000E0001FA6F010EF96F1C0E95EC16F052
:1016F8001200000E176E000E0001FA6F000EF96F4F
:101708001C0E95EC16F0120082AA02D0010E01D030
:10171800000E000AD8B4EDD7010AD8A41200CDD71C
:101728000201826F9BD1000E0001FC6F010EBEEC1E
:1017380013F00009D8B41AD0010E4C6EB8D1010EBE
:101748000001FC6F010EBEEC13F0F3D7010E00018F
:10175800FC6F000EBEEC13F0ECD7000E0001FC6F1E
:10176800000EBEEC13F00009D8A4E6D7010E16D07F
:1017780002018251000AD8B4E9D7010AD8B4EDD7DA
:10178800030AD8B4D0D7010AD8B4D9D790D1000E5B
:101798000001FC6F010EBEEC13F018D0246E010E90
:1017A8004C6ECAD7010E0001FC6F010EBEEC13F09F
:1017B8000DD0010E0001FC6F000EBEEC13F006D038
:1017C800000E0001FC6F000EBEEC13F00009D8A457
:1017D800B3D7020EE3D70101FF51000AD8B4E9D705
:1017E800010AD8B4EDD7030AD8B4D1D7010AD8B4BE
:1017F800D9D75DD12EEC11F008D02EEC11F005D020
:1018080043EC12F002D043EC12F00009D8A494D7AC
:10181800030EC4D70101FF51000AD8B4F1D7010A59
:10182800D8B4F1D7030AD8B4E5D7010AD8B4E5D7B4
:101838003ED10C0EA5EC16F00001F9050001FA11D5
:10184800D8B487D0190EA5EC16F00001F9050001EF
:10185800FA11D8A402D0050E49D01A0EA5EC16F03C
:101868000001F9050001FA11D8A402D0060E3ED0F5
:101878001C0EA5EC16F00001F9050001FA11D8A418
:1018880002D0070E33D01B0EA5EC16F00001F905A7
:101898000001FA11D8A450D7080E28D00D0EA5ECD7
:1018A80016F00001F9050001FA11D8B452D0190E4A
:1018B800A5EC16F00001F9050001FA11D8B4CBD750
:1018C8001A0EA5EC16F00001F9050001FA11D8B4BA
:1018D800CDD71C0EA5EC16F00001F9050001FA1190
:1018E800D8B4CFD71B0EA5EC16F0D0D7246E24D7CA
:1018F8000E0EA5EC16F00001F9050001FA11D8B496
:1019080028D0190EA5EC16F00001F9050001FA110E
:10191800D8B42AD01A0EA5EC16F00001F90500017A
:10192800FA11D8B42CD01C0EA5EC16F00001F9055C
:101938000001FA11D8B42ED01B0EA5EC16F02FD04A
:101948000F0EA5EC16F00001F9050001FA11D8A454
:1019580002D0040ECBD7190EA5EC16F00001F9053C
:101968000001FA11D8A402D0090EC0D71A0EA5ECAE
:1019780016F00001F9050001FA11D8A402D00A0EE8
:10198800B5D71C0EA5EC16F00001F9050001FA11F7
:10199800D8A402D00B0EAAD71B0EA5EC16F0000196
:1019A800F9050001FA11D8A4C7D60C0E9FD701017A
:1019B800FF51000AD8B49CD7010AD8B4C1D7030A8A
:1019C800D8B437D7010AD8B469D771D086EC0FF0EC
:1019D80008D086EC0FF005D0F5EC0EF002D0F5EC4F
:1019E8000EF00009D8A4A8D6000E246E000EA5D6C5
:1019F8000101FF51000AD8B4EFD7010AD8B4EFD7D4
:101A0800030AD8B4E3D7010AD8B4E3D750D0010EFB
:101A1800B9EC11F01BD0020EB9EC11F017D0030E7F
:101A2800A1EC10F013D0040EA1EC10F00FD0040EAE
:101A380014EC10F00BD0030E14EC10F007D0020ECB
:101A4800CCEC12F003D0010ECCEC12F00009D8A4B3
:101A580073D6030E01D0000E246E6ED62450000AF1
:101A6800D8B486D6010AD8B4B6D6030AD8B4D2D622
:101A7800010AD8B49CD7070AD8B4BAD7010AD8B48F
:101A8800C6D7030AD8B4C7D7010AD8B4C8D70F0A2B
:101A9800D8B4C9D7010AD8B4CAD7030AD8B4CBD79F
:101AA800010AD8B4CCD7070AD8B4CDD7D4D74C506C
:101AB8001200000E0001FA6F000EF96F0001FA51D2
:101AC80027E1400E0001F95DD8B022D0D89000017E
:101AD800F935D96E0001FA35DA6E000ED926010EF5
:101AE800DA22000EDE6E000EDD6ED8900001F935A8
:101AF800D96E0001FA35DA6E600ED926000EDA22A8
:101B0800000EDE6E000EDD6E0001F94BFA2BD6D703
:101B1800000E0101016F000E006F000E0101056F3C
:101B2800010E046F000E0101076F010E066F000E13
:101B38000101096F010E086F000E01010B6F010E04
:101B48000A6F000E01010D6F010E0C6F000E0101EE
:101B58000F6F010E0E6F000E0101116F010E106F55
:101B6800000E0101136F010E126F000E0101156FB7
:101B7800010E146F000E0101176F010E166F000E93
:101B88000101196F000E186F000E01011B6F000E86
:101B98001A6F000E01011D6F000E1C6F000E01016F
:101BA8001F6F000E1E6F000E0101216F000E206FC7
:101BB800000E0101236F000E226F000E0101256F38
:101BC800000E246F000E0101276F000E266F000E15
:101BD8000101296F000E286F000E01012B6F000E06
:101BE8002A6F000E01012D6F000E2C6F000E0101EF
:101BF8002F6F010E2E6F000E0101316F010E306F35
:101C0800000E0101336F000E326F000E0101356FB7
:101C1800000E346F000E0101376F000E366F000E94
:101C28000101396F000E386F000E0001616F3F0E21
:101C3800606F270E0001656F100E646F030E0001C0
:101C4800676F200E666F130E0001696F880E686F4C
:101C5800000E00016B6F140E6A6F000E00016D6FAD
:101C6800140E6C6F000E00016F6F6B0E6E6F000E1E
:101C78000001716F6B0E706F000E0001736F500ED4
:101C8800726F000E0001756F2D0E746F000E00014B
:101C9800776F140E766F000E0001796F000E786F63
:101CA800000E00017B6F000E7A6F000E00017D6F41
:101CB800000E7C6F000E00017F6F000E7E6F000E1D
:101CC8000001816F000E806F000E0001836F000E0F
:101CD800826F000E0001856F000E846F000E0001F8
:101CE800876F000E866F000E0001896F000E886FE7
:101CF800000E00018B6F000E8A6F000E00018D6FC1
:101D0800000E8C6F000E00018F6F090E8E6F000E93
:101D18000001916F090E906F000E0001936F000E85
:101D2800926F000E0001956F000E946F000E000177
:101D3800976F000E966F000E0001996F000E986F56
:101D4800000E00019B6F6B0E9A6F000E00019D6FD5
:101D58006B0E9C6F000E00019F6F6B0E9E6F000E46
:101D68000001A16F6B0EA06F000E0001A36F6B0E38
:101D7800A26F000E0001A56F6B0EA46F000E00018C
:101D8800A76F6B0EA66F000E0001A96F6B0EA86FF0
:101D9800000E0001AB6F640EAA6F000E0001AD6F5C
:101DA800640EAC6F000E0001AF6F640EAE6F000ED4
:101DB8000001B16F640EB06F000E0001B36F640EC6
:101DC800B26F000E0001B56F640EB46F000E000113
:101DD800B76F640EB66F000E0001B96F640EB86F6E
:101DE800120080D009C0FCF10AC0FDF1000E01010B
:101DF800FE6F88EC14F0010E0001F56F050EA5ECDE
:101E080016F00001F951095C0001FA510A58D8A0EE
:101E180002D0010E62D0090EA5EC16F00001F951AE
:101E28000B5C0001FA510C58D8A007D00906D8A0BD
:101E38000A06000E0C6E000E0B6E0B4A0C2A5FD0C1
:101E4800020EA5EC16F00001F9510001E05D000159
:101E5800FA510001E159D8A008D0020E236E000EF5
:101E68000001E16F000EE06F39D0010E0001F56F3F
:101E78000001E04BE12B010E236E41D0050EA5ECCD
:101E880016F0F9C0FCF1FAC0FDF1000E0101FE6F79
:101E980088EC14F08280050EA5EC16F0F9C009F064
:101EA800FAC00AF019D0040EA5EC16F00001F95199
:101EB8000001E05D0001FA510001E159D8A009D004
:101EC800000E236E000E0001E16F000EE06F000EA1
:101ED80006D00001E04BE12B030E236E010E00013A
:101EE800F56F0DD02350000AD8B47CD7010AD8B4B6
:101EF800A7D7030AD8B4C2D7010AD8B4D4D70001E7
:101F0800F55112007DD009C0FCF10AC0FDF1010EA7
:101F18000101FE6F88EC14F0060EA5EC16F0000126
:101F2800F951095C0001FA510A58D8A002D0010EF3
:101F380062D0090EA5EC16F00001F9510B5C000106
:101F4800FA510C58D8A007D00906D8A00A06000EE6
:101F58000C6E000E0B6E0B4A0C2A4ED0020EA5EC2E
:101F680016F00001F9510001E45D0001FA51000189
:101F7800E559D8A008D0020E236E000E0001E56FC7
:101F8800000EE46F39D0010E0001F76F0001E44B39
:101F9800E52B010E236E41D0060EA5EC16F0F9C014
:101FA800FCF1FAC0FDF1010E0101FE6F88EC14F09E
:101FB8008280060EA5EC16F0F9C009F0FAC00AF006
:101FC80019D0040EA5EC16F00001F9510001E45DEA
:101FD8000001FA510001E559D8A009D0000E236E7E
:101FE800000E0001E56F000EE46F000E06D0000140
:101FF800E44BE52B030E236E010E0001F76F0DD0A5
:102008002350000AD8B47FD7010AD8B4A7D7030A47
:10201800D8B4C2D7010AD8B4D4D70001F7511200F6
:102028000001FF6F80D0030E0001FF19D8A402D071
:10203800010E0CD0250EA5EC16F00001F951055C37
:102048000001FA510658D8A007D0000E216E000EE4
:10205800066E000E056E6ED0054A062A6BD0040E79
:102068000001FF19D8A42ED009C0FCF10AC0FDF167
:10207800000E0101FE6F88EC14F01E0EA5EC16F0A0
:1020880009500001F95D0A500001FA59D8A007D09B
:10209800000E236E000E216E000E0001F46F0A0E72
:1020A800A5EC16F00001F9510B5C0001FA510C582F
:1020B800D8A036D00906D8A00A06000E0C6E000E6D
:1020C8000B6E2ED0030E0001FF19D8A433D009C01F
:1020D800FCF10AC0FDF1000E0101FE6F88EC14F05E
:1020E800080EA5EC16F009500001F95D0A50000130
:1020F800FA59D8A007D0000E236E000E216E000EEC
:102108000001F46F0A0EA5EC16F00001F9510B5C02
:102118000001FA510C58D8A003D0094A0A2ACDD791
:102128000B4A0C2A07D02150000AD8B47CD7010AE0
:10213800D8B495D70001F45112000001FF6F80D088
:10214800040E0001FF19D8A402D0010E0CD0280EED
:10215800A5EC16F00001F951055C0001FA5106588A
:10216800D8A007D0000E216E000E066E000E056E78
:102178006ED0054A062A6BD0030E0001FF19D8A4B9
:102188002DD009C0FCF10AC0FDF1010E0101FE6F5E
:1021980088EC14F01F0EA5EC16F00001F951095C4B
:1021A8000001FA510A58D8A007D0000E236E000E7D
:1021B800216E000E0001F36F0A0EA5EC16F0000167
:1021C800F9510B5C0001FA510C58D8A036D0094AD5
:1021D8000A2A000E0C6E000E0B6E2FD0040E0001A2
:1021E800FF19D8A434D009C0FCF10AC0FDF1010ED2
:1021F8000101FE6F88EC14F0070EA5EC16F0000143
:10220800F951095C0001FA510A58D8A007D0000E0C
:10221800236E000E216E000E0001F36F0A0EA5EC6E
:1022280016F00001F9510B5C0001FA510C58D8A0C6
:1022380004D00906D8A00A06CCD70B4A0C2A07D026
:102248002150000AD8B47CD7010AD8B495D7000128
:10225800F35112007AD0040EA5EC16F00001F951E2
:102268000001E65D0001FA510001E759D8A002D04B
:10227800010E2CD00001E64BE72B000E236E61D037
:10228800060EA5EC16F0F9C0FCF1FAC0FDF1010E3E
:102298000101FE6F88EC14F0060EA5EC16F0F9C0EB
:1022A80009F0FAC00AF08290010E0001F86F1BD005
:1022B800020EA5EC16F00001F9510001E65D0001DF
:1022C800FA510001E759D8A008D0030E236E000E7A
:1022D8000001E76F000EE66F34D0010E0001F86FC1
:1022E8000001E64BE72B020E236E3CD009C0FCF13F
:1022F8000AC0FDF1010E0101FE6F88EC14F0070E13
:10230800A5EC16F009500001F95D0A500001FA59D0
:10231800D8A004D0000E236E000E14D00A0EA5EC2F
:1023280016F00001F9510B5C0001FA510C58D8A0C5
:1023380006D0094A0A2A000E0C6E000E0B6E0B4AD4
:102348000C2A010E0001F86F0DD02350000AD8B4F2
:1023580082D7010AD8B494D7030AD8B4A9D7010AF6
:10236800D8B4C4D70001F85112000001FF6F7DD026
:10237800020E0001FF19D8B40BD02B0EA5EC16F0F5
:102388000001F951055C0001FA510658D8A007D0A0
:10239800010E216E000E066E000E056E6DD0054A08
:1023A800062A6AD00001FF05D8A42ED009C0FCF186
:1023B8000AC0FDF1010E0101FE6F88EC14F0210E38
:1023C800A5EC16F00001F951095C0001FA510A5810
:1023D800D8A007D0000E236E000E216E000E00015B
:1023E800F16F0A0EA5EC16F00001F9510B5C000123
:1023F800FA510C58D8A036D00906D8A00A06000E03
:102408000C6E000E0B6E2ED0020E0001FF19D8A420
:1024180033D009C0FCF10AC0FDF1010E0101FE6FC5
:1024280088EC14F0070EA5EC16F009500001F95DD0
:102438000A500001FA59D8A007D0000E236E000EEA
:10244800216E000E0001F16F0A0EA5EC16F00001D6
:10245800F9510B5C0001FA510C58D8A003D0094A75
:102468000A2ACDD70B4A0C2A07D02150000AD8B423
:102478007FD7010AD8B496D70001F151120078D05D
:10248800040EA5EC16F00001F9510001E25D00010F
:10249800FA510001E359D8A002D0010E2ED0000154
:1024A800E24BE32B000E19D0010E0001F66F6DD040
:1024B800050EA5EC16F0F9C0FCF1FAC0FDF1000E0E
:1024C8000101FE6F88EC14F0050EA5EC16F0F9C0BA
:1024D80009F0FAC00AF082901AD0236EE5D7020EEE
:1024E800A5EC16F00001F9510001E25D0001FA5176
:1024F8000001E359D8A008D0030E236E000E000196
:10250800E36F000EE26FD0D70001E24BE32B020E1F
:10251800E4D709C0FCF10AC0FDF1000E0101FE6F0D
:1025280088EC14F0010E0001F66F080EA5EC16F009
:1025380009500001F95D0A500001FA59D8A004D0E9
:10254800000E236E000EB1D70A0EA5EC16F000019E
:10255800F9510B5C0001FA510C58D8A006D0094A71
:102568000A2A000E0C6E000E0B6E0B4A0C2A0DD0B8
:102578002350000AD8B484D7010AD8B499D7030ADB
:10258800D8B4ADD7010AD8B4C4D70001F6511200A7
:102598000001FF6F7CD00001FF05D8B40BD02A0ED4
:1025A800A5EC16F00001F951055C0001FA51065836
:1025B800D8A007D0010E216E000E066E000E056E23
:1025C8006DD0054A062A6AD0020E0001FF19D8A468
:1025D8002DD009C0FCF10AC0FDF1000E0101FE6F0B
:1025E80088EC14F0240EA5EC16F00001F951095CF2
:1025F8000001FA510A58D8A007D0000E236E000E29
:10260800216E000E0001F26F0A0EA5EC16F0000113
:10261800F9510B5C0001FA510C58D8A035D0094A81
:102628000A2A000E0C6E000E0B6E2ED00001FF055C
:10263800D8A434D009C0FCF10AC0FDF1000E010194
:10264800FE6F88EC14F0080EA5EC16F00950000196
:10265800F95D0A500001FA59D8A007D0000E236E80
:10266800000E216E000E0001F26F0A0EA5EC16F0A6
:102678000001F9510B5C0001FA510C58D8A004D0A4
:102688000906D8A00A06CDD70B4A0C2A07D0215034
:10269800000AD8B480D7010AD8B496D70001F251FD
:1026A8001200000EF26EA69EA684010EA96E070EF9
:1026B800A5EC16F00001F951A86E550EA76EAA0EEA
:1026C800A76EA682A1A8FED7A198A69EA684000EF2
:1026D800A96E070EA5EC16F00001FAC0F9F000018A
:1026E800FA6B0001F951A86E550EA76EAA0EA76ED7
:1026F800A682A1A8FED7A198A69EA684030EA96EBD
:10270800080EA5EC16F00001F951A86E550EA76E3B
:10271800AA0EA76EA682A1A8FED7A198A69EA684F7
:10272800020EA96E080EA5EC16F00001FAC0F9F029
:102738000001FA6B0001F951A86E550EA76EAA0E9A
:10274800A76EA682A1A8FED7A198A69EA684040E6D
:10275800A96E090EA5EC16F00001F951A86E550EE8
:10276800A76EAA0EA76EA682A1A8FED7A198A00E52
:10277800F26E12000001FD6F56D0010E0001F06FDD
:102788001AD0808620D080841ED00001FC51000A17
:10279800D8B4F7D7010AD8B4F6D715D0808213D0A9
:1027A800808011D00001FC51000AD8B4F7D7010A83
:1027B800D8B4F6D708D00001FD51000AD8B4E5D73F
:1027C800010AD8B4EFD7010E0001EF6F37D0030E1E
:1027D800A5EC16F00001F9510001DE5D0001FA5187
:1027E8000001DF59D8A00AD0020E0001EF6F000ED9
:1027F8000001DF6F000EDE6F010E12D0010E000126
:10280800F06F010E0001EF6F0001DE4BDF2B16D0D9
:102818008096809480928090000E0001EF6F000EE9
:102828000001F06F0BD00001EF51000AD8B4A5D712
:10283800010AD8B4CCD7030AD8B4EAD70001F051BA
:1028480012000600E9CF2FF0EACF30F0E1CF31F0E7
:10285800E2CF32F0D9CF33F0DACF34F0F3CF35F01E
:10286800F4CF36F0F6CF37F0F7CF38F0F8CF39F0AD
:10287800F5CF3AF0F2A420D00001EB5107E1650E44
:102888000001EA5DD8B002D0808801D08098BC0EE3
:102898000001EA5D020E0001EB59D8A007D0000E36
:1028A8000001EB6F000EEA6FD1EC16F00001EA4B65
:1028B800EB2B010E256EF2949DBA9EAA02D07FECF6
:1028C80016F09DB89EA802D052EC16F03AC0F5FF5B
:1028D80039C0F8FF38C0F7FF37C0F6FF36C0F4FF3D
:1028E80035C0F3FF34C0DAFF33C0D9FF32C0E2FF8E
:1028F80031C0E1FF30C0EAFF2FC0E9FF2EC0FBFF67
:102908002DC0FAFF4D921100010E0201816F8069FE
:102918000101FE510101D8A41ED0FCC17EF2FDC107
:102928007FF2D89002017E377F3702017E1F7F1F1A
:102938007E4B7F2BFF0E02017E250201806F010E68
:1029480002017F210201816F80C2F9F081C2FAF091
:10295800E2EC15F012000101FE05D8A41200FCC13A
:102968007EF2FDC17FF2D89002017E377F37FF0EDD
:1029780002017E250201806F010E02017F21020102
:10298800816F80C2F9F081C2FAF0E2EC15F0120012
:102998000001F96F30D0839A1200838A1200074A27
:1029A800082AB80E075C0B0E0858D8A004D0000EF1
:1029B800086E000E076EDC0E075C050E0858D8A0DE
:1029C80002D0838A1200839A1200074A082AE80E66
:1029D800075C030E0858D8A004D0000E086E000E3D
:1029E800076EF40E075C010E0858D8A002D0838A3F
:1029F8001200839A12000001F951000AD8B4CBD70B
:102A0800010AD8B4CAD7030AD8B4C9D7010AD8A4C6
:102A18001200DBD70001F96F30D0839C1200838C41
:102A28001200034A042AB80E035C0B0E0458D8A0FF
:102A380004D0000E046E000E036EDC0E035C050E5F
:102A48000458D8A002D0838C1200839C1200034A39
:102A5800042AE80E035C030E0458D8A004D0000E24
:102A6800046E000E036EF40E035C010E0458D8A029
:102A780002D0838C1200839C12000001F951000AD5
:102A8800D8B4CBD7010AD8B4CAD7030AD8B4C9D79F
:102A9800010AD8A41200DBD702EE00F07E0EEE6A1F
:102AA800E806FDE101EE00F0FC0EEE6AE806FDE145
:102AB80000EE60F0900EEE6AE806FDE100EE01F02F
:102AC8002B0EEE6AE806FDE1980EF66E2D0EF76EF7
:102AD800000EF86E00EEF0F010EE09F00900F5CFE8
:102AE800EEFFE550E150FAE1AA0EF66E2D0EF76EF4
:102AF800000EF86E0900F5CF4CF04D904D92000E87
:102B0800F86E000188EF15F09268936894689568EC
:102B180096680F0EC16E070EB46E9298959A959CA2
:102B28008098839C839A929092929294929680969F
:102B380080948092809095849586958095829380E4
:102B48009382938493869388938A958E5DEC0DF097
:102B5800C1EC16F0B5EC16F0BCEC15F021EC16F053
:102B68002504D8A4FDD7000E256E55EC00F0F8D743
:102B78009D9A9D98B886AB8EAB9CAB88AB96AC9C67
:102B8800AC8AAC98AC96AC84AC82AC90010E0001D7
:102B9800FA6FA10EF96F0001FA51B06EF9C0AFFFDC
:102BA800000E2A6E000E2B6E7E0E296E000E276E0A
:102BB800000E286E000E266E9D8A1200F9C0FBF0EA
:102BC800FAC0FCF0060ED8900001FB37FC37E82E5F
:102BD800FAD7FBC0FDF0FCC0FEF0FEC0BEFFFDC092
:102BE800FBF00001D890FB330001D890FB33300E86
:102BF8000001FB17BD50CF0B0001FB11BD6E120089
:102C08002C6E2950D8B4FDD79DB803D02CC0ADFF89
:102C180012D09D982A50010D7E0EF324D96E010E14
:102C2800F420DA6E2CC0DFFF2A2A7D0E2A6402D037
:102C3800000E2A6E29069D881200000E0001FA6F08
:102C4800000EF96F000E0001FA6F000EF96F000117
:102C5800FABF08D00001FA5109E1160E0001F95D2A
:102C6800D8B012000001F94BFA2BF1D7120000017D
:102C7800FE6F0001FE51A5EC16F0F9C0FCF0FAC099
:102C8800FDF00001FC07D8A0FD07FCC0F9F0FDC06D
:102C9800FAF00001FE5195EC16F012007E0E296044
:102CA80012D02B50010D7E0EF324D96E010EF420A4
:102CB800DA6EDF50AD6E2B2A7D0E2B6402D0000E2B
:102CC8002B6E292A12009D9812000001FE6F000148
:102CD800FE51A5EC16F0F9C0FCF0FAC0FDF00001B9
:102CE800FC4BFD2BFCC0F9F0FDC0FAF00001FE51D1
:102CF80095EC16F01200ABA202D0AB98AB88275027
:102D0800010D000EF324D96E020EF420DA6EAECF58
:102D1800DFFF272A7D0E276402D0000E276E262AA1
:102D280012000001FB6F0001FB51020D600EF3243D
:102D3800D96E000EF420DA6EF9C0DEFFFAC0DDFFAE
:102D480012000001FB6F0001FB51020D600EF3241D
:102D5800D96E000EF420DA6EDECFF9F0DDCFFAF08E
:102D68001200D08EA00EF26E840EF16E000ED76E99
:102D7800000ED66EC30ED56E12008280CB687F0E11
:102D8800BE6E0F0EBD6E040ECA6E9494949012001F
:092D980001010101010101010129
:092DA200410E04EC16F0120001D0
:020000040020DA
:08000000FFFFFFFFFFFFFFFF00
:020000040030CA
:0E0000002C0E1800FF8181FF0FC00FE00F4093
:00000001FF
