:020000040000FA
:06000000A5EF09F012005B
:020006001200E6
:06000800EAEF08F012000F
:02000E000500EB
:1000100021140000DA0000001E0000001D14000082
:10002000F800000004000000FE130000BB00000008
:100030001F000000D9130000000F00002500000081
:0C0040007E130000600000005B00000068
:04004C008150080BCC
:1000500001E0010E0001BC6F8150100B01E0010EA8
:10006000C86F8150400B01E0010EBB6F8150800BC7
:1000700001E0010EC76F42DA0001D36B020ED35DBF
:1000800001E331D2D3510C0DF3CFE9FFF4CFEAFFF6
:10009000BB0EE926000EEA22030EE926000EEA2234
:1000A000EF50030A01E187D1010A01E129D1030AD6
:1000B00001E118D1010A01E005D2D3510C0DF3CFB3
:1000C000E9FFF4CFEAFFBB0EE926000EEA22EE526A
:1000D000EFCF02F0D3510C0DF3CFE9FFF4CFEAFFDD
:1000E000BB0EE926000EEA22EF50025C28E0D35155
:1000F0000C0DF3CFE9FFF4CFEAFFBB0EE926000EAB
:10010000EA22EF041CE1D3510C0DF3CFE9FFF4CF49
:10011000EAFFBB0EE926000EEA22030EE926000ED6
:10012000EA22010EEF6ED3510C0DF3CFE9FFF4CFAD
:10013000EAFFBB0EE926000EEA22020EACD1D35133
:100140000C0DF3CFE9FFF4CFEAFFBB0EE926000E5A
:10015000EA22EE52EFCF02F0D3510C0DF3CFE9FFBC
:10016000F4CFEAFFBB0EE926000EEA22EF50025C54
:1001700028E0D3510C0DF3CFE9FFF4CFEAFFBB0E1B
:10018000E926000EEA22EF501CE1D3510C0DF3CF0B
:10019000E9FFF4CFEAFFBB0EE926000EEA22030EC8
:1001A000E926000EEA22030EEF6ED3510C0DF3CFB9
:1001B000E9FFF4CFEAFFBB0EE926000EEA22020EA9
:1001C0008CD1D3510C0DF3CFE9FFF4CFEAFFBB0E76
:1001D000E926000EEA22080EE926000EEA22010EA8
:1001E000EE5C000EEE58000EEE58000EEE5841E2A6
:1001F000D3510C0DF3CFE9FFF4CFEAFFBB0EE92694
:10020000000EEA22080EE926000EEA22800EEE6EAB
:10021000510EEE6E010EEE6EEE6AD3510C0DF3CF61
:10022000E9FFF4CFEAFFBB0EE926000EEA22030E37
:10023000E926000EEA22020EEF6ED3510C0DF3CF29
:10024000E9FFF4CFEAFFBB0EE926000EEA22020E18
:10025000E926000EEA22010EEF6ED3510C0DF3CF0A
:10026000E9FFF4CFEAFFBB0EE926000EEA22EE52C8
:1002700015D1D3510C0DF3CFE9FFF4CFEAFFBB0E3C
:10028000E926000EEA22040EE926000EEA22EF0417
:1002900013E1D3510C0DF3CFE9FFF4CFEAFFBB0E0E
:1002A000E926000EEA22080EE926000EEA22EE06F2
:1002B000EE5AEE5AEE5A15D1D3510C0DF3CFE9FF99
:1002C000F4CFEAFFBB0EE926000EEA22080EE9266B
:1002D000000EEA22800EEE6E510EEE6E010EEE6EF4
:1002E000EE6AFFD0D3510C0DF3CFE9FFF4CFEAFF54
:1002F000BB0EE926000EEA22EE52010EEF6E7ED012
:10030000D3510C0DF3CFE9FFF4CFEAFFBB0EE92682
:10031000000EEA22050EE926000EEA22EFCF02F0D7
:10032000010E025C2CE2D3510C0DF3CFE9FFF4CFA8
:10033000EAFFBB0EE926000EEA22050EE926000EB2
:10034000EA223C0EEF6ED3510C0DF3CFE9FFF4CF50
:10035000EAFFBB0EE926000EEA22EE52EF6AD35105
:100360000C0DF3CFE9FFF4CFEAFFBB0EE926000E38
:10037000EA22020EE926000EEA22EF6AA3D0D35148
:100380000C0DF3CFE9FFF4CFEAFFBB0EE926000E18
:10039000EA22EF0455E0D3510C0DF3CFE9FFF4CF7F
:1003A000EAFFBB0EE926000EEA22050EE926000E42
:1003B000EA22EF0696D0D3510C0DF3CFE9FFF4CF2C
:1003C000EAFFBB0EE926000EEA22060EE926000E21
:1003D000EA22EECF02F0EFCF03F0010E025C000E36
:1003E000035822E2D3510C0DF3CFE9FFF4CFEAFF1B
:1003F000BB0EE926000EEA22EE52EF6AD3510C0D35
:10040000F3CFE9FFF4CFEAFFBB0EE926000EEA22A4
:10041000080EE926000EEA22800EEE6E510EEE6EF8
:10042000010EEE6EEE6A4ED0D3510C0DF3CFE9FF04
:10043000F4CFEAFFBB0EE926000EEA22EF0431E119
:10044000D3510C0DF3CFE9FFF4CFEAFFBB0EE92641
:10045000000EEA22050EE926000EEA223C0EEF6E9F
:10046000D3510C0DF3CFE9FFF4CFEAFFBB0EE92621
:10047000000EEA22020EE926000EEA22010EEF6EBD
:10048000D3510C0DF3CFE9FFF4CFEAFFBB0EE92601
:10049000000EEA22030EE926000EEA22010EEF6E9C
:1004A00020D0D3510C0DF3CFE9FFF4CFEAFFBB0E00
:1004B000E926000EEA22060EE926000EEA22EE06E2
:1004C000EF5A0FD0D3510C0DF3CFE9FFF4CFEAFF71
:1004D000BB0EE926000EEA22030EE926000EEA22F0
:1004E000EF6AD32BCBD5BC51E8B08186E8A08196CA
:1004F000C851E8B08188E8A0819812000001D45169
:10050000020A13E0030A0DE0010A01E01200D551CE
:1005100003E1010EC26E03D0D50501E1C26A010EEE
:1005200002D0C282020ED46F1200C2B22CD1C450CB
:10053000036E026AC3500210D66F03C0D7F0026E7A
:10054000000E025E020E035A03343CE20250000821
:10055000000E035437E2D5510C0DF3CFE9FFF4CF71
:10056000EAFFBB0EE926000EEA22040EE926000E81
:10057000EA22010EEF6ED5510C0DF3CFE9FFF4CF57
:10058000EAFFBB0EE926000EEA22030EE926000E62
:10059000EA22EF50030811E0D5510C0DF3CFE9FF2B
:1005A000F4CFEAFFBB0EE926000EEA22060EE9268A
:1005B000000EEA22780EEE6EED6A000ED65F020E95
:1005C000D75B3ED0D6C002F0D7C003F0000E025E6B
:1005D000020E035A0001800E031432E00001D551CF
:1005E0000C0DF3CFE9FFF4CFEAFFBB0EE926000EB6
:1005F000EA22040EE926000EEA22EF6AD5510C0D1C
:10060000F3CFE9FFF4CFEAFFBB0EE926000EEA22A2
:10061000030EE926000EEA22EF50030811E0D5513F
:100620000C0DF3CFE9FFF4CFEAFFBB0EE926000E75
:10063000EA22060EE926000EEA22780EEE6EED6A38
:10064000D6C002F0D7C003F0FA0E025E000E035AC5
:1006500003342AE202500008000E035425E2000190
:10066000D5510C0DF3CFE9FFF4CFEAFFBB0EE9261D
:10067000000EEA22030EE926000EEA22EF500308DC
:1006800001E178D0D5510C0DF3CFE9FFF4CFEAFFAB
:10069000BB0EE926000EEA22060EE926000EEA222B
:1006A000580EEE6E020E65D0D6C002F0D7C003F031
:1006B000780E025E000E035A033429E2025000084D
:1006C000000E035424E20001D5510C0DF3CFE9FFD5
:1006D000F4CFEAFFBB0EE926000EEA22030EE9265C
:1006E000000EEA22EF50030845E0D5510C0DF3CF80
:1006F000E9FFF4CFEAFFBB0EE926000EEA22060E60
:10070000E926000EEA22B00EEE6E040E32D0D6C0FC
:1007100002F0D7C003F03C0E025E000E035A033411
:1007200029E202500008000E035424E20001D551D2
:100730000C0DF3CFE9FFF4CFEAFFBB0EE926000E64
:10074000EA22030EE926000EEA22EF50030812E027
:10075000D5510C0DF3CFE9FFF4CFEAFFBB0EE9262C
:10076000000EEA22060EE926000EEA22080EEE6EC0
:10077000070EED6E0001D46BD55102E0000E01D0E2
:08078000010ED56F12001200FA
:080788008350040B01E0010E97
:100790000001616F8350080B01E0010E686F825009
:1007A000100B01E0010E6F6F8250200B01E0010E73
:1007B000766F8250400B01E0010E7D6F8250800BFE
:1007C00001E0010E846F8350100B01E0010E8B6F6E
:1007D0008350200B01E0010E926F8350400B01E02B
:1007E000010E996F8350800B01E0010EA06F8150C4
:1007F000010BA76F8150020B01E0010EAE6FB46BCD
:100800000C0EB45D01E375D2B451070DF3CFE9FFCF
:10081000F4CFEAFF600EE926000EEA22030EE92675
:10082000000EEA22EF50030A01E1ABD1010A01E117
:100830005DD1030A01E1C7D0010A01E01CD2B45125
:10084000070DF3CFE9FFF4CFEAFF600EE926000EB3
:10085000EA22EE52EFCF02F0B451070DF3CFE9FFD9
:10086000F4CFEAFF600EE926000EEA22EF50025CA8
:100870002CE0B451070DF3CFE9FFF4CFEAFF600E8F
:10088000E926000EEA22EF0420E1B451070DF3CF70
:10089000E9FFF4CFEAFF600EE926000EEA22020E1D
:1008A000E926000EEA22010EEF6EB451070DF3CFD8
:1008B000E9FFF4CFEAFF600EE926000EEA22030EFC
:1008C000E926000EEA22010E0FD1B451070DF3CF35
:1008D000E9FFF4CFEAFF600EE926000EEA22EE52AD
:1008E000EFCF02F0B451070DF3CFE9FFF4CFEAFFE9
:1008F000600EE926000EEA22EF50025C2BE0B451B4
:10090000070DF3CFE9FFF4CFEAFF600EE926000EF2
:10091000EA22EF501FE1B451070DF3CFE9FFF4CF06
:10092000EAFF600EE926000EEA22020EE926000E1A
:10093000EA22EF6AB451070DF3CFE9FFF4CFEAFFE3
:10094000600EE926000EEA22030EE926000EEA22D6
:10095000030ECAD0B451070DF3CFE9FFF4CFEAFF7D
:10096000600EE926000EEA22EE52EFCF02F0B451FB
:10097000070DF3CFE9FFF4CFEAFF600EE926000E82
:10098000EA22EF50025C01E085D1B451070DF3CFAC
:10099000E9FFF4CFEAFF600EE926000EEA22EE52EC
:1009A000EF50E66EB451070DF3CFE9FFF4CFEAFF45
:1009B000600EE926000EEA22020EE926000EEA2267
:1009C000E552E75091D0B451070DF3CFE9FFF4CFD2
:1009D000EAFF600EE926000EEA22EE52EFCF02F0A7
:1009E000B451070DF3CFE9FFF4CFEAFF600EE9261B
:1009F000000EEA22EF50025C10E1B451070DF3CF74
:100A0000E9FFF4CFEAFF600EE926000EEA22040EA9
:100A1000E926000EEA22EF6A72D0B80522E1B4514D
:100A2000070DF3CFE9FFF4CFEAFF600EE926000ED1
:100A3000EA22040EE926000EEA22EF5012E1B45138
:100A4000070DF3CFE9FFF4CFEAFF600EE926000EB1
:100A5000EA22040EE926000EEA22B9C0EFFFB92B04
:100A600019D1B85101E016D1B451070DF3CFE9FF08
:100A7000F4CFEAFF600EE926000EEA22040EE92612
:100A8000000EEA22EFCF02F0020E025C01E302D177
:100A9000B451070DF3CFE9FFF4CFEAFF600EE9266A
:100AA000000EEA22040EE926000EEA22EF6AB45193
:100AB000070DF3CFE9FFF4CFEAFF600EE926000E41
:100AC000EA22EE52010EEF6EB86FB451070DF3CF6C
:100AD000E9FFF4CFEAFF600EE926000EEA22030EDA
:100AE000E926000EEA22020EEF6ED4D0010EB65DAA
:100AF000000EB75907E2B86B0A0EB66FB76B010E5E
:100B0000BA6FB9D0B451070DF3CFE9FFF4CFEAFFC4
:100B1000600EE926000EEA22EE52EFCF02F0B45149
:100B2000070DF3CFE9FFF4CFEAFF600EE926000ED0
:100B3000EA22EF50025C1FE0B451070DF3CFE9FF4A
:100B4000F4CFEAFF600EE926000EEA22EF5013E12F
:100B5000B86B0A0EB66FB76B010EBA6FB451070DC2
:100B6000F3CFE9FFF4CFEAFF600EE926000EEA2298
:100B7000EE52EF6A80D0B607000EB75B010EB86F79
:100B800089D0B451070DF3CFE9FFF4CFEAFF600E2F
:100B9000E926000EEA22050EE926000EEA22EECF33
:100BA00002F0EFCF03F0010E025C000E03580DE2DD
:100BB000B451070DF3CFE9FFF4CFEAFF600EE92649
:100BC000000EEA22EE52EF6A33D0B451070DF3CF94
:100BD000E9FFF4CFEAFF600EE926000EEA22EE52AA
:100BE000EFCF02F0B451070DF3CFE9FFF4CFEAFFE6
:100BF000600EE926000EEA22EF50025C2BE1B451B0
:100C0000070DF3CFE9FFF4CFEAFF600EE926000EEF
:100C1000EA22EF041FE1B451070DF3CFE9FFF4CF4F
:100C2000EAFF600EE926000EEA22EE52010EEF6E98
:100C3000B451070DF3CFE9FFF4CFEAFF600EE926C8
:100C4000000EEA22050EE926000EEA22780EEE6E6C
:100C5000ED6A11D0B451070DF3CFE9FFF4CFEAFFED
:100C6000600EE926000EEA22050EE926000EEA22B1
:100C7000EE06EF5A0FD0B451070DF3CFE9FFF4CFD2
:100C8000EAFF600EE926000EEA22030EE926000EB6
:100C9000EA22EF6ABA052BE1BA6BB951010801E209
:100CA000B907B56B0C0EB55D22E2B551070DF3CF58
:100CB000E9FFF4CFEAFF600EE926000EEA22040EF7
:100CC000E926000EEA22EF5000080FE2B551070DA9
:100CD000F3CFE9FFF4CFEAFF600EE926000EEA2227
:100CE000040EE926000EEA22EF06B52BDBD7B42B63
:100CF00087D56151E8B08384E8A083946851E8B057
:100D00008386E8A083966F51E8B08288E8A0829835
:100D10007651E8B0828AE8A0829A7D51E8B0828C50
:100D2000E8A0829C8451E8B0828EE8A0829E8B511C
:100D3000E8B08388E8A083989251E8B0838AE8A05D
:100D4000839A9951E8B0838CE8A0839CA051E8B0C5
:100D5000838EE8A0839EA751E8B08180E8A08190AF
:100D6000AE51E8B08182E8A0819212000001FC51EE
:100D7000070DF3CFE9FFF4CFEAFF600EE926000E7E
:100D8000EA22020EE926000EEA22EF5012000001CC
:100D9000FE0502E0FE511FE10C0EFD5D1CE2FD515F
:100DA000070DF3CFE9FFF4CFEAFF600EE926000E4E
:100DB000EA22FEC0EFFFFD51070DF3CFE9FFF4CFAC
:100DC000EAFF600EE926000EEA22020EE926000E76
:080DD000EA22FEC0EFFF120051
:080DD80028EC08F00001F26BA9
:100DE0000C0EF25D01E3F4D0F251E96EEA6AD8909C
:100DF000E936EA36DA0EE926000EEA22EF50030A57
:100E000001E18ED0010A43E0030A2BE0010A01E070
:100E1000D1D0F2C0FFF0C9EC08F001080EE10001EA
:100E2000F251E96EEA6AD890E936EA36DA0EE92636
:100E3000000EEA22010EEF6E6DD0F2C0FFF0C9EC99
:100E400008F0000901E0C1D00001F251E96EEA6A40
:100E5000D890E936EA36DA0EE926000EEA22030EC9
:100E60003BD00001010EFE6FF2C0FDF0C7EC06F0B2
:100E70000001F251E96EEA6AD890E936EA36DA0EF4
:100E8000E926000EEA22EE52010EEF6E93D0F351E6
:100E900006E0F2C0FFF0C9EC08F001081FE1F2C063
:100EA000FFF0C9EC08F0000906E10001FE6BF2C09A
:100EB000FDF0C7EC06F00001580EF66F020EF76F5A
:100EC000F36BF251E96EEA6AD890E936EA36DA0E47
:100ED000E926000EEA22010EEF6E77D00001010E26
:100EE000F65D000EF75918E2580EF66F020EF76F16
:100EF0000001FE6BF2C0FDF0C7EC06F00001F251FC
:100F0000E96EEA6AD890E936EA36DA0EE926000E8A
:100F1000EA22EF6AF36B59D0F607000EF75B55D063
:100F2000DB51DD25DF25E125E325E525E725E9255D
:100F3000EB25ED25EF25F125010814E20001FE6BFC
:100F4000F2C0FDF0C7EC06F00001F251E96EEA6A6A
:100F5000D890E936EA36DA0EE926000EEA22EE5299
:100F6000EF6A28D0F251E96EEA6AD890E936EA369B
:100F7000DA0EE926000EEA22EE52EF041BE1F251EE
:100F8000E96EEA6AD890E936EA36DA0EE926000E0A
:100F9000EA22EE52EF6AF251E96EEA6AD890E93637
:100FA000EA36DA0EE926000EEA22020EEF6E010E94
:100FB000F36F0BD0F251E96EEA6AD890E936EA365F
:100FC000DA0EE926000EEA22EF6A0001F22B08D7BA
:100FD000DB5128E1DB5126E1DD5124E1DB5122E147
:100FE000DF5120E1E1511EE1DB511CE1E3511AE147
:100FF000E55118E1DB5116E1E75114E1E95112E145
:10100000DB5110E1EB510EE1ED510CE1DB510AE156
:10101000EF5108E1F15106E10F01306BB8EC09F036
:10102000780E0BD0020EF45D000EF5590AE20F01A6
:10103000010E306FB8EC09F0010E0001F46FF56B92
:1010400003D0F407000EF55BC4EC03F026EF00F0CC
:101050008050040B01E0010E0F01006F8050080B5F
:1010600001E0010E036F8050100B01E0010E066FCE
:101070008050200B01E0010E096F8450010B0C6FB2
:101080008450020B01E0010E0F6F8450040B01E04D
:10109000010E126F8250010B156F8250020B01E09E
:1010A000010E186F8250040B01E0010E1B6F83507C
:1010B000010B1E6F8350020B01E0010E216F246BA8
:1010C0000C0E245D65E22451030DF3CFE9FFF4CF4C
:1010D000EAFF000EE9260F0EEA22EE52EFCF02F0F1
:1010E0002451030DF3CFE9FFF4CFEAFF000EE92608
:1010F0000F0EEA22EF50025C3AE02451030DF3CFC9
:10110000E9FFF4CFEAFF000EE9260F0EEA22020EF5
:10111000E926000EEA22EF2A2451030DF3CFE9FF5E
:10112000F4CFEAFF000EE9260F0EEA22020EE926AE
:10113000000EEA22EF50020829E22451030DF3CFFA
:10114000E9FFF4CFEAFF000EE9260F0EEA22EF5086
:10115000E66E2451030DF3CFE9FFF4CFEAFF000E52
:10116000E9260F0EEA22EE52E552E750EF6E2451C7
:10117000030DF3CFE9FFF4CFEAFF000EE9260F0ECF
:10118000EA22020EE926000EEA22EF6A242B98D703
:1011900012000001FF51030DF3CFE9FFF4CFEAFF86
:0E11A000000EE9260F0EEA22EE52EF5012006A
:0211AE002BD83C
:1011B00051D85BD8D1800001010EFA1901E1FB5131
:1011C00007E1817AECEC06F00001FA6BFB6B04009E
:1011D000F2D71200DACFE4FFE652F2A410D00001F9
:1011E000F82B000EF9231E0ED880F855000EF95585
:1011F00005E2010EFA6FFB6BF86BF96BF294E552A6
:10120000E5CFDAFF1100806A816A826A836A846AA4
:10121000926893689468956896689268C00E936E19
:10122000070E946E030E956E96680F01386F396B3A
:101230003A6B3B6B3C6B0F0EC16EC280BC0EC06E36
:10124000F00EBD140009BD6E416B456BF19E796ACD
:10125000786A1200D39ED398D38AD38CD380D3825A
:10126000C00E9B140E099B6E1200D08EF28EF29C63
:10127000F28AF184F296D76AD66AD58ED59CD59A31
:0C128000D598D586D594D592D590120053
:04128C000E0EF66EDE
:10129000000EF76E000EF86E0F010900F5502A6F70
:1012A0000900F5502B6F03E12A6701D03DD00900FA
:1012B000F550256F0900F550266F0900F550276F8E
:1012C00009000900F550E96E0900F550EA6E0900C1
:1012D00009000900F550286F0900F550296F090031
:1012E0000900F6CF2CFFF7CF2DFFF8CF2EFF25CF2B
:1012F000F6FF26CFF7FF27CFF8FF0F01285302E1B3
:10130000295307E00900F550EE6E2807F8E2290797
:10131000F9D72CCFF6FF2DCFF7FF2ECFF8FF0F0117
:0A1320002A07000E2B5BBFD7120056
:06132A00380EF36E00EE28
:1013300000F00F0E01D81200EA6002D0EE6AFCD76E
:0A134000F350E9601200EE6AFCD7DA
:06134A001EEE00F02EEE85
:1013500000F0F86A019C46EC09F003EC00F0D7ECD1
:0613600008F0FBD71200AB
:0A1366008150040B01E0010E12009B
:0E1370000F013051E8B08184E8A08194120092
:02137E0000006D
:10138000000000780000000000007800000000006D
:1013900000780000000000007800000000000078E5
:1013A000000000000000780000000000007800004D
:1013B000000000007800000000000078000000003D
:1013C000000078000000000000780000000000002D
:0913D000780000000A0000010091
:0713D900000000000000000D
:1013E00000000000000000000000000000000000FD
:0E13F0000000000000000000000000000000EF
:0213FE000000ED
:101400000000003C78008051010000000000003C1A
:0D1410007800805101000000000000000085
:03141D00000000CC
:0114200000CB
:0F142100000000000000000000000000000000BC
:0F143000000000000000000000000078005802DB
:020000040030CA
:0100010028D6
:0100020006F7
:0100030027D5
:01000500BD3D
:010006008178
:010008000FE8
:01000900C036
:01000A000FE6
:01000B00E014
:01000C000FE4
:01000D0040B2
:00000001FF
