:020000040000FA
:060000009FEF09F0120061
:020006001200E6
:06000800EAEF08F012000F
:02000E000500EB
:1000100015140000000100001E0000001114000073
:100020002801000004000000F2130000E0000000BE
:100030001F000000CD130000BB00000025000000E1
:0C00400072130000600000005B00000074
:04004C008150080BCC
:1000500001E0010E0001E16F8150100B01E0010E83
:10006000ED6F8250100B01E0010EE06F8250200B0B
:1000700001E0010EEC6F42DA0001F86B020EF85D50
:1000800001E331D2F8510C0DF3CFE9FFF4CFEAFFD1
:10009000E00EE926000EEA22030EE926000EEA220F
:1000A000EF50030A01E187D1010A01E129D1030AD6
:1000B00001E118D1010A01E005D2F8510C0DF3CF8E
:1000C000E9FFF4CFEAFFE00EE926000EEA22EE5245
:1000D000EFCF02F0F8510C0DF3CFE9FFF4CFEAFFB8
:1000E000E00EE926000EEA22EF50025C28E0F8510B
:1000F0000C0DF3CFE9FFF4CFEAFFE00EE926000E86
:10010000EA22EF041CE1F8510C0DF3CFE9FFF4CF24
:10011000EAFFE00EE926000EEA22030EE926000EB1
:10012000EA22010EEF6EF8510C0DF3CFE9FFF4CF88
:10013000EAFFE00EE926000EEA22020EACD1F851E9
:100140000C0DF3CFE9FFF4CFEAFFE00EE926000E35
:10015000EA22EE52EFCF02F0F8510C0DF3CFE9FF97
:10016000F4CFEAFFE00EE926000EEA22EF50025C2F
:1001700028E0F8510C0DF3CFE9FFF4CFEAFFE00ED1
:10018000E926000EEA22EF501CE1F8510C0DF3CFE6
:10019000E9FFF4CFEAFFE00EE926000EEA22030EA3
:1001A000E926000EEA22030EEF6EF8510C0DF3CF94
:1001B000E9FFF4CFEAFFE00EE926000EEA22020E84
:1001C0008CD1F8510C0DF3CFE9FFF4CFEAFFE00E2C
:1001D000E926000EEA22080EE926000EEA22010EA8
:1001E000EE5C000EEE58000EEE58000EEE5841E2A6
:1001F000F8510C0DF3CFE9FFF4CFEAFFE00EE9264A
:10020000000EEA22080EE926000EEA22800EEE6EAB
:10021000510EEE6E010EEE6EEE6AF8510C0DF3CF3C
:10022000E9FFF4CFEAFFE00EE926000EEA22030E12
:10023000E926000EEA22020EEF6EF8510C0DF3CF04
:10024000E9FFF4CFEAFFE00EE926000EEA22020EF3
:10025000E926000EEA22010EEF6EF8510C0DF3CFE5
:10026000E9FFF4CFEAFFE00EE926000EEA22EE52A3
:1002700015D1F8510C0DF3CFE9FFF4CFEAFFE00EF2
:10028000E926000EEA22040EE926000EEA22EF0417
:1002900013E1F8510C0DF3CFE9FFF4CFEAFFE00EC4
:1002A000E926000EEA22080EE926000EEA22EE06F2
:1002B000EE5AEE5AEE5A15D1F8510C0DF3CFE9FF74
:1002C000F4CFEAFFE00EE926000EEA22080EE92646
:1002D000000EEA22800EEE6E510EEE6E010EEE6EF4
:1002E000EE6AFFD0F8510C0DF3CFE9FFF4CFEAFF2F
:1002F000E00EE926000EEA22EE52010EEF6E7ED0ED
:10030000F8510C0DF3CFE9FFF4CFEAFFE00EE92638
:10031000000EEA22050EE926000EEA22EFCF02F0D7
:10032000010E025C2CE2F8510C0DF3CFE9FFF4CF83
:10033000EAFFE00EE926000EEA22050EE926000E8D
:10034000EA223C0EEF6EF8510C0DF3CFE9FFF4CF2B
:10035000EAFFE00EE926000EEA22EE52EF6AF851BB
:100360000C0DF3CFE9FFF4CFEAFFE00EE926000E13
:10037000EA22020EE926000EEA22EF6AA3D0F85123
:100380000C0DF3CFE9FFF4CFEAFFE00EE926000EF3
:10039000EA22EF0455E0F8510C0DF3CFE9FFF4CF5A
:1003A000EAFFE00EE926000EEA22050EE926000E1D
:1003B000EA22EF0696D0F8510C0DF3CFE9FFF4CF07
:1003C000EAFFE00EE926000EEA22060EE926000EFC
:1003D000EA22EECF02F0EFCF03F0010E025C000E36
:1003E000035822E2F8510C0DF3CFE9FFF4CFEAFFF6
:1003F000E00EE926000EEA22EE52EF6AF8510C0DEB
:10040000F3CFE9FFF4CFEAFFE00EE926000EEA227F
:10041000080EE926000EEA22800EEE6E510EEE6EF8
:10042000010EEE6EEE6A4ED0F8510C0DF3CFE9FFDF
:10043000F4CFEAFFE00EE926000EEA22EF0431E1F4
:10044000F8510C0DF3CFE9FFF4CFEAFFE00EE926F7
:10045000000EEA22050EE926000EEA223C0EEF6E9F
:10046000F8510C0DF3CFE9FFF4CFEAFFE00EE926D7
:10047000000EEA22020EE926000EEA22010EEF6EBD
:10048000F8510C0DF3CFE9FFF4CFEAFFE00EE926B7
:10049000000EEA22030EE926000EEA22010EEF6E9C
:1004A00020D0F8510C0DF3CFE9FFF4CFEAFFE00EB6
:1004B000E926000EEA22060EE926000EEA22EE06E2
:1004C000EF5A0FD0F8510C0DF3CFE9FFF4CFEAFF4C
:1004D000E00EE926000EEA22030EE926000EEA22CB
:1004E000EF6AF82BCBD5E151E8B08186E8A0819680
:1004F000ED51E8B08188E8A0819812000001F9511F
:10050000020A13E0030A0DE0010A01E01200FA51A9
:1005100002E1050E03D0FA0502E1010EC26E010EE2
:1005200002D0C282020EF96F1200C2B22CD1C450A6
:10053000036E026AC3500210FB6F03C0FCF0026E30
:10054000000E025E020E035A03343CE20250000821
:10055000000E035437E2FA510C0DF3CFE9FFF4CF4C
:10056000EAFFE00EE926000EEA22040EE926000E5C
:10057000EA22010EEF6EFA510C0DF3CFE9FFF4CF32
:10058000EAFFE00EE926000EEA22030EE926000E3D
:10059000EA22EF50030811E0FA510C0DF3CFE9FF06
:1005A000F4CFEAFFE00EE926000EEA22060EE92665
:1005B000000EEA22780EEE6EED6A000EFB5F020E70
:1005C000FC5B3ED0FBC002F0FCC003F0000E025EFC
:1005D000020E035A0001800E031432E00001FA51AA
:1005E0000C0DF3CFE9FFF4CFEAFFE00EE926000E91
:1005F000EA22040EE926000EEA22EF6AFA510C0DF7
:10060000F3CFE9FFF4CFEAFFE00EE926000EEA227D
:10061000030EE926000EEA22EF50030811E0FA511A
:100620000C0DF3CFE9FFF4CFEAFFE00EE926000E50
:10063000EA22060EE926000EEA22780EEE6EED6A38
:10064000FBC002F0FCC003F0FA0E025E000E035A7B
:1006500003342AE202500008000E035425E2000190
:10066000FA510C0DF3CFE9FFF4CFEAFFE00EE926D3
:10067000000EEA22030EE926000EEA22EF500308DC
:1006800001E178D0FA510C0DF3CFE9FFF4CFEAFF86
:10069000E00EE926000EEA22060EE926000EEA2206
:1006A000580EEE6E020E65D0FBC002F0FCC003F0E7
:1006B000780E025E000E035A033429E2025000084D
:1006C000000E035424E20001FA510C0DF3CFE9FFB0
:1006D000F4CFEAFFE00EE926000EEA22030EE92637
:1006E000000EEA22EF50030845E0FA510C0DF3CF5B
:1006F000E9FFF4CFEAFFE00EE926000EEA22060E3B
:10070000E926000EEA22B00EEE6E040E32D0FBC0D7
:1007100002F0FCC003F03C0E025E000E035A0334EC
:1007200029E202500008000E035424E20001FA51AD
:100730000C0DF3CFE9FFF4CFEAFFE00EE926000E3F
:10074000EA22030EE926000EEA22EF50030812E027
:10075000FA510C0DF3CFE9FFF4CFEAFFE00EE926E2
:10076000000EEA22060EE926000EEA22080EEE6EC0
:10077000070EED6E0001F96BFA5102E0000E01D098
:08078000010EFA6F12001200D5
:080788008350040B01E0010E97
:100790000001616F8350080B01E0010E686F81500A
:1007A000400B01E0010E6F6F8150800B01E0010EE4
:1007B000766F8250400B01E0010E7D6F8250800BFE
:1007C00001E0010E846F8350100B01E0010E8B6F6E
:1007D0008350200B01E0010E926F8350400B01E02B
:1007E000010E996F8350800B01E0010EA06F8150C4
:1007F000010BA76F8150020B01E0010EAE6FB46BCD
:100800000C0EB45D01E375D2B451070DF3CFE9FFCF
:10081000F4CFEAFF600EE926000EEA22030EE92675
:10082000000EEA22EF50030A01E1ABD1010A01E117
:100830005DD1030A01E1C7D0010A01E01CD2B45125
:10084000070DF3CFE9FFF4CFEAFF600EE926000EB3
:10085000EA22EE52EFCF02F0B451070DF3CFE9FFD9
:10086000F4CFEAFF600EE926000EEA22EF50025CA8
:100870002CE0B451070DF3CFE9FFF4CFEAFF600E8F
:10088000E926000EEA22EF0420E1B451070DF3CF70
:10089000E9FFF4CFEAFF600EE926000EEA22020E1D
:1008A000E926000EEA22010EEF6EB451070DF3CFD8
:1008B000E9FFF4CFEAFF600EE926000EEA22030EFC
:1008C000E926000EEA22010E0FD1B451070DF3CF35
:1008D000E9FFF4CFEAFF600EE926000EEA22EE52AD
:1008E000EFCF02F0B451070DF3CFE9FFF4CFEAFFE9
:1008F000600EE926000EEA22EF50025C2BE0B451B4
:10090000070DF3CFE9FFF4CFEAFF600EE926000EF2
:10091000EA22EF501FE1B451070DF3CFE9FFF4CF06
:10092000EAFF600EE926000EEA22020EE926000E1A
:10093000EA22EF6AB451070DF3CFE9FFF4CFEAFFE3
:10094000600EE926000EEA22030EE926000EEA22D6
:10095000030ECAD0B451070DF3CFE9FFF4CFEAFF7D
:10096000600EE926000EEA22EE52EFCF02F0B451FB
:10097000070DF3CFE9FFF4CFEAFF600EE926000E82
:10098000EA22EF50025C01E085D1B451070DF3CFAC
:10099000E9FFF4CFEAFF600EE926000EEA22EE52EC
:1009A000EF50E66EB451070DF3CFE9FFF4CFEAFF45
:1009B000600EE926000EEA22020EE926000EEA2267
:1009C000E552E75091D0B451070DF3CFE9FFF4CFD2
:1009D000EAFF600EE926000EEA22EE52EFCF02F0A7
:1009E000B451070DF3CFE9FFF4CFEAFF600EE9261B
:1009F000000EEA22EF50025C10E1B451070DF3CF74
:100A0000E9FFF4CFEAFF600EE926000EEA22040EA9
:100A1000E926000EEA22EF6A72D0B80522E1B4514D
:100A2000070DF3CFE9FFF4CFEAFF600EE926000ED1
:100A3000EA22040EE926000EEA22EF5012E1B45138
:100A4000070DF3CFE9FFF4CFEAFF600EE926000EB1
:100A5000EA22040EE926000EEA22B9C0EFFFB92B04
:100A600019D1B85101E016D1B451070DF3CFE9FF08
:100A7000F4CFEAFF600EE926000EEA22040EE92612
:100A8000000EEA22EFCF02F0020E025C01E302D177
:100A9000B451070DF3CFE9FFF4CFEAFF600EE9266A
:100AA000000EEA22040EE926000EEA22EF6AB45193
:100AB000070DF3CFE9FFF4CFEAFF600EE926000E41
:100AC000EA22EE52010EEF6EB86FB451070DF3CF6C
:100AD000E9FFF4CFEAFF600EE926000EEA22030EDA
:100AE000E926000EEA22020EEF6ED4D0010EB65DAA
:100AF000000EB75907E2B86B3C0EB66FB76B010E2C
:100B0000BA6FB9D0B451070DF3CFE9FFF4CFEAFFC4
:100B1000600EE926000EEA22EE52EFCF02F0B45149
:100B2000070DF3CFE9FFF4CFEAFF600EE926000ED0
:100B3000EA22EF50025C1FE0B451070DF3CFE9FF4A
:100B4000F4CFEAFF600EE926000EEA22EF5013E12F
:100B5000B86B3C0EB66FB76B010EBA6FB451070D90
:100B6000F3CFE9FFF4CFEAFF600EE926000EEA2298
:100B7000EE52EF6A80D0B607000EB75B010EB86F79
:100B800089D0B451070DF3CFE9FFF4CFEAFF600E2F
:100B9000E926000EEA22050EE926000EEA22EECF33
:100BA00002F0EFCF03F0010E025C000E03580DE2DD
:100BB000B451070DF3CFE9FFF4CFEAFF600EE92649
:100BC000000EEA22EE52EF6A33D0B451070DF3CF94
:100BD000E9FFF4CFEAFF600EE926000EEA22EE52AA
:100BE000EFCF02F0B451070DF3CFE9FFF4CFEAFFE6
:100BF000600EE926000EEA22EF50025C2BE1B451B0
:100C0000070DF3CFE9FFF4CFEAFF600EE926000EEF
:100C1000EA22EF041FE1B451070DF3CFE9FFF4CF4F
:100C2000EAFF600EE926000EEA22EE52010EEF6E98
:100C3000B451070DF3CFE9FFF4CFEAFF600EE926C8
:100C4000000EEA22050EE926000EEA22780EEE6E6C
:100C5000ED6A11D0B451070DF3CFE9FFF4CFEAFFED
:100C6000600EE926000EEA22050EE926000EEA22B1
:100C7000EE06EF5A0FD0B451070DF3CFE9FFF4CFD2
:100C8000EAFF600EE926000EEA22030EE926000EB6
:100C9000EA22EF6ABA052BE1BA6BB951010801E209
:100CA000B907B56B0C0EB55D22E2B551070DF3CF58
:100CB000E9FFF4CFEAFF600EE926000EEA22040EF7
:100CC000E926000EEA22EF5000080FE2B551070DA9
:100CD000F3CFE9FFF4CFEAFF600EE926000EEA2227
:100CE000040EE926000EEA22EF06B52BDBD7B42B63
:100CF00087D56151E8B08384E8A083946851E8B057
:100D00008386E8A083966F51E8B0818CE8A0819C2F
:100D10007651E8B0818EE8A0819E7D51E8B0828C4A
:100D2000E8A0829C8451E8B0828EE8A0829E8B511C
:100D3000E8B08388E8A083989251E8B0838AE8A05D
:100D4000839A9951E8B0838CE8A0839CA051E8B0C5
:100D5000838EE8A0839EA751E8B08180E8A08190AF
:100D6000AE51E8B08182E8A08192120001012C51BD
:100D7000070DF3CFE9FFF4CFEAFF600EE926000E7E
:100D8000EA22020EE926000EEA22EF5012000101CB
:100D90002E0502E02E511FE10C0E2D5D1CE22D519F
:100DA000070DF3CFE9FFF4CFEAFF600EE926000E4E
:100DB000EA222EC1EFFF2D51070DF3CFE9FFF4CF4B
:100DC000EAFF600EE926000EEA22020EE926000E76
:080DD000EA222EC1EFFF120020
:080DD80028EC08F00101186B82
:100DE0000C0E185D01E3F4D01851E96EEA6AD89050
:100DF000E936EA36000EE926010EEA22EF50030A30
:100E000001E18ED0010A43E0030A2BE0010A01E070
:100E1000D1D018C1FFF0C9EC08F001080EE10101C2
:100E20001851E96EEA6AD890E936EA36000EE926EA
:100E3000010EEA22010EEF6E6DD018C1FFF0C9EC71
:100E400008F0000901E0C1D001011851E96EEA6A19
:100E5000D890E936EA36000EE926010EEA22030EA2
:100E60003BD00101010E2E6F18C12DF1C7EC06F029
:100E700001011851E96EEA6AD890E936EA36000EA7
:100E8000E926010EEA22EE52010EEF6E93D01951BF
:100E900006E018C1FFF0C9EC08F001081FE118C115
:100EA000FFF0C9EC08F0000906E101012E6B18C142
:100EB0002DF1C7EC06F00101580E1C6F020E1D6FDC
:100EC000196B1851E96EEA6AD890E936EA36000ED5
:100ED000E926010EEA22010EEF6E77D00101010E24
:100EE0001C5D000E1D5918E2580E1C6F020E1D6F7E
:100EF00001012E6B18C12DF1C7EC06F0010118514C
:100F0000E96EEA6AD890E936EA36000EE926010E63
:100F1000EA22EF6A196B59D01C07000E1D5B55D0F1
:100F2000015103250525072509250B250D250F252D
:100F30001125132515251725010814E201012E6B33
:100F400018C12DF1C7EC06F001011851E96EEA6AEB
:100F5000D890E936EA36000EE926010EEA22EE5272
:100F6000EF6A28D01851E96EEA6AD890E936EA3675
:100F7000000EE926010EEA22EE52EF041BE11851A1
:100F8000E96EEA6AD890E936EA36000EE926010EE3
:100F9000EA22EE52EF6A1851E96EEA6AD890E93611
:100FA000EA36000EE926010EEA22020EEF6E010E6D
:100FB000196F0BD01851E96EEA6AD890E936EA3613
:100FC000000EE926010EEA22EF6A0101182B08D76C
:100FD000015128E1015126E1035124E1015122E1AF
:100FE000055120E107511EE101511CE109511AE1AF
:100FF0000B5118E1015116E10D5114E10F5112E1AD
:10100000015110E111510EE113510CE101510AE1BE
:10101000155108E1175106E10101306BB2EC09F0FE
:101020000A0E0BD0020E1A5D000E1B590AE20101D6
:10103000010E306FB2EC09F0010E01011A6F1B6B4B
:1010400003D01A07000E1B5BC4EC03F026EF00F080
:101050008050040B01E0010E0001BB6F8050080BB3
:1010600001E0010EBE6F8050100B01E0010EC16F58
:101070008050200B01E0010EC46F8450010BC76F3C
:101080008450020B01E0010ECA6F8450040B01E092
:10109000010ECD6F8250010BD06F8250020B01E028
:1010A000010ED36F8250040B01E0010ED66F835006
:1010B000010BD96F8350020B01E0010EDC6FDF6B77
:1010C0000C0EDF5D65E2DF51030DF3CFE9FFF4CFD6
:1010D000EAFFBB0EE926000EEA22EE52EFCF02F045
:1010E000DF51030DF3CFE9FFF4CFEAFFBB0EE92692
:1010F000000EEA22EF50025C3AE0DF51030DF3CF1D
:10110000E9FFF4CFEAFFBB0EE926000EEA22020E49
:10111000E926000EEA22EF2ADF51030DF3CFE9FFA3
:10112000F4CFEAFFBB0EE926000EEA22020EE92602
:10113000000EEA22EF50020829E2DF51030DF3CF3F
:10114000E9FFF4CFEAFFBB0EE926000EEA22EF50DA
:10115000E66EDF51030DF3CFE9FFF4CFEAFFBB0EDC
:10116000E926000EEA22EE52E552E750EF6EDF511B
:10117000030DF3CFE9FFF4CFEAFFBB0EE926000E23
:10118000EA22020EE926000EEA22EF6ADF2B98D748
:1011900012000001FF51030DF3CFE9FFF4CFEAFF86
:0E11A000BB0EE926000EEA22EE52EF501200BE
:0211AE002BD83C
:1011B0004CD856D8D1800101010E2A1901E12B51DA
:1011C00007E1817AECEC06F001012A6B2B6B04003D
:1011D000F2D71200DACFE4FFE652F2A410D00101F8
:1011E000282B000E29231D0ED8802855000E2955C6
:1011F00005E2010E2A6F2B6B286B296BF294E552E6
:10120000E5CFDAFF11009268936894689568966854
:10121000F00EC1140D09C16EC198C19AC290B80EEA
:10122000C06EF00EBD140009BD6E6D966F86F19E06
:101230009268936A3F0E946E030E956E9668806A6C
:10124000816A826A836A846A1200D39ED388D38AB1
:10125000D38CD380D382E00E9B141F099B6E1200A7
:10126000D08EF28EF29CF28AF184D76AD66AD58E3D
:10127000D59CD59AD598D586D594D592D59012007F
:101280000E0EF66E000EF76E000EF86E01010900EC
:10129000F550236F0900F550246F03E1236701D057
:1012A0003DD00900F5501E6F0900F5501F6F090071
:1012B000F550206F09000900F550E96E0900F5505E
:1012C000EA6E090009000900F550216F0900F55088
:1012D000226F09000900F6CF25F1F7CF26F1F8CFEC
:1012E00027F11EC1F6FF1FC1F7FF20C1F8FF010162
:1012F000215302E1225307E00900F550EE6E210769
:10130000F8E22207F9D725C1F6FF26C1F7FF27C16A
:0E131000F8FF01012307000E245BBFD7120077
:02131E00000EBF
:10132000F36E00EE00F0080E01D81200EA6002D061
:0E133000EE6AFCD7F350E9601200EE6AFCD7BB
:02133E0013EEAC
:1013400000F023EE00F0F86A019C40EC09F003EC99
:0A13500000F0D7EC08F0FBD7120004
:06135A008150040B01E0CC
:10136000010E120001013051E8B08184E8A081949F
:02137000120069
:0E13720000000000007800000000000078007D
:10138000000000000078000000000000780000006D
:10139000000000780000000000007800000000005D
:1013A00000780000000000007800000000000078D5
:1013B000000000000000780000000000007800003D
:0D13C00000000000780000003C000001006B
:0313CD000000001D
:1013D000000000000000000000000000000000000D
:1013E00000000000000000000000000000000000FD
:0213F0000000FB
:0E13F20000000000003C780080510100000067
:101400000000003C78008051010000000000000056
:0114100000DB
:0414110000000000D7
:0B1415000000000000000000000000CC
:101420000000000000000000000000000000000AB2
:031430000058025F
:020000040030CA
:0100000021DE
:0100010008F6
:0100020006F7
:0100030012EA
:010005008179
:010006008178
:0100080000F7
:01000900C036
:01000A000FE6
:01000B00E014
:01000C000FE4
:01000D0040B2
:00000001FF
