:020000040000FA
:06000000D4EF01F0120034
:020006001200E6
:0600080023EF00F01200DE
:02000E000100EF
:0600180098EF00F0120059
:02001E000200DE
:10002000C4030000600000000E0000000E0000008D
:0800300078000000020000004E
:08003800E7D8FCD8FDD88C6A62
:100040008A68FFD71200DACFE4FFE2CFDAFFE65288
:10005000D9CFE6FFE1CFD9FF020EE126F2A45BD0B3
:100060008A688C6ADE6ADD6ADECF14F0DDCF15F0B7
:10007000D890155004E6050E145C000E155805E2E4
:10008000DF2A010E01E3DB2AEFD784700001605103
:10009000050A33E0010A29E0070A1FE0010A15E01A
:1000A000030A0BE0010A01E02FD0FD0E8A6E64C046
:1000B0008CFF0001010E606F2CD0FB0E8A6E65C0B4
:1000C0008CFF0001020E606F24D0F70E8A6E66C0AE
:1000D0008CFF0001030E606F1CD0EF0E8A6E67C0AC
:1000E0008CFF0001040E606F14D0DF0E8A6E68C0B2
:1000F0008CFF0001050E606F0CD0FE0E8A6E63C08F
:100100008CFF0001606B05D08A688C6A0001606B0F
:1001100000D0D66AF294020EE15C02E2E16AE55296
:10012000E16EE552E7CFD9FFE552E5CFDAFF1100E6
:10013000DACFE4FFE2CFDAFFE9CFE4FFEACFE4FF72
:10014000F6CFE4FFF7CFE4FFF5CFE4FFF3CFE4FF12
:10015000F4CFE4FFFACFE4FF00EE00F0140EE80461
:1001600003E3EECFE4FFFBD700EE16F0000EE80449
:1001700003E3EECFE4FFFBD7E6529EA021D08472CA
:100180008FEC01F0F3CF63F0070E0001635D000117
:10019000646F030E000163250001656F0B0E000103
:1001A000635D0001666F0E0E000163250001676F3D
:1001B000050E0001635D0001686FCF6ACE6A9E90F4
:1001C000E55200EE15F0000EE80403E3E5CFEDFF85
:1001D000FBD700EE13F0140EE80403E3E5CFEDFFC8
:1001E000FBD7E5CFFAFFE5CFF4FFE5CFF3FFE5CF8F
:1001F000F5FFE5CFF7FFE5CFF6FFE5CFEAFFE5CF67
:10020000E9FFE5CFDAFF110092689368946895687A
:100210009668C26A0F0EC16EC06A6F86F19E9268C0
:10022000936A9468956A966A806A816A826A836A28
:10023000846A1200D36A1200D08EF28EF28CF28A97
:10024000F184D76AD66AD58ED58CD59AD598D596AD
:10025000D594D592D5909D809F90CF6ACE6ACD944B
:10026000CD9ECD88CD8ACD96CD9CCD94CD92CD809E
:0202700012007A
:0E0272001E0EF66E000EF76E000EF86E000106
:100280000900F550736F0900F550746F03E173674F
:1002900001D03DD00900F5506E6F0900F5506F6F29
:1002A0000900F550706F09000900F550E96E09006A
:1002B000F550EA6E090009000900F550716F090058
:1002C000F550726F09000900F6CF75F0F7CF76F0A0
:1002D000F8CF77F06EC0F6FF6FC0F7FF70C0F8FF81
:1002E0000001715302E1725307E00900F550EE6E10
:1002F0007107F8E27207F9D775C0F6FF76C0F7FF0D
:1003000077C0F8FF00017307000E745BBFD71200BF
:10031000FE0EE3CF78F0FF0EE3CF79F0120079C044
:1003200009F078C008F0350E0D6E450E0E6EA6EC85
:1003300001F0062AE86A0722079E07C079F006C086
:0C03400078F078C0F3FF79C0F4FF1200E1
:04034C0008C012F0E3
:1003500008500D02F4CF07F0F3CF06F009500E025B
:10036000F4CF09F0F3CF08F00D02F3500726F45054
:100370000822E86A092212500E02F3500726F450B0
:080380000822E86A0922000CC2
:08038800000EF36E00EE00F020
:10039000080E01D81200EA6002D0EE6AFCD7F350D2
:0803A000E9601200EE6AFCD7CF
:0803A80013EE00F023EE00F05B
:1003B000F86A019C39EC01F003EC00F01CEC00F051
:0403C000FBD7120055
:0C03C4000000000000000000000102002A
:0203D00000002B
:020000040030CA
:0100000004FB
:010001000EF0
:0100020019E4
:010003001EDE
:010005008179
:010006008079
:010008000FE8
:01000900C036
:01000A000FE6
:01000B00E014
:01000C000FE4
:01000D0040B2
:00000001FF
