:040000008A11112828
:10000800FE00030EF8000408F9000A08FA0083123B
:1000180003137F08FB008A15AA2D8A111328703054
:10002800840076308A15E4238A11831320308400F3
:100038004C308A15E42383018A15542DDF29720375
:10004800031D5128013084008A110A238A11831262
:100058000313CC008A110A238A11CD008A11F524D2
:100068008A11013084008A110A238A11831203132A
:10007800D1008A110A238A11D2008A157B258A1198
:10008800F201013084008A110A238A1183120313B2
:10009800B8008A110A23B90008007403031D7F28D9
:1000A800013084008A110A238A1183120313CC00B9
:1000B8008A110A238A11CD008A11F5248A11013088
:1000C80084008A110A238A1183120313D1008A112A
:1000D8000A238A11D2008A157B258A11F40101307E
:1000E80084008A110A238A1183120313B8008A1123
:1000F8000A23B900080083120313071E9C28053041
:1001080084008A110A238A11D1008A110A238A11CC
:10011800D2008A157B258A11053084008A110A23AA
:100128008A1183120313B8008A110A23B900080040
:10013800871E0800013084008A110A238A11D10021
:100148008A110A238A11D2008A157B258A11013067
:1001580084008A110A238A1183120313B8008A11B2
:100168000A23B90008007203031DD828013084004F
:100178008A110A238A11CC008A110A238A11CD0018
:100188008A11F5248A11013084008A110A238A1100
:1001980083120313D1008A110A238A11D2008A1507
:1001A8007B258A11F201F8287403031D0429013004
:1001B80084008A110A238A11CC008A110A238A1121
:1001C800CD008A11F5248A11013084008A110A238E
:1001D8008A1183120313D1008A110A238A11D200CB
:1001E8008A157B258A11F401013084008A110A23BB
:1001F8008A1183120313B8008A110A238A11B900DD
:10020800871E2E29013084008A110A238A11CC0006
:100218008A110A238A11CD008A11F5248A11013026
:1002280084008A110A238A1183120313D1008A11C8
:100238000A238A11D2008A157B258A11013084008D
:100248008A110A238A1183120313B8008A110A2318
:10025800B9000800071A0800871A0800033084004C
:100268008A110A238A11D1008A110A238A11D2001D
:100278008A157B258A11033084008A110A238A1182
:1002880083120313B8008A110A23B9000800720305
:10029800031D6C29053084008A110A238A11CC00B9
:1002A8008A110A238A11CD008A11F5248A11053092
:1002B80084008A110A238A1183120313D1008A1138
:1002C8000A238A11D2008A157B258A11F2018C290A
:1002D8007403031D9829053084008A110A238A11A2
:1002E800CC008A110A238A11CD008A11F5248A11BB
:1002F800053084008A110A238A1183120313D1005E
:100308008A110A238A11D2008A157B258A11F401E1
:10031800053084008A110A238A1183120313B80056
:100328008A110A238A11B900071EC22905308400E0
:100338008A110A238A11CC008A110A238A11CD0056
:100348008A11F5248A11053084008A110A238A113A
:1003580083120313D1008A110A238A11D2008A1545
:100368007B258A11053084008A110A238A11831299
:100378000313B8008A110A23B9000800071A0800F5
:10038800871A0800033084008A110A238A11D100D1
:100398008A110A238A11D2008A157B258A11033013
:1003A80084008A110A238A1183120313B8008A1160
:1003B8000A23B9000800831203133908003A031905
:1003C800E629F1293808003A03192328013A0319C4
:1003D800B728033A03194B29F1290800E62A8312A2
:1003E80003133C03031D0A2A003021026430031959
:1003F8002002031C051F0A2A05190A2A0130B20027
:100408000030B30000308A1181258A11831203134A
:100418003C08031D1E2A0030210264300319200203
:10042800031C051B1E2A05191E2A051700308A11F0
:1004380081258A11003083120313210265300319C4
:100448002002031C2B2A01308A1181258A1183126C
:100458000313051D080002308A118125080085173D
:1004680001308A1506258A11FF30831203132F02E3
:10047800FB3003192E02031C432AAE01AF012E08DC
:10048800043EAC002F080318013E003EAD000230C8
:10049800B2000030B30008000030210265300319B3
:1004A8002002031C672A01308A1181258A118312D0
:1004B80003130513851300308A15062583120313C9
:1004C800B201B3010800051D792A02308A1181257D
:1004D8008A11831203130513851300308A15062524
:1004E80083120313B201B30108000330B2000030D5
:1004F800B30008002D082F02031D842A2C082E02A1
:10050800031C0800061501308A152D2504308312B6
:100518000313B2000030B30008003C08031D992AF9
:100528000530B2000030B300080000302102653009
:1005380003192002031CAB2A01308A11812583127A
:10054800031305130530B2000030B3000800051D81
:10055800080002308A118125831203130513053020
:10056800B2000030B3000800061100308A152D25AE
:100578008A11FF30831203132F02FB3003192E0256
:10058800031CC82AAE01AF012E08043EAC002F0898
:100598000318013E003EAD000630B2000030B30043
:1005A80008002D082F02031DDB2A2C082E02031C2D
:1005B8000800851300308A15062583120313B2013B
:1005C800B3010800831203133308003A0319ED2A14
:1005D800F92A32088400073004020318080008309A
:1005E8008A000310040D003E820008008B010B17DF
:1005F8008B170800FF2A0800FF1B0A2B83137F189C
:1006080083170008840A0319FF0A080003308A00C8
:100618000408840A820700340234003400340034A9
:100628000134003420342034203420342034203461
:100638002034203420342034203420342034203412
:1006480020342034203420342034203400344834FA
:100658006F347534733465345F34463461346E34C2
:100668002034533474346134743420344D342E348B
:1006780074346D3470340034563446344434203481
:100688004634613475346C34743420344F347534E2
:10069800743420344834693467346834213400347D
:1006A800463461346E3420344334743472346C34D8
:1006B800203453347434613472347434653464349B
:1006C80000344D346F3474346F34723420347434DD
:1006D8006F346F34203448344F34543421343A342E
:1006E80000345334573420347634653472347334D8
:1006F80069346F346E34203431342E34303400345D
:10070800423461347434683472346F346F346D3405
:100718002034463461346E343A34003450346F3403
:100728007734653472343A340034533474346F3463
:1007380070340034533474347234743400344F34A5
:100748004E34203400344D344934443400344F346A
:1007580046344634003448344734483400344C3442
:100768004F345734003443340034CE2B83120313F0
:10077800B601B701F501FD2B36083704031DCB2B55
:100788000130B6070318B70A0030B707FD2BF5018B
:10079800F50AFD2B03108312031305190314003007
:1007A80003180130CC00CD014D08003A0319DD2BA8
:1007B800FD2B4C08003A0319BA2B013A0319C02B38
:1007C800FD2BFD2B7103031DEB2BF201F20AA8018F
:1007D800A901F101262C28082904031DFA2B013050
:1007E800A8070318A90A0030A907262CF101F10A65
:1007F800262C031085190314003003180130CC008F
:10080800CD014D08003A03190A2C262C4C08003A51
:100818000319E62B013A0319EF2B262C262C00305E
:10082800051A013073060319412CF301F30A232C2E
:100838000030051A013073060319412CF301F40145
:10084800F40A412C7308003A0319132C013A0319CE
:100858001C2C412C412CB401B501BC010800340802
:100868003504031D3E2C0130B4070318B50A0030C7
:10087800B5070800BC01BC0A08000310851E031454
:10088800003003180130CC00CD014D08003A03199F
:100898004E2C562C4C08003A03192F2C013A0319F8
:1008A800332C562C08006C2C83120313B601B701A5
:1008B800F5019B2C36083704031D692C0130B60757
:1008C8000318B70A0030B7079B2CF501F50A9B2CD3
:1008D80003108312031305190314003003180130A1
:1008E800F600F7017708003A03197B2C9B2C760851
:1008F800003A0319582C013A03195E2C9B2C9B2CA7
:100908007103031D892CF201F20AA801A901F10162
:10091800C42C28082904031D982C0130A8070318A3
:10092800A90A0030A907C42CF101F10AC42C03104C
:1009380085190314003003180130F600F701770811
:10094800003A0319A82CC42C7608003A0319842C01
:10095800013A03198D2CC42CC42C0030051A01301F
:1009680073060319DF2CF301F30AC12C0030051AB2
:10097800013073060319DF2CF301F401F40ADF2CAC
:100988007308003A0319B12C013A0319BA2CDF2C69
:10099800DF2CB401B501BC01080034083504031D7F
:1009A800DC2C0130B4070318B50A0030B50708007D
:1009B800BC01BC0A08000310851E0314003003188C
:1009C8000130F600F7017708003A0319EC2CF42CF3
:1009D8007608003A0319CD2C013A0319D12CF42CCE
:1009E80008006E2D071E052D86158230CF00DD30DC
:1009F800CE00CE0BFD2CCF0BFD2C022D8312031342
:100A08008611871E142D06168230CF00DD30CE00E9
:100A1800CE0B0C2DCF0B0C2D112D831203130612A8
:100A28008230CF00DD30CE00CE0B182DCF0B182D25
:100A38001D2D0800871E2D2D06168230CF00DD30B3
:100A4800CE00CE0B252DCF0B252D2A2D8312031377
:100A58000612071A3C2D86158230CF00DD30CE00F5
:100A6800CE0B342DCF0B342D392D83120313861161
:100A78008230CF00DD30CE00CE0B402DCF0B402D85
:100A8800452D0800071E552D86158230CF00DD3014
:100A9800CE00CE0B4D2DCF0B4D2D522D83120313AF
:100AA8008611871A642D06168230CF00DD30CE00FD
:100AB800CE0B5C2DCF0B5C2D612D83120313061218
:100AC8008230CF00DD30CE00CE0B682DCF0B682DE5
:100AD8006D2D0800831203134D08003A0319752D74
:100AE800802D4C08003A0319F62C013A03191E2DE3
:100AF800033A0319462D802D080083120313EA00D8
:100B080054308A150A278A11831203136A08031DB1
:100B18009B2D0730CF008030D0008A15BC248A1165
:100B28008A15D5238A11003A03190800942D8312D7
:100B380003136A03031DE42D2108E4002008E300E1
:100B48000A30E5000030E60047308A15E1248A11B2
:100B5800563083120313CF008030D0008A15BC248E
:100B68008A118A15D5238A11003A031DB52D4730FD
:100B780083120313CF000030D0008A15BC248A11D9
:100B88008A15D5238A11003A031DC42DDF308A1532
:100B980080268A118A15D5238A11003A031DCE2D85
:100BA800A83083120313CF008030D0008A15BC24EC
:100BB8008A118A15D5238A11003A03190800DD2DF8
:100BC8000230831203136A06031D08003130CF0078
:100BD8008030D0008A15BC248A118A15D5238A1141
:100BE800003A03190800F12D831203131F19080096
:100BF8001E08A500831603131E0883120313A400FE
:100C08006430D2000030D3002508CD002408CC0081
:100C18003030CE000030CF008A1599248A11831213
:100C280003134C08633ED4004D080318013E003EF0
:100C3800D5008A1542268A11831203135308A70088
:100C48005208A60027082B06031D2C2E26082A0664
:100C580003196A2E2708AB002608AA002708E40013
:100C68002608E3000A30E5000030E6003F308A1528
:100C7800E1248A118312031326082704031D462E34
:100C8800BD015D2E003027020A3003192602031821
:100C9800502EBD01BD0A5D2E0030270264300319B5
:100CA80026020318592E02305A2E0330EA006A0829
:100CB800BD003D08EA006A08D1003F308A113E278E
:100CC800831203132708A1002608A0001F15080097
:100CD80083120313D100F030D00050088705F0309C
:100CE800D000500883160313870583120313BA0133
:100CF8008316031306108610F001831203130610DF
:100D080086108A11F4278A118A15A1278A118A1553
:100D1800D5238A11003A031D8B2E83120313510821
:100D28008A15C5268A118A15D5238A11003A031D0A
:100D3800972E08308A15C5268A118A15D5238A1157
:100D4800003A031DA12E8A15D9238A118A15F52385
:100D58008A118A15F5238A118A15F5238A118A15AD
:100D6800D5238A11003A031DB32E06308A15C526ED
:100D78008A118A15D5238A11003A031DBD2E0C301D
:100D88008A15C5268A118A15D5238A11003A031DAA
:100D9800C72E00308A150A278A118A15D5238A1189
:100DA800003A03190800D12E83120313E2005B08EE
:100DB800E0005A08DF005D08D3005C08D200600834
:100DC800D5005F08D4008A1542268A1183120313BE
:100DD8005308E0005208DF000130DE005E08E20739
:100DE8005F086004031DDF2E6208840083138001FE
:100DF8000130E2025D08CD005C08CC005B08CF0042
:100E08005A08CE008A150E268A11831203134C083D
:100E1800DE005E08E1005D08D3005C08D2005B08D4
:100E2800D5005A08D4008A1542268A118312031362
:100E38005308DB005208DA000A306102031C282F2D
:100E48000730DE005E08E1073030DE005E08E107AB
:100E58006108DE00620884005E08831380000130A8
:100E6800E2025A085B04031DFE2E0130DE005E0814
:100E7800E207080083120313D30023308A150A27D8
:100E88008A110230831203135106031D592F1A3099
:100E9800CF008030D0008A15BC248A118A15D5234A
:100EA8008A11003A03196B2F522F8312031351032F
:100EB800031D6B2F1930CF008030D0008A15BC2459
:100EC8008A118A15D5238A11003A031D652F8312CA
:100ED8000313BE013E0851060319892F3E08530724
:100EE800D20052088400831300088A1580268A11CC
:100EF8008A15D5238A11003A031D7C2F01308312ED
:100F08000313D2005208BE076E2FDF308A158026E1
:100F18008A118A15D5238A11003A031D8D2FA8300E
:100F280083120313CF008030D0008A15BC248A11A5
:100F38008A15D5238A11003A031908009C2F8312B9
:100F48000313071EC02F053084008A110A238A1153
:100F5800D1008A110A238A11D2008A157B258A11A9
:100F6800053084008A110A238A1183120313B800FA
:100F78008A110A23B9000800871EDB2F013084007C
:100F88008A110A238A11D1008A110A238A11D200F0
:100F98008A157B258A11013084008A110A238A1157
:100FA80083120313B8008A110A23B900080003301A
:100FB80084008A110A238A11D1008A110A238A110E
:100FC800D2008A157B258A11033084008A110A23EE
:100FD8008A1183120313B8008A110A23B900080082
:100FE800823083120313CD00DD30CC00CC0BFA2FF6
:100FF800CD0BFA2FFF2F08008A11F3298A11332A03
:101008008A11502A8A117E2A8A11912A8A11B82AAD
:041018008A11D52A3A
:1017AA008A15F5230030080001308A15C52608007D
:1017BA00FC30831603138F0570308F040800640011
:1017CA008001840A0406031900340406E52BF50196
:1017DA00F101F201F301F40183120313BC010800C1
:1017EA00033083120313CD009730CC00CC0BFB2BB4
:1017FA00CD0BFB2B002C0800CF308312031390056E
:10180A009011101190100C10831603130C148312EC
:10181A000313101408008A15DD238A158A151F245C
:10182A008A158A1501248A158A11FA228A158A15B7
:10183A00332408003F30831603138500C030860026
:10184A00FF308700831203138701860185018316FF
:10185A000313861283120313051308008316031356
:10186A009F171F139F121F121F08F0390D389F0070
:10187A001B08C73918389B003F30831203139F0592
:10188A00C7309F051F140800013083120313B007E5
:10189A000318B10A0030B107003031021E300319B3
:1018AA003002031C0800B001B1010130AE07031871
:1018BA00AF0A0030AF07080000308A150A278A15D8
:1018CA008A15D5238A15003A031D652C75308312B3
:1018DA000313CF008030D0008A15BC248A158A15DC
:1018EA00D5238A15003A03190800742C0030831294
:1018FA0003132102653003192002031C872C0513E8
:10190A0001308E2C05198C2C051302308E2C0517EC
:10191A0000308A1181258A1500308A1506258A1514
:10192A0000308A152D25080083120313D001D10136
:10193A004C1CA52C4E08D0070318D10A4F08D10712
:10194A0001300310CE0DCF0DFF3E031DA62C013032
:10195A000310CD0CCC0CFF3E031DAD2C4C084D04DE
:10196A00031D9D2C5108CD005008CC00080083129D
:10197A0003135008FF004F0884008A1100238A15B8
:10198A00003A031908008A15D5238A15003A031D5F
:10199A00C82C831203135008FF004F0884008A11D1
:1019AA0000238A158A1580268A15013083120313AB
:1019BA00CF070318D00ABC2C83120313E900690865
:1019CA00E7006708E800E41FFA2C2D30E7006908F1
:1019DA0084006708831380000130E7006708E9077D
:1019EA00E309E409E30A0319E40A6408DB0063086B
:1019FA00DA006608DD006508DC0069088A11D82665
:101A0A00080083120313D1001A308A150A278A158F
:101A1A008A15D5238A15003A031D0D2D8312031347
:101A2A005108031D1A2D9C30202D831203135103D4
:101A3A00031D262D9430CF008030D0008A15BC2497
:101A4A008A158A15D5238A15003A03190800262D06
:101A5A0083120313D1001E308A150A278A158A15A4
:101A6A00D5238A15003A031D342D8312031351031B
:101A7A00031D412D8F30472D831203135108031D77
:101A8A004D2D8A30CF008030D0008A15BC248A15AB
:101A9A008A15D5238A15003A031908004D2D8A158F
:101AAA0010248A158A15EC238A158A11B9238A15F6
:101ABA008A1553278A158A11F8258A158A157B24CF
:101ACA008A158A11A3278A158A11F2218A158A1181
:101ADA0022208A15831203133B03031D692D8A11E1
:101AEA00F8258A1583120313BB01692D11308A1553
:101AFA000A278A158A15D5238A15003A031D7F2DD0
:101B0A008312031351085204031D8D2DA4309D2DF9
:101B1A008312031351035204031D952D98309D2DF2
:101B2A0002308312031351065204031DA32DA03061
:101B3A00CF008030D0008A15BC248A158A15D52397
:101B4A008A15003A03190800A32D831603130C1CE7
:101B5A00CE2D831203130C1CCE2D0C108A11572480
:101B6A008A15013083120313A2070318A30A00304F
:101B7A00A307003023020A3003192202031CCB2DCB
:101B8A00A201A301BB01BB0A203086068A1549249B
:101B9A008A157B0883120313FF007A088A007908E2
:101BAA008400780E8300FE0E7E0E090040308A15EE
:101BBA000A278A158A15D5238A15003A031DDF2DAF
:101BCA001C3083120313CF008030D0008A15BC2446
:101BDA008A158A15D5238A15003A031DEE2D14306D
:101BEA008A150A278A158A15D5238A15003A031DEC
:101BFA00F82D833083120313CF008030D0008A156A
:101C0A00BC248A158A15D5238A15003A03190800B7
:101C1A00072E831203134C084D0403193D2ED101DC
:101C2A00D10ACD1B242E01300310CC0DCD0DFF3E61
:101C3A00031D192E0130D0005008D107162E4D0869
:101C4A004F02031D2A2E4C084E02031C322E4C084A
:101C5A00CE024D08031CCF03CF0201300310CD0C76
:101C6A00CC0CFF3E031D332E0130D102031D242E5E
:101C7A004F08CD004E08CC00080083120313D70189
:101C8A00D8015208530403197B2ED901D90AD31B50
:101C9A005A2E01300310D20DD30DFF3E031D4F2ED5
:101CAA000130D6005608D9074C2E01300310D70D43
:101CBA00D80DFF3E031D5B2E53085502031D672EE8
:101CCA0052085402031C702E5208D4025308031CF3
:101CDA00D503D502571401300310D30CD20CFF3EA2
:101CEA00031D712E0130D902031D5A2E5808D30044
:101CFA005708D200080083120313CE00F030CC003C
:101D0A004C08831603138705F03083120313CC00A3
:101D1A004C0887054E08CC0004300310CC0CFF3E5B
:101D2A00031D922E4C080F39CD004D088704061466
:101D3A00F0018A11FE228A158312031386148A116E
:101D4A00FE228A15831203138610F030CC004C0849
:101D5A0087054E080F39CC004C0887048A11FE22E9
:101D6A008A158312031386148A11FE22831203131F
:101D7A0086100F30CC004C08831603138704080022
:101D8A0083120313CE00F030CC004C0883160313E1
:101D9A008705F03083120313CC004C0887054E08E0
:101DAA00CC0004300310CC0CFF3E031DD72E4C0888
:101DBA000F39CD004D088704F00106108A11FE2262
:101DCA008A158312031386148A11FE228A15831236
:101DDA0003138610F030CC004C0887054E080F39E3
:101DEA00CC004C0887048A11FE228A158312031339
:101DFA0086148A11FE228312031386100F30CC0038
:101E0A004C08831603138704080083120313CF00B8
:101E1A00F030CC004C08831603138705F030831288
:101E2A000313CC004C08870580304F04CC000030E7
:101E3A00CD000430FF004D0DCD0CCC0CFF0B202F34
:101E4A004C080F39CE004E088704F00106108A119B
:101E5A00FE228A158312031386148A11FE228A151A
:101E6A00831203138610F030CC004C0887054F0804
:101E7A000F39CC004C0887048A11FE228A15831276
:101E8A00031386148A11FE228312031386100F305D
:101E9A00CC004C088316031387040800033083120E
:101EAA000313D4000830D3007830D200D20B5B2F52
:101EBA00D30B5B2FD40B5B2F28308A116C268A1523
:101ECA00453083120313CF008030D0008A15BC241A
:101EDA008A158A15D5238A15003A031D6E2F4030BC
:101EEA008A150A278A158A15D5238A15003A031DE9
:101EFA00782F663083120313CF008030D0008A1502
:101F0A00BC248A15293083120313D4009630D300D7
:101F1A00A630D200D20B8F2FD30B8F2FD40B8F2F3B
:101F2A008A15D9238A158A11F4278A158A156124F4
:101F3A008A158A15DB250800F03083120313CE00B8
:101F4A004E08831603138705F03083120313CE005D
:101F5A004E0887050330CE004E088704F0010610AC
:101F6A008A11FE228A158312031386148A11FE220D
:101F7A008A158312031386108A11F4278A158A1187
:101F8A00FE228A158312031386148A11FE228A15E9
:101F9A008312031386108A11F4278A158A11FE22E6
:101FAA008A158312031386148A11FE228A15831254
:101FBA00031386108A11F4278A15F030831203134B
:101FCA00CE004E08870587148A11FE228A158312CD
:101FDA00031386148A11FE228A15831203138610AC
:101FEA008A11F4270F3083120313CE004E0883168A
:061FFA0003138704080038
:04400E0038FEBCFFBD
:00000001FF
