:040000008A11112828
:10000800FE00030EF0000408F1000A08F200831253
:1000180003137F08F3008A1179298A1113288A119A
:10002800DF21F80083018A119029F6008312031357
:1000380087018316031387010610861006118312A1
:1000480003130610861006118A11C5218A11303053
:100058008A110C218A118A11C5218A1130308A111E
:100068000C218A118A11C5218A1130308A110C217C
:100078008A118A11C5218A118A1160218A11003AD0
:10008800031D40288A1160218A11003A031D462861
:1000980076088A110C218A118A1160218A11003A86
:1000A800031D502808308A110C218A118A116021F9
:1000B8008A11003A031D5A2801308A110C218A112D
:1000C8008A1160218A11003A031D642806308A11BA
:1000D8000C218A118A1160218A11003A031D6E28A9
:1000E8000C308A110C218A118A1160218A11003A78
:1000F800031D782880308A11EE208A118A11602128
:100108008A11003A03190800822838308A11192008
:100118008A1101308A1129218A118A1160218A11D4
:10012800003A031D912840308A11EE208A118A1165
:1001380060218A11003A031D9B2812308A11292157
:100148008A11153083120313A2004B30A100D1305D
:10015800A000A00BAD28A10BAD28A20BAD28000074
:100168008A1160218A11003A031DB42801308A11CE
:100178000C218A118A1160218A11003A031DBE28B8
:1001880080308A11EE20080000308A000408840AB2
:1001980082070034463461346E3420344334743476
:1001A80072346C342034533474346134723474349B
:1001B8006534643400345334573420347634653429
:1001C8007234733469346F346E34203431342E34DD
:1001D80030340034F500831603138701750880381E
:1001E800831203138700061086108A11D6218A11FC
:1001F8008312031306158A11D6218A118312031359
:1002080006118A11D621FF308316031387000800D0
:10021800F5008316031387017508831203138700FB
:10022800061086108A11D6218A1183120313061527
:100238008A11D6218A118312031306118A11D62135
:10024800FF308316031387000800F700770884003F
:100258008A11C8208A11003A031908008A116021FE
:100268008A11003A031D3229770884008A11C820B0
:100278008A118A1145218A110130F6007608F7079C
:100288002A29F500831603138701750883120313BF
:100298008700861406108A11D6218A118312031347
:1002A80006158A11D6218312031306118610FF3012
:1002B800831603138700080083120313061486109D
:1002C8008A11D6218A118312031306158A11D621A1
:1002D8008A1183120313871F75290611061001302E
:1002E80008000611061000300800831603130C1CC2
:1002F8008429831203130C1C84290C10F801F80AB2
:1003080073088312FF0072088A0071088400700E57
:100318008300FE0E7E0E09008A11AE218A118A1111
:1003280089208A117803031D9629F8012030831249
:100338000313860696293030831203139004901114
:10034800101190100C10831603130C14831203134E
:10035800101408008A11CF218A118A11BA218A1132
:100368008A119F218A118A11DB2108008316031341
:100378001F08F0390E389F00FF308500860187017D
:1003880008008230F500DD30F400F40BC929F50BC4
:10039800C929CE290800FC30831603138F05703055
:1003A8008F0408002130F400F40BD82908008B01D1
:0803B8000B178B17080001343C
:04400E0038FEBCFFBD
:00000001FF
