:040000008A11112828
:10000800FE00030EF0000408F1000A08F200831253
:1000180003137F08F3008A11612B8A1113288313B5
:100028003830840048308A11B62383018A111C288D
:100038008A118E238A118A11A6218A118312031329
:100048001F1D861E22281E08B900831603131E08CA
:1000580083120313B8006430A0000030A1003908EF
:10006800F5003808F4003030F6000030F7008A1147
:10007800B5228A117408633E83120313A20075081F
:100088000318013E003EA3008A11EF218A11831252
:1000980003132108BB002008BA003B08B2003A0845
:1000A800B1000A30B3000030B40040308A11902209
:1000B8008A11831203133A083B04031D6628BC0106
:1000C800BD017C2800303B020A3003193A020318AC
:1000D8006F280130792800303B02643003193A0256
:1000E80003187828023079280330BC000030BD009E
:1000F8003C083D04031D8B281F308A1111238A11E7
:100108008A1148238A11003A0319AE2884288312D9
:100118000313BE01BF013D083F06031D95283C0897
:100128003E060319AE283E08403E840083130008AB
:100138008A112D238A118A1148238A11003A031D36
:100148009F28013083120313BE070318BF0A00302B
:10015800BF078F288A1148238A11003A031DAE2849
:10016800DF308A112D238A118A1148238A11003A17
:10017800031DB82829308A1111238A118A114823AE
:100188008A11003A031DC22887308A11D6228A11A3
:10019800831203131F152228F60083120313870105
:1001A80083160313870106108610061183120313A2
:1001B8000610861006118A11AC238A1130308A1174
:1001C800F4228A118A11AC238A1130308A11F42260
:1001D8008A118A11AC238A1130308A11F4228A11CB
:1001E8008A11AC238A118A1148238A11003A031D07
:1001F800F7288A1148238A11003A031DFD2876083A
:100208008A11F4228A118A1148238A11003A031D9F
:10021800072908308A11F4228A118A1148238A1181
:10022800003A031D112901308A11F4228A118A111A
:1002380048238A11003A031D1B2906308A11F4222B
:100248008A118A1148238A11003A031D25290C3086
:100258008A11F4228A118A1148238A11003A031D4F
:100268002F2980308A11D6228A118A1148238A11AF
:10027800003A03190800392983120313B00029082A
:10028800AE002808AD002B08A1002A08A0002E08FF
:10029800A3002D08A2008A11EF218A1183120313EB
:1002A8002108AE002008AD000130AC002C08B007D2
:1002B8002D082E04031D472930088400831380016C
:1002C8000130B0022B08F5002A08F4002908F700CD
:1002D8002808F6008A112D228A1174088312031344
:1002E800AC002C08AF002B08A1002A08A0002908A0
:1002F800A3002808A2008A11EF218A118312031390
:100308002108A9002008A8000A302F02031C902900
:100318000730AC002C08AF073030AC002C08AF0712
:100328002F08AC00300884002C08831380000130AB
:10033800B00228082904031D66290130AC002C08E6
:10034800B007080038308A11D0208A1101308A118C
:1003580011238A118A1148238A11003A031DAE29F4
:1003680040308A11D6228A118A1148238A11003A0C
:10037800031DB82912308A1111238A1115308312EE
:100388000313A2004B30A100D130A000A00BCA2952
:10039800A10BCA29A20BCA2900008A1148238A1175
:1003A800003A031DD12901308A11F4228A118A11D9
:1003B80048238A11003A031DDB2980308A11D6228E
:1003C8008A118A1148238A11003A031DE529213030
:1003D8008A111123080083120313A501A60120081E
:1003E80021040319282AA701A70AA11B072A0130FB
:1003F8000310A00DA10DFF3E031DFC290130A40030
:100408002408A707F92901300310A50DA60DFF3E02
:10041800031D082A21082302031D142A200822028A
:10042800031C1D2A2008A2022108031CA303A302FF
:10043800251401300310A10CA00CFF3E031D1E2A39
:100448000130A702031D072A2608A1002508A000DD
:1004580008007408750403195A2AF901F90AF51BEA
:10046800412A01300310F40DF50DFF3E031D362A15
:100478000130F8007808F907332A75087702031D58
:10048800472A74087602031C4F2A7408F602750876
:10049800031CF703F70201300310F50CF40CFF3EC0
:1004A800031D502A0130F902031D412A7708F5007F
:1004B8007608F400080002308A000408840A8207DB
:1004C8000034463461346E34203443347434723426
:1004D8006C34203453347434613472347434653475
:1004E80064340034533457342034763465347234E9
:1004F800733469346F346E34203431342E343034EC
:100508000034543465346D34703420343D34203430
:10051800003443342034003483120313B7003708FF
:10052800B5003508B600B21FA92A2D30B500370826
:1005380084003508831380000130B5003508B707FB
:10054800B109B209B10A0319B20A3208A90031087F
:10055800A8003408AB003308AA0037088A114021E4
:100568000800F801F901741CBF2A7608F807031877
:10057800F90A7708F90701300310F60DF70DFF3E69
:10058800031DC02A01300310F50CF40CFF3E031DB7
:10059800C72A74087504031DB72A7908F500780876
:1005A800F4000800F50083160313870175088038E6
:1005B800831203138700061086108A11CC238A1130
:1005C8008312031306158A11CC238A11831203138D
:1005D80006118A11CC23FF30831603138700080005
:1005E800F500831603138701750883120313870028
:1005F800061086108A11CC238A118312031306155C
:100608008A11CC238A118312031306118A11CC2371
:10061800FF308316031387000800F700770884006B
:100628008A115F228A11003A031908008A114823A7
:100638008A11003A031D1A2B770884008A115F2259
:100648008A118A112D238A110130F6007608F707DE
:10065800122BF50083160313870175088312031301
:100668008700861406108A11CC238A11831203137B
:1006780006158A11CC238312031306118610FF3046
:1006880083160313870008008312031306148610C9
:100698008A11CC238A118312031306158A11CC23DD
:1006A8008A1183120313871F5D2B06110610013070
:1006B80008000611061000300800831603130C1CEE
:1006C8006C2B831203130C1C6C2B0C102030860629
:1006D80073088312FF0072088A0071088400700E84
:1006E8008300FE0E7E0E0900831603139F171F1347
:1006F8009F121F121F08F0390E389F0038309B04D4
:10070800831203131F083F3940389F00C7309F05E5
:100718001F1408008A11BE238A118A11C5238A1161
:100728008A119D238A118A11D1238A118A1178236B
:1007380008003030831203139004901110119010A8
:100748000C10831603130C148312031310140800DF
:100758008230F500DD30F400F40BB02BF50BB02B34
:10076800B52B080064008001840A040603190034CC
:100778000406B72BFC30831603138F0570308F04E3
:100788000800FF30831603138500860187010800DF
:100798002130F400F40BCE2B08008B010B178B17BC
:0207A800080047
:04400E0038FEBCFFBD
:00000001FF
