:020000040000FA
:0600000078EF14F012007D
:020006001200E6
:060008004AEF11F01200A6
:02000E000000F0
:080010000000000000000000E8
:06001800C6EF11F012001A
:02001E000600DA
:100020005E2A0000CA0000000A0000005C2A0000EE
:10003000FA010000020000000E000000C0000000F5
:100040000A0000006C29000000010000F000000020
:100050003C29000090000000300000000C29000046
:08006000600000003000000008
:08006800D9CFE6FFDACFE6FF75
:10007000E1CFD9FFE2CFDAFF0101FB6BFD0EDB50D0
:10008000050A01E1D7D0010A01E1ABD0070A01E17D
:1000900080D0010A56E0030A2BE0010A01E0F4D007
:1000A000FA6B080EFA5D17E2FAC1E6FFFA51050D88
:1000B000F3CFE9FFF4CFEAFF000EE926010EEA22B2
:1000C000EE52EF50070BE66EE6D8E552E55201011D
:1000D000FB27FA2BE6D7F80EE76EFB19E8AE02D045
:1000E000FB3503D0E750D880FB5501E3CAD0A0D040
:1000F000080EFA6F100EFA5D17E2FAC1E6FFFA5128
:10010000050DF3CFE9FFF4CFEAFF000EE926010E5B
:10011000EA22EE52EF50070BE66EBDD8E552E552EB
:100120000101FB27FA2BE6D7F80EE76EFB19E8AEC4
:1001300002D0FB3503D0E750D880FB5501E278D0E0
:10014000A0D0100EFA6F180EFA5D17E2FAC1E6FFA2
:10015000FA51050DF3CFE9FFF4CFEAFF000EE926CF
:10016000010EEA22EE52EF50070BE66E94D8E552EC
:10017000E5520101FB27FA2BE6D7F80EE76EFB19D3
:10018000E8AE02D0FB3503D0E750D880FB5550E3F2
:1001900078D0180EFA6F200EFA5D17E2FAC1E6FF6A
:1001A000FA51050DF3CFE9FFF4CFEAFF000EE9267F
:1001B000010EEA22EE52EF50070BE66E6CD8E552C4
:1001C000E5520101FB27FA2BE6D7F80EE76EFB1983
:1001D000E8AE02D0FB3503D0E750D880FB5528E3CA
:1001E00050D0200EFA6F280EFA5D17E2FAC1E6FF32
:1001F000FA51050DF3CFE9FFF4CFEAFF000EE9262F
:10020000010EEA22EE52EF50070BE66E44D8E5529B
:10021000E5520101FB27FA2BE6D7F80EE76EFB1932
:10022000E8AE02D0FB3503D0E750D880FB5529E279
:10023000FB6B2AD0280EFA6F300EFA5D17E2FAC176
:10024000E6FFFA51050DF3CFE9FFF4CFEAFF000E08
:10025000E926010EEA22EE52EF50070BE66E1BD89C
:10026000E552E5520101FB27FA2BE6D7F80EE76EBF
:10027000FB19E8AE02D0FB3503D0E750D880FB5520
:1002800002E3FB6901D0FB6BFB51E552E5CFDAFFDE
:10029000E7CFD9FF1200D9CFE6FFDACFE6FFE1CFF3
:1002A000D9FFE2CFDAFFFD0EDB50050A23E0010A99
:1002B0001CE0070A15E0010A0EE0030A07E0010A44
:1002C0001FE1FC0EDBCFE6FF21D819D0FC0EDBCFFF
:1002D000E6FF71D814D0FC0EDBCFE6FF88D80FD034
:1002E000FC0EDBCFE6FF54DA0AD0FC0EDBCFE6FFD4
:1002F0003BDB05D0FC0EDBCFE6FFF9EC05F0E55269
:10030000E552E5CFDAFFE7CFD9FF1200D9CFE6FFFC
:10031000DACFE6FFE1CFD9FFE2CFDAFFFD0EDB5007
:10032000050DF3CFE9FFF4CFEAFF000EE926010E39
:10033000EA22EF6AFD0EDB50050DF3CFE9FFF4CFA3
:10034000EAFF000EE926010EEA22020EE926000E5F
:10035000EA22EF6AFD0EDB50050DF3CFE9FFF4CF83
:10036000EAFF000EE926010EEA22EE52EE52EE52AC
:10037000F00EEF140009EF6EFD0EDB50050DF3CF0C
:10038000E9FFF4CFEAFF000EE926010EEA22040E8F
:10039000E926000EEA22EF6AFD0EDB50EA6A900FB2
:1003A000E96E000EEA22EF6AFF0EE552E5CFDAFFB2
:1003B000E7CFD9FF1200D9CFE6FFDACFE6FFE1CFD2
:1003C000D9FFE2CFDAFFFD0EDB50050DF3CFE9FFD9
:1003D000F4CFEAFF000EE926010EEA22010EEF6ECD
:1003E000FF0EE552E5CFDAFFE7CFD9FF1200D9CFF4
:1003F000E6FFDACFE6FFE1CFD9FFE2CFDAFFE65240
:10040000DF6AFD0EDB50050DF3CFE9FFF4CFEAFF05
:10041000000EE926010EEA22EE52EE52EE52EF50A5
:100420000F0B020A01E1AED0030A2FE0010A01E03E
:1004300044D1FD0EDB50050DF3CFE9FFF4CFEAFF09
:10044000000EE926010EEA22040EE926000EEA2239
:10045000EF6AFD0EDB50EA6A900FE96E000EEA22A9
:10046000EF6AFD0EDB50050DF3CFE9FFF4CFEAFF95
:10047000000EE926010EEA22EE52EE52EE52F00E86
:10048000EF140109EF6EDF6A2AD1FD0EDB50050D76
:10049000F3CFE9FFF4CFEAFF000EE926010EEA22CE
:1004A000040EE926000EEA22EF2AFD0EDB50EA6A6E
:1004B000900FE96E000EEA22EF507F0811E2FD0E68
:1004C000DB50050DF3CFE9FFF4CFEAFF000EE9267C
:1004D000010EEA22040EE926000EEA22010ED8D00F
:1004E000FD0EDB50050DF3CFE9FFF4CFEAFF000E60
:1004F000E926010EEA22040EE926000EEA22EFCFD9
:1005000002F0FD0EDB50050DF3CFE9FFF4CFEAFF5B
:10051000000EE926010EEA22020EE926000EEA226A
:10052000EF50D880025401E3C6D0FD0EDB50050D1C
:10053000F3CFE9FFF4CFEAFF000EE926010EEA222D
:10054000040EE926000EEA22EF6AFD0EDB50EA6A8D
:10055000900FE96E000EEA22EF50E824E66EFD0EE1
:10056000DB50EA6A900FE96E000EEA22E552E7508E
:10057000EF6EFD0EDB50EA6A900FE96E000EEA2284
:10058000EF802DD0FD0EDB50050DF3CFE9FFF4CF4A
:10059000EAFF000EE926010EEA22040EE926000E0B
:1005A000EA22EF2AFD0EDB50EA6A900FE96E000E98
:1005B000EA22EFCF02F0010E025C23E2FD0EDB50D7
:1005C000050DF3CFE9FFF4CFEAFF000EE926010E97
:1005D000EA22040EE926000EEA22010EEF6EFD0E5D
:1005E000DB50050DF3CFE9FFF4CFEAFF000EE9265B
:1005F000010EEA22EE52EE52EE52F00EEF14010915
:1006000059D0FD0EDB50050DF3CFE9FFF4CFEAFF23
:10061000000EE926010EEA22040EE926000EEA2267
:10062000EFCF02F0FD0EDB50050DF3CFE9FFF4CF65
:10063000EAFF000EE926010EEA22020EE926000E6C
:10064000EA22EF50D880025436E2FD0EDB50050D51
:10065000F3CFE9FFF4CFEAFF000EE926010EEA220C
:10066000040EE926000EEA22EF6AFD0EDB50EA6A6C
:10067000900FE96E000EEA22EF407F0BE66EFD0E52
:10068000DB50EA6A900FE96E000EEA22E552E7506D
:10069000EF6EFD0EDB50050DF3CFE9FFF4CFEAFF5F
:1006A000000EE926010EEA22EE52EE52EE52F00E54
:1006B000EF140209EF6EDF6812D0FD0EDB50050D5E
:1006C000F3CFE9FFF4CFEAFF000EE926010EEA229C
:1006D000EE52EE52EE52F00EEF140009EF6EFD0EE8
:1006E000DB50EA6A600FE96E000EEA22010EEF6E3F
:1006F0000001C605026EFD0EDB50EA6A600FE96E6E
:10070000000EEA22EF50025204E0E846FE0B020619
:10071000FCE1E66EFD0EDB50EA6A600FE96E000E4A
:10072000EA22E552E750EF6E0001C605036EFD0EAA
:10073000DB50EA6A600FE96E000EEA22EFCF02F0AA
:10074000FD0EDB50EA6A900FE96E000EEA22EF50D0
:10075000021403C0E7FFE75204E0E8427F0BE7061C
:10076000FCE1E66EFD0EDB50050DF3CFE9FFF4CFA3
:10077000EAFF000EE926010EEA22E552E750EF6E8D
:10078000DF50E552E552E5CFDAFFE7CFD9FF12009F
:10079000D9CFE6FFDACFE6FFE1CFD9FFE2CFDAFF2C
:1007A000E652DF6AFD0EDB50050DF3CFE9FFF4CF13
:1007B000EAFF000EE926010EEA22EE52EE52EE5258
:1007C000EF500F0B010A30E0010A01E09CD0FD0E52
:1007D000DB50050DF3CFE9FFF4CFEAFF000EE92669
:1007E000010EEA22040EE926000EEA22EF6AFD0E4F
:1007F000DB50EA6A900FE96E000EEA22010EEF6EFE
:10080000FD0EDB50050DF3CFE9FFF4CFEAFF000E3C
:10081000E926010EEA22EE52EE52EE52F00EEF14ED
:100820000109EF6EDF6A81D0FD0EDB50050DF3CFBD
:10083000E9FFF4CFEAFF000EE926010EEA22040EDA
:10084000E926000EEA22EF2AFD0EDB50050DF3CF5C
:10085000E9FFF4CFEAFF000EE926010EEA22040EBA
:10086000E926000EEA22EFCF02F0FD0EDB50050D67
:10087000F3CFE9FFF4CFEAFF000EE926010EEA22EA
:10088000020EE926000EEA22EF50D880025439E227
:10089000FD0EDB50050DF3CFE9FFF4CFEAFF000EAC
:1008A000E926010EEA22040EE926000EEA22EF6A8A
:1008B000FD0EDB50EA6A900FE96E000EEA22EF505F
:1008C00002E0000E01D0010EE66EFD0EDB50EA6A7A
:1008D000900FE96E000EEA22E552E750EF6EFD0E32
:1008E000DB50050DF3CFE9FFF4CFEAFF000EE92658
:1008F000010EEA22EE52EE52EE52F00EEF14010912
:10090000EF6EDF6812D0FD0EDB50050DF3CFE9FF6F
:10091000F4CFEAFF000EE926010EEA22EE52EE5273
:10092000EE52F00EEF140009EF6EFD0EDB50EA6A96
:10093000900FE96E000EEA22EF50E66EFD0EDB50DE
:10094000050DF3CFE9FFF4CFEAFF000EE926010E13
:10095000EA22E552E750EF6EDF50E552E552E5CF6F
:10096000DAFFE7CFD9FF1200D9CFE6FFDACFE6FFF3
:10097000E1CFD9FFE2CFDAFFE652DF6AFD0EDB50AE
:10098000050DF3CFE9FFF4CFEAFF000EE926010ED3
:10099000EA22EE52EE52EE52EF500F0B010A2FE018
:1009A000010A01E0BBD0FD0EDB50050DF3CFE9FFDE
:1009B000F4CFEAFF000EE926010EEA22040EE92632
:1009C000000EEA22EF6AFD0EDB50EA6A900FE96E34
:1009D000000EEA22EF6AFD0EDB50050DF3CFE9FFB2
:1009E000F4CFEAFF000EE926010EEA22EE52EE52A3
:1009F000EE52F00EEF140109EF6EDF6AA1D0FD0E8A
:100A0000DB50050DF3CFE9FFF4CFEAFF000EE92636
:100A1000010EEA22040EE926000EEA22EF2AFD0E5C
:100A2000DB50EA6A900FE96E000EEA22EF507F0871
:100A300011E2FD0EDB50050DF3CFE9FFF4CFEAFF25
:100A4000000EE926010EEA22040EE926000EEA2233
:100A5000EF6A50D0FD0EDB50050DF3CFE9FFF4CF68
:100A6000EAFF000EE926010EEA22040EE926000E36
:100A7000EA22EFCF02F0FD0EDB50050DF3CFE9FFC8
:100A8000F4CFEAFF000EE926010EEA22020EE92663
:100A9000000EEA22EF50D88002543EE2FD0EDB50F9
:100AA000050DF3CFE9FFF4CFEAFF000EE926010EB2
:100AB000EA22040EE926000EEA22EF6AFD0EDB5060
:100AC000EA6A900FE96E000EEA22EF50E824E66E23
:100AD000FD0EDB50EA6A900FE96E000EEA22E55245
:100AE000E750EF6EFD0EDB50EA6A900FE96E000EE4
:100AF000EA22EF80FD0EDB50050DF3CFE9FFF4CFC6
:100B0000EAFF000EE926010EEA22EE52EE52EE5204
:100B1000F00EEF140109EF6EDF6812D0FD0EDB500E
:100B2000050DF3CFE9FFF4CFEAFF000EE926010E31
:100B3000EA22EE52EE52EE52F00EEF140009EF6E82
:100B4000FD0EDB50EA6A600FE96E000EEA22010E2C
:100B5000EF6E0001C605026EFD0EDB50EA6A600F03
:100B6000E96E000EEA22EF50025204E0E846FE0B66
:100B70000206FCE1E66EFD0EDB50EA6A600FE96EEC
:100B8000000EEA22E552E750EF6E0001C605036E43
:100B9000FD0EDB50EA6A600FE96E000EEA22EFCF2D
:100BA00002F0FD0EDB50EA6A900FE96E000EEA22B9
:100BB000EF50021403C0E7FFE75204E0E8427F0B66
:100BC000E706FCE1E66EFD0EDB50050DF3CFE9FF15
:100BD000F4CFEAFF000EE926010EEA22E552E750C3
:100BE000EF6EDF50E552E552E5CFDAFFE7CFD9FFF0
:100BF0001200D9CFE6FFDACFE6FFE1CFD9FFE2CF8F
:100C0000DAFFE652DF6AFD0EDB50050DF3CFE9FF98
:100C1000F4CFEAFF000EE926010EEA22EE52EE5270
:100C2000EE52EF500F0B010A30E0010A01E0B6D09E
:100C3000FD0EDB50050DF3CFE9FFF4CFEAFF000E08
:100C4000E926010EEA22040EE926000EEA22EF6AE6
:100C5000FD0EDB50EA6A900FE96E000EEA227F0E6D
:100C6000EF6EFD0EDB50050DF3CFE9FFF4CFEAFF89
:100C7000000EE926010EEA22EE52EE52EE52F00E7E
:100C8000EF140109EF6EDF6A9BD0FD0EDB50050DFE
:100C9000F3CFE9FFF4CFEAFF000EE926010EEA22C6
:100CA000040EE926000EEA22EF2AFD0EDB50EA6A66
:100CB000900FE96E000EEA22EFCF02F0010E025C07
:100CC00011E2FD0EDB50050DF3CFE9FFF4CFEAFF93
:100CD000000EE926010EEA22040EE926000EEA22A1
:100CE000EF6A48D0FD0EDB50050DF3CFE9FFF4CFDE
:100CF000EAFF000EE926010EEA22040EE926000EA4
:100D0000EA22EFCF02F0FD0EDB50050DF3CFE9FF35
:100D1000F4CFEAFF000EE926010EEA22020EE926D0
:100D2000000EEA22EF50D880025436E2FD0EDB506E
:100D3000050DF3CFE9FFF4CFEAFF000EE926010E1F
:100D4000EA22040EE926000EEA22EF6AFD0EDB50CD
:100D5000EA6A900FE96E000EEA22EF407F0BE66E22
:100D6000FD0EDB50EA6A900FE96E000EEA22E552B2
:100D7000E750EF6EFD0EDB50050DF3CFE9FFF4CF2A
:100D8000EAFF000EE926010EEA22EE52EE52EE5282
:100D9000F00EEF140109EF6EDF6812D0FD0EDB508C
:100DA000050DF3CFE9FFF4CFEAFF000EE926010EAF
:100DB000EA22EE52EE52EE52F00EEF140009EF6E00
:100DC000FD0EDB50EA6A600FE96E000EEA22010EAA
:100DD000EF6E0001C605026EFD0EDB50EA6A600F81
:100DE000E96E000EEA22EF50025204E0E846FE0BE4
:100DF0000206FCE1E66EFD0EDB50EA6A600FE96E6A
:100E0000000EEA22E552E750EF6E0001C605036EC0
:100E1000FD0EDB50EA6A600FE96E000EEA22EFCFAA
:100E200002F0FD0EDB50EA6A900FE96E000EEA2236
:100E3000EF50021403C0E7FFE75204E0E8427F0BE3
:100E4000E706FCE1E66EFD0EDB50050DF3CFE9FF92
:100E5000F4CFEAFF000EE926010EEA22E552E75040
:100E6000EF6EDF50E552E552E5CFDAFFE7CFD9FF6D
:100E70001200D9CFE6FFDACFE6FFE1CFD9FFE2CF0C
:100E8000DAFFFD0EDB50050A01E14DD3010A01E155
:100E9000A4D2070A01E1FBD1010A01E152D1030A00
:100EA00001E1A9D0010A01E0EED3FD0EDB50EA6AB0
:100EB000C00FE96E000EEA22EF6AFD0EDB50EA6A0F
:100EC000C00FE96E000EEA22EF5001012311E66E19
:100ED000FD0EDB50EA6AC00FE96E000EEA22E55211
:100EE000E750EF6EFD0EDB50EA6AC00FE96E000EB0
:100EF000EA22EF50E8241E11E66EFD0EDB50EA6A8E
:100F0000C00FE96E000EEA22E552E750EF6EFD0ECB
:100F1000DB50EA6AC00FE96E000EEA22EF50E824C7
:100F20001911E66EFD0EDB50EA6AC00FE96E000E85
:100F3000EA22E552E750EF6EFD0EDB50EA6AC00F81
:100F4000E96E000EEA22EF50E8241411E66EFD0E61
:100F5000DB50EA6AC00FE96E000EEA22E552E75064
:100F6000EF6EFD0EDB50EA6AC00FE96E000EEA225A
:100F7000EF50E8240F11E66EFD0EDB50EA6AC00F59
:100F8000E96E000EEA22E552E750EF6EFD0EDB50EF
:100F9000EA6AC00FE96E000EEA22EF50E8240A1157
:100FA000E66EFD0EDB50EA6AC00FE96E000EEA2223
:100FB000E552E750EF6EFD0EDB50EA6AC00FE96EB6
:100FC000000EEA22EF50E8240511E66EFD0EDB501C
:100FD000EA6AC00FE96E000EEA22E552E750EF6EB2
:100FE000FD0EDB50EA6AC00FE96E000EEA22EF50F8
:100FF000E82400113DD3FD0EDB50EA6AC00FE96E14
:10100000000EEA22EF6AFD0EDB50EA6AC00FE96EBD
:10101000000EEA22EF5001014B11E66EFD0EDB508F
:10102000EA6AC00FE96E000EEA22E552E750EF6E61
:10103000FD0EDB50EA6AC00FE96E000EEA22EF50A7
:10104000E8244611E66EFD0EDB50EA6AC00FE96E39
:10105000000EEA22E552E750EF6EFD0EDB50EA6A21
:10106000C00FE96E000EEA22EF50E8244111E66E4F
:10107000FD0EDB50EA6AC00FE96E000EEA22E5526F
:10108000E750EF6EFD0EDB50EA6AC00FE96E000E0E
:10109000EA22EF50E8243C11E66EFD0EDB50EA6ACE
:1010A000C00FE96E000EEA22E552E750EF6EFD0E2A
:1010B000DB50EA6AC00FE96E000EEA22EF50E82426
:1010C0003711E66EFD0EDB50EA6AC00FE96E000EC6
:1010D000EA22E552E750EF6EFD0EDB50EA6AC00FE0
:1010E000E96E000EEA22EF50E8243211E66EFD0EA2
:1010F000DB50EA6AC00FE96E000EEA22E552E750C3
:10110000EF6EFD0EDB50EA6AC00FE96E000EEA22B8
:10111000EF50E8242D11E66EFD0EDB50EA6AC00F99
:10112000E96E000EEA22E552E750EF6EFD0EDB504D
:10113000EA6AC00FE96E000EEA22EF50E824281197
:1011400097D2FD0EDB50EA6AC00FE96E000EEA226C
:10115000EF6AFD0EDB50EA6AC00FE96E000EEA226C
:10116000EF5001017311E66EFD0EDB50EA6AC00F0D
:10117000E96E000EEA22E552E750EF6EFD0EDB50FD
:10118000EA6AC00FE96E000EEA22EF50E8246E1101
:10119000E66EFD0EDB50EA6AC00FE96E000EEA2231
:1011A000E552E750EF6EFD0EDB50EA6AC00FE96EC4
:1011B000000EEA22EF50E8246911E66EFD0EDB50C6
:1011C000EA6AC00FE96E000EEA22E552E750EF6EC0
:1011D000FD0EDB50EA6AC00FE96E000EEA22EF5006
:1011E000E8246411E66EFD0EDB50EA6AC00FE96E7A
:1011F000000EEA22E552E750EF6EFD0EDB50EA6A80
:10120000C00FE96E000EEA22EF50E8245F11E66E8F
:10121000FD0EDB50EA6AC00FE96E000EEA22E552CD
:10122000E750EF6EFD0EDB50EA6AC00FE96E000E6C
:10123000EA22EF50E8245A11E66EFD0EDB50EA6A0E
:10124000C00FE96E000EEA22E552E750EF6EFD0E88
:10125000DB50EA6AC00FE96E000EEA22EF50E82484
:101260005511E66EFD0EDB50EA6AC00FE96E000E06
:10127000EA22E552E750EF6EFD0EDB50EA6AC00F3E
:10128000E96E000EEA22EF50E8245011F1D1FD0E74
:10129000DB50EA6AC00FE96E000EEA22EF6AFD0E2B
:1012A000DB50EA6AC00FE96E000EEA22EF5001013E
:1012B0009B11E66EFD0EDB50EA6AC00FE96E000E70
:1012C000EA22E552E750EF6EFD0EDB50EA6AC00FEE
:1012D000E96E000EEA22EF50E8249611E66EFD0E4C
:1012E000DB50EA6AC00FE96E000EEA22E552E750D1
:1012F000EF6EFD0EDB50EA6AC00FE96E000EEA22C7
:10130000EF50E8249111E66EFD0EDB50EA6AC00F43
:10131000E96E000EEA22E552E750EF6EFD0EDB505B
:10132000EA6AC00FE96E000EEA22EF50E8248C1141
:10133000E66EFD0EDB50EA6AC00FE96E000EEA228F
:10134000E552E750EF6EFD0EDB50EA6AC00FE96E22
:10135000000EEA22EF50E8248711E66EFD0EDB5006
:10136000EA6AC00FE96E000EEA22E552E750EF6E1E
:10137000FD0EDB50EA6AC00FE96E000EEA22EF5064
:10138000E8248211E66EFD0EDB50EA6AC00FE96EBA
:10139000000EEA22E552E750EF6EFD0EDB50EA6ADE
:1013A000C00FE96E000EEA22EF50E8247D11E66ED0
:1013B000FD0EDB50EA6AC00FE96E000EEA22E5522C
:1013C000E750EF6EFD0EDB50EA6AC00FE96E000ECB
:1013D000EA22EF50E82478114BD1FD0EDB50EA6A87
:1013E000C00FE96E000EEA22EF6AFD0EDB50EA6ADA
:1013F000C00FE96E000EEA22EF500101C311E66E44
:10140000FD0EDB50EA6AC00FE96E000EEA22E552DB
:10141000E750EF6EFD0EDB50EA6AC00FE96E000E7A
:10142000EA22EF50E824BE11E66EFD0EDB50EA6AB8
:10143000C00FE96E000EEA22E552E750EF6EFD0E96
:10144000DB50EA6AC00FE96E000EEA22EF50E82492
:10145000B911E66EFD0EDB50EA6AC00FE96E000EB0
:10146000EA22E552E750EF6EFD0EDB50EA6AC00F4C
:10147000E96E000EEA22EF50E824B411E66EFD0E8C
:10148000DB50EA6AC00FE96E000EEA22E552E7502F
:10149000EF6EFD0EDB50EA6AC00FE96E000EEA2225
:1014A000EF50E824AF11E66EFD0EDB50EA6AC00F84
:1014B000E96E000EEA22E552E750EF6EFD0EDB50BA
:1014C000EA6AC00FE96E000EEA22EF50E824AA1182
:1014D000E66EFD0EDB50EA6AC00FE96E000EEA22EE
:1014E000E552E750EF6EFD0EDB50EA6AC00FE96E81
:1014F000000EEA22EF50E824A511E66EFD0EDB5047
:10150000EA6AC00FE96E000EEA22E552E750EF6E7C
:10151000FD0EDB50EA6AC00FE96E000EEA22EF50C2
:10152000E824A011A5D0FD0EDB50EA6AC00FE96ED9
:10153000000EEA22EF6AFD0EDB50EA6AC00FE96E88
:10154000000EEA22EF500101EB11E66EFD0EDB50BA
:10155000EA6AC00FE96E000EEA22E552E750EF6E2C
:10156000FD0EDB50EA6AC00FE96E000EEA22EF5072
:10157000E824E611E66EFD0EDB50EA6AC00FE96E64
:10158000000EEA22E552E750EF6EFD0EDB50EA6AEC
:10159000C00FE96E000EEA22EF50E824E111E66E7A
:1015A000FD0EDB50EA6AC00FE96E000EEA22E5523A
:1015B000E750EF6EFD0EDB50EA6AC00FE96E000ED9
:1015C000EA22EF50E824DC11E66EFD0EDB50EA6AF9
:1015D000C00FE96E000EEA22E552E750EF6EFD0EF5
:1015E000DB50EA6AC00FE96E000EEA22EF50E824F1
:1015F000D711E66EFD0EDB50EA6AC00FE96E000EF1
:10160000EA22E552E750EF6EFD0EDB50EA6AC00FAA
:10161000E96E000EEA22EF50E824D211E66EFD0ECC
:10162000DB50EA6AC00FE96E000EEA22E552E7508D
:10163000EF6EFD0EDB50EA6AC00FE96E000EEA2283
:10164000EF50E824CD11E66EFD0EDB50EA6AC00FC4
:10165000E96E000EEA22E552E750EF6EFD0EDB5018
:10166000EA6AC00FE96E000EEA22EF50E824C811C2
:10167000E66EFD0EDB50EA6AC00FE96E000EEA224C
:10168000E552E750EF6EE552E5CFDAFFE7CFD9FF3D
:02169000120046
:0E1692000228325000021D3250000225325054
:1016A000000215325000022B32500002013250006D
:1016B0000226325000022932500002173250000236
:1016C0002E325000022F325000021A325000020512
:1016D0003250000227325000022A325000021032EB
:1016E000500002073250000203325000022D3250E7
:1016F000000224325000021E32500002123250000A
:1017000002223250000229325000022C32500002D4
:101710001B325000022032500002213250000216CB
:1017200032500002133250000219325000021432BB
:1017300050000218325000021C3250000211325088
:1017400000021F32500002233250000408501E00D5
:101750000409501E00040A501E00040B501E000411
:101760000C501E00040D501E00040E501E00040FED
:10177000501E000E00000000070000FFFF0E0000DA
:101780000000080000000A0E000000000600000033
:10179000010E0000000009000064000E00000000BF
:1017A00001280005000129000500012A00050001AB
:1017B0002B000500012C000500012D000500012E65
:1017C000000500012F0005000118000500011900A7
:1017D0000500011A000500011B000500011C0005A1
:1017E00000011D000500011E000500011F0005008D
:1017F00001100005000111000500011200050001A3
:101800001300050001140005000115000500011674
:10181000000500011700050001080005000109008E
:101820000500010A000500010B000500010C000580
:1018300000010D000500010E000500010F0005006C
:101840000100000500010100050001020005000182
:101850000300050001040005000105000500010664
:1018600000050001070005000E00000000002F0029
:101870000500002E000500002D000500002C0005CD
:1018800000002B000500002A0005000029000500CB
:101890000028000500001F000500001E00050000D4
:1018A0001D000500001C000500001B000500001ABB
:1018B00000050000190005000018000500001700D1
:1018C00005000016000500001500050000140005C5
:1018D00000001300050000120005000011000500C3
:1018E0000010000500000F000500000E00050000BC
:1018F0000D000500000C000500000B000500000AAB
:1019000000050000090005000008000500000700B0
:1019100005000006000500000500050000040005A4
:1019200000000300050000020005000001000500A2
:1019300000000005000E000000000201320000025D
:1019400003320000020532000002073200000E00E0
:10195000000000000100000000030000000005007E
:10196000000000070005000E000000000108000054
:10197000000110000000011800000001200000001C
:1019800001210000000124000000012500000001E9
:10199000280005000E0000000000080000000010F4
:1019A00000000000180000000020000000002100DE
:1019B00000000024000000002500000000280000B6
:1019C000000E0000000001090000000111000000ED
:1019D000011900000001290005000E0000000000B0
:1019E000090000000011000000001900000000299B
:1019F0000000000E00000000010A000000011200BB
:101A00000000011A000000012A0005000E0000007D
:101A100000000A0000000012000000001A00000090
:101A2000002A0000000E00000000010B0000000171
:101A300013000000011B000000012B0005000E0038
:101A4000000000000B0000000013000000001B005D
:101A50000000002B0000000E00000000010C000040
:101A6000000114000000011C000000012200000021
:101A700001230000000126000000012700000001F2
:101A80002C0005000E00000000000C0000000014F7
:101A9000000000001C0000000022000000002300E5
:101AA000000000260000000027000000002C0000BD
:101AB000000E00000000010D0000000115000000F4
:101AC000011D000000012D0005000E0000000000B7
:101AD0000D0000000015000000001D000000002D9A
:101AE0000000000E00000000010E000000011600C2
:101AF0000000011E000000012E0005000E00000085
:101B000000000E0000000016000000001E00000093
:101B1000002E0000000E00000000010F0000000178
:101B200017000000011F000000012F0005000E003B
:101B3000000000000F0000000017000000001F0060
:101B40000000002F0000000E000000000228326498
:101B500000022B326400022E32640002293264003B
:101B6000022D326400022F326400022A3264000225
:101B70002C3264000E00000000030832000003094C
:101B8000190000030A320000030B190000030C3295
:101B90000000030D190000030E320000030F19C8E6
:101BA000000E000000000128000A000121000A00C8
:101BB0000125000A000118000A000111000A0001B5
:101BC00029000A000119000A000112000A00012A76
:101BD000000A00011A000A000113000A00012B008C
:101BE0000A00011B000A000114000A000126000A75
:101BF000000122000A00012C000A000123000A0053
:101C00000127000A00011C000A000115000A00015A
:101C10002D000A00011D000A000116000A00012E15
:101C2000000A00011E000A000117000A00012F002F
:101C30000A00011F000A000110000A000124000A26
:101C4000000120000A000E000000000028000A0029
:101C50000021000A000025000A000018000A000008
:101C600011000A000029000A000019000A000012F1
:101C7000000A00002A000A00001A000A00001300EF
:101C80000A00002B000A00001B000A000014000AD2
:101C9000000026000A000022000A00002C000A00B2
:101CA0000023000A000027000A00001C000A0000B0
:101CB00015000A00002D000A00001D000A00001691
:101CC000000A00002E000A00001E000A0000170093
:101CD0000A00002F000A00001F000A000010000A7E
:101CE000000024000A000020000A000E000000008E
:101CF00001010000000103000000010500000001D7
:101D00000700000001080000000109000000010AAE
:101D1000000000010B000000010C000000010D009C
:101D20000000010E000000010F000A000E0000007C
:101D3000000001000000000300000000050000009A
:101D4000000700000000080000000009000000007B
:101D50000A000000000B000000000C000000000D55
:101D6000000000000E000000000F0000000E000048
:101D7000000000000064000E00000000000000C829
:101D8000000E0000000000000064C80E000000000B
:101D9000000000C8C80E00000000000000FAFA0EA3
:041DA000000000003F
:0C1DA400D2C0F6FFD3C0F7FF010ED890AC
:101DB000F636F736E806FBE1000EF626240EF7228B
:101DC0000900F5CF02F00800F5CF03F00001021C76
:101DD00005E1031C03E10001D26BD36BD2C0F6FF17
:101DE000D3C0F7FF010ED890F636F736E806FBE1D0
:101DF000000EF626240EF7220900F5CFE6FF0800B4
:101E0000F5CFE6FF09D8E552E552FF0804E10001ED
:101E1000D22B000ED3231200D9CFE6FFDACFE6FF94
:101E2000E1CFD9FFE2CFDAFF0001D16BCA51020A3C
:101E300001E1AFD1030A0BE0010A01E0BCD1FC0EC5
:101E4000DBCFCDF0FD0EDBCFCEF0010EA0D1CDC0AB
:101E5000F6FFCEC0F7FF050EF702F3CFF7FFF6024D
:101E6000F3CFF6FFF450F726920EF626160EF72261
:101E70000800F5500F0B0F0A01E14BD1010A01E1F7
:101E800046D1070A01E140D1010A01E13AD10F0A26
:101E900001E134D1010A01E12ED1030A01E1C6D0EA
:101EA000010A01E19ED0070A01E176D0010A4FE064
:101EB000030A28E0010A01E02CD1CDC0F6FFCEC014
:101EC000F7FF050EF702F3CFF7FFF602F3CFF6FFA9
:101ED000F450F726920EF626160EF722F62A000E7A
:101EE000F7220800F5503F0B050DF3CFE9FFF4CFC3
:101EF000EAFF000EE926010EEA22EE52F80EEF1478
:101F00000009F7D0CDC0F6FFCEC0F7FF050EF702EF
:101F1000F3CFF7FFF602F3CFF6FFF450F726920E59
:101F2000F626160EF722F62A000EF7220800F550C4
:101F30003F0B050DF3CFE9FFF4CFEAFF000EE926D2
:101F4000010EEA22EE52F80EEF140109D2D0CDC0F4
:101F5000F6FFCEC0F7FF050EF702F3CFF7FFF6024C
:101F6000F3CFF6FFF450F726920EF626160EF72260
:101F7000F62A000EF7220800F5503F0B050DF3CFAF
:101F8000E9FFF4CFEAFF000EE926010EEA22EE5245
:101F9000F80EEF1402096ED0CDC0F6FFCEC0F7FFE9
:101FA000050EF702F3CFF7FFF602F3CFF6FFF4507A
:101FB000F726920EF626160EF722F62A000EF722C4
:101FC0000800F5503F0B050DF3CFE9FFF4CFEAFF12
:101FD000000EE926010EEA22EE52F80EEF14030974
:101FE00049D0CDC0F6FFCEC0F7FF050EF702F3CF04
:101FF000F7FFF602F3CFF6FFF450F726920EF6261F
:10200000160EF722F62A000EF7220800F5503F0BB5
:10201000050DF3CFE9FFF4CFEAFF000EE926010E2C
:10202000EA22EE52F80EEF14040924D0CDC0F6FFD8
:10203000CEC0F7FF050EF702F3CFF7FFF602F3CF9E
:10204000F6FFF450F726920EF626160EF722F62A21
:10205000000EF7220800F5503F0B050DF3CFE9FF06
:10206000F4CFEAFF000EE926010EEA22EE52F80E46
:10207000EF140509EF6ECDC0F6FFCEC0F7FF050ED9
:10208000F702F3CFF7FFF602F3CFF6FFF450F7268F
:10209000920EF626160EF722020EF626000EF722F4
:1020A0000800F550E66ECDC0F6FFCEC0F7FF050E76
:1020B000F702F3CFF7FFF602F3CFF6FFF450F7265F
:1020C000920EF626160EF722F62A000EF7220800C8
:1020D000F5503F0B050DF3CFE9FFF4CFEAFF000EFB
:1020E000E926010EEA22020EE926000EEA22E55256
:1020F000E750EF6E0ED037EC13F00BD0AEEC12F0D1
:1021000008D05DEC13F005D083EC13F002D0D16958
:10211000CA6B0001D1514FE1CF6BD06BCDC0F6FF40
:10212000CEC0F7FF050EF702F3CFF7FFF602F3CFAD
:10213000F6FFF450F726920EF626160EF722030E3F
:10214000F626000EF7220800F550036AE850CF2764
:102150000350D023CDC0F6FFCEC0F7FF050EF70227
:10216000F3CFF7FFF602F3CFF6FFF450F726920E07
:10217000F626160EF722040EF626000EF7220800A9
:10218000F550036AE850CF270350D023020ECA6FE0
:1021900012D0FF0ED15D0FE0CFC0E6FFD0C0E6FF4A
:1021A00011D8E552E552FF0803E10001010E02D00B
:1021B0000001020ECA6FD151E552E5CFDAFFE7CF39
:1021C000D9FF1200D9CFE6FFDACFE6FFE1CFD9FF82
:1021D000E2CFDAFFE652DF6A0001CB2B000ECC2300
:1021E000FC0EDBCF02F0FD0EDBCF03F0050ED89026
:1021F00002360336E806FBE10001CB51025CCC510C
:10220000035806E2CD2B000ECE23CB6BCC6BDF68E0
:10221000DF50E552E552E5CFDAFFE7CFD9FF1200F4
:10222000B8D8CFD8D0D88C6AFC0E8A6E030E8B6ECD
:102230000001C9052DE18D84C7C0E6FF34EC00F034
:10224000E552FF0809E1C7C0E6FF39EC07F0E552A7
:10225000D2EC0EF00001C96B0F0E8014070A12E0D9
:102260000C0A0CE0060A06E0030A01E00FD00001A8
:10227000C86B0CD00001010EC86F08D00001020E1F
:10228000C86F04D00001030EC86F00D08D94040005
:10229000CFD71200E9CFE4FFEACFE4FFE652D9CF6F
:1022A000E6FFDACFE6FFE1CFD9FFE2CFDAFFE65271
:1022B000E652DE6ADD6AF2A43FD08D80CD90000147
:1022C000C751050A26E0010A1DE0070A15E0010AC8
:1022D0000EE0030A06E0010A21E1FC0E8A6E010EFF
:1022E00009D0F80E8A6E030E8B6E020E10D0F40E1B
:1022F0008A6E030E8B6E0BD0EC0E8A6E030E8B6E05
:10230000040E05D0DC0E8A6E030E8B6E050EC76FB1
:102310000BD0FC0E8A6E020E8B6E05D0FC0E8A6E00
:10232000030E8B6E8C6AC76B7E0ED66EF294C66BF4
:10233000CF68CE68CD808D909EA01BD08D9200017D
:10234000C651070805E2C66BCD908D928C6A10D0FD
:10235000C751EA6AC00FE96E000EEA22EF508C6E98
:10236000C62B8D82010EC96FCD80FE0ECF6ECE6A58
:102370009E90E552E552E552E5CFDAFFE7CFD9FF6F
:10238000E552E5CFEAFFE5CFE9FF1100E652E5525D
:10239000110092689368946895689668C26A0F0EF7
:1023A000C16EC06A6F86F19EDF0E926E936AFC0E5C
:1023B000946E956A966A806A816A826A836A846A80
:1023C0001200D36A1200D08EF28EF29CF28AF1844F
:1023D000D76AD66AD58ED58CD59AD598D596D58418
:1023E000D582D5809D809F80CF6ACE6ACD94CD9EC8
:1023F000CD88CD8ACD96CD9CCD94CD92CD90120036
:10240000320000002E0068013200040125010401A1
:102410002501F20064013200340060013200360010
:102420005F0036005F0036005F00600188006801D1
:10243000320092009B00A400A900AE00B300B800D7
:10244000BD00C200CB00D400D900DE00E300E800EC
:10245000ED0092009B00A400A900AE00B300B800FC
:10246000BD00C200CB00D400D900DE00E300E800CC
:10247000ED0092009B00A400A900AE00B300B800DC
:10248000BD00C200CB00D400D900DE00E300E800AC
:10249000ED0092009B00A400A900AE00B300B800BC
:1024A000BD00C200CB00D400D900DE00E300E8008C
:1024B000ED009200A400AE00B800C200D400DE001F
:1024C000E80060013200E800ED00DE00E300D40027
:1024D000D900C200CB00B800BD00AE00B300A4001C
:1024E000A90092009B00E800ED00DE00E300D400AC
:1024F000D900C200CB00B800BD00AE00B300A400FC
:10250000A90092009B00E800ED00DE00E300D4008B
:10251000D900C200CB00B800BD00AE00B300A400DB
:10252000A90092009B00E800ED00DE00E300D4006B
:10253000D900C200CB00B800BD00AE00B300A400BB
:10254000A90092009B00E800DE00D400C200B800A1
:0C255000AE00A400920060013200FFFF0A
:04255C00D9CFE6FFEE
:10256000DACFE6FFE1CFD9FFE2CFDAFFE652DF6A4A
:10257000DF6A300EDF5C74E2DF50050DF3CFE9FF58
:10258000F4CFEAFF000EE926010EEA22EE52F80E21
:10259000EF140209EF6EDF50F76A720FF66E270E26
:1025A000F7220800F550E66EDF50050DF3CFE9FF86
:1025B000F4CFEAFF000EE926010EEA22020EE92618
:1025C000000EEA22E552E750EF6EDF50F76A020F85
:1025D000F66E280EF7220800F550026EDF50050D4A
:1025E000F3CFE9FFF4CFEAFF000EE926010EEA225D
:1025F000EE52EE52EE5202500F0BF36EF00EEF144D
:10260000F310EF6EDF50F76AA20FF66E270EF72277
:102610000800F550E66EDF50EA6A900FE96E000E92
:10262000EA22E552E750EF6EDF50F76AD20FF66EFE
:10263000270EF7220800F550E66EDF50050DF3CFA8
:10264000E9FFF4CFEAFF000EE926010EEA22040EAC
:10265000E926000EEA22E552E750EF6EDF2A89D71D
:0E266000E552E552E5CFDAFFE7CFD9FF1200D1
:02266E00D9CFC2
:10267000E6FFDACFE6FFE1CFD9FFE2CFDAFFE6529D
:10268000DF6ADF6A300EDF5C11E2DF50050DF3CF49
:10269000E9FFF4CFEAFF000EE926010EEA22EE522E
:1026A000F80EEF140009EF6EDF2AECD7E552E55281
:1026B000E5CFDAFFE7CFD9FF1200D9CFE6FFDACFB7
:1026C000E6FFE1CFD9FFE2CFDAFFE652DF6ADF6A49
:1026D000300EDF5C11E2DF50050DF3CFE9FFF4CFE0
:1026E000EAFF000EE926010EEA22EE52F80EEF1480
:1026F0000109EF6EDF2AECD7E552E552E5CFDAFFAC
:10270000E7CFD9FF1200D9CFE6FFDACFE6FFE1CF5E
:10271000D9FFE2CFDAFFE652DF6ADF6A300EDF5C14
:1027200021E2DF50050DF3CFE9FFF4CFEAFF000E01
:10273000E926010EEA22EE52F80EEF140209EF6EBE
:10274000DF50050DF3CFE9FFF4CFEAFF000EE926D5
:10275000010EEA22020EE926000EEA22320EEF6E88
:10276000DF2ADCD7E552E552E5CFDAFFE7CFD9FF24
:02277000120055
:0E27720014212F1B190519270F0F0F0F0F0F22
:102780000F0F211914052F1B271919272F191405AD
:102790001B212F141B21051927192719051B192F78
:1027A00021140000000000000000FF3F0F03FF3F66
:1027B0000F03000000000000000000000000000007
:1027C0000000000000000000000000000000000009
:1027D00000000000000000000000000000000000F9
:1027E00000000000000000000000000000000000E9
:1027F00000000000000000000000000000000000D9
:1028000000000000000000000000010101010101C2
:1028100001010000000000000000000000000000B6
:1028200000000000000000000000000000000000A8
:022830000000A6
:0E2832001E0EF66E000EF76E000EF86E01011F
:102840000900F550F56F0900F550F66F03E1F567E3
:1028500001D03DD00900F550F06F0900F550F16F3F
:102860000900F550F26F09000900F550E96E090002
:10287000F550EA6E090009000900F550F36F0900F0
:10288000F550F46F09000900F6CFF7F1F7CFF8F132
:10289000F8CFF9F1F0C1F6FFF1C1F7FFF2C1F8FF8F
:1028A0000101F35302E1F45307E00900F550EE6E25
:1028B000F307F8E2F407F9D7F7C1F6FFF8C1F7FF1D
:1028C000F9C1F8FF0101F507000EF65BBFD7120052
:1028D000000EF36E00EE00F0040E01D81200EA6064
:1028E00002D0EE6AFCD7F350E9601200EE6AFCD722
:1028F00013EE00F023EE00F0F86A019C19EC14F0DE
:0C29000003EC00F010EC11F0FBD712000B
:04290C0000000000C7
:1029100000000000000000000000000000000000B7
:1029200000000000000000000000000000000000A7
:0C2930000000000000000000000000009B
:04293C000000000097
:102940000000000000000000000000000000000087
:102950000000000000000000000000000000000077
:0C2960000000000000000000000000006B
:04296C000000000067
:102970000000000000000000000000000000000057
:102980000000000000000000000000000000000047
:102990000000000000000000000000000000000037
:1029A0000000000000000000000000000000000027
:1029B0000000000000000000000000000000000017
:1029C0000000000000000000000000000000000007
:1029D00000000000000000000000000000000000F7
:1029E00000000000000000000000000000000000E7
:1029F00000000000000000000000000000000000D7
:102A000000000000000000000000000000000000C6
:102A100000000000000000000000000000000000B6
:102A200000000000000000000000000000000000A6
:102A30000000000000000000000000000000000096
:102A40000000000000000000000000000000000086
:0C2A50000000000000000000000000007A
:022A5C00000078
:022A5E00000076
:082A600000FFFF000000000070
:020000040030CA
:0100000004FB
:010001000EF0
:0100020006F7
:0100030011EB
:010005008179
:010006008079
:010008000FE8
:01000900C036
:01000A000FE6
:01000B00E014
:01000C000FE4
:01000D0040B2
:00000001FF
